:020000040800F2
:108000000000012095550108F1BF0008F9BF0008E4
:10801000FDBF000801C0000805C000080000000006
:1080200000000000000000000000000009C000087F
:108030000DC000080000000011C0000815C00008B5
:10804000E5550108E555010819C00008E555010886
:10805000E555010825C00008E5550108E55501086A
:10806000E5550108E5550108E5550108E555010804
:10807000E5550108E5550108E5550108E5550108F4
:10808000E5550108E555010829C000080000000079
:10809000000000000000000000000000E55501089D
:1080A00035C0000841C000085DC00008E555010862
:1080B000E555010869C0000875C00008E5550108CC
:1080C000E5550108E5550108E555010881C000089E
:1080D000E55501088DC00008E555010800000000C5
:1080E000E555010899C00008E555010800000000A9
:1080F000000000000000000000000000E55501083D
:1081000000000000A5C00008B1C00008E555010846
:10811000000000000000000000000000000000005F
:10812000E5550108BDC00008C9C00008D5C0000859
:10813000E1C0000800000000000000000000000096
:10814000000000000000000000000000EDC000087A
:10815000E5550108F9C0000805C1000811C1000873
:10816000E5550108E5550108000000000000000089
:1081700000000000000000000000000000000000FF
:10818000000000001DC10008000000000000000009
:04819000E5550108A8
:1081A00081F0004102E000BF83F0004330B54FEAA8
:1081B00041044FEA430594EA050F08BF90EA020F15
:1081C0001FBF54EA000C55EA020C7FEA645C7FEAA8
:1081D000655C00F0E2804FEA5454D4EB5555B8BFCB
:1081E0006D420CDD2C4480EA020281EA030382EA3C
:1081F000000083EA010180EA020281EA0303362DCE
:1082000088BF30BD11F0004F4FEA01314FF4801CA0
:108210004CEA113102D0404261EB410113F0004FB2
:108220004FEA03334CEA133302D0524263EB430369
:1082300094EA050F00F0A780A4F10104D5F1200E07
:108240000DDB02FA0EFC22FA05F2801841F1000162
:1082500003FA0EF2801843FA05F359410EE0A5F136
:1082600020050EF1200E012A03FA0EFC28BF4CF067
:10827000020C43FA05F3C01851EBE37101F000451D
:1082800007D54FF0000EDCF1000C7EEB00006EEB2A
:108290000101B1F5801F1BD3B1F5001F0CD34908B4
:1082A0005FEA30004FEA3C0C04F101044FEA44520B
:1082B00012F5800F80F09A80BCF1004F08BF5FEA92
:1082C000500C50F1000041EB045141EA050130BD72
:1082D0005FEA4C0C404141EB0101013C28BFB1F584
:1082E000801FE9D291F0000F04BF01460020B1FACF
:1082F00081F308BF2033A3F10B03B3F120020CDAA2
:108300000C3208DD02F1140CC2F10C0201FA0CF07F
:1083100021FA02F10CE002F11402D8BFC2F1200CE4
:1083200001FA02F120FA0CFCDCBF41EA0C0190409A
:10833000E41AA2BF01EB0451294330BD6FEA0404E3
:108340001F3C1CDA0C340EDC04F11404C4F12002CE
:1083500020FA04F001FA02F340EA030021FA04F3E0
:1083600045EA030130BDC4F10C04C4F1200220FA37
:1083700002F001FA04F340EA0300294630BD21FA75
:1083800004F0294630BD94F0000F83F4801306BF3B
:1083900081F480110134013D4EE77FEA645C18BF2F
:1083A0007FEA655C29D094EA050F08BF90EA020FC6
:1083B00005D054EA000C04BF1946104630BD91EABE
:1083C000030F1EBF0021002030BD5FEA545C05D1C1
:1083D0004000494128BF41F0004130BD14F5800400
:1083E0003CBF01F5801130BD01F0004545F0FE4174
:1083F00041F470014FF0000030BD7FEA645C1ABFA9
:10840000194610467FEA655C1CBF0B46024650EADF
:10841000013406BF52EA033591EA030F41F400210B
:1084200030BD00BF90F0000F04BF0021704730B591
:108430004FF4806404F132044FF000054FF0000166
:1084400050E700BF90F0000F04BF0021704730B527
:108450004FF4806404F1320410F0004548BF4042FC
:108460004FF000013EE700BF42004FEAE2014FEA51
:1084700031014FEA02701FBF12F07F4393F07F4F2C
:1084800081F06051704732F07F4208BF704793F02F
:108490007F4F04BF41F40021704730B54FF4607442
:1084A00001F0004521F000411CE700BF50EA010245
:1084B00008BF704730B54FF000050AE050EA0102EE
:1084C00008BF704730B511F0004502D5404261EB5E
:1084D00041014FF4806404F132045FEA915C3FF49F
:1084E000D8AE4FF003025FEADC0C18BF03325FEA3C
:1084F000DC0C18BF033202EBDC02C2F1200300FAED
:1085000003FC20FA02F001FA03FE40EA0E0021FA11
:1085100002F11444BDE600BF70B54FF0FF0C4CF4FF
:10852000E06C1CEA11541DBF1CEA135594EA0C0FB1
:1085300095EA0C0F00F0DEF82C4481EA030621EAEC
:108540004C5123EA4C5350EA013518BF52EA033527
:1085500041F4801143F4801338D0A0FB02CE4FF0D9
:108560000005E1FB02E506F00042E0FB03E54FF009
:108570000006E1FB03569CF0000F18BF4EF0010E01
:10858000A4F1FF04B6F5007F64F5407404D25FEAFD
:108590004E0E6D4146EB060642EAC62141EA5551B0
:1085A0004FEAC52040EA5E504FEACE2EB4F1FD0CF2
:1085B00088BFBCF5E06F1ED8BEF1004F08BF5FEA70
:1085C000500E50F1000041EB045170BD06F0004622
:1085D00046EA010140EA020081EA0301B4EB5C04CF
:1085E000C2BFD4EB0C0541EA045170BD41F48011C7
:1085F0004FF0000E013C00F3AB8014F1360FDEBFEC
:10860000002001F0004170BDC4F10004203C35DAC7
:108610000C341BDC04F11404C4F1200500FA05F34A
:1086200020FA04F001FA05F240EA020001F00042EB
:1086300021F0004110EBD37021FA04F642EB060161
:108640005EEA430E08BF20EAD37070BDC4F10C048B
:10865000C4F1200500FA04F320FA05F001FA04F24F
:1086600040EA020001F0004110EBD37041F100013B
:108670005EEA430E08BF20EAD37070BDC4F1200546
:1086800000FA05F24EEA020E20FA04F301FA05F2AE
:1086900043EA020321FA04F001F0004121FA04F256
:1086A00020EA020000EBD3705EEA430E08BF20EA26
:1086B000D37070BD94F0000F0FD101F00046400060
:1086C00041EB010111F4801F08BF013CF7D041EAE2
:1086D000060195F0000F18BF704703F000465200E6
:1086E00043EB030313F4801F08BF013DF7D043EAB7
:1086F0000603704794EA0C0F0CEA135518BF95EA6D
:108700000C0F0CD050EA410618BF52EA4306D1D1F3
:1087100081EA030101F000414FF0000070BD50EA12
:10872000410606BF1046194652EA430619D094EA9C
:108730000C0F02D150EA013613D195EA0C0F05D186
:1087400052EA03361CBF104619460AD181EA0301DA
:1087500001F0004141F0FE4141F470014FF0000092
:1087600070BD41F0FE4141F4780170BD70B54FF02D
:10877000FF0C4CF4E06C1CEA11541DBF1CEA1355AD
:1087800094EA0C0F95EA0C0F00F0A7F8A4EB05048F
:1087900081EA030E52EA03354FEA013100F0888086
:1087A0004FEA03334FF0805545EA131343EA12634F
:1087B0004FEA022245EA111545EA10654FEA002604
:1087C0000EF000419D4208BF964244F1FD0404F5BD
:1087D000407402D25B084FEA3202B61A65EB030519
:1087E0005B084FEA32024FF480104FF4002CB6EBD6
:1087F000020E75EB030E22BFB61A754640EA0C0056
:108800005B084FEA3202B6EB020E75EB030E22BF95
:10881000B61A754640EA5C005B084FEA3202B6EBD6
:10882000020E75EB030E22BFB61A754640EA9C0095
:108830005B084FEA3202B6EB020E75EB030E22BF65
:10884000B61A754640EADC0055EA060E18D04FEA23
:10885000051545EA16754FEA06164FEAC30343EAC3
:1088600052734FEAC2025FEA1C1CC0D111F4801F90
:108870000BD141EA00014FF000004FF0004CB6E789
:1088800011F4801F04BF01430020B4F1FD0C88BF28
:10889000BCF5E06F3FF6AFAEB5EB030C04BFB6EB33
:1088A000020C5FEA500C50F1000041EB045170BD26
:1088B0000EF0004E4EEA113114EB5C04C2BFD4EB53
:1088C0000C0541EA045170BD41F480114FF0000ED7
:1088D000013C90E645EA060E8DE60CEA135594EA53
:1088E0000C0F08BF95EA0C0F3FF43BAF94EA0C0F56
:1088F0000AD150EA01347FF434AF95EA0C0F7FF4CB
:1089000025AF104619462CE795EA0C0F06D152EA1E
:1089100003353FF4FDAE1046194622E750EA410602
:1089200018BF52EA43067FF4C5AE50EA41047FF413
:108930000DAF52EA43057FF4EBAE12E74FF0FF3C78
:1089400006E000BF4FF0010C02E000BF4FF0010C49
:108950004DF804CD4FEA410C7FEA6C5C4FEA430CC2
:1089600018BF7FEA6C5C1BD001B050EA410C0CBF11
:1089700052EA430C91EA030F02BF90EA020F002073
:10898000704710F1000F91EA030F58BF994208BFDA
:1089900090422CBFD8176FEAE37040F00100704797
:1089A0004FEA410C7FEA6C5C02D150EA013C07D1EE
:1089B0004FEA430C7FEA6C5CD6D152EA033CD3D039
:1089C0005DF8040B704700BF8446104662468C4633
:1089D0001946634600E000BF01B5FFF7B7FF002866
:1089E00048BF10F1000F01BD4DF808EDFFF7F4FF8F
:1089F0000CBF012000205DF808FB00BF4DF808ED1A
:108A0000FFF7EAFF34BF012000205DF808FB00BF3C
:108A10004DF808EDFFF7E0FF94BF012000205DF85E
:108A200008FB00BF4DF808EDFFF7CEFF94BF012013
:108A300000205DF808FB00BF4DF808EDFFF7C4FF0C
:108A400034BF012000205DF808FB00BF4FEA41025F
:108A5000B2F1E04324BFB3F5001CDCF1FE5C0DD99C
:108A600001F0004C4FEAC0024CEA5070B2F1004FE6
:108A700040EB830008BF20F00100704711F0804FE9
:108A800021D113F13872BCBF01F00040704741F4AE
:108A900080114FEA5252C2F11802C2F1200C10FAB2
:108AA0000CF320FA02F018BF40F001004FEAC12396
:108AB0004FEAD32303FA0CFC40EA0C0023FA02F33A
:108AC0004FEA4303CCE77FEA625307D150EA013310
:108AD0001EBF4FF0FE4040F44000704701F00040E0
:108AE00040F0FE4040F40000704700BF80F00040BE
:108AF00002E000BF81F0004142001FBF5FEA410376
:108B000092EA030F7FEA226C7FEA236C6AD04FEA75
:108B10001262D2EB1363C1BFD218414048404140BA
:108B2000B8BF5B42192B88BF704710F0004F40F46C
:108B3000000020F07F4018BF404211F0004F41F488
:108B4000000121F07F4118BF494292EA030F3FD054
:108B5000A2F1010241FA03FC10EB0C00C3F1200367
:108B600001FA03F100F0004302D5494260EB4000F6
:108B7000B0F5000F13D3B0F1807F06D340084FEA61
:108B8000310102F10102FE2A51D2B1F1004F40EB56
:108B9000C25008BF20F0010040EA030070474900BE
:108BA00040EB0000013A28BFB0F5000FEDD2B0FA5B
:108BB00080FCACF1080CB2EB0C0200FA0CF0AABF7E
:108BC00000EBC25052421843BCBFD040184370471C
:108BD00092F0000F81F4000106BF80F40000013222
:108BE000013BB5E74FEA41037FEA226C18BF7FEAF9
:108BF000236C21D092EA030F04D092F0000F08BF3B
:108C00000846704790EA010F1CBF0020704712F021
:108C10007F4F04D1400028BF40F00040704712F160
:108C200000723CBF00F50000704700F0004343F0C5
:108C3000FE4040F4000070477FEA226216BF0846FB
:108C40007FEA23630146420206BF5FEA412390EABE
:108C5000010F40F4800070474FF0000304E000BFB4
:108C600010F0004348BF40425FEA000C08BF704765
:108C700043F0964301464FF000001CE050EA010229
:108C800008BF70474FF000030AE000BF50EA01023E
:108C900008BF704711F0004302D5404261EB41012B
:108CA0005FEA010C02BF84460146002043F0B64350
:108CB00008BFA3F18053A3F50003BCFA8CF2083A75
:108CC000A3EBC25310DB01FA02FC634400FA02FC7E
:108CD000C2F12002BCF1004F20FA02F243EB020085
:108CE00008BF20F00100704702F1200201FA02FCE7
:108CF000C2F1200250EA4C0021FA02F243EB0200DA
:108D000008BF20EADC70704753B94AB9002908BF90
:108D100000281CBF4FF0FF314FF0FF3000F00CB8BF
:108D2000ADF1080C6DE904CE0CF05EFCDDF804E05A
:108D3000DDE9022304B07047704700BF10F8012B33
:108D400011F8013B012A28BF9A42F7D0D01A704788
:108D500001F0FF01102A2BDB10F0070F08D010F8EC
:108D6000013B013A8B422DD010F0070F42B3F6D1F0
:108D7000F0B441EA012141EA014122F007047FF009
:108D800000070023F0E80256083C85EA010586EA60
:108D9000010685FA47F5A3FA87F586FA47F6A5FA9C
:108DA00087F68EB9EED1F0BC01F0FF0102F00702A8
:108DB00032B110F8013B013A83EA010313B1F8D153
:108DC0000020704701387047002D06BF3546033834
:108DD000073815F0010F07D1013015F4807F02BF6D
:108DE000013015F4C03F0130F0BC0138704700BFBE
:108DF0000348044B834202D0034B03B1184770472A
:108E00006800002068000020000000000548064BB4
:108E10001B1AD90F01EBA301491002D0034B03B178
:108E2000184770476800002068000020000000001C
:108E300010B5064C237843B9FFF7DAFF044B13B1A2
:108E40000448AFF300800123237010BD68000020A8
:108E5000000000002C65010808B5054B1BB1054951
:108E60000548AFF30080BDE80840FFF7CFBF00BF63
:108E7000000000006C0000202C650108002310B5E4
:108E80000446C0E90033C0E904338360818143664E
:108E9000C2818361194608225C3000F0B1F80D4BA5
:108EA00063620D4BA3620D4BE3620D4B23630D4BCD
:108EB00024629C4206D003F16802944202D0D0336F
:108EC0009C4205D104F15800BDE8104000F0C4B840
:108ED00010BD00BF15930008379300086F9300087A
:108EE0009393000884000020024A0349034800F0DD
:108EF00069B800BF00000020AD92000810000020FB
:108F000041680C4B994210B5044601D000F0CEF9EF
:108F1000A168094B994202D0204600F0C7F9E168E8
:108F2000064B994204D02046BDE8104000F0BEB97F
:108F300010BD00BF84000020EC0000205401002080
:108F400010B50B4B0B4C0C4A1A6020460022042132
:108F5000FFF794FF04F1680001220921FFF78EFF5B
:108F600004F1D0000222BDE810401221FFF786BFB5
:108F7000BC01002084000020E98E0008014800F0B8
:108F80006CB800BFC1010020014800F067B800BF05
:108F9000C101002010B50446FFF7F0FF236A1BB1A2
:108FA000BDE81040FFF7F0BF044B2362044B1B6881
:108FB000002BF5D1FFF7C4FFF2E700BF018F0008D7
:108FC000BC0100202DE9F8430746884614460026D8
:108FD000D4E90195B9F1010905D52468002CF7D130
:108FE0003046BDE8F883AB89012B07D9B5F90E30BF
:108FF000013303D029463846C04706436835E9E7C0
:1090000002440346934200D1704703F8011BF9E77D
:1090100070B50D4D0D4C641BA4100026A64209D15D
:109020000B4D0C4C0DF082FA641BA4100026A642D6
:1090300005D170BD55F8043B98470136EEE755F869
:10904000043B98470136F2E7F46A0108F46A010824
:10905000F46A0108F86A0108704770477047000019
:1090600070B50F4E0C463168054611B900F0BAF9DB
:1090700030602146284600F0B5F9431C03D14FF07B
:10908000FF34204670BDC41C24F00304A042F8D075
:10909000211A284600F0A6F90130F2D1EFE700BF0F
:1090A000C40100202DE9F843CD1C25F00305083547
:1090B0000C2D38BF0C25002D064601DBA94204D932
:1090C0000C2333600020BDE8F883DFF8D48000F083
:1090D00015F9D8F800301C4644BB29463046FFF746
:1090E000BFFF431C044658D1D8F800402746002F44
:1090F00043D1002C4BD023683946304604EB03099A
:1091000000F070F9814542D121686D1A2946304638
:10911000FFF7A6FF01303AD023682B442360D8F82C
:1091200000305A6862BBC8F800700FE02268521B1A
:1091300020D40B2A17D96119A342256018BF5960A2
:10914000636808BFC8F8001062514B60304600F0F9
:10915000DBF804F10B00231D20F00700C21A1CBF2E
:109160001B1AA350AFE76268A3420CBFC8F80020E7
:109170005A60EBE723466468AEE73C467F68B6E793
:109180001A465B68A342FBD100235360DEE70C2341
:109190003360304600F0B8F894E70560D6E700BFCA
:1091A000C8010020B1F90C202DE9F0411607054651
:1091B0000C4654D44B68002B02DC0B6C002B48DDB2
:1091C000E66A002E45D0002312F480522F68216AEF
:1091D0002B6030D0626DA389590705D56368D21A18
:1091E000636B0BB1236CD21A0023E66A216A28460E
:1091F000B047431CA38906D129681D292BD82A4AC8
:10920000CA40D60727D500226260D90422692260AD
:1092100004D5421C01D12B6803B96065616B2F60D6
:10922000B9B104F14403994202D0284600F00CF988
:10923000002363630DE001232846B0470246501C1B
:10924000C9D12B68002BC6D01D2B01D0162B1ED1E7
:109250002F60002022E043F040031BB21BE00F69A7
:10926000002FF6D093070E6808BF4B690F6018BF38
:109270000023A6EB07088B60B8F1000FE9DD216A37
:10928000A66A43463A462846B047002808DCB4F9A7
:109290000C3043F04003A3814FF0FF30BDE8F08174
:1092A0000744A8EB0008E7E70100402038B50B6948
:1092B00005460C4613B90025284638BD18B1036A87
:1092C0000BB9FFF767FEB4F90C30002BF3D0626ED8
:1092D000D00704D4990502D4A06DFFF7BEFE28463E
:1092E0002146FFF75FFF636EDA070546E4D4A389E2
:1092F0009B05E1D4A06DFFF7B1FEDDE70148FFF764
:10930000ACBE00BFC00100200148FFF7A7BE00BFF0
:10931000C001002010B50C46B1F90E1000F050F855
:109320000028ABBF636DA3891B1823F48053ACBF27
:109330006365A38110BD2DE9F0411F468B89DB05D4
:1093400005460C46164605D5B1F90E10022300223B
:1093500000F024F8A389B4F90E1023F48053A381FC
:1093600032463B462846BDE8F04100F04BB810B508
:109370000C46B1F90E1000F011F8431CA38915BF7B
:10938000606523F4805343F48053A38118BFA38105
:1093900010BDB1F90E1000F047B8000038B5074D08
:1093A00004460846114600222A601A460CF0F0F8DE
:1093B000431C02D12B6803B1236038BDCC010020CF
:1093C00038B5074D04460846114600222A601A4661
:1093D0000CF0C4F8431C02D12B6803B1236038BDE4
:1093E000CC01002038B5064D0023044608462B600A
:1093F0000CF092F8431C02D12B6803B1236038BDF6
:10940000CC01002038B5074D04460846114600221D
:109410002A601A4601F066FC431C02D12B6803B196
:10942000236038BDCC01002038B5064D002304462A
:1094300008462B600CF0A0F8431C02D12B6803B146
:10944000236038BDCC01002038B50546002941D045
:1094500051F8043C0C1F002BB8BFE418FFF74EFF77
:109460001D4A136833B9636014602846BDE838406C
:10947000FFF74ABFA34208D9206821188B4201BFD9
:1094800019685B6809182160EDE71A465B680BB143
:10949000A342FAD911685018A0420BD120680144A8
:1094A000501883421160E0D118685B68536008442B
:1094B0001060DAE702D90C232B60D6E72068211868
:1094C0008B4204BF19685B68636004BF09182160A0
:1094D0005460CAE738BD00BFC801002038B5054652
:1094E000072445FA04F2114802F001024FF48051BA
:1094F00005F05EF90D4801224FF4804105F058F95E
:109500000A4800224FF4804105F052F9013CE8D2AC
:10951000064801224FF4005105F04AF9BDE83840F1
:10952000024800224FF4005105F042B90004024005
:10953000024A034B10601980704700BFD40100201D
:10954000D0010020F0B5224E224D234F85B00122DC
:109550003188286805F02CF94021384605F022F9B9
:10956000318804460022286805F022F9002CEED04C
:1095700031882868012205F01BF9962413238DF801
:109580000F301648009401230DF10E020DF10F016A
:1095900008F082F8C8B900948DF80F0001230F4835
:1095A0000DF10E020DF10F0108F076F8041E18BF40
:1095B00001246400012005F0E5FB286831880022C1
:1095C00005F0F6F8204605B0F0BD0224F2E700BF32
:1095D000D0010020D401002000000240A814002087
:1095E000F0B5224E224D234F85B0012231882868E4
:1095F00005F0DEF84021384605F0D4F831880446FD
:109600000022286805F0D4F8002CEED031882868B4
:10961000012205F0CDF8962410238DF80F3016485E
:10962000009401230DF10E020DF10F0108F034F842
:10963000C8B900948DF80F0001230F480DF10E02F8
:109640000DF10F0108F028F8041E18BF0124640072
:10965000012005F097FB28683188002205F0A8F862
:10966000204605B0F0BD0224F2E700BFD001002083
:10967000D401002000000240A81400202DE9F0438E
:109680004A4E4B4D4B4F85B080468946012231886A
:10969000286805F08DF84021384605F083F83188B8
:1096A00004460022286805F083F8002CEED0C8F3A9
:1096B0000904002344F4C05431882868A9F8003014
:1096C0000122E7B2240A8DF80D3005F071F88DF80B
:1096D0000F4096243848009401230DF10E020DF13D
:1096E0000F0107F0D9FF002856D1334800940DF13F
:1096F0000E0201230DF10F018DF80F7007F0CCFF62
:10970000002849D18DF80F0000942B4801230DF15A
:109710000D020DF10F0107F0BFFF00283CD10094AE
:10972000B9F800309DF80D208DF80F0043EA422370
:10973000A9F80030204801230DF10D020DF10F01B1
:1097400007F0AAFF40BB0094B9F800308DF80F0075
:109750009DF80D0043EA4003A9F8003016480DF1CA
:109760000D020DF10F01012307F096FF044698B991
:109770009DF80D20B9F8003043EAD213A9F8003063
:10978000012005F0FFFA28683188224605F010F81C
:10979000204605B0BDE8F08328683188002205F036
:1097A00007F80224204605B0BDE8F083D001002070
:1097B000D401002000000240A81400202DE9F04749
:1097C000404E414D414F84B0804689460122318848
:1097D000286804F0EDFF4021384604F0E3FF3188AB
:1097E00004460022286804F0E3FF002CEED000239A
:1097F0008DF80D30FFF7A6FE044618B1204604B0E0
:10980000BDE8F087C8F309083188286848F4A058F3
:10981000012204F0CDFF96274FEA18238DF80F3070
:109820002B48009701230DF10E020DF10F015FFA95
:1098300088F807F031FF00283AD1254800970DF14C
:109840000E0201230DF10F018DF80F8007F024FFA8
:1098500070BB4FEA19238DF80D308DF80F301C487E
:10986000009701230DF10D020DF10F0107F014FF18
:10987000F0B95FFA89F9164800970DF10D020DF164
:109880000F0101238DF80D908DF80F9007F004FF64
:1098900070B922463188286804F08AFF022005F05A
:1098A00071FAFFF79DFE0446204604B0BDE8F0873C
:1098B00028683188002204F07BFF0224204604B08F
:1098C000BDE8F087D0010020D40100200000024054
:1098D000A81400209AB170B504460D4601EB42066B
:1098E00001E0B54209D0204635F8021BFFF766FFBC
:1098F0000134A4B20028F4D070BD002070BD002057
:10990000704700BFF8B52A4E2A4833782A4D23F015
:10991000030343F0030301224FF40041337004F0CA
:1099200047FF002401273378D90707FA04F205D549
:1099300028781043C0B22870FFF7D0FD322005F020
:1099400021FA3378DB0707FA04F205D5287820EAF4
:1099500002002870FFF7C2FD3220013405F012FA30
:10996000082CE0D1337803F00303032B0ED000243E
:1099700020462C70FFF7B2FD337803F00303032B6E
:109980000BD0337823F003033370F8BD094800226D
:109990004FF4004104F00CFFE9E7064822464FF47B
:1099A000004104F005FF337823F003033370F8BD62
:1099B000D801002000040240DA010020000000006D
:1099C0002DE9F04F6E4D2DED028B2B688DB0002BE5
:1099D00000F0AD800446184690468946FEF722FD09
:1099E00002460B465EA1D1E90001FEF7BFFEFFF77C
:1099F0002DF808EE100AB5EE408AF1EE10FA00F0EC
:109A000096806B68002B00F0928007EE903ADFEDB5
:109A10005D8ADFF878A128EE287AF8EE677AA9F156
:109A2000040967EE277A4FF0000B17EE900AFEF755
:109A30001BFD02460B464CA1D1E90001FEF7B4FB29
:109A40004BA3D3E90023FEF791FE4F4B0022FEF714
:109A5000ADFBFEF7FBFF05F10803CDE906382060FA
:109A600059F8043F00221A60DAF80410DAF800000E
:109A7000DAF80820BAF80A8008AB07C3BAF802304F
:109A80000193BAF804309DF820400493BAF80630E8
:109A90000293BAF8083005930BF10305BAF80C30BD
:109AA000039314F00101EDB247D0069B53F82B60ED
:109AB000079B07EE906AF8EE677A53F82B7067EE13
:109AC000887A67EEA87A17EE900AFEF7CDFC2AA3F3
:109AD000D3E90023FEF74AFEFEF7B8FFA10738607E
:109AE00005D5019BB34202D8049BB34229D2620739
:109AF00005D5029BB34202D8059BB34226D2230769
:109B000004D5B04502D8039BB34224D22846002195
:109B100000F0D4FB0BF1010BBBF1030F0AF10E0AAD
:109B20009ED100200DB0BDEC028BBDE8F08F02206D
:109B30000DB0BDEC028BBDE8F08F284600F0BEFBF7
:109B4000E8E72846012100F0B9FBE3E728460221B7
:109B500000F0B4FBDEE72846032100F0AFFBD9E7B5
:109B600085EB51B81E85B34052B81E85EB51E83FD6
:109B70007B14AE47E17A643F46175D74D145B73F29
:109B8000080200200000803900003940DC0100207C
:109B900000B58BB007AA04A903A8FFF711FF264858
:109BA0000BF00AFF25480BF007FF254B25485968A5
:109BB0000BF09AFE9DED030A10EE100A8DED010ADE
:109BC000FEF752FC02460B461F480BF08DFE9DED42
:109BD000010A00F0E9F910EE100AFEF745FC024612
:109BE0000B461A480BF080FE049919480BF07CFED6
:109BF0000798FEF739FC02460B4616480BF074FE38
:109C0000059915480BF070FE0898FEF72DFC0246EA
:109C10000B4612480BF068FE069911480BF064FEE3
:109C20000998FEF721FC02460E480B460BB05DF882
:109C300004EB0BF059BE00BF6065010844650108E4
:109C4000080200206465010884650108A465010814
:109C5000C4650108D8650108F065010804660108BB
:109C60001C6601083066010800B583B00DF10601DD
:109C70000020FFF703FDB0B9BDF8062043F63E63B0
:109C80009A4208D00A4B1A7860F3000202201A7038
:109C900003B05DF804FB064A137843F00103137028
:109CA00003B05DF804FB012003B05DF804FB00BFC6
:109CB0001C02002010B586B000F090F92F4B93F8ED
:109CC00001C0197841EA0C21ADF8001004469978DA
:109CD000D87893F812C041EA0021ADF80210587903
:109CE000197941EA0021ADF80410D879997941EA4F
:109CF0000021ADF80610587A197A41EA0021ADF832
:109D00000810D87A997A41EA0021ADF80A10587BF8
:109D1000197B41EA0021ADF80C10D87B997B41EA10
:109D20000021ADF80E10587C197C41EA0021D87C46
:109D3000ADF810104CEA002C597DADF812C093F824
:109D400014C04CEA012CADF814C0D97D9B7D0C22C7
:109D500043EA012303206946ADF81630FFF7BAFD48
:109D600010B1012006B010BD21460F20FFF726FDDF
:109D7000003818BF012006B010BD00BF200200202F
:109D800000B543F63E6183B00020FFF717FD18B120
:109D9000012003B05DF804FB01210846FFF70EFD2A
:109DA0000028F5D1FFF786FF0028F1D10DF106015B
:109DB000ADF80200ADF80400FFF760FC50B9BDF843
:109DC000062043F63E639A4222D0144B1A7860F381
:109DD00000021A700DF102010120FFF74FFC00286C
:109DE000D6D101A90220FFF749FC0028D0D1BDF847
:109DF0000410013189B20220ADF80410FFF7DEFC37
:109E00000028C5D1054A137843F001031370C0E759
:109E1000024A137843F001031370E8E71C020020A4
:109E200008B50A4C204605F09DFB0321002000F0F8
:109E300045FA4FF4967004F0A5FF0321012000F0CD
:109E40003DFA4FF4967004F09DFFEBE7901300206D
:109E50002DE9F041064600F005FC00F02BFF00F074
:109E600005FE264DDFF89C80254F404605F07AFB25
:109E70000321072000F022FA0021084600F01EFA14
:109E8000304604F07FFF0321002000F017FA002184
:109E9000072000F013FA304604F074FF2B785B06BD
:109EA0001CD54FF40041384604F07CFC04460028E1
:109EB000DBD1014600F002FA2146072000F0FEF94E
:109EC0002146062000F0FAF92B8823F4F0732B804A
:109ED00000F0DEFEBDE8F04100F086BD4FF4004129
:109EE000384604F05FFC01282B7802D05A06BCD516
:109EF000D7E743F040032B70D3E700BF1C020020DC
:109F0000000002409013002072B6FEE708B50A4B2D
:109F10001B78DB0700D508BD084A137823F011032E
:109F200043F01103137000F0C5FE00F09FFD00F038
:109F300099FBFFF775FF00BF1C02002038020020CC
:109F400008B5174B1B781F2B15D913F0600F02D1E2
:109F50001A0616D408BD134B1B78D90705D5BDE8E2
:109F600008404FF49670FFF773BFBDE80840022128
:109F7000072000F0A3B9BDE808400021072000F049
:109F80009DB9084B1B78DB0705D4BDE808400121CB
:109F9000072000F093B94FF47A70FFF759FFF4E708
:109FA0001C0200204002002008B510EE100AFEF747
:109FB0005BFA08A3D3E90023FEF7AEFA044B0022B4
:109FC000FEF7F4F8FEF742FD00EE100A08BD00BFF0
:109FD00000004040CDCCCCCCCCCCFC3F014BB3F806
:109FE000FD007047007F00082DE9F04F8FB004F0AE
:109FF000E7FE054604F0DEFE044604F0D5FE2946E1
:10A00000EB0E250E45EA0125C4F3074646EA052670
:10A01000C4F307275E4A47EA0627C6F3C406E4B23C
:10A02000965D029644EA0724060E46EA0426C4F327
:10A030000414C0F3072C145D0494C0F3074444EAED
:10A0400006244CEA042CC0B240EA0C20CCF3C40C29
:10A05000D35C019312F80C300693C1F3840CC1F366
:10A06000C41E12F80C9012F80EA0C6F3C41CC6F35E
:10A07000840612F80CC0634612F806C0CDF814C06E
:10A08000C7F38416C7F34407C0F3440ED75D0397A4
:10A09000C0F38417000112F807C0CDF81CC0C1F34B
:10A0A0008457C1F3444B12F807C0965D12F80EE0D6
:10A0B00012F80BB0C5F3441705F01F0512F807801E
:10A0C000575D00F01F00C4F34415C1F3043104F0E0
:10A0D0001F04105C555D145D515C00226AF3070299
:10A0E00069F30F2268F3174267F31F62029F0A9217
:10A0F000002267F30702039F66F30F22049E67F3B3
:10A10000174266F31F620B92059E079F002263F3BE
:10A11000070266F30F2265F31742069B64F31F6282
:10A120000C92002263F3070267F30F226EF31742CB
:10A1300060F31F62019B0D920020024663F3070249
:10A140006CF30F226BF3174261F31F628DF8380036
:10A150000992ABB10F4E104F09AC02464FF02D0CD7
:10A160000146735414F8013F0132481C07FB02F505
:10A1700043B1B5F1333FF3D806F800C00231F0E740
:10A18000044E1846002333540FB0BDE8F08F00BFD3
:10A190006466010820020020CDCCCCCCF0B5ADF235
:10A1A0008C4D0026164F8DF88860022401250A2365
:10A1B00001222146384605F0BDF818B902AA731CE1
:10A1C0009555DEB20234A4B20135B4F5807FEDB20C
:10A1D000EDD176B102AC0B4D264414F8012B294683
:10A1E00068460BF05FFB694622A80BF0EDFBA64228
:10A1F000F3D122A904480BF077FB0DF28C4DF0BD92
:10A2000038130020486601085466010829490A7875
:10A21000034612F0010012D0022B0AD812F01000EF
:10A2200044D0072B43D8DFE803F03C37322C231A05
:10A23000120BD81E0228F4D812F04000F1D170475A
:10A2400012F02000FBD01C4B58788009704712F0A8
:10A250000400F4D0184B5878C0F3011070474878C8
:10A2600010F00200EBD0144B5878C0F38100704717
:10A27000487810F00100E2D00F4B587800F003004E
:10A280007047130613D50C4B1878800970470A4B9A
:10A290001878C0F301107047074B1878C0F381009D
:10A2A0007047054B187800F0030070477047002096
:10A2B000C5E700BF380200203C020020F8B50D467B
:10A2C0000446FFF7A3FFA8422FD0894E337813F03E
:10A2D000010703F0010228D0D80622D5990701D43E
:10A2E000062C20D0980601D4072C1CD0590602D485
:10A2F000E11E022917D9DDB1022C00F2AC807D48A5
:10A30000017821F03F0102270170072C1FD8DFE8F8
:10A3100014F01900C100BA00B300AC00A500D500CC
:10A32000DF00022CDAD83846F8BD01273846F8BDE0
:10A33000072C00F2D680DFE804F004ACA59E9790CD
:10A34000BAB327466B49087865F3010008706A4D77
:10A350000024002A79D0022CE2B271D8D80674D534
:10A36000013A062A60D8DFE802F055483D2F211453
:10A3700004009B0669D55F4B5B789B09032B59D082
:10A38000002B62D00134082C05F108053ED1384677
:10A39000F8BD5A0759D5574B5B78C3F30113032B0C
:10A3A00048D0002B51D0083507242FE07378990747
:10A3B0004BD5504B5B78C3F38103032B3AD0002B72
:10A3C00043D00835062421E07378D8073DD5494BA2
:10A3D0005B7803F00303032B2CD0002B35D008351A
:10A3E000052413E01B0630D5424B1B789B09032B39
:10A3F00020D053B30835042408E03E4B1B78C3F348
:10A400000113032B16D003B308350324337803F06C
:10A4100001029EE7374B1B78C3F38103032B09D05E
:10A420009BB108350224F1E7324B1B7803F003039C
:10A43000032B58D1A9882868012204F0B9F9A1E7B3
:10A44000D11E02298CD859068AD4A98828680022EE
:10A4500004F0AEF996E7002757E70027254948782A
:10A4600065F38300487072E700272249487865F356
:10A47000010048706BE700271E49087865F38710D4
:10A48000087064E700271B49087865F30510087019
:10A490005DE700271749087865F38300087056E7E1
:10A4A00000271449487865F3871048704FE7002764
:10A4B0001049487865F30510487048E7022DF7D138
:10A4C0000C494878012464F30510487002273EE7E0
:10A4D000691E0129E5D80748417841F0C001417063
:10A4E000F4E7002733E7002BAFD0083501248DE7D0
:10A4F000380200203C0200208466010803282DE970
:10A50000F041044678D0002876D0534F534D3A7826
:10A51000534E12F001084FF0000322D0022B16D93F
:10A52000510674D5013B042B04D8DFE803F01D2944
:10A53000355742004A4B1B7803F00303A34200F057
:10A5400085803A7812F0010305F1080509D0D0069C
:10A55000E8D40133DBB23A7812F0010805F10805BE
:10A56000DCD10020BDE8F0813D4B1A78C2F38102B6
:10A57000A24251D1A988286804F01EF90223EAE713
:10A58000374B1B78C3F30113A34238D1A98828683D
:10A5900004F012F90323DEE7110618D5304B1B78BF
:10A5A000B4EB931F4CD1A988286804F005F9042363
:10A5B000D1E77B789E07D4D5294B5B78C3F3810321
:10A5C000A342CED1A988286804F0F6F8C9E73B7801
:10A5D000DA07C6D5590605F108052FD57B78D907C6
:10A5E00023D5737803F00303A34203D1A988286815
:10A5F00004F0E2F80523AEE70320BDE8F0813A78E5
:10A60000D007AED5500605F10805C5D403230133A4
:10A61000DBB2062B9FD1A4E73A78D107A1D5D206A9
:10A6200005F10805ADD4022393E73B78DA0798D506
:10A630005B0605F10805BCD40523E8E70423E6E73B
:10A640003A78D0078DD50835042369E7A9882868AA
:10A6500004F0B2F843467EE7380200208466010821
:10A660003C02002008B5074B1B7803F00B030B2BB3
:10A6700018BF012000D008BD03210620FFF71EFEF1
:10A68000002008BD3802002070B5C24D2B7803F0C1
:10A690000702072A02D00124204670BDD8074FF0D8
:10A6A000030440F1C180590706D5BB4A5278C2F372
:10A6B0000112032A00F0B8809A0740F1B580B64E27
:10A6C0007378002043F030037370FFF79FFD032879
:10A6D00000F01681002800F0E1800120FFF796FDD0
:10A6E000032800F03881002800F0CF800220FFF717
:10A6F0008DFD032800F02981002800F0BD80032093
:10A70000FFF784FD032800F01A81002800F0AE80D6
:10A710000420FFF77BFD032800F00B81002800F0E8
:10A720009F800520FFF772FD032800F0FC800028C1
:10A7300000F090800620FFF769FD032800F0EC8010
:10A7400000287DD00720FFF761FD032800F0DE80A0
:10A7500000286CD0142004F015FB2B7803F00502C0
:10A76000052A61D1727812F0300F5DD09B075BD55E
:10A77000134623F0300300207370FFF747FD0328D2
:10A78000024600F02481002800F0B5800120FFF788
:10A790003DFD0328024600F0F680002800F0A68068
:10A7A0000220FFF733FD0328024600F0E680002870
:10A7B00000F097800320FFF729FD0328024600F0F0
:10A7C000D680002800F088800420FFF71FFD0328B2
:10A7D000024600F0C680002879D00520FFF716FD5C
:10A7E0000328024600F0E78000286BD00620FFF720
:10A7F0000DFD0328024600F0D78000285CD007201A
:10A80000FFF704FD0328024600F0DB8000284ED04D
:10A810002820013C04F0B6FA14F0FF043FF43CAFEA
:10A820002B78D8073FF53FAF0324204670BD024682
:10A8300000F18040082100F5023003F0B9FF89E7FC
:10A84000024600F180404FF4806100F5013003F0D2
:10A85000AFFF77E702460121504803F0A9FF69E7FF
:10A86000024602214D4803F0A3FF5AE702460421A5
:10A870004A4803F09DFF4BE7024600F18040042167
:10A8800000F5023003F094FF39E7024600F1804002
:10A89000022100F5023003F08BFF27E7024600F1AA
:10A8A0008040012100F5023003F082FF15E73C48AB
:10A8B000082103F07DFFABE73A484FF4806103F0D5
:10A8C00077FF9CE73548012103F072FF8EE733489C
:10A8D000022103F06DFF80E73048042103F068FF98
:10A8E00072E72F48042103F063FF63E72C4802213D
:10A8F00003F05EFF54E72A48012103F059FF45E7C2
:10A9000001222748114603F053FFE6E624480122BE
:10A91000082103F04DFF1DE7224801224FF480611A
:10A9200003F046FF0EE701221C48114603F040FFEA
:10A9300000E71A480122022103F03AFFF1E6174826
:10A940000122042103F034FFE2E61548012204212C
:10A9500003F02EFFD3E612480122022103F028FF64
:10A96000C4E60E480122022103F022FF35E70B481E
:10A970000122042103F01CFF26E7094801220421DB
:10A9800003F016FF16E706480122022103F010FF2C
:10A9900006E700BF380200203C0200200000024011
:10A9A00000080240000402400C4801224FF480617C
:10A9B00003F0FEFE23E701220948114603F0F8FEEA
:10A9C00014E708480122082103F0F2FE20E70122E3
:10A9D0000448114603F0ECFED8E600BF0004024034
:10A9E000000002400008024038B51D4C2378012BBE
:10A9F0001CD06378012B00D038BDA388B3F57A7FD3
:10AA0000FAD8184D0021284607F070FAA3884FF6AF
:10AA1000FF729342F0D06278012AEDD12A68B3F533
:10AA20007A7F28BF4FF47A73536338BD6388B3F5D8
:10AA30007A7FDED80C4D0021284607F057FA63884C
:10AA40004FF6FF729342D4D02278012AD1D12A68DE
:10AA5000B3F57A7F28BF4FF47A735363C9E700BF19
:10AA600044020020481500200015002038B50024BD
:10AA7000064D07482C70214607F094FA6C70214669
:10AA80000448BDE8384007F08DBA00BF44020020FA
:10AA9000001500204815002010B54FF47A7084B0DE
:10AAA00004F070F900221F491F4C104609F0BCFD4C
:10AAB0004FF4967004F066F91C4805F0E3FE636AF3
:10AAC00043F400630A20636204F05CF9636A23F4D0
:10AAD0000063636200F070FC4FF47A7004F052F986
:10AAE00013491448012209F09FFD18B101242046A2
:10AAF00004B010BD024601A90A4809F08BFE0446C5
:10AB00000028F3D10C4801A9FEF718F90028EED06F
:10AB1000094809F02FFF041E18BF0124204604B085
:10AB200010BD00BFEC650108003802402014002071
:10AB30000819002054020020586601080000000097
:10AB400070B5374C37484FF4004103F02BFE2378A3
:10AB500013F0400540D001284AD06378DB0731D597
:10AB60002388314E314D324823F4A07343F480736F
:10AB700032462946238009F09BFD38BB32682B689A
:10AB80005189A1FB03135B02480243EAD151FEF74E
:10AB900075F8DFED287A07EE100A67EE277A17EED0
:10ABA000900AFDF761FC1CA3D3E90023FDF726FF03
:10ABB00000BB237803F05F030020237070BD63782F
:10ABC000DA071FD4FFF768FF0028C9D0237843F0C5
:10ABD00020030120237070BD0028F0D00128BCD1D3
:10ABE00043F04003024612492370284609F01CFD39
:10ABF000022070BD237803F05F0363F07F0303201E
:10AC0000237070BD084E094D09483246294609F0A7
:10AC10004FFD0028B2D0D9E79A9999999999A93FFF
:10AC20001C02002000000240500200204C020020C4
:10AC3000EC65010800008030104A0368934215D08B
:10AC40000F4A934206D00F4A934209D00E4A9342CC
:10AC50000ED070470D4A137843F004031370704709
:10AC60000A4A137843F002031370704704F078B86F
:10AC7000064A137843F00803137070470000014040
:10AC80000008004000400140000C00401C02002071
:10AC900008B5054806F0ACFF044806F0A9FFBDE87A
:10ACA0000840034806F0A4BF20160020D815002055
:10ACB0009015002008B5074806F0CCFF064806F0BE
:10ACC000C9FF064806F0C6FF054A137823F00E03B5
:10ACD000137008BD20160020D81500209015002004
:10ACE0001C02002010B5C8231446034892B207F096
:10ACF0006FFD204610BD00BF781800203D483E493A
:10AD000008B503780A7823F0310343F0310342F0A9
:10AD100001020A70037004F009F800F005FA03213B
:10AD20000120FFF7CBFA00F06DF800F05DFA00F0BB
:10AD3000F5FA00F009F900F09BFA01F06BFA00F067
:10AD40003BFB00F0FFFB00F0C7FF00F061FC00F0F0
:10AD5000BFFC00F0FDFC00F04BFD00F0F5FD01F044
:10AD60001FF801F039F808212448FEF7E1FBFFF74E
:10AD70003BF9FFF705F8FEF777FFA8BBFFF734FEB6
:10AD8000FFF786FF4FF4FA7003F0FCFFFFF77CFC3F
:10AD900003210120FFF792FAFEF78CFF38BBFEF784
:10ADA000F7FE174CFEF7AEFDFFF7F8F90CE09B0736
:10ADB0004FF0010005D5FFF7A1FB237823F0020334
:10ADC0002370192003F0DEFFFFF7BAFEFFF7B8F893
:10ADD00023785A07EBD50220FFF790FB237823F066
:10ADE00004032370DBB2E2E7FFF790F8C6E7FFF752
:10ADF0008BF8D4E738020020400200200000024017
:10AE00001C0200202DE9F04100248CB0CDE906445D
:10AE1000CDE90844474B01940A941A6B464F474DBD
:10AE2000474E42F001021A631A6B02F001020192CE
:10AE3000019A02941A6B42F002021A631A6B02F032
:10AE400002020292029A03941A6B42F004021A63FD
:10AE50001A6B02F004020392039A04941A6B42F0F4
:10AE600008021A631A6B02F008020492049A05940D
:10AE70001A6B42F080021A631B6B03F08003059388
:10AE8000224638460F21059B03F092FC22462846B5
:10AE90001F2103F08DFC38460122102103F088FCAD
:10AEA000224630464FF4744103F082FC01223046C2
:10AEB000102103F07DFC4FF01F08384606A901273A
:10AEC000CDE90844CDE9068703F0C4F906A9284670
:10AED000CDE90687CDE9084403F0BCF9042206A9B0
:10AEE00030460323CDE90623089403F0B3F906A9FD
:10AEF00030464FF210430693CDE90844079703F01C
:10AF0000A9F94FF48072022306A92846CDE9062349
:10AF1000CDE908440A9403F09DF94FF40042002360
:10AF200006A92846CDE90623089403F093F90CB04E
:10AF3000BDE8F081003802400008024000000240F5
:10AF4000000402400000000000B53B483B4985B0CA
:10AF50000023012201604FF44031CDE90033CDE9F7
:10AF60000233C0E901130261027680F82030C36029
:10AF700080F8302005234261314AC3610023C0E9D3
:10AF80000A2303F023FF002836D19FED257B0323FE
:10AF90002948029369468DED007B04F059F800289A
:10AFA0003BD19FED217B06232348029369468DED1B
:10AFB000007B04F04DF868BB9FED1D7B03231E480A
:10AFC000029369468DED007B04F042F8F8B908223F
:10AFD000042319486946CDE9002304F039F898B9EB
:10AFE0000922052314486946CDE9002304F030F80E
:10AFF00028B905B05DF804FBFEF786FFC5E7FEF74C
:10B0000083FF05B05DF804FBFEF77EFFE8E7FEF77F
:10B010007BFFDCE7FEF778FFCEE7FEF775FFC0E7C2
:10B0200011000000010000001000000002000000FC
:10B030000F00000003000000F0120020002001407B
:10B040000100000F70B5334B02688AB000249A42A9
:10B05000CDE90444CDE90644089401D00AB070BD9E
:10B0600003F58C3301945A6C2B4E42F480725A646F
:10B070005A6C02F480720192019A02941A6B42F0A7
:10B0800004021A631A6B02F004020292029A0394F9
:10B090001A6B42F002021A631B6B03F00203039364
:10B0A0002022032304A905461C48CDE90423039B61
:10B0B00003F0D0F8032203231948069404A9CDE92C
:10B0C000042303F0C7F8174A74624FF48063C6E99B
:10B0D000002433614FF480524FF48043C6E90523C6
:10B0E00030464FF48073C6E90244C6E9073403F0E2
:10B0F0006DFB58B90022AE6311461220B56303F010
:10B10000B9FD122003F0F2FD0AB070BDFEF7FCFE9F
:10B11000F0E700BF0020014090120020000802402C
:10B12000000402407064024010B5002394B0CDE9E1
:10B130000B33CDE90333CDE9053329490193079357
:10B14000086C284A40F080500864096C01F0805176
:10B15000019101990293136823F4404343F400439F
:10B16000136013689FED1C7B03F44043012102939D
:10B1700002224FF480000823CDE90D12CDE90F0320
:10B180000A910422A821072308A88DED087BCDE9A8
:10B190001112029C139302F061FCB8B90023022142
:10B1A0000F244FF4805203A8CDE90341CDE90532C5
:10B1B000079302F0B1FE60B900224FF480011046FF
:10B1C00002F02EFE02F07CFE14B010BDFEF79CFED5
:10B1D000E4E7FEF799FEEFE70D0000000000010034
:10B1E000003802400070004010B582B000241F4BB0
:10B1F0000194196B41F4800119631B6B03F4800304
:10B200002246214601933920019B03F033FD39206A
:10B2100003F06CFD224621463A2003F02BFD3A2034
:10B2200003F064FD224621463B2003F023FD3B2032
:10B2300003F05CFD224621463C2003F01BFD3C2030
:10B2400003F054FD22462146452003F013FD45201E
:10B2500003F04CFD22462146462003F00BFD46201C
:10B2600002B0BDE8104003F041BD00BF003802400D
:10B2700010B50B480B4C0C4900234FF48042C0E939
:10B280000041C0E90233C0E90423C0E90633036288
:10B2900003F088FF00B910BDBDE81040FEF734BED2
:10B2A0003813002000540040A086010030B5184B30
:10B2B000026889B000249A42CDE90244CDE90444F1
:10B2C000069401D009B030BD124D00942B6B43F0B1
:10B2D00002032B632B6B03F002030093C0221223A3
:10B2E000CDE9022300980C480322042302A9CDE9EA
:10B2F000052302F0AFFF01942B6C43F400132B6481
:10B300002B6C03F400130193019B09B030BD00BF07
:10B3100000540040003802400004024010B50A48C2
:10B320000A4C00237F21FF22C0E90043C0E902123A
:10B33000C0E90433836104F01BF900B910BDBDE816
:10B340001040FEF7E1BD00BFA01300200028004020
:10B3500000B5174A016887B000239142CDE9023356
:10B36000059302D007B05DF804FB02224FF480730E
:10B3700001A80192049302F0C5FEB0B90D4B002262
:10B380000121C3F83C1E0220114603F073FC022089
:10B3900003F0ACFC00221146292003F06BFC2920AD
:10B3A00003F0A4FC07B05DF804FBFEF7ADFDE5E794
:10B3B000002800400000474210B50B4C0B49002309
:10B3C00004222046C4E90013C4E90233C4E904336B
:10B3D000A26105F061FF00B110BD20464FF400618D
:10B3E000BDE8104005F08CBF20140020002C014067
:10B3F000F0B53B4B02688BB000249A42CDE904447F
:10B40000CDE90644089401D00BB0F0BD03F58633B6
:10B4100001945A6C42F400625A645A6C02F400625D
:10B420000192019A02941A6B42F004021A631A6B99
:10B4300002F004020292029A03941A6B42F008028C
:10B440001A631B6B03F008034FF4F85203930127B0
:10B450000C26022304A905462248CDE90423CDE9A0
:10B460000776039B02F0F6FE02231F48079704A904
:10B470000427CDE90473089606941C4E02F0EAFEF8
:10B480001B4A4FF00063C6E900234FF480634FF47A
:10B49000805133614FF48043C6E905132023F361E3
:10B4A00003214FF400024FF400133046C6E9024472
:10B4B000C6E90847C6E90A12336303F087F960B9A1
:10B4C00000221146C5E90F663120B56303F0D2FBB7
:10B4D000312003F00BFC0BB0F0BDFEF715FDEFE7DC
:10B4E000002C014000080240000C0240C013002064
:10B4F000586402400F4B02689A4200D070470E4ACF
:10B50000536C10B523F40063044653640B484FF4A6
:10B51000F85103F057F80421094803F053F8206C60
:10B5200003F0E8F9E06B03F0E5F9BDE810403120E5
:10B5300003F0EABB002C0140003802400008024042
:10B54000000C02400E480F494FF4827210B50023E0
:10B55000C0E900124FF4007438210A22C0E9023316
:10B56000C0E90433C0E90641C0E90833C0E90A3242
:10B5700006F030F800B910BDBDE81040FEF7C4BCBD
:10B58000A81400200030014030B51F4B026889B07C
:10B5900000249A42CDE90244CDE90444069401D046
:10B5A00009B030BD03F5843300945A6C174842F457
:10B5B00080525A645A6C02F480520092009A0194AC
:10B5C0001A6B42F001021A631B6B9FED0D7B03F0B7
:10B5D0000103019302A905230322CDE905238DED83
:10B5E000027B019D02F036FE22462146232003F015
:10B5F00041FB232003F07AFB09B030BDAFF300809C
:10B60000E0000000020000000030014000000240A5
:10B6100000B52D482D498FB00023CDE90233CDE987
:10B620000433CDE90033CDE90633CDE90833CDE964
:10B630000A330C93836003618023836142F2CF035A
:10B64000C0E9001340F2E733C36006F039FA18BBD3
:10B650004FF480531C48029302A906F09DFE48BB9C
:10B66000194806F011FB10BB00220023164869465A
:10B67000CDE9002306F0DEFFB0B99FED117B00227B
:10B680001148089206A98DED067B0A9206F0D6FCB9
:10B6900028B90FB05DF804FBFEF736FCD8E7FEF7DB
:10B6A00033FC0FB05DF804FBFEF72EFCE5E7FEF778
:10B6B0002BFCD9E7FEF728FCD2E700BFAFF30080F0
:10B6C00030000000E70300002016002000080040C2
:10B6D00000B51B481B4A87B0026042F2CF024260AD
:10B6E000194A0023C0E902328022CDE90233CDE9B4
:10B6F0000433CDE900330361826106F0E1F998B9C2
:10B700004FF480530E48029302A906F045FE98B903
:10B71000002200230A486946CDE9002306F08AFF8B
:10B7200028B907B05DF804FBFEF7EEFBE8E7FEF78B
:10B73000EBFB07B05DF804FBFEF7E6FBE8E700BFB4
:10B74000D8150020000C00409F860100000000007A
:10B7500000B52548254A8DB0026042F2CF02002391
:10B76000426042F20F72C0E902328022CDE900331A
:10B77000CDE90233CDE90433CDE90633CDE9083311
:10B780000A930361826106F09BF9D0B94FF48053AC
:10B7900015480093694606F0FFFDE8B9124806F027
:10B7A00073FAB0B99FED0E7B00220F48069204A9F0
:10B7B0008DED047B089206F041FC28B90DB05DF8D0
:10B7C00004FBFEF7A1FBE1E7FEF79EFB0DB05DF881
:10B7D00004FBFEF799FBE5E7FEF796FBDEE700BF0B
:10B7E000300000000F2700009015002000400140AD
:10B7F00010B54F494F4C92B040F28F620023C4E91C
:10B800000012204640F2E732CDE90A33CDE90C338D
:10B81000CDE90E33C4E9023210932361A36106F02F
:10B820004FF908BB434806F0C9FA20BB9FED387BAF
:10B83000002240480C920AA98DED0A7B0E9206F078
:10B84000B9FCD8B922683C4900238A42CDE90433C7
:10B85000CDE90633089314D035498A4228D03749B8
:10B860008A423CD012B010BDFEF74EFB314806F0C4
:10B87000A5FA0028DAD0FEF747FBD7E7FEF744FB2E
:10B88000E0E72F4A0193136B2E4843F00203136342
:10B89000136B9FED217B03F00203019304A90223A4
:10B8A0008DED047B019A089302F0D4FC12B010BD18
:10B8B000234A0293136B234843F002031363136B71
:10B8C0009FED177B03F00203029304A903238DED80
:10B8D000047B029A089302F0BDFC12B010BD184A16
:10B8E0000393136B174843F002031363136B9FED2D
:10B8F0000E7B03F00203039304A903238DED047B65
:10B90000039A089302F0A6FC12B010BDAFF30080BA
:10B9100060000000000000002000000002000000A5
:10B920000001000002000000000200000200000010
:10B930000044014048150020000400400048014038
:10B94000003802400004024010B54F494F4C92B0FD
:10B9500040F28F620023C4E90012204640F2E73231
:10B96000CDE90A33CDE90C33CDE90E33C4E9023217
:10B9700010932361A36106F0A3F808BB434806F0C7
:10B980001DFA20BB9FED387B002240480C920AA98B
:10B990008DED0A7B0E9206F00DFCD8B922683C4969
:10B9A00000238A42CDE90433CDE90633089314D04D
:10B9B00038498A4228D034498A423CD012B010BD5E
:10B9C000FEF7A2FA314806F0F9F90028DAD0FEF7BE
:10B9D0009BFAD7E7FEF798FAE0E72F4A0193136B3B
:10B9E0002E4843F002031363136B9FED217B03F09A
:10B9F0000203019304A902238DED047B019A0893AD
:10BA000002F028FC12B010BD234A0293136B2348A6
:10BA100043F002031363136B9FED177B03F00203E4
:10BA2000029304A903238DED047B029A089302F08C
:10BA300011FC12B010BD184A0393136B174843F062
:10BA400002031363136B9FED0E7B03F0020303935A
:10BA500004A903238DED047B039A089302F0FAFBFB
:10BA600012B010BDAFF300806000000000000000C5
:10BA700020000000020000000001000002000000A1
:10BA800000020000020000000048014000150020F4
:10BA9000000400400044014000380240000402401D
:10BAA00000B5494A0368934287B027D0474A93427A
:10BAB0003AD0474A93424DD0464A934208D0464A2C
:10BAC00093425DD0454A93426CD007B05DF804FBC9
:10BAD000434B00220392596C41F4803159645B6CF2
:10BAE00003F48033039318201146039B03F0C2F83C
:10BAF000182007B05DF804EB03F0F8B80022384BCB
:10BB00000092196C41F0020119641B6C03F00203EE
:10BB1000009311461D20009B03F0ACF81D2007B0D8
:10BB20005DF804EB03F0E2B800222D4B0192196C92
:10BB300041F0040119641B6C03F0040301931146E6
:10BB40001E20019B03F096F81E2007B05DF804EB61
:10BB500003F0CCB80022224B0292196C41F008018C
:10BB600019641B6C03F00803029311463220029BF8
:10BB700003F080F8322007B05DF804EB03F0B6B8AC
:10BB8000174B00220492596C41F4003159645B6CEC
:10BB900003F40033049319200F21049B03F06AF887
:10BBA0001920A6E70E4B00220592596C41F4802122
:10BBB00059645B6C03F4802305931A201146059B9E
:10BBC00003F058F81A2094E70004004000080040F1
:10BBD000000C00400040014000440140004801408A
:10BBE000003802400000000000B5026834498BB004
:10BBF00000238A42CDE90433CDE90633089308D007
:10BC000030498A421DD030498A4232D00BB05DF8AB
:10BC100004FB2E4A0193136B2D4843F00203136378
:10BC2000136B9FED217B03F00203019304A9022310
:10BC30008DED047B019A089302F00CFB0BB05DF8CC
:10BC400004FB224A0293136B214843F0020313635F
:10BC5000136B9FED177B03F00203029304A90323E8
:10BC60008DED047B029A089302F0F4FA0BB05DF8B4
:10BC700004FB164A0393136B154843F00203136346
:10BC8000136B9FED0D7B03F00203039304A90323C1
:10BC90008DED047B039A089302F0DCFA0BB05DF89B
:10BCA00004FB00BFAFF30080200000000200000092
:10BCB000000100000200000000020000020000007D
:10BCC00000040040004401400048014000380240A8
:10BCD000000402400000000000B52F482F4A8FB03A
:10BCE0000023CDE90233CDE90433CDE90033CDE9BA
:10BCF0000633CDE90833CDE90A330C938360036141
:10BD000083615323C0E9002340F2E733C36005F0A9
:10BD1000D7FE38BB4FF480531F48029302A906F0A8
:10BD20003BFB80BB1C4806F049F848BB00220023BF
:10BD300019486946CDE9002306F07CFCE8B99FED7F
:10BD4000147B002314480893042206A98DED067B7A
:10BD50000A9306F02FFA40B90F48FFF745FF0FB0DE
:10BD60005DF804FBFEF7D0F8D4E7FEF7CDF80A48FB
:10BD7000FFF73AFF0FB05DF804FBFEF7C5F8DEE70A
:10BD8000FEF7C2F8D2E7FEF7BFF8CBE7AFF30080CB
:10BD90006000000000000000681600200004004061
:10BDA00010B50B480B4C00234FF4E1310C22C0E9D5
:10BDB0000041C0E90233C0E90432C0E9063306F0AD
:10BDC00075FC00B910BDBDE81040FEF79DB800BF7E
:10BDD000781800200010014010B50B480B4C0023D0
:10BDE0004FF4E1310C22C0E90041C0E90233C0E95F
:10BDF0000432C0E9063306F059FC00B910BDBDE8B5
:10BE00001040FEF781B800BF301800200014014038
:10BE100070B50368694A8AB000249342CDE90444AE
:10BE2000CDE906440546089404D0654A93425ED0A5
:10BE30000AB070BD634B00945A6C634E42F010021E
:10BE40005A645A6C02F010020092009A01941A6B24
:10BE500042F001021A631B6B03F0010301934FF4DC
:10BE6000C0620223CDE90423019858480322072326
:10BE700004A9CDE9072302F0EDF9554A4FF000631C
:10BE8000C6E9002330464FF48063C6E90244C6E9A0
:10BE90000434C6E90644C6E9084402F097FC0028C9
:10BEA00040F083804B4C4C49EE634FF0006200231E
:10BEB000C4E90012204640214FF48062C4E9021315
:10BEC000C4E90533C4E90733B5632261636202F054
:10BED0007DFC002866D10022AC6311462520A563B5
:10BEE00002F0C8FE252002F001FF0AB070BD354BFC
:10BEF00002945A6C394E42F020025A645A6C02F095
:10BF000020020292029A03941A6B42F004021A630E
:10BF10001B6B03F004030393C0220223CDE9042327
:10BF200003982F480322082304A9CDE9072302F030
:10BF300091F92C4A4FF02063C6E9002330464FF4B4
:10BF40008063C6E90244C6E90434C6E90644C6E98A
:10BF5000084402F03BFC58BB234C2449EE634FF0ED
:10BF60002062C4E900124FF4806200234021226164
:10BF700020464FF48072C4E90213C4E90533C4E9D2
:10BF80000723B563636202F021FCA0B90022AC6311
:10BF900011464720A56302F06DFE472002F0A6FE81
:10BFA0000AB070BDFDF7B0FF95E7FDF7ADFF79E78B
:10BFB000FDF7AAFFD0E7FDF7A7FFE7E70010014074
:10BFC0000014014000380240D01700200000024059
:10BFD0004064024070170020B8640240101700202F
:10BFE0000008024028640240B0160020A06402400D
:10BFF00008B502F079F8FEE7FEE700BFFEE700BFF4
:10C00000FEE700BFFEE700BF704700BF704700BFFC
:10C01000704700BF704700BF014803F053BB00BF2B
:10C02000A0130020704700BF014802F081BF00BF8D
:10C03000F0120020014806F061BA00BF9015002000
:10C0400008B5044806F05AFABDE80840024806F070
:10C0500055BA00BFC018002048150020014806F05E
:10C060004DBA00BF00150020014806F047BA00BFD6
:10C0700068160020014806F041BA00BF20160020D3
:10C08000014805F06DBC00BFA8140020014806F06F
:10C0900093BC00BF78180020014803F0E3BA00BF4A
:10C0A000A0130020014804F0C9BD00BF20140020E7
:10C0B000014806F023BA00BFD8150020014802F05D
:10C0C000EFBC00BF10170020014802F0E9BC00BF20
:10C0D000D0170020014802F0E3BC00BFC0130020CD
:10C0E000014802F0DDBC00BF90120020014800F0C2
:10C0F000B5BA00BF18190020014802F0D1BC00BF3A
:10C10000B0160020014802F0CBBC00BF7017002021
:10C11000014806F051BC00BF30180020704700BF36
:10C1200010B582B00024144B0094596C41F4804146
:10C130005964586C00F48040009000980194186C89
:10C1400040F0805018641B6C03F080532246214657
:10C1500001930520019B02F08DFD052002F0C6FD34
:10C1600022462146512002F085FD512002B0BDE853
:10C17000104002F0BBBD00BF0038024070B588B06F
:10C1800000251F4B02955A6C1E4C42F001025A6466
:10C190005B6C03F0010301A90293064603A8029B0E
:10C1A00001F07EFF01F06CFF174A226040F2E73297
:10C1B000E260164A2561A2FB00239B0C013B20464E
:10C1C000C4E90135A56105F07BFC054610B12846A0
:10C1D00008B070BD204605F00BFD05460028F6D1DD
:10C1E000192002F083FD0F2E01D90125EFE72A4621
:10C1F0003146192002F03EFD054B1E60E7E700BF07
:10C2000000380240C01800200000014083DE1B43BC
:10C210006000002008B50349034808F09DFC034B6B
:10C22000187008BD08190020C46601080C19002008
:10C23000844608B5044813460A46614604F036FBB6
:10C24000003818BF012008BD20140020844608B51E
:10C25000044813460A46614604F0C2FB003818BF82
:10C26000012008BD2014002008B5034805F0EEF8B1
:10C27000043818BF012008BD2014002001460148E1
:10C2800005F028B820140020704700BF08B5FFF75C
:10C29000FBFF08BD08B500F00FF908BD08B500F0B8
:10C2A00011F908BD00B583B001238DF8073000F007
:10C2B0000FF908B98DF807009DF8070003B05DF885
:10C2C00004FB00BF08B5FFF7EDFF012801D00120F6
:10C2D00008BD074804F0E0FF0028F9D14FF40061E1
:10C2E000034805F00DF8003818BF012008BD00BF55
:10C2F0002014002010B5FFF7E5FF094C08B12078A5
:10C3000010BD01232370FFF7AFFF18B9237803F0A6
:10C31000FE0323702378DBB22370207810BD00BFAA
:10C320005C00002010B5064C01232370FFF79CFF32
:10C3300018B9237803F0FE032370207810BD00BFE6
:10C340005C00002030B5164B187810F0010489B05D
:10C3500006D11546032920D8DFE801F0030F1706A0
:10C360000324204609B030BD6846FFF787FF079BCE
:10C3700020465B0A2B6009B030BD6846FFF77EFFA0
:10C38000069B2B60204609B030BD6846FFF776FF5C
:10C39000079B2B80204609B030BD0424E1E700BF95
:10C3A0005C0000202DE9F0410D4616461F4602F0C4
:10C3B000E3FC47F22F58044602E0FFF755FF38B17F
:10C3C00002F0DAFC001B4045F7D90120BDE8F081FE
:10C3D0003A4631462846FFF72BFF0028F5D1124C8C
:10C3E000206002F0C9FC47F22F56054604E002F037
:10C3F000C3FC401BB04202D82368002BF7D023684F
:10C40000002BE2D00023236002F0B6FC47F22F5548
:10C41000044603E0FFF728FF0028D7D002F0ACFC69
:10C42000001BA842F6D9D0E7101900202DE9F843E7
:10C43000204E00200F4690469946306002F09CFC4A
:10C4400047F22F55044602E0FFF70EFF38B102F025
:10C4500093FC001BA842F7D90120BDE8F8834A46A7
:10C4600041463846FFF7F2FE0028F5D102F084FC81
:10C4700047F22F55044604E002F07EFC001BA84260
:10C4800002D83368002BF7D03368002BE4D00023A8
:10C49000336002F071FC47F22F55044603E0FFF7CA
:10C4A000E3FE0028D9D002F067FC001BA842F6D9B1
:10C4B000D2E700BF14190020014B01221A60704717
:10C4C00014190020014B01221A6070471019002036
:10C4D00008B54FF40041034802F064F9B0FA80F067
:10C4E000400908BD0000024000F29C41D0F8E00481
:10C4F00008F0D0BB01EBC10300EB8303D0F8E004EC
:10C50000D3F8602208F0F6BB01EBC10300EB830314
:10C51000D0F8E0041A6A08F027BC00BFD0F8E004A5
:10C5200008F0C8BC10B5C379022B044601D0FDF752
:10C53000EBFCD4F8E004012108F09EFCD4F8E00400
:10C54000BDE8104008F06ABC10B50446D0F8E0041D
:10C5500008F096FC2268D2F8003E43F00103C2F8CE
:10C56000003EE37A23B1034A136943F006031361E3
:10C5700010BD00BF00ED00E0D0F8E00408F08EBC74
:10C58000D0F8E00408F0BCBCD0F8E00408F0A2BC8D
:10C59000D0F8E00408F0CABCD0F8E00408F0C8BC49
:10C5A000944608B51A46D0F8C802634600F0E8FD84
:10C5B00018B102280CBF0120032008BD08B5D0F82F
:10C5C000C80200F061FE18B102280CBF0120032050
:10C5D00008BD00BF08B5D0F8C80200F097FE18B13A
:10C5E00002280CBF0120032008BD00BF0A06D0F8B6
:10C5F000C83206D401EBC10103EB810393F8560264
:10C60000704701F07F0101EBC10103EB8103987DCD
:10C61000704700BF08B5D0F8C80200F09DFD18B102
:10C6200002280CBF0120032008BD00BF08B5D0F8C8
:10C63000C80200F005FE18B102280CBF012003203B
:10C6400008BD00BF08B5D0F8C80200F0D7FD18B18A
:10C6500002280CBF0120032008BD00BF2DE9F04FC8
:10C66000066889B00446304601F0BCF910B109B043
:10C67000BDE8F08F0546206801F086F90028F6D065
:10C68000D6F808382068C3F30D23C4F8D43406F56F
:10C690000063039301F078F910F0020F20681EBFC9
:10C6A000436903F00203436101F06EF910F0100FCB
:10C6B000206814D0836923F010038361376A07F47C
:10C6C000F013B3F5802F07F00F0800F0B783B3F530
:10C6D000402F00F05683836943F01003836101F01B
:10C6E00053F910F4002F206840F0B18201F04CF9AA
:10C6F000470300F11082206801F046F90028C0F2DB
:10C700008281206801F040F9030500F13D81206835
:10C7100001F03AF9C00400F1A081206801F034F979
:10C7200010F4005F206840F0818101F02DF90107CD
:10C7300000F1E881206801F027F9020671D5B3699C
:10C7400023F08003B3612379012B6AD994F87B220B
:10C75000012A00F0E083022B63D994F89F22012A7A
:10C7600000F0F483032B5CD994F8C322012A00F073
:10C770000183042B55D994F8E722012A00F0148391
:10C78000052B4ED994F80B23012A00F01A84062BAE
:10C7900047D994F82F23012A00F02784072B40D98A
:10C7A00094F85323012A00F03984082B39D994F8DE
:10C7B0007723012A00F04684092B32D994F89B2371
:10C7C000012A00F053840A2B2BD994F8BF23012AA5
:10C7D00000F060840B2B24D994F8E323012A00F0A5
:10C7E0006D840C2B1DD994F80724012A00F0728463
:10C7F0000D2B16D994F82B24012A00F08E840E2BD1
:10C800000FD994F84F24012A00F095840F2B08D9F2
:10C8100094F87334012B04D1206804F58E6100F084
:10C82000C3FF206801F0B0F8C30240F1AB80237968
:10C83000012B40F2898094F83C20D6F82019012A77
:10C8400000F06182022B7FD994F86020D6F840195D
:10C85000012A00F06B82032B76D994F88420D6F855
:10C860006019012A00F06E82042B6DD994F8A8207B
:10C87000D6F88019012A00F07182052B64D994F84A
:10C88000CC20D6F8A019012A00F03983062B5BD9F9
:10C8900094F8F020D6F8C019012A00F04B83072B3A
:10C8A00052D994F81421D6F8E019012A00F05583E2
:10C8B000082B49D994F83821D6F8001A012A00F03B
:10C8C0005883092B40D994F85C21D6F8201A012A04
:10C8D00000F06B830A2B37D994F88021D6F8401AE0
:10C8E000012A00F076830B2B2ED994F8A421D6F8D8
:10C8F000601A012A00F086830C2B25D994F8C821F0
:10C90000D6F8801A012A00F091830D2B1CD994F8D7
:10C91000EC21D6F8A01A012A00F09C830E2B13D923
:10C9200094F81022D6F8C01A012A00F0A7830F2B22
:10C930000AD994F83422D6F8E01A012A00F0B2831A
:10C94000102B01D9D6F8003B2068436903F480130B
:10C95000436101F019F8870221D4206801F014F82E
:10C96000400000F1C680206801F00EF841077FF515
:10C970007EAE23685D686A0700F181825A682A43A7
:10C980005A6074E62068E4E7039B9B68DF0700F1C8
:10C9900072822068436903F400634361B8E694F847
:10C9A00004C0BCF1010F28D906F5326223460121EB
:10C9B00006E00131614502F1200203F124031CD09D
:10C9C00093F87C0215680128F3D1002DF1DAD4F830
:10C9D000D47405F4803507F00107BD42E9D183F82E
:10C9E0007B02B06940F08000B06170690506E0D458
:10C9F000039A536843F4007353602068436903F457
:10CA000000134361AAE7039A536823F001035360BC
:10CA100094F8CC34012B00F082812046FFF7ACFD66
:10CA20002068436903F0004343616BE600F0DEFFDA
:10CA3000206800F047FDE071256801F00BFBE2790A
:10CA40000146284600F09CFC2046FFF76BFD20685D
:10CA5000436903F40053436167E6039A206853680F
:10CA600023F001035360102100F004FD2079D8B1B8
:10CA700006F510634FF67F3199601A6822F40012B0
:10CA80001A60C3F80812D3F8002222F40012C3F887
:10CA90000022D3F80022013542F000628542C3F83B
:10CAA000002203F12003E7D1039AD36943F0011375
:10CAB000D361E37B002B40F01B81536943F40053A7
:10CAC00043F02B035361136943F00B031361D6F852
:10CAD0000038206823F4FE63C6F80038A17904F218
:10CAE0009C4200F093FF2068436903F48053436144
:10CAF00014E62046FFF74CFD2068436903F08043AD
:10CB0000436131E72046FFF709FD2068436903F0E0
:10CB1000080343610FE6206800F042FF8146206869
:10CB2000B9F1000F3FF4E8ADCDE9046506F51067F3
:10CB3000A0464FF0000A064609E05FEA59090AF1EB
:10CB4000010A08F1240807F1200700F0378119F0E5
:10CB5000010FF2D05FFA8AFB3046594600F032FFEF
:10CB6000C207054612D503980121436B0AF00F0254
:10CB700001FA02F223EA02034363B960A1790129B1
:10CB800000F0828159462046FFF7BEFC2B0744BFC8
:10CB90000823BB60EE0644BF1023BB60680644BF99
:10CBA0004023BB60A90700F13D812A062668C4D551
:10CBB000D8E90953AB42C0D806F51061D8F81C007B
:10CBC000079601EB4A11A5EB030C84458A6928BF3F
:10CBD00084461FFA82FE0CF1030CBEEB9C0FC0F0E2
:10CBE0008A8106970F4621E0ED1AD8F81C30D8F854
:10CBF00020109D4228BF1D46A37900935A46ABB230
:10CC0000304600F01BFED8F82030BA692B44C8F833
:10CC10002030D8F8283092B22B440335B2EB950F70
:10CC2000C8F82830C0F06381D8F824509D42DBD882
:10CC3000069F2668079B0AF00F0503F50061012295
:10CC4000D3F83438AA4023EA02034B6375E700F0B7
:10CC50009FFE07462068002F3FF448AD049506F577
:10CC60003068A3464FF0000A254608E07F080AF125
:10CC7000010A08F120080BF1240B00F09C80FC074E
:10CC8000F4D55FFA8AF4214600F092FE10F0010F0D
:10CC9000814640F0A88019F0080F40F0938019F009
:10CCA000100F1CBF1022C8F8082019F0020F0FD077
:10CCB0007269110604D5039B5A6842F480625A6077
:10CCC0009BF85722012A00F02D810223C8F8083072
:10CCD00019F0200F1CBF2023C8F8083019F4005F9A
:10CCE00018BF4FF40053286818BFC8F80830BDE7D4
:10CCF000D2F8843043F00B03C2F88430536C43F015
:10CD00000B035364E3E60029BFF69CAD206884F86A
:10CD10003B2004F1380100F047FD237992E5002122
:10CD200084F8CC14204600F029FB79E60029BFF6F0
:10CD300092AD206884F85F2004F15C0100F034FDBE
:10CD4000237988E50029BFF68FAD206884F8832019
:10CD500004F1800100F028FD237985E50029BFF664
:10CD60008CAD206884F8A72004F1A40100F01CFD1C
:10CD7000237982E5206804F5307100F015FD2379F0
:10CD8000F7E4082204F29C41304608EBC80800F0A2
:10CD90006BFD04EB8802C7F30A13D2F8681220680F
:10CDA0000B44C2F8683296E4206804F5397100F04B
:10CDB000FBFC2379E4E42C46049D97E43046059D72
:10CDC000049E99E429680822C8F80820086C01F537
:10CDD0003062BE4902EB4A128842936867D82846FF
:10CDE000FFF782FB5BE728680122C8F80820A979D1
:10CDF000D0F840E000F5306202EB4A120129936856
:10CE000067D0B3498E4500F0C080BAF1000F04D15D
:10CE1000D5F86422002A00F0888121462846FFF7D1
:10CE200069FB38E70498514600F024FB98F8173066
:10CE3000012B00F0B2800223BB60B6E647F6F07328
:10CE40001F423FF448AC08EBC80804EB8808C7F35E
:10CE50000A12D8F860123046174600F005FDD8F8DF
:10CE6000603220683B44C8F86032D8F868323B44EE
:10CE7000C8F868322FE42046FFF766FB89E52046B4
:10CE8000FFF78AFB236879E5D8E907231344C8F83C
:10CE90002030BAF1000F7FF475AE636A002B7FF487
:10CEA00071AE206804F29C4200F0B0FD6AE61804FE
:10CEB00044BF4FF4004191602846FFF715FBA97964
:10CEC00001297FF4ECAE286805F29C4200F09EFD3B
:10CED000E5E6190740F191807C498E457FF6DBAE8F
:10CEE00018047FF5D8AE4FF400419160D3E6069F59
:10CEF000D8F8245026689D423FF61FAE9AE60029D6
:10CF0000BFF6C4AC206884F8CB2004F1C80100F05F
:10CF10004BFC2379BAE4206804F51E7100F044FC50
:10CF2000237918E4002221468BF857222846FFF780
:10CF300027FBCAE60029BFF6B2AC206884F8EF20D0
:10CF400004F1EC0100F030FC2379A8E4206804F53A
:10CF5000277100F029FC237904E40029BFF6A8AC6E
:10CF6000206884F8132104F5887100F01DFC2379F2
:10CF70009EE40029BFF6A5AC206884F8372104F5AB
:10CF80009A7100F011FC23799BE41904ABD49B0641
:10CF90007FF543AF202191603FE7002388F81730E9
:10CFA00059462046FFF7F0FA45E70029BFF692AC54
:10CFB000206884F85B2104F5AC7100F0F5FB23795F
:10CFC00088E4206804F5427100F0EEFB2379FFF756
:10CFD000DEBB0029BFF687AC206884F87F2104F50A
:10CFE000BE7100F0E1FB23797DE4206804F54B710C
:10CFF00000F0DAFB2379FFF7D1BB990672D5202127
:10D00000916048E60029BFF677AC206884F8A32138
:10D0100004F5D07100F0C8FB23796DE4206804F5B5
:10D02000547100F0C1FB2379FFF7BFBB0029BFF6A5
:10D030006CAC206884F8C72104F5E27100F0B4FB01
:10D04000237962E4206804F55D7100F0ADFB23797B
:10D05000FFF7B2BB0029BFF661AC206884F8EB2172
:10D0600004F5F47100F0A0FB237957E4206804F57F
:10D07000667100F099FB2379FFF7A5BB0029BFF685
:10D0800056AC206884F80F2204F5037100F08CFB85
:10D0900023794CE4206804F56F7100F085FB237957
:10D0A000FFF798BB0029BFF64BAC206884F8332209
:10D0B00004F50C7100F078FB237941E4206804F555
:10D0C000787100F071FB2379FFF78BBB0A30544F66
:10D0D0000A31544F206804F2044100F065FB2379C3
:10D0E000FFF786BB1B498E4502D91B043FF5FBAEFB
:10D0F0001169DBF87422C1F31201521ACBF86822CD
:10D10000BAF1000F7FF489AED5F86412D9B1D5F821
:10D1100060121144C5F860127FE6206804F585614D
:10D1200000F042FB2379FFF76ABB05F29C425146AF
:10D1300000F06CFC71E6206804F24C4100F034FB16
:10D140002379FFF763BB05F29C42012100F05EFCEE
:10D1500063E600BF0A30544F90F89424012A0DD0A2
:10D1600010B504460122006884F89424617400F02C
:10D17000FBFB002384F89434184610BD022070474E
:10D1800010B501F00F0E0EEBCE0C090604464FEA67
:10D190008C0C25D40CF5157101440EEBCE0004EB7C
:10D1A00080004FF0000C80F855C28A604A7881F800
:10D1B00000E00B710AB1A1F81AE0022B04BF0023B2
:10D1C0004B7194F89434012B16D0012384F89434D5
:10D1D000206800F083F9002384F89434184610BDC9
:10D1E0000CF1140101440EEBCE0004EB80004FF073
:10D1F000010C80F815C0D8E7022010BD10B501F071
:10D200000F0E0EEBCE0C00EB8C0C1446CCF86432F7
:10D2100000238CF854E2CCF86022CCF868328CF809
:10D2200055328279242101FB0E01012A01F5157185
:10D2300008BFCCF87042006800F098F9002010BDDB
:10D2400010B501F00F0E0EEBCE0C00EB8C0C14465B
:10D25000CCF824300023CCF8283001238CF814E0DB
:10D26000CCF820208CF815308279242101FB0E01A6
:10D270009A4201F1140108BFCCF83040006800F078
:10D2800075F9002010BD00BF38B5037901F00F0516
:10D29000AB4232D30B0604461CD401EBC10324225B
:10D2A00002FB010100EB830301F51571002283F8F5
:10D2B000552201238B700D7094F894249A421AD051
:10D2C000206884F8943400F0F5FAC5B1002084F8A1
:10D2D000940438BD05EBC503242101FB050100EBD7
:10D2E0008303012214315A7501238B700D7094F859
:10D2F00094249A42E4D1022038BD012038BDA1799E
:10D30000206804F29C4200F081FBDFE738B5037926
:10D3100001F00F0293422ED3044602EBC20302EB4C
:10D32000C20009064FEA830304EB800016D403F51C
:10D330001573E118002580F8555200258D700A708C
:10D3400094F89434012B14D00123206884F8943489
:10D3500000F0DEFA84F89454284638BD1433E118FE
:10D360000125457500258D700A7094F89434012BC1
:10D37000EAD1022038BD012038BD00BF704700BF90
:10D38000022A03460AD04FF41051DA6822F4705290
:10D39000DA60DA680A430020DA607047264A2748D4
:10D3A0000A44824232D9264A26480A44824230D967
:10D3B0002548A1F57402A2F5105282422CD92348C7
:10D3C000A1F18372A2F5E742824228D3204A214884
:10D3D0000A44824226D9204A20480A44824224D361
:10D3E0001F4A20480A448242CDD31F48A1F1B77298
:10D3F000A2F5585282421BD31C4A1D480A4482425D
:10D400002CBF4FF4C0514FF4E051BEE74FF47051C0
:10D41000BBE74FF46051B8E74FF45051B5E74FF414
:10D420004051B2E74FF43051AFE74FF42051ACE731
:10D430004FF40051A9E700BF405327FFFF340C0011
:10D44000401E1BFF3F420F007F4F120020D61300EB
:10D4500060B6E5FE5FE3160000D3CEFE40771B000A
:10D46000C05BB3FEC091210020753800E05459FE26
:10D47000E09C410082B00023019302E00369002B8D
:10D4800009DB019B01330193019BB3F1706FF5D967
:10D49000032002B070478901002341F0200101936D
:10D4A000016103E0036913F0200307D0019B0133FE
:10D4B0000193019BB3F1706FF4D9E9E7184602B00C
:10D4C000704700BFD0F8083813F0060004D013F0FE
:10D4D000020F14BF02200F20704700BF10B50A785A
:10D4E000012302F00F0E03FA0EF391F801E0BEF1F2
:10D4F000010F00F5006C00EB42101AD0DCF81C2084
:10D5000042EA0343CCF81C30D0F8003B1B040ED495
:10D510008B68D0F8004B0A79C3F30A03234343EA2C
:10D52000824343F0805343F40043C0F8003B0020A3
:10D5300010BDDCF81C402343CCF81C30D0F8003977
:10D540001C04F4D48B68D0F800490979C3F30A03AA
:10D55000234343EA814343EA825343F0805343F435
:10D560000043C0F80039002010BD00BF2DE9F04392
:10D570004C780E780D6991F804E0012C00EB46130D
:10D580005BD0D3F8104B6FF31204C3F8104BD3F8F1
:10D59000104B6FF3DC44C3F8104B03F5306C8C6810
:10D5A00056BB05B10C610C62DCF81050C4F31204D8
:10D5B0002C43CCF81040DCF81040012A44F400243D
:10D5C000CCF8104033D0BEF1010F0CD1D0F80828B0
:10D5D00012F4807FD3F8002B0CBF42F0005242F0CF
:10D5E0008052C3F8002BD3F8002B42F00442C3F85A
:10D5F000002B0020BDE8F083002DD5D0694E2544D6
:10D60000013DB5FBF4F5ADB205FB04F406EAC545F2
:10D61000DCF810600C623543CCF81050DCF8105088
:10D62000C4F312042C43012ACCF81040CBD1CA68B1
:10D63000002AC8D0CCF81420C5E703F51064276988
:10D6400095B36FF3120727612769D1F808906FF33C
:10D65000DC472761002E5FD12769A94547F40027E1
:10D660003CBFC1F810904D462761D4F810C0C5F3F7
:10D67000120747EA0C07BEF1010F27616AD0012AA1
:10D6800000F08A80D3F8002942F00442C3F8002950
:10D69000002DAED0D0F8342806F00F060123B34099
:10D6A0001343C0F83438A4E76FF3DC4727612769D8
:10D6B00047F4002727612769012A6FF312072761C2
:10D6C00039D0D3F80049BEF1010F44F00444C3F847
:10D6D00000498ED1D0F8084814F4807FD3F800496F
:10D6E0000CBF44F0005444F08054C3F80049002AB1
:10D6F0007FF47FAFADB20335AD083FF47AAFCB68AE
:10D7000000EB063606F5805603EB850153F8042B33
:10D7100032609942FAD16CE7224FD4F8108009EBBD
:10D72000050C0CF1FF3CBCFBF9FC07EACC4747EACF
:10D730000807276199E7CA6902B16261BEF1010F6A
:10D740001CD0D3F8002942F00442C3F8002900207D
:10D75000BDE8F083276927F0C04727612769012AC0
:10D7600047F00057276106D0D3F8004944F004443D
:10D77000C3F80049AEE7CA6902B16261D0F808286F
:10D7800012F4807FD3F800290CBF42F0005242F01F
:10D790008052C3F80029D4E7CA69002AD1D0626157
:10D7A000CFE700BF0000F81F10B44A780B7883B0B1
:10D7B0000021012A01914FEA431323D000F5306084
:10D7C000C218C158002904DB002003B05DF8044BE7
:10D7D0007047C45844F00064C450C45844F08044B6
:10D7E000C45042F2107102E01368002BECDA019B86
:10D7F00001330193019B8B42F6D9012003B05DF800
:10D80000044B704700F51060C218C1580029DBDADC
:10D81000C45844F00064C450C45844F08044C45018
:10D8200042F2107102E01368002BCDDA019B013344
:10D830000193019B8B42F6D9DFE700BF10B49DF83E
:10D84000044064B903339B0809D0013200EB023075
:10D8500001EB830351F8042B02608B42FAD10020C4
:10D860005DF8044B704700BF70B55FEA920E054645
:10D8700002F003061CD000F580548C4600230133CF
:10D8800022684CF8042B9E45F9D101EB8E0076B14D
:10D8900005F58055012E2B68037007D0022E4FEA44
:10D8A000132218BF1B0C427018BF8370304470BD28
:10D8B0000846ECE74A780B78012A00EB43100CD0BD
:10D8C000D0F8002B002A00DBD3B9D0F8003B43F49A
:10D8D0000013C0F8003B00207047D0F80029002A50
:10D8E00006DB2BB1D0F8003923F08043C0F80039B3
:10D8F000D0F8003943F40013C0F800390020704715
:10D90000D0F8003B23F08043C0F8003BDDE700BFC8
:10D910000B794A7891F800C0023B012A00EB4C10C9
:10D92000DBB211D0D0F8002B012B22F40012C0F88A
:10D93000002B01D900207047D0F8003B43F0805302
:10D94000C0F8003B00207047D0F80029012B22F4DA
:10D950000012C0F80029EDD8D0F8003943F0805308
:10D96000C0F8003900207047D0F8003823F4FE6377
:10D97000C0F80038D0F80038090101F4FE611943FD
:10D98000C0F8001800207047426980691040704755
:10D99000D0F8183800F50060C0691840000C7047D6
:10D9A000D0F8183800F50060C069184080B27047A0
:10D9B00000EB411100F50060D1F8082B40691040E0
:10D9C000704700BFD0F81028D0F8343800EB411071
:10D9D00001F00F01CB40DB01D0F80809DBB21343A3
:10D9E00018407047406900F001007047D0F80029E6
:10D9F00003466FF30A02C3F80029D3F8043800F590
:10DA0000006143F4807300204B60704730B4056CB4
:10DA1000114CA54200F5306303D9D0F8004B002C1F
:10DA200016DB00241C611C6944F400241C611C6981
:10DA300044F018041C611C69012944F0C0441C61B5
:10DA400006D15A61D0F8003B43F08023C0F8003B78
:10DA5000002030BC704700BF0A30544F002800F04F
:10DA6000D8812DE9F0410368DD0782B004462FD547
:10DA70009D498A6802F00C02042A00F0EC808A6852
:10DA800002F00C02082A00F0E2806368B3F5803FE0
:10DA900000F0EB80B3F5A02F00F07381924D2A685F
:10DAA00022F480322A602A6822F480222A60002B25
:10DAB00040F0E08001F060F9064605E001F05CF915
:10DAC000801B642800F200812B689F03F6D4236832
:10DAD0009D0728D5844A916811F00C0F00F09B80B7
