:020000040800F2
:1080000000000120AD7F010861E7000869E7000872
:108010006DE7000871E7000875E700080000000040
:1080200000000000000000000000000079E70008E8
:108030007DE700080000000081E7000885E70008F0
:10804000FD7F0108FD7F010889E70008FD7F010829
:10805000FD7F010895E70008FD7F0108FD7F01080D
:10806000FD7F0108FD7F0108FD7F0108FD7F0108FC
:10807000FD7F0108FD7F0108FD7F0108FD7F0108EC
:10808000FD7F0108FD7F010899E70008000000005E
:10809000000000000000000000000000FD7F01085B
:1080A000A5E70008B1E70008CDE70008FD7F01085B
:1080B000FD7F0108D9E70008E5E70008FD7F01081A
:1080C000FD7F0108FD7F0108FD7F0108F1E7000841
:1080D000FD7F0108FDE70008FD7F010800000000AA
:1080E000FD7F010809E80008FD7F0108000000008D
:1080F000000000000000000000000000FD7F0108FB
:108100000000000015E8000821E80008FD7F0108D4
:10811000000000000000000000000000000000005F
:10812000FD7F01082DE8000839E8000845E800084F
:1081300051E80008000000000000000000000000FE
:108140000000000000000000000000005DE80008E2
:10815000FD7F010869E8000875E8000881E800086B
:10816000FD7F0108FD7F0108000000000000000005
:1081700000000000000000000000000000000000FF
:10818000000000008DE80008000000000000000072
:04819000FD7F010866
:1081A00001F0FF01102A2BDB10F0070F08D010F8A8
:1081B000013B013A8B422DD010F0070F42B3F6D1AC
:1081C000F0B441EA012141EA014122F007047FF0C5
:1081D00000070023F0E80256083C85EA010586EA1C
:1081E000010685FA47F5A3FA87F586FA47F6A5FA58
:1081F00087F68EB9EED1F0BC01F0FF0102F0070264
:1082000032B110F8013B013A83EA010313B1F8D10E
:108210000020704701387047002D06BF35460338EF
:10822000073815F0010F07D1013015F4807F02BF28
:10823000013015F4C03F0130F0BC0138704700BF79
:10824000034613F8012B002AFBD1181A0138704796
:1082500010F8012B11F8013B012A28BF9A42F7D0F0
:10826000D01A704781F0004102E000BF83F0004364
:1082700030B54FEA41044FEA430594EA050F08BFC1
:1082800090EA020F1FBF54EA000C55EA020C7FEA85
:10829000645C7FEA655C00F0E2804FEA5454D4EB02
:1082A0005555B8BF6D420CDD2C4480EA020281EACC
:1082B000030382EA000083EA010180EA020281EA04
:1082C0000303362D88BF30BD11F0004F4FEA013156
:1082D0004FF4801C4CEA113102D0404261EB410165
:1082E00013F0004F4FEA03334CEA133302D05242EB
:1082F00063EB430394EA050F00F0A780A4F10104A7
:10830000D5F1200E0DDB02FA0EFC22FA05F28018E0
:1083100041F1000103FA0EF2801843FA05F35941C6
:108320000EE0A5F120050EF1200E012A03FA0EFC45
:1083300028BF4CF0020C43FA05F3C01851EBE3716F
:1083400001F0004507D54FF0000EDCF1000C7EEB8C
:1083500000006EEB0101B1F5801F1BD3B1F5001FCA
:108360000CD349085FEA30004FEA3C0C04F10104E9
:108370004FEA445212F5800F80F09A80BCF1004F12
:1083800008BF5FEA500C50F1000041EB045141EA94
:10839000050130BD5FEA4C0C404141EB0101013C5D
:1083A00028BFB1F5801FE9D291F0000F04BF01464C
:1083B0000020B1FA81F308BF2033A3F10B03B3F11E
:1083C00020020CDA0C3208DD02F1140CC2F10C02AE
:1083D00001FA0CF021FA02F10CE002F11402D8BF0C
:1083E000C2F1200C01FA02F120FA0CFCDCBF41EAD8
:1083F0000C019040E41AA2BF01EB0451294330BDA7
:108400006FEA04041F3C1CDA0C340EDC04F1140483
:10841000C4F1200220FA04F001FA02F340EA03005A
:1084200021FA04F345EA030130BDC4F10C04C4F1A0
:10843000200220FA02F001FA04F340EA0300294680
:1084400030BD21FA04F0294630BD94F0000F83F4CA
:10845000801306BF81F480110134013D4EE77FEAAD
:10846000645C18BF7FEA655C29D094EA050F08BFF9
:1084700090EA020F05D054EA000C04BF19461046DA
:1084800030BD91EA030F1EBF0021002030BD5FEA1E
:10849000545C05D14000494128BF41F0004130BD46
:1084A00014F580043CBF01F5801130BD01F000459A
:1084B00045F0FE4141F470014FF0000030BD7FEA0D
:1084C000645C1ABF194610467FEA655C1CBF0B4608
:1084D000024650EA013406BF52EA033591EA030F1F
:1084E00041F4002130BD00BF90F0000F04BF002117
:1084F000704730B54FF4806404F132044FF000054A
:108500004FF0000150E700BF90F0000F04BF0021C2
:10851000704730B54FF4806404F1320410F0004528
:1085200048BF40424FF000013EE700BF42004FEA23
:10853000E2014FEA31014FEA02701FBF12F07F43A0
:1085400093F07F4F81F06051704732F07F4208BF57
:10855000704793F07F4F04BF41F40021704730B55E
:108560004FF4607401F0004521F000411CE700BFAA
:1085700050EA010208BF704730B54FF000050AE02D
:1085800050EA010208BF704730B511F0004502D52E
:10859000404261EB41014FF4806404F132045FEA30
:1085A000915C3FF4D8AE4FF003025FEADC0C18BFD9
:1085B00003325FEADC0C18BF033202EBDC02C2F1CB
:1085C000200300FA03FC20FA02F001FA03FE40EA5D
:1085D0000E0021FA02F11444BDE600BF70B54FF061
:1085E000FF0C4CF4E06C1CEA11541DBF1CEA13553F
:1085F00094EA0C0F95EA0C0F00F0DEF82C4481EAA7
:10860000030621EA4C5123EA4C5350EA013518BFC6
:1086100052EA033541F4801143F4801338D0A0FBB3
:1086200002CE4FF00005E1FB02E506F00042E0FB60
:1086300003E54FF00006E1FB03569CF0000F18BF66
:108640004EF0010EA4F1FF04B6F5007F64F540740E
:1086500004D25FEA4E0E6D4146EB060642EAC621A1
:1086600041EA55514FEAC52040EA5E504FEACE2E0E
:10867000B4F1FD0C88BFBCF5E06F1ED8BEF1004F11
:1086800008BF5FEA500E50F1000041EB045170BD8D
:1086900006F0004646EA010140EA020081EA0301D1
:1086A000B4EB5C04C2BFD4EB0C0541EA045170BDCD
:1086B00041F480114FF0000E013C00F3AB8014F147
:1086C000360FDEBF002001F0004170BDC4F1000490
:1086D000203C35DA0C341BDC04F11404C4F1200511
:1086E00000FA05F320FA04F001FA05F240EA02006C
:1086F00001F0004221F0004110EBD37021FA04F6A2
:1087000042EB06015EEA430E08BF20EAD37070BD5B
:10871000C4F10C04C4F1200500FA04F320FA05F0BA
:1087200001FA04F240EA020001F0004110EBD370BC
:1087300041F100015EEA430E08BF20EAD37070BD2C
:10874000C4F1200500FA05F24EEA020E20FA04F305
:1087500001FA05F243EA020321FA04F001F00041B4
:1087600021FA04F220EA020000EBD3705EEA430E25
:1087700008BF20EAD37070BD94F0000F0FD101F054
:108780000046400041EB010111F4801F08BF013C8D
:10879000F7D041EA060195F0000F18BF704703F0CB
:1087A0000046520043EB030313F4801F08BF013D52
:1087B000F7D043EA0603704794EA0C0F0CEA13550E
:1087C00018BF95EA0C0F0CD050EA410618BF52EAC8
:1087D0004306D1D181EA030101F000414FF00000CE
:1087E00070BD50EA410606BF1046194652EA4306DC
:1087F00019D094EA0C0F02D150EA013613D195EA50
:108800000C0F05D152EA03361CBF104619460AD197
:1088100081EA030101F0004141F0FE4141F47001A1
:108820004FF0000070BD41F0FE4141F4780170BD91
:1088300070B54FF0FF0C4CF4E06C1CEA11541DBFF6
:108840001CEA135594EA0C0F95EA0C0F00F0A7F8F8
:10885000A4EB050481EA030E52EA03354FEA013125
:1088600000F088804FEA03334FF0805545EA131338
:1088700043EA12634FEA022245EA111545EA106500
:108880004FEA00260EF000419D4208BF964244F197
:10889000FD0404F5407402D25B084FEA3202B61AB6
:1088A00065EB03055B084FEA32024FF480104FF48A
:1088B000002CB6EB020E75EB030E22BFB61A7546FE
:1088C00040EA0C005B084FEA3202B6EB020E75EB91
:1088D000030E22BFB61A754640EA5C005B084FEAF9
:1088E0003202B6EB020E75EB030E22BFB61A7546C6
:1088F00040EA9C005B084FEA3202B6EB020E75EBD1
:10890000030E22BFB61A754640EADC0055EA060E91
:1089100018D04FEA051545EA16754FEA06164FEAD4
:10892000C30343EA52734FEAC2025FEA1C1CC0D180
:1089300011F4801F0BD141EA00014FF000004FF00D
:10894000004CB6E711F4801F04BF01430020B4F1CE
:10895000FD0C88BFBCF5E06F3FF6AFAEB5EB030C86
:1089600004BFB6EB020C5FEA500C50F1000041EB83
:10897000045170BD0EF0004E4EEA113114EB5C0450
:10898000C2BFD4EB0C0541EA045170BD41F4801123
:108990004FF0000E013C90E645EA060E8DE60CEA2B
:1089A000135594EA0C0F08BF95EA0C0F3FF43BAF48
:1089B00094EA0C0F0AD150EA01347FF434AF95EAFF
:1089C0000C0F7FF425AF104619462CE795EA0C0FE3
:1089D00006D152EA03353FF4FDAE1046194622E7B0
:1089E00050EA410618BF52EA43067FF4C5AE50EA8A
:1089F00041047FF40DAF52EA43057FF4EBAE12E77A
:108A00004FF0FF3C06E000BF4FF0010C02E000BF5A
:108A10004FF0010C4DF804CD4FEA410C7FEA6C5C3D
:108A20004FEA430C18BF7FEA6C5C1BD001B050EAE0
:108A3000410C0CBF52EA430C91EA030F02BF90EACB
:108A4000020F0020704710F1000F91EA030F58BF8A
:108A5000994208BF90422CBFD8176FEAE37040F0EC
:108A6000010070474FEA410C7FEA6C5C02D150EA8A
:108A7000013C07D14FEA430C7FEA6C5CD6D152EA45
:108A8000033CD3D05DF8040B704700BF844610460A
:108A900062468C461946634600E000BF01B5FFF709
:108AA000B7FF002848BF10F1000F01BD4DF808EDD9
:108AB000FFF7F4FF0CBF012000205DF808FB00BFAA
:108AC0004DF808EDFFF7EAFF34BF012000205DF804
:108AD00008FB00BF4DF808EDFFF7E0FF94BF012051
:108AE00000205DF808FB00BF4DF808EDFFF7CEFF52
:108AF00094BF012000205DF808FB00BF4DF808ED91
:108B0000FFF7C4FF34BF012000205DF808FB00BF61
:108B10004FEA410C7FEA6C5C02D150EA013C0AD179
:108B20004FEA430C7FEA6C5C02D152EA033C02D16B
:108B30004FF0000070474FF0010070474FEA4102CC
:108B400012F5001215D211D56FF47873B3EB62529F
:108B500012D94FEAC12343F0004343EA505311F0C6
:108B6000004F23FA02F018BF404270474FF0000058
:108B7000704750EA013005D111F0004008BF6FF096
:108B8000004070474FF00000704700BF4FEA4102BD
:108B9000B2F1E04324BFB3F5001CDCF1FE5C0DD95B
:108BA00001F0004C4FEAC0024CEA5070B2F1004FA5
:108BB00040EB830008BF20F00100704711F0804FA8
:108BC00021D113F13872BCBF01F00040704741F46D
:108BD00080114FEA5252C2F11802C2F1200C10FA71
:108BE0000CF320FA02F018BF40F001004FEAC12355
:108BF0004FEAD32303FA0CFC40EA0C0023FA02F3F9
:108C00004FEA4303CCE77FEA625307D150EA0133CE
:108C10001EBF4FF0FE4040F44000704701F000409E
:108C200040F0FE4040F40000704700BF80F000407C
:108C300002E000BF81F0004142001FBF5FEA410334
:108C400092EA030F7FEA226C7FEA236C6AD04FEA34
:108C50001262D2EB1363C1BFD21841404840414079
:108C6000B8BF5B42192B88BF704710F0004F40F42B
:108C7000000020F07F4018BF404211F0004F41F447
:108C8000000121F07F4118BF494292EA030F3FD013
:108C9000A2F1010241FA03FC10EB0C00C3F1200326
:108CA00001FA03F100F0004302D5494260EB4000B5
:108CB000B0F5000F13D3B0F1807F06D340084FEA20
:108CC000310102F10102FE2A51D2B1F1004F40EB15
:108CD000C25008BF20F0010040EA0300704749007D
:108CE00040EB0000013A28BFB0F5000FEDD2B0FA1A
:108CF00080FCACF1080CB2EB0C0200FA0CF0AABF3D
:108D000000EBC25052421843BCBFD04018437047DA
:108D100092F0000F81F4000106BF80F400000132E0
:108D2000013BB5E74FEA41037FEA226C18BF7FEAB7
:108D3000236C21D092EA030F04D092F0000F08BFF9
:108D40000846704790EA010F1CBF0020704712F0E0
:108D50007F4F04D1400028BF40F00040704712F11F
:108D600000723CBF00F50000704700F0004343F084
:108D7000FE4040F4000070477FEA226216BF0846BA
:108D80007FEA23630146420206BF5FEA412390EA7D
:108D9000010F40F4800070474FF0000304E000BF73
:108DA00010F0004348BF40425FEA000C08BF704724
:108DB00043F0964301464FF000001CE050EA0102E8
:108DC00008BF70474FF000030AE000BF50EA0102FD
:108DD00008BF704711F0004302D5404261EB4101EA
:108DE0005FEA010C02BF84460146002043F0B6430F
:108DF00008BFA3F18053A3F50003BCFA8CF2083A34
:108E0000A3EBC25310DB01FA02FC634400FA02FC3C
:108E1000C2F12002BCF1004F20FA02F243EB020043
:108E200008BF20F00100704702F1200201FA02FCA5
:108E3000C2F1200250EA4C0021FA02F243EB020098
:108E400008BF20EADC70704753B94AB9002908BF4F
:108E500000281CBF4FF0FF314FF0FF3000F00CB87E
:108E6000ADF1080C6DE904CE0FF0CAF8DDF804E0AE
:108E7000DDE9022304B07047704700BF0348044B8C
:108E8000834202D0034B03B118477047D40100203E
:108E9000D4010020000000000548064B1B1AD90F22
:108EA00001EBA301491002D0034B03B118477047EF
:108EB000D4010020D40100200000000010B5064CB1
:108EC000237843B9FFF7DAFF044B13B10448AFF33B
:108ED00000800123237010BDD80100200000000095
:108EE000BC86010808B5054B1BB105490548AFF321
:108EF0000080BDE80840FFF7CFBF00BF00000000C2
:108F0000DC010020BC8601082DE9FF4757EC106BFF
:108F1000002F0C4619463B46BBBF07F100431F46D6
:108F200000232D230B700D9BDDF830A0914623F01C
:108F30002008BCBF32461646B8F1460F05D0B8F13E
:108F4000450F00D10134022100E0032103AB01935E
:108F500002AB009347EC106B5346224600F0A8FD8D
:108F6000B8F1470F054619D119F0010F0ED000EBEB
:108F700004090022002330463946FFF797FD08B167
:108F8000CDF80C903022039B4B451ED3039B0E9AC9
:108F90005B1B2846136004B0BDE8F087B8F1460FAC
:108FA00000EB0409E5D10378302B0AD1002200231D
:108FB00030463946FFF77AFD18B9C4F10104CAF802
:108FC0000040DAF800309944D3E7591C03911A7035
:108FD000D9E7F7B50029BABF49422D232B23092928
:108FE0000270437029DD0DF107031D460A271A465A
:108FF000B1FBF7F607FB1614303402F8014C0C46AF
:10900000632C03F1FF333146F1DC3031941E03F859
:10901000011C411C2346AB420AD30DF109039B1AE4
:10902000AC4288BF002302330344181A03B0F0BDDA
:1090300013F8016B01F8016FEDE7302330318370D5
:10904000C170031DF1E700002DE9F04F8DB00C4613
:10905000DDF8588016461F46054600F09DFC036863
:1090600004931846FFF7ECF800230A93D8F8003071
:109070000590073323F0070303F1080294F818A0C2
:10908000D4F800B0C8F80020D3E9008929F00043E3
:109090000793CDF81880C4E91289DDE906019C4BDD
:1090A0004FF0FF32FFF734FD70BBDDE90601984B4E
:1090B0004FF0FF32FFF70EFD30BB00220023404689
:1090C0004946FFF7FDFC10B12D2384F84330914A47
:1090D000914BBAF1470F8CBF90469846032323610A
:1090E0002BF0040323604FF00009009733460BAACE
:1090F0002146284600F0D2F9013040F08D804FF033
:10910000FF300DB0BDE8F08F42464B464046494621
:10911000FFF7FEFC40B14B46002BBCBF2D2384F86B
:1091200043307E4A7E4BD4E763680AF0DF02069242
:109130005A1C3BD1062363604BF4806200232260FB
:1091400003930AABCDE901A309AB0093616849EC35
:10915000108B0DF123032846FFF7D6FE069B0999D5
:10916000472B804629D1C81C02DB6368994241DD48
:10917000AAF1020A5FFA8AFA0139524604F1500054
:109180000991FFF726FF0A9A1318012A81462361E5
:1091900002DC2268D20701D5013323619DF8233018
:1091A000002BA2D02D2384F843309EE7069A472A4D
:1091B000C2D1002BC0D10123BDE7BAF1650FDBD9C5
:1091C000BAF1660F18D1002963680BDD216113B96C
:1091D0002268D00702D501330B442361A1654FF00B
:1091E0000009DBE713B92268D20701D50233F4E79F
:1091F0000123F2E74FF0670A0A9B994205DB2368D7
:109200002161D807EAD54B1CE7E70029D4BFC1F19B
:10921000020201221344E0E723685A0507D42369B8
:10922000424631462846B84701302BD167E7BAF1AC
:10923000650F40F2DD80D4E9120100220023FFF720
:1092400035FC002833D0374A012331462846B84739
:1092500001303FF454AFDDE90938434502DB2368B0
:10926000D8070FD5DDE9042331462846B847013039
:109270003FF445AF4FF0000908F1FF3804F11A0A36
:10928000C84509DC23689B0700F10381E0680B9B5C
:109290009842B8BF184634E7012352463146284663
:1092A000B84701303FF42BAF09F10109E8E7099B0A
:1092B000002B39DC1B4A012331462846B8470130D0
:1092C0003FF41DAFDDE9093959EA030302D12368F0
:1092D000D907D7D5DDE9042331462846B847013000
:1092E0003FF40DAF4FF0000A04F11A0B099B5B42EB
:1092F000534501DC4B4693E701235A463146284645
:10930000B84701303FF4FBAE0AF1010AEEE700BFB7
:10931000FFFFEF7FDC860108D8860108E48601089C
:10932000E0860108E8860108A36DDDF828A0534512
:10933000A8BF5346002B994636DC4FF0000B29EAB4
:10934000E97904F11A02A36D0693A3EB09035B45C7
:1093500031DC099B9A453ADC2368DA0737D4099B4C
:10936000AAEB0309069BAAEB03039945A8BF9946FC
:10937000B9F1000F33DC4FF0000829EAE97904F174
:109380001A0B099BAAEB0303A3EB090343457FF7E1
:1093900079AF01235A4631462846B84701303FF499
:1093A000AEAE08F10108ECE7424631462846B84720
:1093B0000130C2D1A3E60123314628460692B847C0
:1093C00001303FF49CAE069A0BF1010BBBE7DDE9DF
:1093D000042331462846B8470130C0D18FE6069AAB
:1093E0004B46424431462846B8470130C3D186E651
:1093F000DDF828A0BAF1010F01DCDB0736D5012327
:10940000424631462846B84701303FF478AEDDE9A0
:10941000042331462846B84701303FF470AED4E902
:109420001201002200230AF1FF3AFFF73FFBC0B907
:10943000534608F1010231462846B84701300CD1A5
:109440005DE601235A4631462846B84701303FF4CD
:1094500056AE08F10108D045F3DB4B4604F150024B
:10946000DFE64FF0000804F11A0BF4E7012342464F
:10947000E1E701234A4631462846B84701303FF428
:109480003EAE08F10108E3680B995B1A4345F0DC36
:10949000FCE64FF0000804F11909F4E72DE9F04764
:1094A000164698468A680B69DDF820909342B8BF4B
:1094B0001346336091F8432007460C460AB1013346
:1094C00033602368990642BF3368023333602568EE
:1094D00015F0060506D104F1190AE36832689B1AF3
:1094E000AB4226DC94F843302268003B18BF0123CE
:1094F00092062BD404F1430241463846C847013056
:109500001ED02368226903F00603042B02BFE5681E
:109510003368ED1AA3680CBF25EAE5750025934270
:10952000C4BF9B1AED1800261A34B5421AD1002088
:1095300008E00123524641463846C847013003D16E
:109540004FF0FF30BDE8F0870135C6E7E1185A1C3F
:10955000302081F84300224494F8451082F84310EB
:109560000233C7E70123224641463846C847013047
:10957000E6D00136D9E700002DE9FF470F7E0C9EAB
:10958000782F914680460C469A4601F1430207D84F
:10959000622F0AD8002F00F0D180582F00F0B88039
:1095A00004F1420684F842703AE0A7F16303152BF8
:1095B000F6D801A151F823F011960008259600086D
:1095C000A1950008A1950008A1950008A1950008A3
:1095D00025960008A1950008A1950008A19500080E
:1095E000A1950008239700084F960008DD96000813
:1095F000A1950008A195000845970008A1950008CD
:109600004F960008A1950008A1950008E59600086E
:1096100033681A1D1B68326004F1420684F8423038
:1096200001239CE033682068191D3160060601D5CE
:109630001D6803E04506FBD5B3F90050002D03DAA1
:109640002D236D4284F8433058480A2311E02168E5
:109650003368080653F8045B02D4490648BFADB22C
:109660006F2F5248336014BF0A230823002184F867
:1096700043106668A660002E05DB21682E4321F0AA
:10968000040121604BD01646B5FBF3F103FB1157E3
:10969000C75D06F8017D2F46BB420D46F4D9082B65
:1096A0000BD12368DF0708D5236961689942DEBFC3
:1096B000302306F8013C06F1FF36921B2261CDF8FB
:1096C00000A04B4603AA21464046FFF7E7FE0130C3
:1096D0004AD14FF0FF3004B0BDE8F087236843F073
:1096E000200323603248782784F845702368316866
:1096F0001F0651F8045B02D45F0648BFADB231606B
:10970000D90744BF43F0200323601DB11023ADE708
:109710002648E9E7236823F020032360F6E716468E
:10972000BDE7336825686169181D30602E061B6827
:1097300001D5196002E06806FBD51980002323617A
:109740001646BCE733681A1D32601E686268002145
:109750003046FEF725FD08B1801B60606368236119
:10976000002384F84330AAE723693246494640463D
:10977000D0470130ADD023689B0713D4E068039B2A
:109780009842B8BF1846A6E70123324649464046EC
:10979000D04701309DD00135E36803995B1AAB4295
:1097A000F2DCEBE7002504F11906F5E7EA8601088B
:1097B000FB860108002310B50446C0E90033C0E968
:1097C0000433836081814366C28183611946082224
:1097D0005C3000F0B1F80D4B63620D4BA3620D4B92
:1097E000E3620D4B23630D4B24629C4206D003F1D0
:1097F0006802944202D0D0339C4205D104F1580053
:10980000BDE8104000F0C4B810BD00BFDDAF0008D7
:10981000FFAF000837B000085BB00008F40100207B
:10982000024A0349034800F069B800BF0000002065
:1098300081A800081000002041680C4B994210B527
:10984000044601D001F01CF8A168094B994202D0EE
:10985000204601F015F8E168064B994204D02046F5
:10986000BDE8104001F00CB810BD00BFF4010020AD
:109870005C020020C402002010B50B4B0B4C0C4ABC
:109880001A60204600220421FFF794FF04F16800CB
:1098900001220921FFF78EFF04F1D0000222BDE86A
:1098A00010401221FFF786BF2C030020F401002096
:1098B00021980008014800F06CB800BF3103002077
:1098C000014800F067B800BF3103002010B504461E
:1098D000FFF7F0FF236A1BB1BDE81040FFF7F0BFB0
:1098E000044B2362044B1B68002BF5D1FFF7C4FF28
:1098F000F2E700BF399800082C0300202DE9F84357
:109900000746884614460026D4E90195B9F10109B5
:1099100005D52468002CF7D13046BDE8F883AB8923
:10992000012B07D9B5F90E30013303D0294638464B
:10993000C04706436835E9E702440346934200D135
:10994000704703F8011BF9E770B50D4D0D4C641B12
:10995000A4100026A64209D10B4D0C4C0EF0AEFE11
:10996000641BA4100026A64205D170BD55F8043B27
:1099700098470136EEE755F8043B98470136F2E781
:1099800064900108649001086490010868900108DF
:109990007047704770470000004870474C01002036
:1099A0002DE9F74F03690C69A34207467EDB013CB2
:1099B00001F11408A30000F11405009305EB8403E2
:1099C000019358F8243055F8242001339A4208EBCB
:1099D0008409B2FBF3F62ED34FF0000AC446AE461C
:1099E000D3465CF8043B98B206FB00A0020C1B0CAB
:1099F00006FB0323DEF8002080B292B2121A5A440A
:109A0000DEF800004FEA134A9BB2C3EB224303EB9C
:109A1000104392B242EA0342E1454EF8042B4FEA6A
:109A2000234BDED2009BEB582BB9019B043B9D429C
:109A30001A462FD33C61384601F0C8F9002825DBCF
:109A40002946002058F8042BD1F800C01FFA82FEE6
:109A50001FFA8CF3A3EB0E030344120CC2EB234258
:109A600002EB1C429BB243EA0243C14541F8043B6E
:109A70004FEA2240E6D255F8242005EB840322B9B0
:109A8000043B9D421A460BD33C610136304603B07D
:109A9000BDE8F08F1268043B002ACBD1013CC6E739
:109AA0001268043B002AEFD1013CEAE70020EEE710
:109AB0002DE9F04FC76999B08DED040B55EC104BB3
:109AC000229E099183460E9213937FB9102000F0D5
:109AD000A9FD0246CBF81C0020B9A54BEF21A548F3
:109AE00001F024FBC0E901770760C760DBF81C3098
:109AF000196859B15A684A60012393408B605846EF
:109B000000F032FFDBF81C3000221A602B1EB9BFB8
:109B100023F00043059300233360059F964BBCBFA1
:109B200001223260BB4312D1139A42F20F731360C9
:109B3000C7F31303234300F04385239BDFF84CA2B4
:109B4000002B00F045850AF1030300F03FBD9DEDB9
:109B5000047B002251EC170B00238DED0C7BFEF7EC
:109B6000A5FF804658B1139A01231360239B13B1BC
:109B7000239A824B1360DFF818A200F029BD9DEDF7
:109B80000C0B16AA17A9584601F0D0F9C7F30A56CC
:109B90008146002E77D00D9BCDF85080C3F3130380
:109BA000DDE90C0143F07F5343F44013A6F2FF3686
:109BB00019460022724BFEF759FB67A3D3E9002335
:109BC000FEF70CFD66A3D3E90023FEF751FB044624
:109BD00030460D46FEF798FC63A3D3E90023FEF759
:109BE000FDFC02460B4620462946FEF741FB044693
:109BF0000D46FEF7A3FF0022074600232046294614
:109C0000FEF75EFF40B13846FEF77EFC22462B464B
:109C1000FEF74CFF00B9013F162F51D8594B03EB0B
:109C2000C703D3E90023DDE90C01FEF749FF002853
:109C300048D0013F00231293169B9B1B5A1E44BF22
:109C4000C3F101080023089254BF4FF000080893A5
:109C5000002F39DB089B0F973B44089300230A939E
:109C6000099B092B61D8052BC4BF043B0993099BB1
:109C7000A3F10203CCBF00240124032B61D8DFE849
:109C800003F05052352ADDE916631E4406F23243D2
:109C9000202BC1BFC3F140039F4006F2124324FAB8
:109CA00003F3D6BFC3F1200347EA030004FA03F02D
:109CB000FEF71AFC0122A1F1F873013E149277E736
:109CC0000123B8E71290B7E77B420A930023A8EB81
:109CD00007080F93C4E701230B930E9BFB18009317
:109CE0000133012B0393B8BF012306E001230B933B
:109CF0000E9B002B28DD00930393DBF81C00002152
:109D0000042202F114059D4223D94160584600F017
:109D1000EBFD824600283DD11B4B024640F2AF11BD
:109D2000DDE60023E3E70023D6E7012400230993BF
:109D30000B944FF0FF3300930393002212230E92F3
:109D4000DBE701230B93F4E70123009303931A4607
:109D5000F5E701315200D4E761436F63A787D23F33
:109D6000B3C8608B288AC63FFB799F501344D33F0A
:109D700019870108308701080000F07FE986010893
:109D80000000F83F908801089187010815870108B5
:109D9000E8860108DBF81C301860039B0E2B00F2EC
:109DA000A180002C00F09E80002F33DD9C4B07F03B
:109DB0000F0203EBC20393ED007BF8058DED067BEC
:109DC0004FEA271416D5974BDDE90C01D3E9082398
:109DD000FEF72EFDCDE9040104F00F040326914D9A
:109DE00054B9DDE90623DDE90401FEF721FDCDE9E3
:109DF000040128E00226F2E7E10708D5DDE90601C3
:109E0000D5E90023FEF7EAFBCDE90601013664102F
:109E10000835E5E700F0AF807C42814B814D04F0CE
:109E20000F0203EBC203D3E90023DDE90C01FEF7C7
:109E3000D5FBCDE90401241100230226002C40F0BB
:109E40008F80002BD3D1129BDDE90445002B00F05D
:109E50009480754B002220462946FEF731FE0028EB
:109E600000F08B80039B002B00F08780009B002B71
:109E700034DD7B1E069320466C4B00222946FEF7FC
:109E8000ADFBCDE90401009C01363046FEF73CFBFA
:109E9000DDE90423FEF7A2FB654B0022FEF7E8F99B
:109EA0000546A1F15076002C6AD1DDE90401614B31
:109EB0000022FEF7DBF902460B46CDE904232A46D1
:109EC0003346FEF71BFE002840F08782DDE90401DF
:109ED0002A4606F10043FEF7F3FD38BBDDE90C34FA
:109EE000CDE90434179B002BC0F258810E2F00F3EC
:109EF00055814B4B03EBC70393ED007B0E9B002B6F
:109F00008DED007B80F2E580039B002B00F3E18068
:109F10000CD1484B002251EC170BFEF75FFBDDE93B
:109F20000423FEF7E1FD002800F0558200242546B9
:109F30000E9BDB430693564600272146584600F009
:109F400013FD002D00F0BD802FB1AF4203D0394684
:109F5000584600F009FD2946584600F005FDB0E0DE
:109F6000E20705D5D5E90023FEF738FB01360123CA
:109F70006410083562E7022665E7039C069784E7CC
:109F8000274B0B9903EBC40353E9022354440029E4
:109F900054D029490020FEF74BFC33462A46FEF7F1
:109FA00065F9CDE910015646DDE90401FEF7C6FD6D
:109FB0000546FEF7A9FA02460B46DDE90401FEF765
:109FC00055F9303502460B46CDE9042306F8015B0E
:109FD000DDE91023FEF774FD002872D1DDE90423CA
:109FE00011490020FEF742F9DDE91023FEF768FD74
:109FF000002840F0B480A6423FF470AFDDE91001C4
:10A000000A4B0022FEF7EAFA084BCDE910010022C4
:10A01000DDE90401FEF7E2FACDE90401C4E700BF7F
:10A0200090880108688801080000F03F0000244083
:10A0300000001C40000014400000E03F314628466C
:10A04000FEF7CCFACDE9100115945646DDE904017E
:10A05000FEF774FD0546FEF757FA02460B46DDE9AA
:10A060000401FEF703F9303506F8015B02460B46A2
:10A07000A642CDE904234FF0000224D1AB4BDDE929
:10A080001001FEF7F5F802460B46DDE90401FEF784
:10A0900035FD002863D1DDE91023A4490020FEF737
:10A0A000E5F802460B46DDE90401FEF709FD00284C
:10A0B0003FF414AF159E731E159316F8013C302B18
:10A0C000F8D0069F3BE09A4BFEF788FACDE90401F1
:10A0D000BCE7DDE904455646DDE900232046294674
:10A0E000FEF7A6FBFEF72AFD8046FEF70DFADDE936
:10A0F0000023FEF773FA02460B462046294608F174
:10A100003004FEF7B3F806F8014B039DA6EB0A04F2
:10A11000A54202460B4634D1FEF7AAF8DDE900233A
:10A1200004460D46FEF7EAFCC0B9DDE900232046EF
:10A130002946FEF7BBFC10B118F0010F0ED14946BD
:10A14000584600F011FC00233370139B01371F6049
:10A15000239B002B00F03C821E6039E206973346B9
:10A160001E4613F8012D392A07D19A45F8D1069ACF
:10A170000132069230228AF800201A7801321A70D1
:10A180009FE76B4B0022FEF729FA002200230446CA
:10A190000D46FEF78BFC00289ED0D0E70B9A002AD4
:10A1A00000F0E180099A012A00F3C480149A002A81
:10A1B00000F0B78003F233430A9C4646089A012117
:10A1C0001A4458469844089200F082FC05465EB155
:10A1D000089B002B08DDB342089AA8BF3346A8EBC2
:10A1E0000308F61AD31A08930A9BF3B10B9B002BB2
:10A1F00000F0BD808CB129462246584600F020FD73
:10A200004A4601460546584600F078FC4946069005
:10A21000584600F0A9FB069B99460A9B1A1B04D0DE
:10A220004946584600F00CFD81460121584600F091
:10A230004FFC0F9B0446002B00F0CE811A460146CE
:10A24000584600F0FDFC099B012B044600F3958065
:10A25000049B002B40F08D80059BC3F31303002B60
:10A2600040F08980059B23F000431B0D1B052BB19B
:10A27000089B0133089308F1010801230A930F9BFF
:10A28000002B00F0AF81236904EB8303186900F011
:10A29000D3FBC0F12000089B184410F01F0077D0BA
:10A2A000C0F12003042B6BDD089BC0F11C000344AC
:10A2B000804406440893B8F1000F05DD4946424644
:10A2C000584600F017FD8146089B002B05DD21460E
:10A2D0001A46584600F00EFD0446129B002B59D03A
:10A2E0002146484600F072FD002853DA7B1E069393
:10A2F000494600230A22584600F058FB0B9B814632
:10A30000002B00F07181002329460A22584600F0F4
:10A310004DFB009B002B054667DC099B022B41DCB3
:10A3200063E0169BC3F1360346E700BF0000E03F41
:10A3300000002440039B5C1E0A9BA34209DB1C1BFC
:10A34000039B002BBFF639AF039BA8EB030600234A
:10A3500034E70A9B0F9A0A94E31A1A440F92039B5C
:10A36000464600242AE70A9C0B9D46462FE70A9A98
:10A3700056E7002382E7049B80E700230A9382E7E5
:10A3800099D0089A1C331A4498441E44089292E7C4
:10A390000346F6E7039B0697002B20DC0093099BFE
:10A3A000022B1EDD009B002B7FF4C2AD214605224F
:10A3B000584600F0FBFA01460446484600F006FD08
:10A3C00000287FF7B5AD5646312306F8013B069BC2
:10A3D00001330693B0E5039C06972546F3E7039BFC
:10A3E00000930B9B002B00F00381002E05DD294616
:10A3F0003246584600F07EFC05460A9B002B5AD098
:10A400006968584600F070FA064628B9834B024640
:10A4100040F2EF21FFF763BB2A690232920005F197
:10A420000C010C3000F074FE01223146584600F059
:10A4300061FC0AF101030393009B53440B93049BBB
:10A4400003F001032F460A930546039B2146013B77
:10A4500048460093FFF7A4FA3946049000F130080B
:10A46000484600F0B3FC2A4608902146584600F0C2
:10A47000C9FCC268064602BB0146484600F0A6FC7D
:10A480000246314658460E9200F06EFA099B0E9A2B
:10A49000039E42EA03010A9B194310D1B8F1390F18
:10A4A00029D0089B002B02DD049B03F13108009B9F
:10A4B00083F8008041E52846BBE70122E1E7089BDD
:10A4C000002B04DB09990B430A990B4320D1002A86
:10A4D000EDDD49460122584600F00CFC214681463C
:10A4E00000F074FC002803DCE1D118F0010FDED08D
:10A4F000B8F1390FD8D1009A3923137033461E466C
:10A50000013B16F8012C392A51D001321A7014E59A
:10A51000002A07DDB8F1390FEDD0009A08F10103E8
:10A5200013700AE5039B0B9A03F8018C934228D021
:10A53000494600230A22584600F038FAAF428146C5
:10A540004FF000034FF00A023946584607D100F099
:10A550002DFA07460546039B0133039375E700F088
:10A5600025FA2946074600230A22584600F01EFA1B
:10A570000546F0E7009B002BCCBF1E460126564443
:10A58000002749460122584600F0B4FB2146814687
:10A5900000F01CFC0028B1DC02D118F0010FADD195
:10A5A00033461E4613F8012D302AFAD0C5E49A45E9
:10A5B000A5D1069B0133069331238AF80030BCE411
:10A5C000239BDFF85CA01BB10AF10803239A1360F8
:10A5D000504619B0BDE8F08F099B012B7FF738AECC
:10A5E0000F9B0A93012056E6009B002B7FF7D7AE06
:10A5F000564621464846FFF7D3F900F1300806F8E1
:10A60000018B009BA6EB0A029342B3DD494600236F
:10A610000A22584600F0CAF98146EAE79187010804
:10A620000C870108024B0146186800F025B800BFEE
:10A630000C00002070B50F4E0C463168054611B96C
:10A6400000F034FD30602146284600F02FFD431C09
:10A6500003D14FF0FF34204670BDC41C24F0030426
:10A66000A042F8D0211A284600F020FD0130F2D196
:10A67000EFE700BF340300202DE9F843CD1C25F09F
:10A68000030508350C2D38BF0C25002D064601DBCF
:10A69000A94204D90C2333600020BDE8F883DFF819
:10A6A000D48000F015F9D8F800301C4644BB294688
:10A6B0003046FFF7BFFF431C044658D1D8F800408E
:10A6C0002746002F43D1002C4BD023683946304613
:10A6D00004EB030900F0EAFC814542D121686D1AC0
:10A6E00029463046FFF7A6FF01303AD023682B44B5
:10A6F0002360D8F800305A6862BBC8F800700FE0D9
:10A700002268521B20D40B2A17D96119A342256055
:10A7100018BF5960636808BFC8F8001062514B60E9
:10A72000304600F0DBF804F10B00231D20F0070099
:10A73000C21A1CBF1B1AA350AFE76268A3420CBF2A
:10A74000C8F800205A60EBE723466468AEE73C4651
:10A750007F68B6E71A465B68A342FBD100235360CB
:10A76000DEE70C233360304600F0B8F894E705606C
:10A77000D6E700BF38030020B1F90C202DE9F041E5
:10A78000160705460C4654D44B68002B02DC0B6CB4
:10A79000002B48DDE66A002E45D0002312F48052DB
:10A7A0002F68216A2B6030D0626DA389590705D5C7
:10A7B0006368D21A636B0BB1236CD21A0023E66A6A
:10A7C000216A2846B047431CA38906D129681D2960
:10A7D0002BD82A4ACA40D60727D500226260D9045E
:10A7E0002269226004D5421C01D12B6803B960653F
:10A7F000616B2F60B9B104F14403994202D028463D
:10A8000000F0C6FC002363630DE001232846B04737
:10A810000246501CC9D12B68002BC6D01D2B01D07D
:10A82000162B1ED12F60002022E043F040031BB204
:10A830001BE00F69002FF6D093070E6808BF4B6925
:10A840000F6018BF0023A6EB07088B60B8F1000F5C
:10A85000E9DD216AA66A43463A462846B047002801
:10A8600008DCB4F90C3043F04003A3814FF0FF3013
:10A87000BDE8F0810744A8EB0008E7E701004020AD
:10A8800038B50B6905460C4613B90025284638BD76
:10A8900018B1036A0BB9FFF719F8B4F90C30002BA3
:10A8A000F3D0626ED00704D4990502D4A06DFFF7EF
:10A8B00070F828462146FFF75FFF636EDA0705460A
:10A8C000E4D4A3899B05E1D4A06DFFF763F8DDE72D
:10A8D0000148FFF75EB800BF300300200148FFF7D2
:10A8E00059B800BF3003002070B5C66904460D4654
:10A8F00076B91020FFF796FE0246E06120B9184BAA
:10A9000018486B2100F012FCC0E901660660C660C1
:10A91000E669F36883B1E369DB6853F82500B8B9E9
:10A92000012101FA05F6721D9200204600F01CFC80
:10A9300060B1C0E901560EE021220421204600F05A
:10A9400013FCE369F060DB68002BE4D1002070BDEC
:10A95000026843F825200023C0E90333F7E700BF6E
:10A9600019870108A287010870B5C66905460C461B
:10A9700076B91020FFF756FE0246E86120B9094B70
:10A9800009488F2100F0D2FBC0E901660660C6606D
:10A990003CB1EB696268DB6853F82210216043F830
:10A9A000224070BD19870108A28701082DE9F041F6
:10A9B0000D6907460C461E4601F1140C0020DCF818
:10A9C000003099B202FB01611E0C0B0C02FB063336
:10A9D00089B2013001EB034185424CF8041B4FEA78
:10A9E0001346ECDC0EB3A368AB4219DC6168384651
:10A9F0000131FFF779FF804628B902460C4B0D481C
:10AA0000BA2100F093FB2269023204F10C0192009A
:10AA10000C3000F07DFB21463846FFF7A5FF444689
:10AA200004EB850301355E6125612046BDE8F081B8
:10AA300091870108A2870108B0F5803F034636BF21
:10AA4000030400201020B3F1807F3CBF1B020830BC
:10AA5000B3F1805F3CBF1B010430B3F1804F3CBFBA
:10AA60009B000230002B05DB13F0804F00F101004A
:10AA700008BF202070470368024613F007000BD080
:10AA8000D90721D4980749BF5B089B0801201360B0
:10AA90005CBF13600220704799B209B91B0C1020EB
:10AAA000D9B209B908301B0A190704BF1B090430C1
:10AAB000990704BF9B080230D90703D45B0800F153
:10AAC000010003D0136070470020704720207047BA
:10AAD00010B50C460121FFF707FF024628B9054BC8
:10AAE000054840F2451100F021FB01234461036158
:10AAF00010BD00BF91870108A28701082DE9F04F22
:10AB000017460A693B699A42A8BF3B468946A4BFDB
:10AB10000F4699463D69D9F810A0BB68796805EBE6
:10AB20000A06B34285B0B8BF0131FFF7DDFE30B988
:10AB30000246414B41484FF4B17100F0F7FA00F181
:10AB4000140404EB860E23460022734520D307F13C
:10AB5000140809F1140108EB850501EB8A0302933F
:10AB6000EB1B153B23F0030304331537BD4238BFFD
:10AB700004230193029B03918B420CD8002E03DD2A
:10AB80005EF8043D002B55D0066105B0BDE8F08F9E
:10AB900043F8042BD9E7B1F800A0BAF1000F1FD099
:10ABA000C446A14600275CF8042BD9F800301FFAF0
:10ABB00082FB9BB20AFB0B333B44D9F80070120CAA
:10ABC0003F0C0AFB027202EB13429BB243EA0243C0
:10ABD000654549F8043B4FEA1247E4D8019BE7502A
:10ABE000039BB3F802900431B9F1000F20D0236821
:10ABF0004746A4464FF0000AB7F800B0BCF8022060
:10AC000009FB0B2252449BB243EA02434CF8043B3B
:10AC100057F8043B4FEA134ABCF8003009FB0A33EB
:10AC200003EB1243BD424FEA134AE5D8019AA35001
:10AC300004349FE7013EA1E791870108A28701083C
:10AC40002DE9F843154612F0030207460E4607D0D9
:10AC5000254C013A002354F82220FFF7A7FE0646B0
:10AC6000AD103DD0FC697CB91020FFF7DBFC02463B
:10AC7000F86128B91D4B1E4840F2B31100F056FA96
:10AC8000C0E901440460C460D7F81C80D8F80840CB
:10AC90004CB940F271213846FFF71AFF0023C8F87B
:10ACA0000800044603604FF00009EB070AD531465F
:10ACB00022463846FFF722FF314680463846FFF7E6
:10ACC00053FE46466D100BD0206838B92246214607
:10ACD0003846FFF713FF2060C0F800900446E4E711
:10ACE0003046BDE8F88300BF5C8801081987010879
:10ACF000A28701082DE9F0470C464968236903EB58
:10AD00006218A368074691464FEA621A08F10106E5
:10AD1000B3420BDB3846FFF7E7FD054648B902466C
:10AD2000284B29484FF4EF7100F000FA01315B0025
:10AD3000EEE7002300F1140100F11002184653451C
:10AD400033DB20692AEAEA7A04F1140319F01F09B7
:10AD500001EB8A0103EB800C2BD0C9F1200E8A464F
:10AD60000022186800FA09F010434AF8040B53F85F
:10AD7000042B9C4522FA0EF2F3D8ACEB0403153BEE
:10AD800023F00303043304F11500604588BF042356
:10AD9000CA500AB108F10206013E38462E6121462A
:10ADA000FFF7E2FD2846BDE8F08742F8040F0133C3
:10ADB000C5E7043953F8042B41F8042F9C45F9D812
:10ADC000EAE700BF91870108A28701080A690346E4
:10ADD0000069801A30B50ED11433143103EB8204AC
:10ADE00001EB820154F8045D51F8042D954203D023
:10ADF00005D24FF0FF3030BDA342F3D3FBE7012073
:10AE0000F9E700002DE9F74F894606461146484606
:10AE10001446FFF7DBFF051E12D129463046FFF727
:10AE200063FD024628B93F4B40F237213E4800F00F
:10AE30007DF90123C0E90435104603B0BDE8F08F69
:10AE4000BCBF4B46A1463046D9F80410BABF1C46D9
:10AE500001250025FFF748FD024618B9314B40F2A5
:10AE60004521E3E7D9F810702669C56009F11003A0
:10AE700009F1140504F1140E00F1140B05EB870819
:10AE80000EEB86060193D9464FF0000C019B5EF84D
:10AE9000040B53F804AF01931FFA8AF3194683B2E7
:10AEA000CB1A000C6344C0EB1A4000EB23409BB26A
:10AEB00043EA0043764549F8043B4FEA204CE5D885
:10AEC000331B153B23F0030315340433A64238BF6C
:10AED00004231D445B441E462C4644450ED308F112
:10AEE0000301491B21F00301033DA84538BF0021A0
:10AEF0000B4453F8041D91B117619DE754F8041BEE
:10AF0000E646080C1CFA81FC714400EB2C4089B227
:10AF100041EA004146F8041B4FEA204CDDE7013FBF
:10AF2000E7E700BF91870108A28701082DE9F743F1
:10AF30000F46012159EC108B1646FFF7D5FC04464D
:10AF400030B90246234B244840F20F3100F0EEF8AE
:10AF5000C9F30A55C9F313030DB143F480130193E8
:10AF6000B8F1000323D068460093FFF784FDDDE9C4
:10AF70000012D0B1C0F1200302FA03F30B43C24028
:10AF800063610192019BA361002B0CBF012202228D
:10AF90002261A5B1A5F2334505443D60C0F13500FD
:10AFA0003060204603B0BDE8F0836161EAE701A8A4
:10AFB000FFF761FD019B636120300122E8E704EBAC
:10AFC0008203A0F2324038601869FFF735FDC0EB0C
:10AFD0004210E5E791870108A287010810B50C46E9
:10AFE000B1F90E1000F050F80028ABBF636DA389D3
:10AFF0001B1823F48053ACBF6365A38110BD2DE9FA
:10B00000F0411F468B89DB0505460C46164605D5E3
:10B01000B1F90E100223002200F024F8A389B4F93C
:10B020000E1023F48053A38132463B462846BDE8E8
:10B03000F04100F04BB810B50C46B1F90E1000F01D
:10B0400011F8431CA38915BF606523F4805343F4B2
:10B050008053A38118BFA38110BDB1F90E1000F079
:10B0600047B8000038B5074D04460846114600228F
:10B070002A601A460CF098FF431C02D12B6803B1DA
:10B08000236038BD3C03002038B5074D0446084610
:10B09000114600222A601A460CF06CFF431C02D1B4
:10B0A0002B6803B1236038BD3C03002038B5064D42
:10B0B0000023044608462B600CF02AFF431C02D1F3
:10B0C0002B6803B1236038BD3C03002038B5074D21
:10B0D00004460846114600222A601A4602F086F904
:10B0E000431C02D12B6803B1236038BD3C03002010
:10B0F00038B5064D0023044608462B600CF048FF87
:10B10000431C02D12B6803B1236038BD3C030020EF
:10B110000A44914200F1FF3300D1704710B511F895
:10B12000014B03F8014F9142F9D110BD1FB51446F0
:10B130001A46094B1B680546D8684CB1074B00916D
:10B14000CDE9013406492B4600F07EF800F09BF86B
:10B15000044B1C46F3E700BF0C0000200E880108DA
:10B160001B8801084988010870B5A1FB025434B955
:10B170002946FFF781FA064628B9304670BD0C22F1
:10B1800002600026F9E72A462146FEF7D5FBF4E7E0
:10B1900038B50546002941D051F8043C0C1F002B5E
:10B1A000B8BFE418FFF794FB1D4A136833B9636016
:10B1B00014602846BDE83840FFF790BBA34208D989
:10B1C000206821188B4201BF19685B68091821604B
:10B1D000EDE71A465B680BB1A342FAD91168501823
:10B1E000A0420BD120680144501883421160E0D185
:10B1F00018685B68536008441060DAE702D90C23D2
:10B200002B60D6E7206821188B4204BF19685B6861
:10B21000636004BF091821605460CAE738BD00BFED
:10B220003803002082B001B901A942B14BB11378B3
:10B230000B601278101E18BF012002B07047104634
:10B24000FBE76FF00100F8E70EB403B5014603AB6E
:10B25000054853F8042B0068019300F045F802B04C
:10B260005DF804EB03B070470C000020034608466D
:10B2700041B1FF2A04D98A221A604FF0FF3070478B
:10B280000A700120704708B5062000F07DFA012001
:10B290000CF06AFE9368013B002B10B4936008DA4F
:10B2A0009469A34201DB0A2903D15DF8044B00F045
:10B2B00033B91368581C1060197008465DF8044BC8
:10B2C0007047F8B506460F461446D518AC4201D172
:10B2D000002007E014F8011B3A463046FFF7DAFF7A
:10B2E000431CF3D1F8BD00002DE9F04F0D469DB091
:10B2F00014469846064618B1036A0BB9FEF7E6FAFB
:10B300006B6ED90705D4AB899A0502D4A86DFEF7F8
:10B3100040FBAB891B0701D52B699BB929463046F9
:10B3200000F038F970B16B6EDC0704D54FF0FF30D8
:10B330001DB0BDE8F08FAB899805F7D4A86DFEF776
:10B3400029FBF3E70023099320238DF82930CDF85A
:10B350000C803023DFF8AC818DF82A304FF00109E2
:10B3600023469A4613F8012B0AB1252AF9D1BAEBE4
:10B37000040B0BD05B46224629463046FFF7A1FF5F
:10B38000013000F0A780099A5A4409929AF80030D7
:10B39000002B00F09F8000234FF0FF32CDE9052302
:10B3A0000AF1010A049307938DF853301A93544617
:10B3B000052214F8011B5348FCF7F2FE049AD8B991
:10B3C000D10644BF20238DF85330130744BF2B23ED
:10B3D0008DF853309AF800302A2B15D0079A54462E
:10B3E00000204FF00A0C214611F8013B303B092B9D
:10B3F0004BD9B0B1079214E0A0EB080309FA03F3AC
:10B4000013430493A246D2E7039B191D1B680391C3
:10B41000002BBBBF5B4242F0020207930793B8BF09
:10B42000049223782E2B0AD163782A2B32D1039BE6
:10B430001A1D1B68039243EAE37302340593DFF895
:10B44000D4A0217803225046FCF7AAFE38B1049B11
:10B45000A0EB0A004022824013430134049314F805
:10B46000011B29488DF828100622FCF799FE0028B8
:10B470003FD0264B1BBB039B073323F00703083346
:10B480000393099B3B4409936AE70CFB02320C4689
:10B490000120A8E700230134059319464FF00A0C58
:10B4A000204610F8012B303A092A03D9002BC6D0C8
:10B4B0000591C4E70CFB012104460123F0E703AB2F
:10B4C00000932A46124B04A93046FDF7BDFD0746FE
:10B4D000781CD6D16B6ED90705D4AB899A0502D4F6
:10B4E000A86DFEF757FAAB895B063FF51FAF0998C9
:10B4F0001EE703AB00932A46054B04A93046FEF72E
:10B500003BF8E4E74A88010854880108499000089C
:10B51000C3B2000850880108F8B50E461446054627
:10B5200018B1036A0BB9FEF7D1F9A369A360A38927
:10B530001A0701D5236943B92146284600F02AF8A5
:10B5400018B14FF0FF373846F8BD23682269981AC2
:10B550006369F6B28342374605DC21462846FFF789
:10B560008FF90028EDD1A368013BA36023685A1C22
:10B5700022601E706269431C9A4204D0A389DB07D3
:10B58000E1D50A2EDFD121462846FFF779F90028B8
:10B59000D9D0D6E738B5294B054618680C4618B1FE
:10B5A000036A0BB9FEF792F9B4F90C30190722D4EB
:10B5B000DA0607D409222A6043F04003A3814FF042
:10B5C000FF3033E0580712D5616B41B104F14403F9
:10B5D000994202D02846FFF7DBFD00236363A3896D
:10B5E00023F02403A3810023636023692360A389DC
:10B5F00043F00803A38123694BB9A38903F42073A3
:10B60000B3F5007F03D02146284600F03FF8B4F997
:10B610000C3013F001020AD00022A260626952428B
:10B62000A261226942B913F08000C5D138BD9907E3
:10B6300058BF6269A260F4E70020F7E70C00002021
:10B6400070B50C46B1F90E10002996B015461E468D
:10B650000DDAA38913F0800F4FF0000114BF4023CF
:10B660004FF48063002031602B6016B070BD6A46D5
:10B6700000F0B6F80028ECDB019901F47041A1F567
:10B680000053594259414FF48063EBE78B89F7B57A
:10B690009D0706460C4607D504F147032360236146
:10B6A0000123636103B0F0BD01AB6A46FFF7C8FF39
:10B6B000009F054639463046FEF7DEFF48B9B4F92B
:10B6C0000C309A05EED423F0030343F00203A38168
:10B6D000E2E7A389206043F08003A381019BC4E9D2
:10B6E00004075BB1B4F90E10304600F055F828B1EC
:10B6F000A38923F0030343F00103A381A3891D431E
:10B70000A581CFE7884210B501EB020402D984423B
:10B71000234607D8431EA14208D011F8012B03F895
:10B72000012FF8E7024401468A4200D110BD13F808
:10B73000014D02F8014DF7E71F2938B505460C46C3
:10B7400004D9162303604FF0FF3038BDC26B12B12D
:10B7500052F821304BB9284600F040F82246014605
:10B760002846BDE8384000F027B8012B0AD0591C04
:10B7700003D1162303600120E7E7002142F82410DB
:10B78000204698470020E0E7024B01461868FFF783
:10B79000D3BF00BF0C00002038B5064D002304467F
:10B7A00008462B600CF0FEFB431C02D12B6803B152
:10B7B000236038BD3C03002038B5074D0023044604
:10B7C000084611462B600CF0C7FB431C02D12B68C6
:10B7D00003B1236038BD00BF3C0300200CF0BABBAE
:10B7E00038B5074D00230446084611462B600CF07F
:10B7F000D3FB431C02D12B6803B1236038BD00BFCB
:10B800003C0300202DE9F041074614460D4621B9BE
:10B81000BDE8F0411146FEF72FBF2AB9FFF7B8FC8B
:10B8200025462846BDE8F08100F01AF88442064615
:10B8300002D8B4EB500FF4D821463846FEF71CFF6F
:10B84000804608B94546ECE7B4422246294628BF5F
:10B850003246FFF75DFC29463846FFF799FCF1E7D1
:10B8600051F8043C181F002BBCBF0B58C018704780
:10B8700038B50546072445FA04F2114802F00102E2
:10B880004FF4805105F04CFB0D4801224FF48041EC
:10B8900005F046FB0A4800224FF4804105F040FBCA
:10B8A000013CE8D2064801224FF4005105F038FB74
:10B8B000BDE83840024800224FF4005105F030BB8B
:10B8C00000040240044A054B10B4044614605DF8BD
:10B8D000044B1980704700BF440300204003002040
:10B8E00070B5234D234C244E84B001222988206852
:10B8F00005F016FB4021304605F00CFB0246298876
:10B9000020687AB3002205F00BFB96262988206870
:10B91000012205F005FB4FF0130C18480096012397
:10B920000DF10E020DF10F018DF80FC008F0B0FB04
:10B93000D8B900968DF80F00012310480DF10E02C2
:10B940000DF10F0108F0A4FB061E18BF0926012007
:10B9500005F0D0FD20682988002205F0E1FA304684
:10B9600004B070BD05F0DCFABFE70926EFE700BFC1
:10B97000400300204403002000000240C8170020BC
:10B9800070B5234D234C244E84B0012229882068B1
:10B9900005F0C6FA4021304605F0BCFA0246298877
:10B9A00020687AB3002205F0BBFA96262988206821
:10B9B000012205F0B5FA4FF0100C1848009601234B
:10B9C0000DF10E020DF10F018DF80FC008F060FBB4
:10B9D000D8B900968DF80F00012310480DF10E0222
:10B9E0000DF10F0108F054FB061E18BF09260120B7
:10B9F00005F080FD20682988002205F091FA304684
:10BA000004B070BD05F08CFABFE70926EFE700BF70
:10BA1000400300204403002000000240C81700201B
:10BA20002DE9F0474C4E4D4DDFF8388184B0044687
:10BA30000F4601223188286805F072FA40214046FD
:10BA400005F068FA024631882868002A00F08180F3
:10BA5000002205F065FAC4F3090400233188286840
:10BA60003B80012244F4C0544FF096088DF80D300D
:10BA700005F056FA4FEA142C3948CDF8008001231E
:10BA80000DF10E020DF10F018DF80FC008F000FB53
:10BA9000002854D13248CDF800800DF10E02012368
:10BAA0000DF10F018DF80F4008F0F2FA002846D191
:10BAB0008DF80F00CDF80080294801230DF10D020B
:10BAC0000DF10F0108F0E4FA002838D1CDF800801C
:10BAD0003B889DF80D208DF80F0043EA42233B8000
:10BAE0001F4801230DF10D020DF10F0108F0D0FAEE
:10BAF00028BBCDF800803B888DF80F009DF80D0025
:10BB000043EA40033B8016480DF10D020DF10F0191
:10BB1000012308F0BDFA044688B99DF80D203B8842
:10BB200043EAD2133B80012005F0E4FC2868318809
:10BB3000224605F0F5F9204604B0BDE8F0872868F4
:10BB40003188002205F0ECF90924204604B0BDE854
:10BB5000F08705F0E5F96CE740030020440300207E
:10BB6000C8170020000002402DE9F047424E434D27
:10BB7000434C84B00746884601223188286805F086
:10BB8000CFF94021204605F0C5F9024631882868E2
:10BB9000002A63D0002205F0C3F900238DF80D3090
:10BBA000FFF79EFE0446002854D1C7F309073188E9
:10BBB000286847F4A057012205F0B2F94FF0960922
:10BBC0003B0A8DF80F302F48CDF8009001230DF17E
:10BBD0000E020DF10F01FFB208F05AFA002840D111
:10BBE0002848CDF800900DF10E0201230DF10F0150
:10BBF0008DF80F7008F04CFA98BB4FEA18238DF8B7
:10BC00000D308DF80F301F48CDF8009001230DF155
:10BC10000D020DF10F0108F03BFA10BB5FFA88F836
:10BC20001848CDF800900DF10D020DF10F01012320
:10BC30008DF80D808DF80F8008F02AFA88B9224619
:10BC40003188286805F06CF9022005F053FCFFF7F5
:10BC500097FE0446204604B0BDE8F08705F060F981
:10BC60008AE728683188002205F05AF9092420461D
:10BC700004B0BDE8F08700BF40030020440300206B
:10BC800000000240C81700209AB170B504460D4666
:10BC900001EB420601E0B54209D0204635F8021B0F
:10BCA000FFF762FF0134A4B20028F4D070BD002079
:10BCB00070BD0020704700BF08B510EE100AFCF7F9
:10BCC00035FC08A3D3E90023FCF788FC044B0022D1
:10BCD000FCF7CEFAFCF75AFF00EE100A08BD00BFD1
:10BCE00000004040CDCCCCCCCCCCFC3F014BB3F8D9
:10BCF000FD007047007F00082DE9F04F8FB005F080
:10BD000017FC054605F00EFC044605F005FC294627
:10BD1000EB0E250E45EA0125C4F3074646EA052643
:10BD2000C4F307275E4A47EA0627C6F3C406E4B20F
:10BD3000965D029644EA0724060E46EA0426C4F3FA
:10BD40000414C0F3072C145D0494C0F3074444EAC0
:10BD500006244CEA042CC0B240EA0C20CCF3C40CFC
:10BD6000D35C019312F80C300693C1F3840CC1F339
:10BD7000C41E12F80C9012F80EA0C6F3C41CC6F331
:10BD8000840612F80CC0634612F806C0CDF814C041
:10BD9000C7F38416C7F34407C0F3440ED75D039777
:10BDA000C0F38417000112F807C0CDF81CC0C1F31E
:10BDB0008457C1F3444B12F807C0965D12F80EE0A9
:10BDC00012F80BB0C5F3441705F01F0512F80780F1
:10BDD000575D00F01F00C4F34415C1F3043104F0B3
:10BDE0001F04105C555D145D515C00226AF307026C
:10BDF00069F30F2268F3174267F31F62029F0A92EA
:10BE0000002267F30702039F66F30F22049E67F385
:10BE1000174266F31F620B92059E079F002263F391
:10BE2000070266F30F2265F31742069B64F31F6255
:10BE30000C92002263F3070267F30F226EF317429E
:10BE400060F31F62019B0D920020024663F307021C
:10BE50006CF30F226BF3174261F31F628DF8380009
:10BE60000992ABB10F4E104F09AC02464FF02D0CAA
:10BE70000146735414F8013F0132481C07FB02F5D8
:10BE800043B1B5F1333FF3D806F800C00231F0E713
:10BE9000044E1846002333540FB0BDE8F08F00BFA6
:10BEA0005C8A01084C030020CDCCCCCC08B5064BF5
:10BEB0001B78DB0701D4012008BD044B1878FFF77D
:10BEC000D7FC002008BD00BF6403002066030020EB
:10BED000F8B53C4B1B78DB0756D500F003043A4914
:10BEE000012CC0F38105C0F30116C0F38117C0F324
:10BEF000012CC0F3812EC0F301330A78C0F38130E6
:10BF000032D014B902F0FE020A70012D31D0EDB327
:10BF1000012E33D016B902F0FB020A70012F39D07E
:10BF200017B902F0F7020A70BCF1010F36D0BCF16C
:10BF3000000F02D102F0EF020A70BEF1010F31D002
:10BF4000BEF1000F02D102F0DF020A70012B31D0E6
:10BF500063B3012832D010B902F07F020A70104694
:10BF6000FFF786FC0020F8BD42F00102012D0A70A7
:10BF7000CDD142F00202012E0A70CBD142F0040270
:10BF8000012F0A70CCD105E00120F8BD02F0FD02BE
:10BF90000A70BDE742F008020A70C5E742F01002DD
:10BFA0000A70CAE742F020020A70CFE702F0BF022F
:10BFB0000A70CEE742F040020A70CAE742F08002FF
:10BFC0000A70CCE76403002066030020F8B52A4E0F
:10BFD0002A4833782A4D23F0030343F00303012258
:10BFE0004FF40041337004F09BFF002401273378A5
:10BFF000D90707FA04F205D528781043C0B2287093
:10C00000FFF736FC322005F075FA3378DB0707FAC4
:10C0100004F205D5287820EA02002870FFF728FCF2
:10C020003220013405F066FA082CE0D1337803F0B1
:10C030000303032B0ED0002420462C70FFF718FCBE
:10C04000337803F00303032B0BD0337823F003037F
:10C050003370F8BD094800224FF4004104F060FF3E
:10C06000E9E7064822464FF4004104F059FF3378CF
:10C0700023F003033370F8BD640300200004024082
:10C0800066030020000000002DE9F04F2DED028B2B
:10C09000DFF8D4918BB01546074688466E480522D6
:10C0A000494605F0F7FA002840F0A580322005F057
:10C0B00021FA694805F084FB0446002840F09B8083
:10C0C000D9F80000002800F09680FCF70DFA02462F
:10C0D0000B4659A1D1E90001FCF7AAFBFCF756FD7C
:10C0E00008EE100AB5EE408AF1EE10FA00F08380F7
:10C0F000D9F80430002B7ED007EE903ADFED578A56
:10C10000F8EE677A28EE287AA8F1040867EE277A15
:10C1100009F1080917EE900AFCF708FA02460B46E7
:10C1200047A1D1E90001FCF7A1F847A3D3E9002317
:10C13000FCF77EFB4A4B0022FCF79AF8FCF726FD41
:10C140003860484F0594AA464FF0030B002348F887
:10C15000043F79683868BA687E8906AB07C37B8874
:10C160000093BB889DF818400393FB8801933B899B
:10C17000049314F00101BB89029325D0D9F8005033
:10C1800007EE905AF8EE677A67EE887A67EEA87A3B
:10C1900017EE900AFCF7CAF92DA3D3E90023FCF7A8
:10C1A00047FBFCF7F3FCA107CAF8000002D5009B8F
:10C1B000AB422FD9620702D5019BAB4232D923078C
:10C1C00001D5AE421ED90021584600F01BFB0BF1F1
:10C1D000010B5FFA8BFBBBF1060F07F10E0709F1AC
:10C1E00004090AF1040AB1D1059C20460BB0BDEC4C
:10C1F000028BBDE8F08F092420460BB0BDEC028B0A
:10C20000BDE8F08F029BAB42DDD30321584600F01E
:10C21000F9FADCE7039BAB42CCD30121584600F08E
:10C22000F1FAD4E7049BAB42C9D30221584600F08F
:10C23000E9FACCE7AFF3008085EB51B81E85B34037
:10C2400052B81E85EB51E83F7B14AE47E17A643F5C
:10C2500046175D74D145B73F1016002000008039A5
:10C2600000003940680300209403002070B5274C7B
:10C27000274D284E224629463046FFF705FF26481F
:10C280000CF0A6F825480CF0A3F8254B2548596872
:10C290000CF036F83068FCF749F902460B462248A4
:10C2A0000CF02EF896ED000AFFF706FD10EE100ACE
:10C2B000FCF73CF902460B461C480CF021F82968B3
:10C2C0001B480CF01DF82068FCF730F902460B46BD
:10C2D00018480CF015F8696817480CF011F86068F8
:10C2E000FCF724F902460B4614480CF009F8A9683B
:10C2F00013480CF005F8A068FCF718F9BDE8704089
:10C3000002460B460F480BF0FBBF00BFB4030020F2
:10C31000A8030020C0030020988A01087C8A010835
:10C32000940300209C8A0108BC8A0108D88A01086D
:10C33000F88A01080C8B0108248B0108388B01084E
:10C34000508B0108648B010800B583B00DF1060124
:10C350000020FFF765FBB0B9BDF8062043F63E6349
:10C360009A4208D00A4B1A7860F3000204201A702F
:10C3700003B05DF804FB064A137843F00103137021
:10C3800003B05DF804FB092003B05DF804FB00BFB7
:10C390004803002010B586B0FFF7A8FC2E4B93F899
:10C3A00001C0197841EA0C21ADF8001004469978D3
:10C3B000D87893F812C041EA0021ADF802105879FC
:10C3C000197941EA0021ADF80410D879997941EA48
:10C3D0000021ADF80610587A197A41EA0021ADF82B
:10C3E0000810D87A997A41EA0021ADF80A10587BF2
:10C3F000197B41EA0021ADF80C10D87B997B41EA0A
:10C400000021ADF80E10587C197C41EA0021D87C3F
:10C41000ADF810104CEA002C597DADF812C093F81D
:10C4200014C04CEA012CADF814C0D97D9B7D0C22C0
:10C4300043EA012303206946ADF81630FFF724FCD8
:10C4400030B921460F20FFF78FFB08B906B010BDA9
:10C45000092006B010BD00BF4C03002000B543F614
:10C460003E6183B00020FFF77FFBC0BB012108467F
:10C47000FFF77AFB98BBFFF78DFF80BB0DF106013C
:10C48000ADF80200ADF80400FFF7CAFA50B9BDF8E4
:10C49000062043F63E639A4225D0164B1A7860F385
:10C4A00000021A700DF102010120FFF7B9FAB0B9CC
:10C4B00001A90220FFF7B4FA88B9BDF804100131D0
:10C4C00089B20220ADF80410FFF74EFB38B9094AD3
:10C4D000137843F00103137003B05DF804FB0920E7
:10C4E00003B05DF804FB034A137843F001031370B3
:10C4F000E3E700BF4803002008B50A4C204605F0DA
:10C500002FFD0321002000F07DF94FF4967004F018
:10C51000F1FF0321012000F075F94FF4967004F04B
:10C52000E9FFEBE7B01600202DE9F04707463E484B
:10C53000DFF80881DFF808A13C4D0BF049FF00F05F
:10C5400039FB00F07FFE00F061FD4FF00909504615
:10C5500005F006FD364E07E030460BF039FF00F0DF
:10C5600065FD0446002844D04FF40041284604F0FD
:10C57000D1FC0028F0D00321072000F043F900216E
:10C58000084600F03FF9384604F0B4FF03210020CC
:10C5900000F038F90021072000F034F9384604F0A3
:10C5A000A9FF98F800305A0628D54FF400412846D4
:10C5B00004F0B0FC10B1B9F1000FC8D11D480BF068
:10C5C00007FF0021084600F01DF90021072000F0B8
:10C5D00019F90021062000F015F9B8F8003023F40D
:10C5E000F073A8F8003000F017FEBDE8F04700F047
:10C5F000A3BC11480BF0ECFEA146B5E74FF4004197
:10C60000284604F087FC012805D198F8003043F053
:10C61000400388F8003098F800305B06C5D4B9F1C3
:10C62000000F94D1CAE700BF7C8B010800000240D4
:10C63000948B0108DC8B0108BC8B010848030020A7
:10C64000B016002072B6FEE708B50A4B1B78DB0770
:10C6500000D508BD084A137823F0110343F01103F5
:10C66000137000F0EFFD00F0D1FC00F0A3FAFFF72B
:10C6700043FF00BF48030020C403002008B5174B48
:10C680001B781F2B15D913F0600F02D11A0616D490
:10C6900008BD134B1B78D90705D5BDE808404FF4FA
:10C6A0009670FFF741BFBDE808400221072000F067
:10C6B000A9B8BDE808400021072000F0A3B8084B46
:10C6C0001B78DB0705D4BDE808400121072000F0F6
:10C6D00099B84FF47A70FFF727FFF4E7480300207A
:10C6E000CC030020F0B5ADF28C4D0026164F8DF82E
:10C6F0008860022401250A2301222146384605F0DC
:10C70000EFFA18B902AA731C9555DEB20234A4B22E
:10C710000135B4F5807FEDB2EDD176B102AC0B4DB1
:10C72000264414F8012B294668460BF0C7FD6946DC
:10C7300022A80BF055FEA642F3D122A904480BF023
:10C74000DFFD0DF28C4DF0BD58160020F48B010872
:10C75000008C010829490A78034612F0010012D022
:10C76000022B0AD812F0100044D0072B43D8DFE880
:10C7700003F03C37322C231A120BD81E0228F4D8AF
:10C7800012F04000F1D1704712F02000FBD01C4B9A
:10C7900058788009704712F00400F4D0184B58788C
:10C7A000C0F301107047487810F00200EBD0144B32
:10C7B0005878C0F381007047487810F00100E2D04B
:10C7C0000F4B587800F003007047130613D50C4B3D
:10C7D0001878800970470A4B1878C0F30110704729
:10C7E000074B1878C0F381007047054B187800F0AC
:10C7F0000300704770470020C5E700BFC403002056
:10C80000C8030020F8B50D460446FFF7A3FFA84271
:10C810002FD0894E337813F0010703F0010228D09E
:10C82000D80622D5990701D4062C20D0980601D429
:10C83000072C1CD0590602D4E11E022917D9DDB1FC
:10C84000022C00F2AC807D48017821F03F010527E1
:10C850000170072C1FD8DFE814F01900C100BA00DE
:10C86000B300AC00A500D500DF00022CDAD83846B2
:10C87000F8BD01273846F8BD072C00F2D680DFE866
:10C8800004F004ACA59E9790BAB327466B4908788C
:10C8900065F3010008706A4D0024002A79D0022C4B
:10C8A000E2B271D8D80674D5013A062A60D8DFE81A
:10C8B00002F055483D2F211404009B0669D55F4BBB
:10C8C0005B789B09032B59D0002B62D00134082CD4
:10C8D00005F108053ED13846F8BD5A0759D5574BE2
:10C8E0005B78C3F30113032B48D0002B51D00835DC
:10C8F00007242FE0737899074BD5504B5B78C3F32F
:10C900008103032B3AD0002B43D00835062421E0C5
:10C910007378D8073DD5494B5B7803F00303032BAD
:10C920002CD0002B35D00835052413E01B0630D55C
:10C93000424B1B789B09032B20D053B308350424AA
:10C9400008E03E4B1B78C3F30113032B16D003B34F
:10C9500008350324337803F001029EE7374B1B7838
:10C96000C3F38103032B09D09BB108350224F1E7FF
:10C97000324B1B7803F00303032B58D1A988286896
:10C98000012204F0CDFAA1E7D11E02298CD8590664
:10C990008AD4A9882868002204F0C2FA96E7002702
:10C9A00057E700272549487865F38300487072E708
:10C9B00000272249487865F3010048706BE700279B
:10C9C0001E49087865F38710087064E700271B4943
:10C9D000087865F3051008705DE7002717490878A7
:10C9E00065F38300087056E700271449487865F31B
:10C9F000871048704FE700271049487865F3051005
:10CA0000487048E7022DF7D10C494878012464F3B7
:10CA10000510487005273EE7691E0129E5D807483B
:10CA2000417841F0C0014170F4E7002733E7002B63
:10CA3000AFD0083501248DE7C4030020C8030020CF
:10CA4000288C0108032800F09F802DE9F04104465E
:10CA5000002800F09680544F544D3A78544E12F00E
:10CA600001084FF0000322D0022B16D951067AD5C7
:10CA7000013B042B04D8DFE803F01D2943573500A0
:10CA80004B4B1B7803F00303A34200F087803A78F6
:10CA900012F0010305F1080509D0D006E8D40133EE
:10CAA000DBB23A7812F0010805F10805DCD100206C
:10CAB000BDE8F0813E4B1A78C2F38102A24241D117
:10CAC000A988286804F030FA0223EAE7384B1B787B
:10CAD000C3F30113A3423ED1A988286804F024FAC5
:10CAE0000323DEE77B789E07E1D5314B5B78C3F308
:10CAF0008103A342DBD1A988286804F015FAD6E7A0
:10CB000011060AD52A4B1B78B4EB931F40D1A98894
:10CB1000286804F009FA0423C3E73B78DA07C6D58E
:10CB2000590605F1080531D57B78D90720D57378EA
:10CB300003F00303A34203D1A988286804F0F4F9A1
:10CB40000523AEE73A78D107B1D5D20605F108053D
:10CB5000BDD40223A3E73A78D007A8D5500605F143
:10CB60000805CDD403230133DBB2062B99D19EE710
:10CB70003B78DA079BD55B0605F10805B2D405239F
:10CB8000F1E70920BDE8F081092070470423EAE7B6
:10CB90003A78D0078BD50835042367E7A988286839
:10CBA00004F0C2F943467CE7C4030020288C010846
:10CBB000C803002008B5074B1B7803F00B030B2BB1
:10CBC00018BF012000D008BD03210620FFF71AFE80
:10CBD000002008BDC403002070B5C24D2B7803F0BF
:10CBE0000702072A02D00124204670BDD8074FF063
:10CBF000030440F1C180590706D5BB4A5278C2F3FD
:10CC00000112032A00F0B8809A0740F1B580B64EB1
:10CC10007378002043F030037370FFF79BFD032807
:10CC200000F01681002800F0E1800120FFF792FD5E
:10CC3000032800F03881002800F0CF800220FFF7A1
:10CC400089FD032800F02981002800F0BD80032021
:10CC5000FFF780FD032800F01A81002800F0AE8065
:10CC60000420FFF777FD032800F00B81002800F077
:10CC70009F800520FFF76EFD032800F0FC80002850
:10CC800000F090800620FFF765FD032800F0EC809F
:10CC900000287DD00720FFF75DFD032800F0DE802F
:10CCA00000286CD0142004F025FC2B7803F005023A
:10CCB000052A61D1727812F0300F5DD09B075BD5E9
:10CCC000134623F0300300207370FFF743FD032861
:10CCD000024600F02481002800F0B5800120FFF713
:10CCE00039FD0328024600F0F680002800F0A680F7
:10CCF0000220FFF72FFD0328024600F0E6800028FF
:10CD000000F097800320FFF725FD0328024600F07E
:10CD1000D680002800F088800420FFF71BFD032840
:10CD2000024600F0C680002879D00520FFF712FDEA
:10CD30000328024600F0E78000286BD00620FFF7AA
:10CD400009FD0328024600F0D78000285CD00720A8
:10CD5000FFF700FD0328024600F0DB8000284ED0DC
:10CD60002820013C04F0C6FB14F0FF043FF43CAF64
:10CD70002B78D8073FF53FAF0924204670BD024607
:10CD800000F18040082100F5023004F0C9F889E77D
:10CD9000024600F180404FF4806100F5013004F05C
:10CDA000BFF877E702460121504804F0B9F869E777
:10CDB000024602214D4804F0B3F85AE70246042126
:10CDC0004A4804F0ADF84BE7024600F180400421E8
:10CDD00000F5023004F0A4F839E7024600F1804083
:10CDE000022100F5023004F09BF827E7024600F12B
:10CDF0008040012100F5023004F092F815E73C482C
:10CE0000082104F08DF8ABE73A484FF4806104F054
:10CE100087F89CE73548012104F082F88EE7334813
:10CE2000022104F07DF880E73048042104F078F80E
:10CE300072E72F48042104F073F863E72C480221BD
:10CE400004F06EF854E72A48012104F069F845E738
:10CE500001222748114604F063F8E6E6244801223F
:10CE6000082104F05DF81DE7224801224FF480619B
:10CE700004F056F80EE701221C48114604F050F861
:10CE800000E71A480122022104F04AF8F1E61748A7
:10CE90000122042104F044F8E2E6154801220421AD
:10CEA00004F03EF8D3E612480122022104F038F8DB
:10CEB000C4E60E480122022104F032F835E70B489F
:10CEC0000122042104F02CF826E70948012204215C
:10CED00004F026F816E706480122022104F020F8A3
:10CEE00006E700BFC4030020C80300200000024082
:10CEF00000080240000402400C4801224FF4806107
:10CF000004F00EF823E701220948114604F008F85E
:10CF100014E708480122082104F002F820E7012262
:10CF20000448114603F0FCFFD8E600BF00040240AD
:10CF3000000002400008024038B51D4C2378012B48
:10CF400004D06378012B19D0002038BD6388B3F575
:10CF50007A7FF6D8174D0021284607F0C3FC28BB7E
:10CF600063884FF6FF729342EBD0B3F5805F1DD21A
:10CF70002278012A04BF2A685363E2E7A388B3F545
:10CF80007A7FE1D80C4D0021284607F0ABFC68B948
:10CF900063884FF6FF729342D6D0B3F5805F05D217
:10CFA0006278012AD0D12A685363CDE7092038BDC1
:10CFB000D003002020180020681800204FF6FF73CF
:10CFC000994211D0B1F5805F10D230B101280DD156
:10CFD0000B4B5B78012B0BD07047094B1B78012B57
:10CFE0000BD1084B1B68596300207047092070471C
:10CFF000054B1B680020596370470120704700BF34
:10D00000D0030020201800206818002010B5054C1F
:10D0100005480021217007F0C1FC00B960700920AB
:10D0200010BD00BFD00300202018002010B50A203A
:10D0300084B004F05FFA00221C491D4C104609F030
:10D04000EFFF1E2004F056FA1A4806F019F9636A39
:10D0500043F400630A20636204F04CFA636A23F429
:10D060000063636200F060FD0A2004F043FA124995
:10D070001248012209F0D4FF98B9024601A90B48D1
:10D080000AF0C4F8044660B90D4801A9FBF7E0F8BE
:10D0900010B9204604B010BD09480AF067F900280D
:10D0A000F7D00924204604B010BD00BFFC8B010856
:10D0B0000038024040170020281C0020E003002018
:10D0C000048C01080000000070B5374C37484FF45D
:10D0D000004103F01FFF237813F0400540D00128E2
:10D0E0004AD06378DB0731D52388314E314D324841
:10D0F00023F4A07343F4807332462946238009F059
:10D10000D3FF38BB32682B685189A1FB03135B0244
:10D11000480243EAD151FBF751FEDFED287A07EED2
:10D12000100A67EE277A17EE900AFBF7FFF91CA3A7
:10D13000D3E90023FBF7C4FC00BB237803F05F03B3
:10D140000020237070BD6378DA071FD4FFF76EFFED
:10D150000028C9D0237843F020030920237070BD34
:10D160000028F0D00128BCD143F040030246124908
:10D170002370284609F054FF062070BD237803F081
:10D180005F0363F07F030720237070BD084E094DD5
:10D1900009483246294609F087FF0028B2D0D9E76E
:10D1A0009A9999999999A93F480300200000024053
:10D1B000DC030020D8030020FC8B01080000803035
:10D1C000104A0368934215D00F4A934206D00F4A83
:10D1D000934209D00E4A93420ED070470D4A1378FD
:10D1E00043F00403137070470A4A137843F00203B4
:10D1F0001370704704F06CB9064A137843F00803C3
:10D2000013707047000001400008004000400140DA
:10D21000000C00404803002008B5074807F0E4F977
:10D2200040B9064807F0E0F920B9054807F0DCF9F5
:10D2300000B908BD092008BD40190020F8180020D9
:10D24000B018002008B50A4807F000FA68B9094884
:10D2500007F0FCF948B9084807F0F8F928B9074A77
:10D26000137823F00E03137008BD092008BD00BF1A
:10D2700040190020F8180020B018002048030020B2
:10D280000139072935D8DFE801F00B262B10151AD4
:10D290001F04904229D3984294BF03200020704776
:10D2A00090422CBF032000207047904234BF0320DF
:10D2B00000207047904294BF0320002070479042A6
:10D2C0000CBF032000207047904210D398428CBFBF
:10D2D00003200020704790428CBF0320002070473D
:10D2E000904214BF032000207047002070470320A5
:10D2F00070470920704700BF2DE9F047384FDFF82D
:10D30000E4A0DFF8E4803C4600254FF6FF792E01CB
:10D310006288B95DA38801F00F00090909285AD86D
:10D32000DFE800F00D534D450D4022050D0DD8F8F6
:10D330000C00FFF7A5FF02281CD009284BD00135AF
:10D34000192D04F11004E2D1FEF7B0FD04460028C7
:10D3500041D1244D6988FFF731FEA9880120FFF7EC
:10D360002DFE2046BDE8F087D8F80800FFF788FFBB
:10D370000228E2D13E44F088FEF7AAFD63894B45BE
:10D380001CBFC3F30B03AAF80230A3894B45D6D0C8
:10D390000135C3F30B03192DAAF8043004F110046E
:10D3A000B5D1D1E7D8F80400FFF76AFFC3E7D8F892
:10D3B0000C20D8F804000023FFF762FFBBE7D8E990
:10D3C00002020023FFF75CFFB5E7D8E90102002362
:10D3D000FFF756FFAFE709242046BDE8F08700BFFE
:10D3E0001C140020D0030020A803002010B5C8237F
:10D3F0001446034892B207F0E7FE204610BD00BF76
:10D40000981B00204B484C4908B503780A7823F054
:10D41000310343F0310342F0010203700A7004F05B
:10D420003DF800F025FA03210120FFF7EBF900F0A9
:10D430008FF800F07DFA00F029FB00F029F900F0E8
:10D44000BBFA01F09FFA00F06FFB00F033FC00F034
:10D45000FBFF00F095FC00F0F3FC00F031FD00F064
:10D460007FFD00F029FE01F053F801F06DF8012274
:10D470003248022103F054FD08213148FEF722FA18
:10D48000FEF73AFCFEF7EAFFFEF75EFF00284BD1FD
:10D49000FEF780FF00284AD1FFF74EFDFFF7BCFEE4
:10D4A0004FF4FA7004F026F8FFF796FBFEF7DEFE65
:10D4B000FEF78CFDFFF716F94FF4FA7004F01AF836
:10D4C0002048214C214D0AF083FF1C4800220221F4
:10D4D00003F026FD00F0C6FA0CE09A071BD41B07E8
:10D4E00005D5FFF709FF237823F0080323702846AA
:10D4F00004F036FDFFF7E8FDFFF7C0F82378590781
:10D50000EBD50220FFF79EFA237823F00403237063
:10D51000DBB29A07E3D50120FFF794FA237823F0D2
:10D5200002032370DBB2DAE7FFF78EF8B0E7FFF70C
:10D5300089F8B1E7C4030020CC03002000080240B2
:10D5400000000240108C010848030020B0160020A3
:10D550002DE9F04100248CB0CDE90644CDE9084422
:10D56000474B01940A941A6B464F474D474E42F081
:10D5700001021A631A6B02F001020192019A0294ED
:10D580001A6B42F002021A631A6B02F00202029254
:10D59000029A03941A6B42F004021A631A6B02F0A7
:10D5A00004020392039A04941A6B42F008021A636D
:10D5B0001A6B02F008020492049A05941A6B42F066
:10D5C00080021A631B6B03F08003059322463846E2
:10D5D0000F21059B03F0A4FC224628461F2103F0DF
:10D5E0009FFC38460122102103F09AFC2246304667
:10D5F0004FF4744103F094FC01223046102103F0F3
:10D600008FFC4FF01F08384606A90127CDE90844D2
:10D61000CDE9068703F0D6F906A92846CDE90687A5
:10D62000CDE9084403F0CEF9042206A930460323CD
:10D63000CDE90623089403F0C5F906A930464FF258
:10D6400010430693CDE90844079703F0BBF94FF464
:10D650008072022306A92846CDE90623CDE90844B5
:10D660000A9403F0AFF94FF40042002306A92846BC
:10D67000CDE90623089403F0A5F90CB0BDE8F081CC
:10D68000003802400008024000000240000402404E
:10D6900000B53B483B4985B00023012201604FF4AF
:10D6A0004031CDE90033CDE90233C0E90113026115
:10D6B000027680F82030C36080F830200523426174
:10D6C000314AC3610023C0E90A2303F037FF002871
:10D6D00036D19FED257B03232948029369468DEDC2
:10D6E000007B04F08BF900283BD19FED217B0623C2
:10D6F0002348029369468DED007B04F07FF968BBF7
:10D700009FED1D7B03231E48029369468DED007B30
:10D7100004F074F9F8B90822042319486946CDE9E0
:10D72000002304F06BF998B90922052314486946CF
:10D73000CDE9002304F062F928B905B05DF804FBD7
:10D74000FEF780FFC5E7FEF77DFF05B05DF804FB3F
:10D75000FEF778FFE8E7FEF775FFDCE7FEF772FFFC
:10D76000CEE7FEF76FFFC0E71100000001000000E8
:10D7700010000000020000000F0000000300000085
:10D7800010160020002001400100000F70B5334B3F
:10D7900002688AB000249A42CDE90444CDE90644E7
:10D7A000089401D00AB070BD03F58C3301945A6C13
:10D7B0002B4E42F480725A645A6C02F480720192C9
:10D7C000019A02941A6B42F004021A631A6B02F077
:10D7D00004020292029A03941A6B42F002021A6344
:10D7E0001B6B03F0020303932022032304A90546C5
:10D7F0001C48CDE90423039B03F0E4F80322032330
:10D800001948069404A9CDE9042303F0DBF8174A6C
:10D8100074624FF48063C6E9002433614FF4805290
:10D820004FF48043C6E9052330464FF48073C6E9C0
:10D830000244C6E9073403F081FB58B90022AE6305
:10D8400011461220B56303F0CDFD122003F006FE51
:10D850000AB070BDFEF7F6FEF0E700BF0020014001
:10D86000AC15002000080240000402407064024031
:10D8700010B5002394B0CDE90B33CDE90333CDE9E6
:10D880000533294901930793086C284A40F08050DA
:10D890000864096C01F080510191019902931368A9
:10D8A00023F4404343F40043136013689FED1C7B53
:10D8B00003F440430121029302224FF48000082325
:10D8C000CDE90D12CDE90F030A910422A821072307
:10D8D00008A88DED087BCDE91112029C139302F08C
:10D8E00075FCB8B9002302210F244FF4805203A81D
:10D8F000CDE90341CDE90532079302F0C5FE60B9D9
:10D9000000224FF48001104602F042FE02F090FE29
:10D9100014B010BDFEF796FEE4E7FEF793FEEFE7C6
:10D920000D000000000001000038024000700040BF
:10D9300010B582B000241F4B0194196B41F4800193
:10D9400019631B6B03F4800322462146019339209F
:10D95000019B03F047FD392003F080FD224621465C
:10D960003A2003F03FFD3A2003F078FD224621469D
:10D970003B2003F037FD3B2003F070FD224621469B
:10D980003C2003F02FFD3C2003F068FD2246214699
:10D99000452003F027FD452003F060FD2246214687
:10D9A000462003F01FFD462002B0BDE8104003F002
:10D9B00055BD00BF0038024010B50B480B4C0C4958
:10D9C00000234FF48042C0E90041C0E90233C0E9BE
:10D9D0000423C0E90633036204F0BAF800B910BDAD
:10D9E000BDE81040FEF72EBE58160020005400403F
:10D9F000A086010030B5184B026889B000249A4215
:10DA0000CDE90244CDE90444069401D009B030BD0B
:10DA1000124D00942B6B43F002032B632B6B03F02E
:10DA200002030093C0221223CDE9022300980C4880
:10DA30000322042302A9CDE9052302F0C3FF0194C8
:10DA40002B6C43F400132B642B6C03F40013019331
:10DA5000019B09B030BD00BF0054004000380240B7
:10DA6000000402400748084908B5062240F2712325
:10DA700080E80E0004F04CFA00B908BDBDE808408B
:10DA8000FEF7E0BDB01600200030004010B50A4897
:10DA90000A4C00237F21FF22C0E90043C0E90212A3
:10DAA000C0E90433836104F061FA00B910BDBDE838
:10DAB0001040FEF7C7BD00BFC01600200028004080
:10DAC00000B5174A016887B000239142CDE90233BF
:10DAD000059302D007B05DF804FB02224FF4807377
