:020000040800F2
:1080000000000120D5F001080D1E0108151E010811
:10801000191E01081D1E0108211E01080000000094
:10802000000000000000000000000000251E010804
:10803000291E0108000000002D1E0108311E010844
:1080400025F1010825F10108351E010825F1010877
:1080500025F10108411E010825F1010825F101085B
:1080600025F1010825F1010825F1010825F1010894
:1080700025F1010825F1010825F1010825F1010884
:1080800025F1010825F10108451E01080000000046
:1080900000000000000000000000000025F10108C1
:1080A000511E01085D1E0108791E010825F1010815
:1080B00025F10108851E0108911E010825F101081E
:1080C00025F1010825F1010825F101089D1E01088F
:1080D00025F10108A91E010825F101080000000092
:1080E00025F10108B51E010825F101080000000076
:1080F00000000000000000000000000025F1010861
:1081000000000000C11E0108CD1E010825F1010874
:10811000000000000000000000000000000000005F
:1081200025F10108D91E0108E51E0108F11E01080C
:10813000FD1E01080000000000000000000000001B
:10814000000000000000000000000000091F0108FE
:1081500025F10108151F0108211F01082D1F010825
:1081600025F1010825F101080000000000000000D1
:1081700000000000000000000000000000000000FF
:1081800000000000391F010800000000000000008E
:0481900025F10108CC
:1081A00001F0FF01102A2BDB10F0070F08D010F8A8
:1081B000013B013A8B422DD010F0070F42B3F6D1AC
:1081C000F0B441EA012141EA014122F007047FF0C5
:1081D00000070023F0E80256083C85EA010586EA1C
:1081E000010685FA47F5A3FA87F586FA47F6A5FA58
:1081F00087F68EB9EED1F0BC01F0FF0102F0070264
:1082000032B110F8013B013A83EA010313B1F8D10E
:108210000020704701387047002D06BF35460338EF
:10822000073815F0010F07D1013015F4807F02BF28
:10823000013015F4C03F0130F0BC0138704700BF79
:10824000034613F8012B002AFBD1181A0138704796
:1082500010F8012B11F8013B012A28BF9A42F7D0F0
:10826000D01A704781F0004102E000BF83F0004364
:1082700030B54FEA41044FEA430594EA050F08BFC1
:1082800090EA020F1FBF54EA000C55EA020C7FEA85
:10829000645C7FEA655C00F0E2804FEA5454D4EB02
:1082A0005555B8BF6D420CDD2C4480EA020281EACC
:1082B000030382EA000083EA010180EA020281EA04
:1082C0000303362D88BF30BD11F0004F4FEA013156
:1082D0004FF4801C4CEA113102D0404261EB410165
:1082E00013F0004F4FEA03334CEA133302D05242EB
:1082F00063EB430394EA050F00F0A780A4F10104A7
:10830000D5F1200E0DDB02FA0EFC22FA05F28018E0
:1083100041F1000103FA0EF2801843FA05F35941C6
:108320000EE0A5F120050EF1200E012A03FA0EFC45
:1083300028BF4CF0020C43FA05F3C01851EBE3716F
:1083400001F0004507D54FF0000EDCF1000C7EEB8C
:1083500000006EEB0101B1F5801F1BD3B1F5001FCA
:108360000CD349085FEA30004FEA3C0C04F10104E9
:108370004FEA445212F5800F80F09A80BCF1004F12
:1083800008BF5FEA500C50F1000041EB045141EA94
:10839000050130BD5FEA4C0C404141EB0101013C5D
:1083A00028BFB1F5801FE9D291F0000F04BF01464C
:1083B0000020B1FA81F308BF2033A3F10B03B3F11E
:1083C00020020CDA0C3208DD02F1140CC2F10C02AE
:1083D00001FA0CF021FA02F10CE002F11402D8BF0C
:1083E000C2F1200C01FA02F120FA0CFCDCBF41EAD8
:1083F0000C019040E41AA2BF01EB0451294330BDA7
:108400006FEA04041F3C1CDA0C340EDC04F1140483
:10841000C4F1200220FA04F001FA02F340EA03005A
:1084200021FA04F345EA030130BDC4F10C04C4F1A0
:10843000200220FA02F001FA04F340EA0300294680
:1084400030BD21FA04F0294630BD94F0000F83F4CA
:10845000801306BF81F480110134013D4EE77FEAAD
:10846000645C18BF7FEA655C29D094EA050F08BFF9
:1084700090EA020F05D054EA000C04BF19461046DA
:1084800030BD91EA030F1EBF0021002030BD5FEA1E
:10849000545C05D14000494128BF41F0004130BD46
:1084A00014F580043CBF01F5801130BD01F000459A
:1084B00045F0FE4141F470014FF0000030BD7FEA0D
:1084C000645C1ABF194610467FEA655C1CBF0B4608
:1084D000024650EA013406BF52EA033591EA030F1F
:1084E00041F4002130BD00BF90F0000F04BF002117
:1084F000704730B54FF4806404F132044FF000054A
:108500004FF0000150E700BF90F0000F04BF0021C2
:10851000704730B54FF4806404F1320410F0004528
:1085200048BF40424FF000013EE700BF42004FEA23
:10853000E2014FEA31014FEA02701FBF12F07F43A0
:1085400093F07F4F81F06051704732F07F4208BF57
:10855000704793F07F4F04BF41F40021704730B55E
:108560004FF4607401F0004521F000411CE700BFAA
:1085700050EA010208BF704730B54FF000050AE02D
:1085800050EA010208BF704730B511F0004502D52E
:10859000404261EB41014FF4806404F132045FEA30
:1085A000915C3FF4D8AE4FF003025FEADC0C18BFD9
:1085B00003325FEADC0C18BF033202EBDC02C2F1CB
:1085C000200300FA03FC20FA02F001FA03FE40EA5D
:1085D0000E0021FA02F11444BDE600BF70B54FF061
:1085E000FF0C4CF4E06C1CEA11541DBF1CEA13553F
:1085F00094EA0C0F95EA0C0F00F0DEF82C4481EAA7
:10860000030621EA4C5123EA4C5350EA013518BFC6
:1086100052EA033541F4801143F4801338D0A0FBB3
:1086200002CE4FF00005E1FB02E506F00042E0FB60
:1086300003E54FF00006E1FB03569CF0000F18BF66
:108640004EF0010EA4F1FF04B6F5007F64F540740E
:1086500004D25FEA4E0E6D4146EB060642EAC621A1
:1086600041EA55514FEAC52040EA5E504FEACE2E0E
:10867000B4F1FD0C88BFBCF5E06F1ED8BEF1004F11
:1086800008BF5FEA500E50F1000041EB045170BD8D
:1086900006F0004646EA010140EA020081EA0301D1
:1086A000B4EB5C04C2BFD4EB0C0541EA045170BDCD
:1086B00041F480114FF0000E013C00F3AB8014F147
:1086C000360FDEBF002001F0004170BDC4F1000490
:1086D000203C35DA0C341BDC04F11404C4F1200511
:1086E00000FA05F320FA04F001FA05F240EA02006C
:1086F00001F0004221F0004110EBD37021FA04F6A2
:1087000042EB06015EEA430E08BF20EAD37070BD5B
:10871000C4F10C04C4F1200500FA04F320FA05F0BA
:1087200001FA04F240EA020001F0004110EBD370BC
:1087300041F100015EEA430E08BF20EAD37070BD2C
:10874000C4F1200500FA05F24EEA020E20FA04F305
:1087500001FA05F243EA020321FA04F001F00041B4
:1087600021FA04F220EA020000EBD3705EEA430E25
:1087700008BF20EAD37070BD94F0000F0FD101F054
:108780000046400041EB010111F4801F08BF013C8D
:10879000F7D041EA060195F0000F18BF704703F0CB
:1087A0000046520043EB030313F4801F08BF013D52
:1087B000F7D043EA0603704794EA0C0F0CEA13550E
:1087C00018BF95EA0C0F0CD050EA410618BF52EAC8
:1087D0004306D1D181EA030101F000414FF00000CE
:1087E00070BD50EA410606BF1046194652EA4306DC
:1087F00019D094EA0C0F02D150EA013613D195EA50
:108800000C0F05D152EA03361CBF104619460AD197
:1088100081EA030101F0004141F0FE4141F47001A1
:108820004FF0000070BD41F0FE4141F4780170BD91
:1088300070B54FF0FF0C4CF4E06C1CEA11541DBFF6
:108840001CEA135594EA0C0F95EA0C0F00F0A7F8F8
:10885000A4EB050481EA030E52EA03354FEA013125
:1088600000F088804FEA03334FF0805545EA131338
:1088700043EA12634FEA022245EA111545EA106500
:108880004FEA00260EF000419D4208BF964244F197
:10889000FD0404F5407402D25B084FEA3202B61AB6
:1088A00065EB03055B084FEA32024FF480104FF48A
:1088B000002CB6EB020E75EB030E22BFB61A7546FE
:1088C00040EA0C005B084FEA3202B6EB020E75EB91
:1088D000030E22BFB61A754640EA5C005B084FEAF9
:1088E0003202B6EB020E75EB030E22BFB61A7546C6
:1088F00040EA9C005B084FEA3202B6EB020E75EBD1
:10890000030E22BFB61A754640EADC0055EA060E91
:1089100018D04FEA051545EA16754FEA06164FEAD4
:10892000C30343EA52734FEAC2025FEA1C1CC0D180
:1089300011F4801F0BD141EA00014FF000004FF00D
:10894000004CB6E711F4801F04BF01430020B4F1CE
:10895000FD0C88BFBCF5E06F3FF6AFAEB5EB030C86
:1089600004BFB6EB020C5FEA500C50F1000041EB83
:10897000045170BD0EF0004E4EEA113114EB5C0450
:10898000C2BFD4EB0C0541EA045170BD41F4801123
:108990004FF0000E013C90E645EA060E8DE60CEA2B
:1089A000135594EA0C0F08BF95EA0C0F3FF43BAF48
:1089B00094EA0C0F0AD150EA01347FF434AF95EAFF
:1089C0000C0F7FF425AF104619462CE795EA0C0FE3
:1089D00006D152EA03353FF4FDAE1046194622E7B0
:1089E00050EA410618BF52EA43067FF4C5AE50EA8A
:1089F00041047FF40DAF52EA43057FF4EBAE12E77A
:108A00004FF0FF3C06E000BF4FF0010C02E000BF5A
:108A10004FF0010C4DF804CD4FEA410C7FEA6C5C3D
:108A20004FEA430C18BF7FEA6C5C1BD001B050EAE0
:108A3000410C0CBF52EA430C91EA030F02BF90EACB
:108A4000020F0020704710F1000F91EA030F58BF8A
:108A5000994208BF90422CBFD8176FEAE37040F0EC
:108A6000010070474FEA410C7FEA6C5C02D150EA8A
:108A7000013C07D14FEA430C7FEA6C5CD6D152EA45
:108A8000033CD3D05DF8040B704700BF844610460A
:108A900062468C461946634600E000BF01B5FFF709
:108AA000B7FF002848BF10F1000F01BD4DF808EDD9
:108AB000FFF7F4FF0CBF012000205DF808FB00BFAA
:108AC0004DF808EDFFF7EAFF34BF012000205DF804
:108AD00008FB00BF4DF808EDFFF7E0FF94BF012051
:108AE00000205DF808FB00BF4DF808EDFFF7CEFF52
:108AF00094BF012000205DF808FB00BF4DF808ED91
:108B0000FFF7C4FF34BF012000205DF808FB00BF61
:108B10004FEA410C7FEA6C5C02D150EA013C0AD179
:108B20004FEA430C7FEA6C5C02D152EA033C02D16B
:108B30004FF0000070474FF0010070474FEA4102CC
:108B400012F5001215D211D56FF47873B3EB62529F
:108B500012D94FEAC12343F0004343EA505311F0C6
:108B6000004F23FA02F018BF404270474FF0000058
:108B7000704750EA013005D111F0004008BF6FF096
:108B8000004070474FF00000704700BF4FEA4102BD
:108B9000B2F1E04324BFB3F5001CDCF1FE5C0DD95B
:108BA00001F0004C4FEAC0024CEA5070B2F1004FA5
:108BB00040EB830008BF20F00100704711F0804FA8
:108BC00021D113F13872BCBF01F00040704741F46D
:108BD00080114FEA5252C2F11802C2F1200C10FA71
:108BE0000CF320FA02F018BF40F001004FEAC12355
:108BF0004FEAD32303FA0CFC40EA0C0023FA02F3F9
:108C00004FEA4303CCE77FEA625307D150EA0133CE
:108C10001EBF4FF0FE4040F44000704701F000409E
:108C200040F0FE4040F40000704700BF80F000407C
:108C300002E000BF81F0004142001FBF5FEA410334
:108C400092EA030F7FEA226C7FEA236C6AD04FEA34
:108C50001262D2EB1363C1BFD21841404840414079
:108C6000B8BF5B42192B88BF704710F0004F40F42B
:108C7000000020F07F4018BF404211F0004F41F447
:108C8000000121F07F4118BF494292EA030F3FD013
:108C9000A2F1010241FA03FC10EB0C00C3F1200326
:108CA00001FA03F100F0004302D5494260EB4000B5
:108CB000B0F5000F13D3B0F1807F06D340084FEA20
:108CC000310102F10102FE2A51D2B1F1004F40EB15
:108CD000C25008BF20F0010040EA0300704749007D
:108CE00040EB0000013A28BFB0F5000FEDD2B0FA1A
:108CF00080FCACF1080CB2EB0C0200FA0CF0AABF3D
:108D000000EBC25052421843BCBFD04018437047DA
:108D100092F0000F81F4000106BF80F400000132E0
:108D2000013BB5E74FEA41037FEA226C18BF7FEAB7
:108D3000236C21D092EA030F04D092F0000F08BFF9
:108D40000846704790EA010F1CBF0020704712F0E0
:108D50007F4F04D1400028BF40F00040704712F11F
:108D600000723CBF00F50000704700F0004343F084
:108D7000FE4040F4000070477FEA226216BF0846BA
:108D80007FEA23630146420206BF5FEA412390EA7D
:108D9000010F40F4800070474FF0000304E000BF73
:108DA00010F0004348BF40425FEA000C08BF704724
:108DB00043F0964301464FF000001CE050EA0102E8
:108DC00008BF70474FF000030AE000BF50EA0102FD
:108DD00008BF704711F0004302D5404261EB4101EA
:108DE0005FEA010C02BF84460146002043F0B6430F
:108DF00008BFA3F18053A3F50003BCFA8CF2083A34
:108E0000A3EBC25310DB01FA02FC634400FA02FC3C
:108E1000C2F12002BCF1004F20FA02F243EB020043
:108E200008BF20F00100704702F1200201FA02FCA5
:108E3000C2F1200250EA4C0021FA02F243EB020098
:108E400008BF20EADC70704753B94AB9002908BF4F
:108E500000281CBF4FF0FF314FF0FF3000F00CB87E
:108E6000ADF1080C6DE904CE16F05EF9DDF804E012
:108E7000DDE9022304B07047704700BF0348044B8C
:108E8000834202D0034B03B1184770471003002000
:108E900010030020000000000548064B1B1AD90FE4
:108EA00001EBA301491002D0034B03B118477047EF
:108EB00010030020100300200000000010B5064C35
:108EC000237843B9FFF7DAFF044B13B10448AFF33B
:108ED00000800123237010BD10030020000000005B
:108EE000D0F9010808B5054B1BB105490548AFF39A
:108EF0000080BDE80840FFF7CFBF00BF00000000C2
:108F000014030020D0F901082DE9FF4757EC106B3E
:108F1000002F0C4619463B46BBBF07F100431F46D6
:108F200000232D230B700D9BDDF830A0914623F01C
:108F30002008BCBF32461646B8F1460F05D0B8F13E
:108F4000450F00D10134022100E0032103AB01935E
:108F500002AB009347EC106B5346224600F0A8FD8D
:108F6000B8F1470F054619D119F0010F0ED000EBEB
:108F700004090022002330463946FFF797FD08B167
:108F8000CDF80C903022039B4B451ED3039B0E9AC9
:108F90005B1B2846136004B0BDE8F087B8F1460FAC
:108FA00000EB0409E5D10378302B0AD1002200231D
:108FB00030463946FFF77AFD18B9C4F10104CAF802
:108FC0000040DAF800309944D3E7591C03911A7035
:108FD000D9E7F7B50029BABF49422D232B23092928
:108FE0000270437029DD0DF107031D460A271A465A
:108FF000B1FBF7F607FB1614303402F8014C0C46AF
:10900000632C03F1FF333146F1DC3031941E03F859
:10901000011C411C2346AB420AD30DF109039B1AE4
:10902000AC4288BF002302330344181A03B0F0BDDA
:1090300013F8016B01F8016FEDE7302330318370D5
:10904000C170031DF1E700002DE9F04F8DB00C4613
:10905000DDF8588016461F46054600F09DFC036863
:1090600004931846FFF7ECF800230A93D8F8003071
:109070000590073323F0070303F1080294F818A0C2
:10908000D4F800B0C8F80020D3E9008929F00043E3
:109090000793CDF81880C4E91289DDE906019C4BDD
:1090A0004FF0FF32FFF734FD70BBDDE90601984B4E
:1090B0004FF0FF32FFF70EFD30BB00220023404689
:1090C0004946FFF7FDFC10B12D2384F84330914A47
:1090D000914BBAF1470F8CBF90469846032323610A
:1090E0002BF0040323604FF00009009733460BAACE
:1090F0002146284600F0D2F9013040F08D804FF033
:10910000FF300DB0BDE8F08F42464B464046494621
:10911000FFF7FEFC40B14B46002BBCBF2D2384F86B
:1091200043307E4A7E4BD4E763680AF0DF02069242
:109130005A1C3BD1062363604BF4806200232260FB
:1091400003930AABCDE901A309AB0093616849EC35
:10915000108B0DF123032846FFF7D6FE069B0999D5
:10916000472B804629D1C81C02DB6368994241DD48
:10917000AAF1020A5FFA8AFA0139524604F1500054
:109180000991FFF726FF0A9A1318012A81462361E5
:1091900002DC2268D20701D5013323619DF8233018
:1091A000002BA2D02D2384F843309EE7069A472A4D
:1091B000C2D1002BC0D10123BDE7BAF1650FDBD9C5
:1091C000BAF1660F18D1002963680BDD216113B96C
:1091D0002268D00702D501330B442361A1654FF00B
:1091E0000009DBE713B92268D20701D50233F4E79F
:1091F0000123F2E74FF0670A0A9B994205DB2368D7
:109200002161D807EAD54B1CE7E70029D4BFC1F19B
:10921000020201221344E0E723685A0507D42369B8
:10922000424631462846B84701302BD167E7BAF1AC
:10923000650F40F2DD80D4E9120100220023FFF720
:1092400035FC002833D0374A012331462846B84739
:1092500001303FF454AFDDE90938434502DB2368B0
:10926000D8070FD5DDE9042331462846B847013039
:109270003FF445AF4FF0000908F1FF3804F11A0A36
:10928000C84509DC23689B0700F10381E0680B9B5C
:109290009842B8BF184634E7012352463146284663
:1092A000B84701303FF42BAF09F10109E8E7099B0A
:1092B000002B39DC1B4A012331462846B8470130D0
:1092C0003FF41DAFDDE9093959EA030302D12368F0
:1092D000D907D7D5DDE9042331462846B847013000
:1092E0003FF40DAF4FF0000A04F11A0B099B5B42EB
:1092F000534501DC4B4693E701235A463146284645
:10930000B84701303FF4FBAE0AF1010AEEE700BFB7
:10931000FFFFEF7F5CFA010858FA010864FA0108C0
:1093200060FA010868FA0108A36DDDF828A053452A
:10933000A8BF5346002B994636DC4FF0000B29EAB4
:10934000E97904F11A02A36D0693A3EB09035B45C7
:1093500031DC099B9A453ADC2368DA0737D4099B4C
:10936000AAEB0309069BAAEB03039945A8BF9946FC
:10937000B9F1000F33DC4FF0000829EAE97904F174
:109380001A0B099BAAEB0303A3EB090343457FF7E1
:1093900079AF01235A4631462846B84701303FF499
:1093A000AEAE08F10108ECE7424631462846B84720
:1093B0000130C2D1A3E60123314628460692B847C0
:1093C00001303FF49CAE069A0BF1010BBBE7DDE9DF
:1093D000042331462846B8470130C0D18FE6069AAB
:1093E0004B46424431462846B8470130C3D186E651
:1093F000DDF828A0BAF1010F01DCDB0736D5012327
:10940000424631462846B84701303FF478AEDDE9A0
:10941000042331462846B84701303FF470AED4E902
:109420001201002200230AF1FF3AFFF73FFBC0B907
:10943000534608F1010231462846B84701300CD1A5
:109440005DE601235A4631462846B84701303FF4CD
:1094500056AE08F10108D045F3DB4B4604F150024B
:10946000DFE64FF0000804F11A0BF4E7012342464F
:10947000E1E701234A4631462846B84701303FF428
:109480003EAE08F10108E3680B995B1A4345F0DC36
:10949000FCE64FF0000804F11909F4E72DE9F04764
:1094A000164698468A680B69DDF820909342B8BF4B
:1094B0001346336091F8432007460C460AB1013346
:1094C00033602368990642BF3368023333602568EE
:1094D00015F0060506D104F1190AE36832689B1AF3
:1094E000AB4226DC94F843302268003B18BF0123CE
:1094F00092062BD404F1430241463846C847013056
:109500001ED02368226903F00603042B02BFE5681E
:109510003368ED1AA3680CBF25EAE5750025934270
:10952000C4BF9B1AED1800261A34B5421AD1002088
:1095300008E00123524641463846C847013003D16E
:109540004FF0FF30BDE8F0870135C6E7E1185A1C3F
:10955000302081F84300224494F8451082F84310EB
:109560000233C7E70123224641463846C847013047
:10957000E6D00136D9E700002DE9FF470F7E0C9EAB
:10958000782F914680460C469A4601F1430207D84F
:10959000622F0AD8002F00F0D180582F00F0B88039
:1095A00004F1420684F842703AE0A7F16303152BF8
:1095B000F6D801A151F823F011960008259600086D
:1095C000A1950008A1950008A1950008A1950008A3
:1095D00025960008A1950008A1950008A19500080E
:1095E000A1950008239700084F960008DD96000813
:1095F000A1950008A195000845970008A1950008CD
:109600004F960008A1950008A1950008E59600086E
:1096100033681A1D1B68326004F1420684F8423038
:1096200001239CE033682068191D3160060601D5CE
:109630001D6803E04506FBD5B3F90050002D03DAA1
:109640002D236D4284F8433058480A2311E02168E5
:109650003368080653F8045B02D4490648BFADB22C
:109660006F2F5248336014BF0A230823002184F867
:1096700043106668A660002E05DB21682E4321F0AA
:10968000040121604BD01646B5FBF3F103FB1157E3
:10969000C75D06F8017D2F46BB420D46F4D9082B65
:1096A0000BD12368DF0708D5236961689942DEBFC3
:1096B000302306F8013C06F1FF36921B2261CDF8FB
:1096C00000A04B4603AA21464046FFF7E7FE0130C3
:1096D0004AD14FF0FF3004B0BDE8F087236843F073
:1096E000200323603248782784F845702368316866
:1096F0001F0651F8045B02D45F0648BFADB231606B
:10970000D90744BF43F0200323601DB11023ADE708
:109710002648E9E7236823F020032360F6E716468E
:10972000BDE7336825686169181D30602E061B6827
:1097300001D5196002E06806FBD51980002323617A
:109740001646BCE733681A1D32601E686268002145
:109750003046FEF725FD08B1801B60606368236119
:10976000002384F84330AAE723693246494640463D
:10977000D0470130ADD023689B0713D4E068039B2A
:109780009842B8BF1846A6E70123324649464046EC
:10979000D04701309DD00135E36803995B1AAB4295
:1097A000F2DCEBE7002504F11906F5E76AFA010897
:1097B0007BFA0108002310B50446C0E90033C0E974
:1097C0000433836081814366C28183611946082224
:1097D0005C3000F0B1F80D4B63620D4BA3620D4B92
:1097E000E3620D4B23630D4B24629C4206D003F1D0
:1097F0006802944202D0D0339C4205D104F1580053
:10980000BDE8104000F0C4B810BD00BFDDAF0008D7
:10981000FFAF000837B000085BB000082C03002041
:10982000024A0349034800F069B800BF0000002065
:1098300081A800081000002041680C4B994210B527
:10984000044601D001F01CF8A168094B994202D0EE
:10985000204601F015F8E168064B994204D02046F5
:10986000BDE8104001F00CB810BD00BF2C03002073
:1098700094030020FC03002010B50B4B0B4C0C4A4A
:109880001A60204600220421FFF794FF04F16800CB
:1098900001220921FFF78EFF04F1D0000222BDE86A
:1098A00010401221FFF786BF640400202C03002023
:1098B00021980008014800F06CB800BF690400203E
:1098C000014800F067B800BF6904002010B50446E5
:1098D000FFF7F0FF236A1BB1BDE81040FFF7F0BFB0
:1098E000044B2362044B1B68002BF5D1FFF7C4FF28
:1098F000F2E700BF39980008640400202DE9F8431E
:109900000746884614460026D4E90195B9F10109B5
:1099100005D52468002CF7D13046BDE8F883AB8923
:10992000012B07D9B5F90E30013303D0294638464B
:10993000C04706436835E9E702440346934200D135
:10994000704703F8011BF9E770B50D4D0D4C641B12
:10995000A4100026A64209D10B4D0C4C16F038F885
:10996000641BA4100026A64205D170BD55F8043B27
:1099700098470136EEE755F8043B98470136F2E781
:109980006C2A02086C2A02086C2A0208702A020853
:109990007047704770470000004870474C01002036
:1099A0002DE9F74F03690C69A34207467EDB013CB2
:1099B00001F11408A30000F11405009305EB8403E2
:1099C000019358F8243055F8242001339A4208EBCB
:1099D0008409B2FBF3F62ED34FF0000AC446AE461C
:1099E000D3465CF8043B98B206FB00A0020C1B0CAB
:1099F00006FB0323DEF8002080B292B2121A5A440A
:109A0000DEF800004FEA134A9BB2C3EB224303EB9C
:109A1000104392B242EA0342E1454EF8042B4FEA6A
:109A2000234BDED2009BEB582BB9019B043B9D429C
:109A30001A462FD33C61384601F0C8F9002825DBCF
:109A40002946002058F8042BD1F800C01FFA82FEE6
:109A50001FFA8CF3A3EB0E030344120CC2EB234258
:109A600002EB1C429BB243EA0243C14541F8043B6E
:109A70004FEA2240E6D255F8242005EB840322B9B0
:109A8000043B9D421A460BD33C610136304603B07D
:109A9000BDE8F08F1268043B002ACBD1013CC6E739
:109AA0001268043B002AEFD1013CEAE70020EEE710
:109AB0002DE9F04FC76999B08DED040B55EC104BB3
:109AC000229E099183460E9213937FB9102000F0D5
:109AD000A9FD0246CBF81C0020B9A54BEF21A548F3
:109AE00001F024FBC0E901770760C760DBF81C3098
:109AF000196859B15A684A60012393408B605846EF
:109B000000F032FFDBF81C3000221A602B1EB9BFB8
:109B100023F00043059300233360059F964BBCBFA1
:109B200001223260BB4312D1139A42F20F731360C9
:109B3000C7F31303234300F04385239BDFF84CA2B4
:109B4000002B00F045850AF1030300F03FBD9DEDB9
:109B5000047B002251EC170B00238DED0C7BFEF7EC
:109B6000A5FF804658B1139A01231360239B13B1BC
:109B7000239A824B1360DFF818A200F029BD9DEDF7
:109B80000C0B16AA17A9584601F0D0F9C7F30A56CC
:109B90008146002E77D00D9BCDF85080C3F3130380
:109BA000DDE90C0143F07F5343F44013A6F2FF3686
:109BB00019460022724BFEF759FB67A3D3E9002335
:109BC000FEF70CFD66A3D3E90023FEF751FB044624
:109BD00030460D46FEF798FC63A3D3E90023FEF759
:109BE000FDFC02460B4620462946FEF741FB044693
:109BF0000D46FEF7A3FF0022074600232046294614
:109C0000FEF75EFF40B13846FEF77EFC22462B464B
:109C1000FEF74CFF00B9013F162F51D8594B03EB0B
:109C2000C703D3E90023DDE90C01FEF749FF002853
:109C300048D0013F00231293169B9B1B5A1E44BF22
:109C4000C3F101080023089254BF4FF000080893A5
:109C5000002F39DB089B0F973B44089300230A939E
:109C6000099B092B61D8052BC4BF043B0993099BB1
:109C7000A3F10203CCBF00240124032B61D8DFE849
:109C800003F05052352ADDE916631E4406F23243D2
:109C9000202BC1BFC3F140039F4006F2124324FAB8
:109CA00003F3D6BFC3F1200347EA030004FA03F02D
:109CB000FEF71AFC0122A1F1F873013E149277E736
:109CC0000123B8E71290B7E77B420A930023A8EB81
:109CD00007080F93C4E701230B930E9BFB18009317
:109CE0000133012B0393B8BF012306E001230B933B
:109CF0000E9B002B28DD00930393DBF81C00002152
:109D0000042202F114059D4223D94160584600F017
:109D1000EBFD824600283DD11B4B024640F2AF11BD
:109D2000DDE60023E3E70023D6E7012400230993BF
:109D30000B944FF0FF3300930393002212230E92F3
:109D4000DBE701230B93F4E70123009303931A4607
:109D5000F5E701315200D4E761436F63A787D23F33
:109D6000B3C8608B288AC63FFB799F501344D33F0A
:109D700099FA0108B0FA01080000F07F69FA0108B9
:109D80000000F83F10FC010811FB010895FA0108DA
:109D900068FA0108DBF81C301860039B0E2B00F2F8
:109DA000A180002C00F09E80002F33DD9C4B07F03B
:109DB0000F0203EBC20393ED007BF8058DED067BEC
:109DC0004FEA271416D5974BDDE90C01D3E9082398
:109DD000FEF72EFDCDE9040104F00F040326914D9A
:109DE00054B9DDE90623DDE90401FEF721FDCDE9E3
:109DF000040128E00226F2E7E10708D5DDE90601C3
:109E0000D5E90023FEF7EAFBCDE90601013664102F
:109E10000835E5E700F0AF807C42814B814D04F0CE
:109E20000F0203EBC203D3E90023DDE90C01FEF7C7
:109E3000D5FBCDE90401241100230226002C40F0BB
:109E40008F80002BD3D1129BDDE90445002B00F05D
:109E50009480754B002220462946FEF731FE0028EB
:109E600000F08B80039B002B00F08780009B002B71
:109E700034DD7B1E069320466C4B00222946FEF7FC
:109E8000ADFBCDE90401009C01363046FEF73CFBFA
:109E9000DDE90423FEF7A2FB654B0022FEF7E8F99B
:109EA0000546A1F15076002C6AD1DDE90401614B31
:109EB0000022FEF7DBF902460B46CDE904232A46D1
:109EC0003346FEF71BFE002840F08782DDE90401DF
:109ED0002A4606F10043FEF7F3FD38BBDDE90C34FA
:109EE000CDE90434179B002BC0F258810E2F00F3EC
:109EF00055814B4B03EBC70393ED007B0E9B002B6F
:109F00008DED007B80F2E580039B002B00F3E18068
:109F10000CD1484B002251EC170BFEF75FFBDDE93B
:109F20000423FEF7E1FD002800F0558200242546B9
:109F30000E9BDB430693564600272146584600F009
:109F400013FD002D00F0BD802FB1AF4203D0394684
:109F5000584600F009FD2946584600F005FDB0E0DE
:109F6000E20705D5D5E90023FEF738FB01360123CA
:109F70006410083562E7022665E7039C069784E7CC
:109F8000274B0B9903EBC40353E9022354440029E4
:109F900054D029490020FEF74BFC33462A46FEF7F1
:109FA00065F9CDE910015646DDE90401FEF7C6FD6D
:109FB0000546FEF7A9FA02460B46DDE90401FEF765
:109FC00055F9303502460B46CDE9042306F8015B0E
:109FD000DDE91023FEF774FD002872D1DDE90423CA
:109FE00011490020FEF742F9DDE91023FEF768FD74
:109FF000002840F0B480A6423FF470AFDDE91001C4
:10A000000A4B0022FEF7EAFA084BCDE910010022C4
:10A01000DDE90401FEF7E2FACDE90401C4E700BF7F
:10A0200010FC0108E8FB01080000F03F000024409C
:10A0300000001C40000014400000E03F314628466C
:10A04000FEF7CCFACDE9100115945646DDE904017E
:10A05000FEF774FD0546FEF757FA02460B46DDE9AA
:10A060000401FEF703F9303506F8015B02460B46A2
:10A07000A642CDE904234FF0000224D1AB4BDDE929
:10A080001001FEF7F5F802460B46DDE90401FEF784
:10A0900035FD002863D1DDE91023A4490020FEF737
:10A0A000E5F802460B46DDE90401FEF709FD00284C
:10A0B0003FF414AF159E731E159316F8013C302B18
:10A0C000F8D0069F3BE09A4BFEF788FACDE90401F1
:10A0D000BCE7DDE904455646DDE900232046294674
:10A0E000FEF7A6FBFEF72AFD8046FEF70DFADDE936
:10A0F0000023FEF773FA02460B462046294608F174
:10A100003004FEF7B3F806F8014B039DA6EB0A04F2
:10A11000A54202460B4634D1FEF7AAF8DDE900233A
:10A1200004460D46FEF7EAFCC0B9DDE900232046EF
:10A130002946FEF7BBFC10B118F0010F0ED14946BD
:10A14000584600F011FC00233370139B01371F6049
:10A15000239B002B00F03C821E6039E206973346B9
:10A160001E4613F8012D392A07D19A45F8D1069ACF
:10A170000132069230228AF800201A7801321A70D1
:10A180009FE76B4B0022FEF729FA002200230446CA
:10A190000D46FEF78BFC00289ED0D0E70B9A002AD4
:10A1A00000F0E180099A012A00F3C480149A002A81
:10A1B00000F0B78003F233430A9C4646089A012117
:10A1C0001A4458469844089200F082FC05465EB155
:10A1D000089B002B08DDB342089AA8BF3346A8EBC2
:10A1E0000308F61AD31A08930A9BF3B10B9B002BB2
:10A1F00000F0BD808CB129462246584600F020FD73
:10A200004A4601460546584600F078FC4946069005
:10A21000584600F0A9FB069B99460A9B1A1B04D0DE
:10A220004946584600F00CFD81460121584600F091
:10A230004FFC0F9B0446002B00F0CE811A460146CE
:10A24000584600F0FDFC099B012B044600F3958065
:10A25000049B002B40F08D80059BC3F31303002B60
:10A2600040F08980059B23F000431B0D1B052BB19B
:10A27000089B0133089308F1010801230A930F9BFF
:10A28000002B00F0AF81236904EB8303186900F011
:10A29000D3FBC0F12000089B184410F01F0077D0BA
:10A2A000C0F12003042B6BDD089BC0F11C000344AC
:10A2B000804406440893B8F1000F05DD4946424644
:10A2C000584600F017FD8146089B002B05DD21460E
:10A2D0001A46584600F00EFD0446129B002B59D03A
:10A2E0002146484600F072FD002853DA7B1E069393
:10A2F000494600230A22584600F058FB0B9B814632
:10A30000002B00F07181002329460A22584600F0F4
:10A310004DFB009B002B054667DC099B022B41DCB3
:10A3200063E0169BC3F1360346E700BF0000E03F41
:10A3300000002440039B5C1E0A9BA34209DB1C1BFC
:10A34000039B002BBFF639AF039BA8EB030600234A
:10A3500034E70A9B0F9A0A94E31A1A440F92039B5C
:10A36000464600242AE70A9C0B9D46462FE70A9A98
:10A3700056E7002382E7049B80E700230A9382E7E5
:10A3800099D0089A1C331A4498441E44089292E7C4
:10A390000346F6E7039B0697002B20DC0093099BFE
:10A3A000022B1EDD009B002B7FF4C2AD214605224F
:10A3B000584600F0FBFA01460446484600F006FD08
:10A3C00000287FF7B5AD5646312306F8013B069BC2
:10A3D00001330693B0E5039C06972546F3E7039BFC
:10A3E00000930B9B002B00F00381002E05DD294616
:10A3F0003246584600F07EFC05460A9B002B5AD098
:10A400006968584600F070FA064628B9834B024640
:10A4100040F2EF21FFF763BB2A690232920005F197
:10A420000C010C3000F074FE01223146584600F059
:10A4300061FC0AF101030393009B53440B93049BBB
:10A4400003F001032F460A930546039B2146013B77
:10A4500048460093FFF7A4FA3946049000F130080B
:10A46000484600F0B3FC2A4608902146584600F0C2
:10A47000C9FCC268064602BB0146484600F0A6FC7D
:10A480000246314658460E9200F06EFA099B0E9A2B
:10A49000039E42EA03010A9B194310D1B8F1390F18
:10A4A00029D0089B002B02DD049B03F13108009B9F
:10A4B00083F8008041E52846BBE70122E1E7089BDD
:10A4C000002B04DB09990B430A990B4320D1002A86
:10A4D000EDDD49460122584600F00CFC214681463C
:10A4E00000F074FC002803DCE1D118F0010FDED08D
:10A4F000B8F1390FD8D1009A3923137033461E466C
:10A50000013B16F8012C392A51D001321A7014E59A
:10A51000002A07DDB8F1390FEDD0009A08F10103E8
:10A5200013700AE5039B0B9A03F8018C934228D021
:10A53000494600230A22584600F038FAAF428146C5
:10A540004FF000034FF00A023946584607D100F099
:10A550002DFA07460546039B0133039375E700F088
:10A5600025FA2946074600230A22584600F01EFA1B
:10A570000546F0E7009B002BCCBF1E460126564443
:10A58000002749460122584600F0B4FB2146814687
:10A5900000F01CFC0028B1DC02D118F0010FADD195
:10A5A00033461E4613F8012D302AFAD0C5E49A45E9
:10A5B000A5D1069B0133069331238AF80030BCE411
:10A5C000239BDFF85CA01BB10AF10803239A1360F8
:10A5D000504619B0BDE8F08F099B012B7FF738AECC
:10A5E0000F9B0A93012056E6009B002B7FF7D7AE06
:10A5F000564621464846FFF7D3F900F1300806F8E1
:10A60000018B009BA6EB0A029342B3DD494600236F
:10A610000A22584600F0CAF98146EAE711FB010810
:10A620008CFA0108024B0146186800F025B800BFFB
:10A630000C00002070B50F4E0C463168054611B96C
:10A6400000F034FD30602146284600F02FFD431C09
:10A6500003D14FF0FF34204670BDC41C24F0030426
:10A66000A042F8D0211A284600F020FD0130F2D196
:10A67000EFE700BF6C0400202DE9F843CD1C25F066
:10A68000030508350C2D38BF0C25002D064601DBCF
:10A69000A94204D90C2333600020BDE8F883DFF819
:10A6A000D48000F015F9D8F800301C4644BB294688
:10A6B0003046FFF7BFFF431C044658D1D8F800408E
:10A6C0002746002F43D1002C4BD023683946304613
:10A6D00004EB030900F0EAFC814542D121686D1AC0
:10A6E00029463046FFF7A6FF01303AD023682B44B5
:10A6F0002360D8F800305A6862BBC8F800700FE0D9
:10A700002268521B20D40B2A17D96119A342256055
:10A7100018BF5960636808BFC8F8001062514B60E9
:10A72000304600F0DBF804F10B00231D20F0070099
:10A73000C21A1CBF1B1AA350AFE76268A3420CBF2A
:10A74000C8F800205A60EBE723466468AEE73C4651
:10A750007F68B6E71A465B68A342FBD100235360CB
:10A76000DEE70C233360304600F0B8F894E705606C
:10A77000D6E700BF70040020B1F90C202DE9F041AC
:10A78000160705460C4654D44B68002B02DC0B6CB4
:10A79000002B48DDE66A002E45D0002312F48052DB
:10A7A0002F68216A2B6030D0626DA389590705D5C7
:10A7B0006368D21A636B0BB1236CD21A0023E66A6A
:10A7C000216A2846B047431CA38906D129681D2960
:10A7D0002BD82A4ACA40D60727D500226260D9045E
:10A7E0002269226004D5421C01D12B6803B960653F
:10A7F000616B2F60B9B104F14403994202D028463D
:10A8000000F0C6FC002363630DE001232846B04737
:10A810000246501CC9D12B68002BC6D01D2B01D07D
:10A82000162B1ED12F60002022E043F040031BB204
:10A830001BE00F69002FF6D093070E6808BF4B6925
:10A840000F6018BF0023A6EB07088B60B8F1000F5C
:10A85000E9DD216AA66A43463A462846B047002801
:10A8600008DCB4F90C3043F04003A3814FF0FF3013
:10A87000BDE8F0810744A8EB0008E7E701004020AD
:10A8800038B50B6905460C4613B90025284638BD76
:10A8900018B1036A0BB9FFF719F8B4F90C30002BA3
:10A8A000F3D0626ED00704D4990502D4A06DFFF7EF
:10A8B00070F828462146FFF75FFF636EDA0705460A
:10A8C000E4D4A3899B05E1D4A06DFFF763F8DDE72D
:10A8D0000148FFF75EB800BF680400200148FFF799
:10A8E00059B800BF6804002070B5C66904460D461B
:10A8F00076B91020FFF796FE0246E06120B9184BAA
:10A9000018486B2100F012FCC0E901660660C660C1
:10A91000E669F36883B1E369DB6853F82500B8B9E9
:10A92000012101FA05F6721D9200204600F01CFC80
:10A9300060B1C0E901560EE021220421204600F05A
:10A9400013FCE369F060DB68002BE4D1002070BDEC
:10A95000026843F825200023C0E90333F7E700BF6E
:10A9600099FA010822FB010870B5C66905460C4634
:10A9700076B91020FFF756FE0246E86120B9094B70
:10A9800009488F2100F0D2FBC0E901660660C6606D
:10A990003CB1EB696268DB6853F82210216043F830
:10A9A000224070BD99FA010822FB01082DE9F0410F
:10A9B0000D6907460C461E4601F1140C0020DCF818
:10A9C000003099B202FB01611E0C0B0C02FB063336
:10A9D00089B2013001EB034185424CF8041B4FEA78
:10A9E0001346ECDC0EB3A368AB4219DC6168384651
:10A9F0000131FFF779FF804628B902460C4B0D481C
:10AA0000BA2100F093FB2269023204F10C0192009A
:10AA10000C3000F07DFB21463846FFF7A5FF444689
:10AA200004EB850301355E6125612046BDE8F081B8
:10AA300011FB010822FB0108B0F5803F034636BF39
:10AA4000030400201020B3F1807F3CBF1B020830BC
:10AA5000B3F1805F3CBF1B010430B3F1804F3CBFBA
:10AA60009B000230002B05DB13F0804F00F101004A
:10AA700008BF202070470368024613F007000BD080
:10AA8000D90721D4980749BF5B089B0801201360B0
:10AA90005CBF13600220704799B209B91B0C1020EB
:10AAA000D9B209B908301B0A190704BF1B090430C1
:10AAB000990704BF9B080230D90703D45B0800F153
:10AAC000010003D0136070470020704720207047BA
:10AAD00010B50C460121FFF707FF024628B9054BC8
:10AAE000054840F2451100F021FB01234461036158
:10AAF00010BD00BF11FB010822FB01082DE9F04F3A
:10AB000017460A693B699A42A8BF3B468946A4BFDB
:10AB10000F4699463D69D9F810A0BB68796805EBE6
:10AB20000A06B34285B0B8BF0131FFF7DDFE30B988
:10AB30000246414B41484FF4B17100F0F7FA00F181
:10AB4000140404EB860E23460022734520D307F13C
:10AB5000140809F1140108EB850501EB8A0302933F
:10AB6000EB1B153B23F0030304331537BD4238BFFD
:10AB700004230193029B03918B420CD8002E03DD2A
:10AB80005EF8043D002B55D0066105B0BDE8F08F9E
:10AB900043F8042BD9E7B1F800A0BAF1000F1FD099
:10ABA000C446A14600275CF8042BD9F800301FFAF0
:10ABB00082FB9BB20AFB0B333B44D9F80070120CAA
:10ABC0003F0C0AFB027202EB13429BB243EA0243C0
:10ABD000654549F8043B4FEA1247E4D8019BE7502A
:10ABE000039BB3F802900431B9F1000F20D0236821
:10ABF0004746A4464FF0000AB7F800B0BCF8022060
:10AC000009FB0B2252449BB243EA02434CF8043B3B
:10AC100057F8043B4FEA134ABCF8003009FB0A33EB
:10AC200003EB1243BD424FEA134AE5D8019AA35001
:10AC300004349FE7013EA1E711FB010822FB010854
:10AC40002DE9F843154612F0030207460E4607D0D9
:10AC5000254C013A002354F82220FFF7A7FE0646B0
:10AC6000AD103DD0FC697CB91020FFF7DBFC02463B
:10AC7000F86128B91D4B1E4840F2B31100F056FA96
:10AC8000C0E901440460C460D7F81C80D8F80840CB
:10AC90004CB940F271213846FFF71AFF0023C8F87B
:10ACA0000800044603604FF00009EB070AD531465F
:10ACB00022463846FFF722FF314680463846FFF7E6
:10ACC00053FE46466D100BD0206838B92246214607
:10ACD0003846FFF713FF2060C0F800900446E4E711
:10ACE0003046BDE8F88300BFDCFB010899FA010893
:10ACF00022FB01082DE9F0470C464968236903EB64
:10AD00006218A368074691464FEA621A08F10106E5
:10AD1000B3420BDB3846FFF7E7FD054648B902466C
:10AD2000284B29484FF4EF7100F000FA01315B0025
:10AD3000EEE7002300F1140100F11002184653451C
:10AD400033DB20692AEAEA7A04F1140319F01F09B7
:10AD500001EB8A0103EB800C2BD0C9F1200E8A464F
:10AD60000022186800FA09F010434AF8040B53F85F
:10AD7000042B9C4522FA0EF2F3D8ACEB0403153BEE
:10AD800023F00303043304F11500604588BF042356
:10AD9000CA500AB108F10206013E38462E6121462A
:10ADA000FFF7E2FD2846BDE8F08742F8040F0133C3
:10ADB000C5E7043953F8042B41F8042F9C45F9D812
:10ADC000EAE700BF11FB010822FB01080A690346FC
:10ADD0000069801A30B50ED11433143103EB8204AC
:10ADE00001EB820154F8045D51F8042D954203D023
:10ADF00005D24FF0FF3030BDA342F3D3FBE7012073
:10AE0000F9E700002DE9F74F894606461146484606
:10AE10001446FFF7DBFF051E12D129463046FFF727
:10AE200063FD024628B93F4B40F237213E4800F00F
:10AE30007DF90123C0E90435104603B0BDE8F08F69
:10AE4000BCBF4B46A1463046D9F80410BABF1C46D9
:10AE500001250025FFF748FD024618B9314B40F2A5
:10AE60004521E3E7D9F810702669C56009F11003A0
:10AE700009F1140504F1140E00F1140B05EB870819
:10AE80000EEB86060193D9464FF0000C019B5EF84D
:10AE9000040B53F804AF01931FFA8AF3194683B2E7
:10AEA000CB1A000C6344C0EB1A4000EB23409BB26A
:10AEB00043EA0043764549F8043B4FEA204CE5D885
:10AEC000331B153B23F0030315340433A64238BF6C
:10AED00004231D445B441E462C4644450ED308F112
:10AEE0000301491B21F00301033DA84538BF0021A0
:10AEF0000B4453F8041D91B117619DE754F8041BEE
:10AF0000E646080C1CFA81FC714400EB2C4089B227
:10AF100041EA004146F8041B4FEA204CDDE7013FBF
:10AF2000E7E700BF11FB010822FB01082DE9F74309
:10AF30000F46012159EC108B1646FFF7D5FC04464D
:10AF400030B90246234B244840F20F3100F0EEF8AE
:10AF5000C9F30A55C9F313030DB143F480130193E8
:10AF6000B8F1000323D068460093FFF784FDDDE9C4
:10AF70000012D0B1C0F1200302FA03F30B43C24028
:10AF800063610192019BA361002B0CBF012202228D
:10AF90002261A5B1A5F2334505443D60C0F13500FD
:10AFA0003060204603B0BDE8F0836161EAE701A8A4
:10AFB000FFF761FD019B636120300122E8E704EBAC
:10AFC0008203A0F2324038601869FFF735FDC0EB0C
:10AFD0004210E5E711FB010822FB010810B50C4601
:10AFE000B1F90E1000F050F80028ABBF636DA389D3
:10AFF0001B1823F48053ACBF6365A38110BD2DE9FA
:10B00000F0411F468B89DB0505460C46164605D5E3
:10B01000B1F90E100223002200F024F8A389B4F93C
:10B020000E1023F48053A38132463B462846BDE8E8
:10B03000F04100F04BB810B50C46B1F90E1000F01D
:10B0400011F8431CA38915BF606523F4805343F4B2
:10B050008053A38118BFA38110BDB1F90E1000F079
:10B0600047B8000038B5074D04460846114600228F
:10B070002A601A4614F02CF8431C02D12B6803B145
:10B08000236038BD7404002038B5074D04460846D7
:10B09000114600222A601A4614F000F8431C02D11F
:10B0A0002B6803B1236038BD7404002038B5064D09
:10B0B0000023044608462B6013F0BEFF431C02D158
:10B0C0002B6803B1236038BD7404002038B5074DE8
:10B0D00004460846114600222A601A4601F0C0F8CC
:10B0E000431C02D12B6803B1236038BD74040020D7
:10B0F00038B5064D0023044608462B6013F0DCFFEC
:10B10000431C02D12B6803B1236038BD74040020B6
:10B110000A44914200F1FF3300D1704710B511F895
:10B12000014B03F8014F9142F9D110BD1FB51446F0
:10B130001A46094B1B680546D8684CB1074B00916D
:10B14000CDE9013406492B4600F07EF800F09BF86B
:10B15000044B1C46F3E700BF0C0000208EFB0108E7
:10B160009BFB0108C9FB010870B5A1FB025434B96F
:10B170002946FFF781FA064628B9304670BD0C22F1
:10B1800002600026F9E72A462146FEF7D5FBF4E7E0
:10B1900038B50546002941D051F8043C0C1F002B5E
:10B1A000B8BFE418FFF794FB1D4A136833B9636016
:10B1B00014602846BDE83840FFF790BBA34208D989
:10B1C000206821188B4201BF19685B68091821604B
:10B1D000EDE71A465B680BB1A342FAD91168501823
:10B1E000A0420BD120680144501883421160E0D185
:10B1F00018685B68536008441060DAE702D90C23D2
:10B200002B60D6E7206821188B4204BF19685B6861
:10B21000636004BF091821605460CAE738BD00BFED
:10B220007004002082B001B901A942B14BB113787A
:10B230000B601278101E18BF012002B07047104634
:10B24000FBE76FF00100F8E70EB403B5014603AB6E
:10B25000054853F8042B0068019300F045F802B04C
:10B260005DF804EB03B070470C000020034608466D
:10B2700041B1FF2A04D98A221A604FF0FF3070478B
:10B280000A700120704708B5062000F07DFA012001
:10B2900013F0FEFE9368013B002B10B4936008DAB4
:10B2A0009469A34201DB0A2903D15DF8044B00F045
:10B2B00033B91368581C1060197008465DF8044BC8
:10B2C0007047F8B506460F461446D518AC4201D172
:10B2D000002007E014F8011B3A463046FFF7DAFF7A
:10B2E000431CF3D1F8BD00002DE9F04F0D469DB091
:10B2F00014469846064618B1036A0BB9FEF7E6FAFB
:10B300006B6ED90705D4AB899A0502D4A86DFEF7F8
:10B3100040FBAB891B0701D52B699BB929463046F9
:10B3200000F038F970B16B6EDC0704D54FF0FF30D8
:10B330001DB0BDE8F08FAB899805F7D4A86DFEF776
:10B3400029FBF3E70023099320238DF82930CDF85A
:10B350000C803023DFF8AC818DF82A304FF00109E2
:10B3600023469A4613F8012B0AB1252AF9D1BAEBE4
:10B37000040B0BD05B46224629463046FFF7A1FF5F
:10B38000013000F0A780099A5A4409929AF80030D7
:10B39000002B00F09F8000234FF0FF32CDE9052302
:10B3A0000AF1010A049307938DF853301A93544617
:10B3B000052214F8011B5348FCF7F2FE049AD8B991
:10B3C000D10644BF20238DF85330130744BF2B23ED
:10B3D0008DF853309AF800302A2B15D0079A54462E
:10B3E00000204FF00A0C214611F8013B303B092B9D
:10B3F0004BD9B0B1079214E0A0EB080309FA03F3AC
:10B4000013430493A246D2E7039B191D1B680391C3
:10B41000002BBBBF5B4242F0020207930793B8BF09
:10B42000049223782E2B0AD163782A2B32D1039BE6
:10B430001A1D1B68039243EAE37302340593DFF895
:10B44000D4A0217803225046FCF7AAFE38B1049B11
:10B45000A0EB0A004022824013430134049314F805
:10B46000011B29488DF828100622FCF799FE0028B8
:10B470003FD0264B1BBB039B073323F00703083346
:10B480000393099B3B4409936AE70CFB02320C4689
:10B490000120A8E700230134059319464FF00A0C58
:10B4A000204610F8012B303A092A03D9002BC6D0C8
:10B4B0000591C4E70CFB012104460123F0E703AB2F
:10B4C00000932A46124B04A93046FDF7BDFD0746FE
:10B4D000781CD6D16B6ED90705D4AB899A0502D4F6
:10B4E000A86DFEF757FAAB895B063FF51FAF0998C9
:10B4F0001EE703AB00932A46054B04A93046FEF72E
:10B500003BF8E4E7CAFB0108D4FB010849900008B6
:10B51000C3B20008D0FB0108F8B50E461446054634
:10B5200018B1036A0BB9FEF7D1F9A369A360A38927
:10B530001A0701D5236943B92146284600F02AF8A5
:10B5400018B14FF0FF373846F8BD23682269981AC2
:10B550006369F6B28342374605DC21462846FFF789
:10B560008FF90028EDD1A368013BA36023685A1C22
:10B5700022601E706269431C9A4204D0A389DB07D3
:10B58000E1D50A2EDFD121462846FFF779F90028B8
:10B59000D9D0D6E738B5294B054618680C4618B1FE
:10B5A000036A0BB9FEF792F9B4F90C30190722D4EB
:10B5B000DA0607D409222A6043F04003A3814FF042
:10B5C000FF3033E0580712D5616B41B104F14403F9
:10B5D000994202D02846FFF7DBFD00236363A3896D
:10B5E00023F02403A3810023636023692360A389DC
:10B5F00043F00803A38123694BB9A38903F42073A3
:10B60000B3F5007F03D02146284600F03FF8B4F997
:10B610000C3013F001020AD00022A260626952428B
:10B62000A261226942B913F08000C5D138BD9907E3
:10B6300058BF6269A260F4E70020F7E70C00002021
:10B6400070B50C46B1F90E10002996B015461E468D
:10B650000DDAA38913F0800F4FF0000114BF4023CF
:10B660004FF48063002031602B6016B070BD6A46D5
:10B6700000F0B6F80028ECDB019901F47041A1F567
:10B680000053594259414FF48063EBE78B89F7B57A
:10B690009D0706460C4607D504F147032360236146
:10B6A0000123636103B0F0BD01AB6A46FFF7C8FF39
:10B6B000009F054639463046FEF7DEFF48B9B4F92B
:10B6C0000C309A05EED423F0030343F00203A38168
:10B6D000E2E7A389206043F08003A381019BC4E9D2
:10B6E00004075BB1B4F90E10304600F055F828B1EC
:10B6F000A38923F0030343F00103A381A3891D431E
:10B70000A581CFE7884210B501EB020402D984423B
:10B71000234607D8431EA14208D011F8012B03F895
:10B72000012FF8E7024401468A4200D110BD13F808
:10B73000014D02F8014DF7E71F2938B505460C46C3
:10B7400004D9162303604FF0FF3038BDC26B12B12D
:10B7500052F821304BB9284600F040F82246014605
:10B760002846BDE8384000F027B8012B0AD0591C04
:10B7700003D1162303600120E7E7002142F82410DB
:10B78000204698470020E0E7024B01461868FFF783
:10B79000D3BF00BF0C00002038B5064D002304467F
:10B7A00008462B6013F092FC431C02D12B6803B1B6
:10B7B000236038BD7404002038B5074D00230446CB
:10B7C000084611462B6013F05BFC431C02D12B682A
:10B7D00003B1236038BD00BF7404002013F04EBCD9
:10B7E00038B5074D00230446084611462B6013F078
:10B7F00067FC431C02D12B6803B1236038BD00BF36
:10B80000740400202DE9F041074614460D4621B985
:10B81000BDE8F0411146FEF72FBF2AB9FFF7B8FC8B
:10B8200025462846BDE8F08100F01AF88442064615
:10B8300002D8B4EB500FF4D821463846FEF71CFF6F
:10B84000804608B94546ECE7B4422246294628BF5F
:10B850003246FFF75DFC29463846FFF799FCF1E7D1
:10B8600051F8043C181F002BBCBF0B58C018704780
:10B8700038B50546072445FA04F2114802F00102E2
:10B880004FF4805109F09EFE0D4801224FF4804193
:10B8900009F098FE0A4800224FF4804109F092FE18
:10B8A000013CE8D2064801224FF4005109F08AFE1B
:10B8B000BDE83840024800224FF4005109F082BE32
:10B8C0000004024038B503460D4614461946582276
:10B8D0000348FFF71DFC034A034B15601C8038BD6D
:10B8E000800400207C040020780400202DE9F0472B
:10B8F0004C4E4D4DDFF8388184B004460F4601228E
:10B900003188286809F05EFE4021404609F054FE67
:10B91000024631882868002A00F08180002209F060
:10B9200051FEC4F309040023318828683B800122BA
:10B9300044F4C0544FF096088DF80D3009F042FEE3
:10B940004FEA142C3948CDF8008001230DF10E0286
:10B950000DF10F018DF80FC00DF0FEFB002854D142
:10B960003248CDF800800DF10E0201230DF10F01D8
:10B970008DF80F400DF0F0FB002846D18DF80F0038
:10B98000CDF80080294801230DF10D020DF10F01C2
:10B990000DF0E2FB002838D1CDF800803B889DF8FF
:10B9A0000D208DF80F0043EA42233B801F480123FE
:10B9B0000DF10D020DF10F010DF0CEFB28BBCDF8FE
:10B9C00000803B888DF80F009DF80D0043EA40038E
:10B9D0003B8016480DF10D020DF10F0101230DF012
:10B9E000BBFB044688B99DF80D203B8843EAD2137F
:10B9F0003B8001200AF0D0F828683188224609F0FF
:10BA0000E1FD204604B0BDE8F087286831880022B7
:10BA100009F0D8FD0A24204604B0BDE8F08709F0FB
:10BA2000D1FD6CE7780400207C0400208004002015
:10BA3000000002409AB170B504460D4601EB420683
:10BA400001E0B54209D029462046FFF74FFF0134F7
:10BA50000235A4B20028F4D070BD002070BD0020D3
:10BA6000704700BF70B5234D234C244E84B0012293
:10BA70002988206809F0A6FD4021304609F09CFD88
:10BA80000246298820687AB3002209F09BFD962699
:10BA900029882068012209F095FD4FF0130C184801
:10BAA000009601230DF10E020DF10F018DF80FC06C
:10BAB0000DF052FBD8B900968DF80F000123104805
:10BAC0000DF10E020DF10F010DF046FB061E18BF21
:10BAD0000A2601200AF060F820682988002209F06F
:10BAE00071FD304604B070BD09F06CFDBFE70A2659
:10BAF000EFE700BF780400207C0400200000024033
:10BB00008004002070B5234D234C244E84B00122C4
:10BB10002988206809F056FD4021304609F04CFD87
:10BB20000246298820687AB3002209F04BFD962648
:10BB300029882068012209F045FD4FF0100C1848B3
:10BB4000009601230DF10E020DF10F018DF80FC0CB
:10BB50000DF002FBD8B900968DF80F0001231048B4
:10BB60000DF10E020DF10F010DF0F6FA061E18BFD1
:10BB70000A2601200AF010F820682988002209F01E
:10BB800021FD304604B070BD09F01CFDBFE70A2658
:10BB9000EFE700BF780400207C0400200000024092
:10BBA000800400202DE9F047424E434D434C84B0C1
:10BBB0000746884601223188286809F003FD4021A4
:10BBC000204609F0F9FC024631882868002A63D033
:10BBD000002209F0F7FC00238DF80D30FFF742FF3B
:10BBE0000446002854D1C7F309073188286847F470
:10BBF000A057012209F0E6FC4FF096093B0A8DF8A8
:10BC00000F302F48CDF8009001230DF10E020DF1F9
:10BC10000F01FFB20DF0A0FA002840D12848CDF85E
:10BC200000900DF10E0201230DF10F018DF80F7040
:10BC30000DF092FA98BB4FEA18238DF80D308DF86D
:10BC40000F301F48CDF8009001230DF10D020DF1CA
:10BC50000F010DF081FA10BB5FFA88F81848CDF893
:10BC600000900DF10D020DF10F0101238DF80D80F3
:10BC70008DF80F800DF070FA88B922463188286857
:10BC800009F0A0FC022009F087FFFFF73BFF044604
:10BC9000204604B0BDE8F08709F094FC8AE72868E4
:10BCA0003188002209F08EFC0A24204604B0BDE849
:10BCB000F08700BF780400207C04002000000240D0
:10BCC000800400209AB170B504460D4601EB42068F
:10BCD00001E0B54209D0204635F8021BFFF762FFAC
:10BCE0000134A4B20028F4D070BD002070BD002043
:10BCF000704700BF2DE9F0473E4E3F4D3F4C84B0AA
:10BD0000074601223188286809F05CFC4021204662
:10BD100009F052FC024631882868002A5CD00022D3
:10BD200009F050FC00238DF80D30FFF79BFE044610
:10BD300000284DD131882868012209F043FC4FF0DA
:10BD4000960811238DF80F302D48CDF8008001237F
:10BD50000DF10E020DF10F010DF0FEF900283ED19C
:10BD60002748CDF800800DF10E0201230DF10F01DF
:10BD70008DF80F400DF0F0F988BB3B0A8DF80D30BF
:10BD80008DF80F301E48CDF8008001230DF10D0213
:10BD90000DF10F010DF0E0F908BBFFB21848CDF826
:10BDA00000800DF10D020DF10F0101238DF80D70D2
:10BDB0008DF80F700DF0D0F988B9224631882868C7
:10BDC00009F000FC022009F0E7FEFFF79BFE0446A5
:10BDD000204604B0BDE8F08709F0F4FB91E728683D
:10BDE0003188002209F0EEFB0A24204604B0BDE8A9
:10BDF000F08700BF780400207C040020000002408F
:10BE00008004002070B5154D154E84B00C465422A8
:10BE100001462846FFF77CF9124B95F83D201B6838
:10BE20003480190C242AADF80C308DF80E100FD088
:10BE3000C823610000930948032303AA01F0FE010F
:10BE40000AF034FB08B904B070BD0A2004B070BD1C
:10BE500005F018F90028F8D13488E9E7DC0400205F
:10BE6000D8040020DCFD0108F0B5044687B064204A
:10BE70000D4609F091FE2F4B2F4A1B6892F83D208A
:10BE8000ADF80C30190C242A8DF80E104AD02B4F27
:10BE9000294839884FF0FF364900009601F0FE012D
:10BEA000032303AA0AF002FB00283FD13988224865
:10BEB00000964900062304AA01F0FE010AF040FCA6
:10BEC000A0BB9DF81310BDF81420DFED1D6ADFED57
:10BED0001D5A9FED1D7A9FED1D6A0B0452BA92B256
:10BEE00003F47023134307EE903A9DF812309DF847
:10BEF0001120F8EEE77A1B0167EEA67A43EA0233D7
:10BF000043EA1113A7EEA57A07EE903AF8EEE77A26
:10BF100067EEA67A67EE867AC5ED007A84ED007A40
:10BF200007B0F0BD05F0AEF80028B0D00A2007B089
:10BF3000F0BD00BFE0FD0108DC040020D8040020B3
:10BF40000000803500004843000048C20000C8429D
:10BF5000F0B5254D254F2B7885B00A2603430446BE
:10BF600000968DF80F300DF10F0201234E2120486D
:10BF70000AF09CFA2A780096224342F004021D4EF1
:10BF80008DF80F2001230DF10F024E2118480AF001
:10BF90008DFA3268184B7968A3FB0232920C02EBDF
:10BFA000820292007B685B1A9A42FBD82B78104879
:10BFB0001C430A230DF10F0200934E2101238DF83B
:10BFC0000F400AF073FA0C4B326808487968A3FBFB
:10BFD0000232920C02EB8202920043685B1A9A4290
:10BFE000FBD805B0F0BD00BF30050020001000E018
:10BFF000380500208402002083DE1B432DE9F04138
:10C0000003460C4684B0194654224F484F4D504EBB
:10C01000FFF77EF84F4B504A1C70022C4FF008017E
:10C0200034BF04230B4629703370D2F8FC304B4CDC
:10C0300043F08073C2F8FC302368002243F0010310
:10C040002360626000BF00BF00BF322009F0A4FD82
:10C050002A788DF80F200A21012300910DF10F029B
:10C060004E2139483E4F3F4D0AF020FA322009F068
:10C0700093FD4FF003083020FFF76AFF3A686168CC
:10C08000A5FB020241F29413920C03FB02F26368D7
:10C090005B1A9A42FBD8B8F10108ECD12020FFF7D7
:10C0A00057FF304A3B6861682C4CA2FB0332642086
:10C0B000920C00FB02F263685B1A9A42FBD8357857
:10C0C00025F00F0040F02000FFF742FF280100F0AC
:10C0D000F000FFF73DFF244B042200201A70FFF709
:10C0E00037FFC020FFF734FF0020FFF731FF10209B
:10C0F000FFF72EFF1B4A3B686168184CA2FB033216
:10C100004FF4FA60920C00FB02F263685B1A9A42E9
:10C11000FBD8164B022200201A70FFF719FF60208F
:10C12000FFF716FF0F4B3A6860680C49A3FB023219
:10C1300041F29415920C05FB02F24B681B1A9A42CD
:10C14000FBD804B0BDE8F0813805002030050020A0
:10C15000340500203105002000ED00E0001000E073
:10C160008402002083DE1B433305002032050020BB
:10C1700008B50020FFF7ECFE2020FFF7E9FE084A93
:10C18000084B12680849A3FB0232920C4FF4FA6381
:10C19000486803FB02F24B681B1A9A42FBD808BDA1
:10C1A0008402002083DE1B43001000E070B50446CB
:10C1B000C00000F0300040F040000E46FFF7C8FE1F
:10C1C000E00100F08000FFF7C3FE751E073615F88A
:10C1D000014F24F00F0040F00100FFF7B9FE2001ED
:10C1E00040F0010000F0F100FFF7B2FEB542EED1E1
:10C1F00070BD00BF38B5037804464BB3164D02E05E
:10C2000014F8013F23B3EB5C1807F9D42046FCF780
:10C2100017F8421E2244A24288BF134602D807E004
:10C220009C4217D01A4613F80119695C0907F7D424
:10C23000121B551C40F2FF329542084B28BF154691
:10C240002A462146184613F049FA0022425538BDC5
:10C25000204638BD2246EBE7D9FC01088C050020BA
:10C2600010B5C8231446034892B20EF02DF82046AC
:10C2700010BD00BF603D0020014BB3F8FD007047CA
:10C28000007F00082DE9F04F8FB0044609F0A2FCB2
:10C29000064609F099FC054609F090FC31462E0E41
:10C2A00046EA0126C5F3074343EA0623C5F30727F9
:10C2B00047EA0327EDB245EA07254FEA106C5D4ACD
:10C2C0004CEA052CC5F30415C3F3C403555DD35CD8
:10C2D0000395C1F3840EC0F3074512F80E90009346
:10C2E00045EA0C25CCF3C41EC0F3072343EA05231B
:10C2F000C0B2CCF3840C40EA032B12F80E00049079
:10C3000012F80C000590C7F3841CC7F3440712F819
:10C310000CC0CDF804C012F807C0CDF808C0CBF3AC
:10C320008417C3F3C40312F807C0CDF81CC0C1F3CF
:10C330008457C1F3C41812F807C0D35C12F808A0E0
:10C340000693C6F3441706F01F064FEA0B1012F8C7
:10C350000780975DCB0EC5F34416CBF3440E05F072
:10C360001F05C1F3444B00F01F00C1F30431555DBC
:10C37000105CD35C965D12F80EE012F80BB0515CC5
:10C3800000226AF3070269F30F2268F3174267F38A
:10C390001F62009F0992002267F30702019F67F363
:10C3A0000F22029F67F31742039F67F31F62049FE8
:10C3B0000A92002267F30702059F67F30F2266F3D4
:10C3C000174265F31F62069D0B92002265F3070278
:10C3D000079D65F30F226EF3174260F31F620C9204
:10C3E000002263F307026CF30F226BF3174261F331
:10C3F0001F62002008928DF83400ABB10E4F08ADDB
:10C4000002464FF02D0C0146635415F8013F0132EE
:10C41000481C07FB02F633B1B6F1333FF3D804F8FA
:10C4200000C00231F0E70444002323700FB0BDE8E0
:10C43000F08F00BFF4240208CDCCCCCC2DE9F04F16
:10C440000378ADF6240D0D46002B7BD0564904220F
:10C45000044613F031F98146002869D12379002B75
:10C4600000F09D80201DFFF7C5FE12F0BBFF431EAC
:10C47000DBB2042B00F29080C3B2013B042B00F22C
:10C4800091804A494A4A31F8137032F81390B945FD
:10C4900042D308ABB8464FEA470A03EB47063C468F
:10C4A000204601343146A4B2FFF720FAA14506F137
:10C4B0000206F5D24F452FD80DF13E0303EB0A06D5
:10C4C000DFF838B1DFF838A13A4F2846FBF7B8FE5D
:10C4D00042465946284412F0BFFFA6F120042846E0
:10C4E000FBF7AEFE34F8022F3946284412F0B4FFB1
:10C4F000A642F4D12846FBF7A3FE08F11008BAF8CB
:10C5000000302B522A181FFA88F39AF80210917003
:10C510004B4506F12006D8D92846FBF791FE264B5D
:10C520002844196813F0F4F80DF6240DBDE8F08FD7
:10C53000224B23491A6828460DF6240DBDE8F04F1A
:10C5400012F08ABF1F48FFF79DFE1F4B1F4A1B7842
:10C55000B2F8FD40DB071BD41D4A17491D4B096883
:10C560001B881D48CDE906311C491D4B0988CDE9C2
:10C5700004211C49134ACDE90010CDE902431A49B0
:10C580001A4B284612F068FF0DF6240DBDE8F08F17
:10C5900001F09CF9164AE0E7084B1649CAE7074B39
:10C5A0001549C7E74F4674E7DCFE0108E824020896
:10C5B000DC24020838FF0108E8010020E401002023
:10C5C0008CFF01088C090020A4090020007F0008CE
:10C5D000E4FD010800120020D4FE01080212002030
:10C5E000A8090020D8FE0108F8FD0108F4FD0108A3
:10C5F000E8FD010844FF0108E4FE01082CFF0108E2
:10C6000040FF0108034618B102780AB1FFF7F2BDF6
:10C610001846704738B5284C2278D30701D401203A
:10C6200038BD264B1B8803F00300A0F1010003F086
:10C630000C05D9B2B0FA80F04009042D01F03005A4
:10C6400008BF40F0020001F0C001102D08BF40F00B
:10C6500004004029C3F30721C3F3012308BF40F0BE
:10C660000800012B01F00C0308BF40F01000042B60
:10C6700001F0300308BF40F0200001F0C001102B92
:10C6800008BF40F040000E4D402902F0030208BFF1
:10C6900040F08000032A287003D0FFF7E9F800205B
:10C6A00038BD22780748C2F340024FF4004108F039
:10C6B00089FF2878F1E700BFB8090020B4090020FD
:10C6C000B20900200004024008B50E4B1A78D307C7
:10C6D00016D502F00303032B05D00B4B1878FFF798
:10C6E000C7F8002008BD0948C2F340024FF40041DA
:10C6F00008F068FF044B1878FFF7BAF80020F1E75C
:10C70000012008BDB8090020B20900200004024041
:10C710005D490B78DA0777D510B5C2B2012A82B02D
:10C7200006D0022A09D0002A70D00A2002B010BD1B
:10C73000564C227842F0010222709DF80620012A10
:10C740006DD0022A06D0002AEFD1504C227822F078
:10C75000020222709DF80820012A66D0022A06D023
:10C76000002AE2D1494C227822F0040222709DF87E
:10C770000A20012A68D0022A06D0002AD5D1434CCB
:10C78000227822F0080222709DF80C20012A61D044
:10C79000022A06D0002AC8D13C4C227822F010028E
:10C7A00022709DF80E20012A5AD0022A06D0002AB3
:10C7B000BBD1364C227822F0200222709DF8102046
:10C7C000012A53D0022A06D0002AAED12F4C22785B
:10C7D00022F0400222709DF81220ADF80400012AD8
:10C7E0004CD0022A48D0002A9FD1284C227802F04F
:10C7F0007F02227003F00303032B1CD02078FFF785
:10C8000037F8002002B010BD012070471F4C22787D
:10C8100022F0010222709DF80620012A91D11B4CC2
:10C82000227842F00202227094E7184C227842F0FB
:10C83000040222709BE70A781548C2F340024FF4C5
:10C84000004108F0BFFED9E7104C227842F0080200
:10C85000227099E70D4C227842F010022270A0E776
:10C860000A4C227842F020022270A7E7074C227877
:10C8700042F040022270AEE7044CBBE7034C227842
:10C8800062F07F022270B5E7B8090020B2090020EB
:10C89000000402400000000070B504460D46144834
:10C8A0000522214609F048FA20B100200A26286016
:10C8B000304670BD322009F06FF90D4809F0D2FA08
:10C8C00006460028F1D120680028EED0FBF70CFEC8
:10C8D00002460B4604A1D1E90001FBF7A9FFFCF7D2
:10C8E00055F92860304670BD66666666E683B340DB
:10C8F000D8370020000000002DE9F04F2DED028B0D
:10C9000093B008A90DA8FFF7C7FF0A2800F08A8096
:10C910004FF00009DFF83481494F9FED4A8ADFF874
:10C9200028A1CB46BA683868796809AB07C3BA89C9
:10C930001A8009F10303DEB2002348F8043B7B8828
:10C940000193BB880593FB8802933B899DF82440A3
:10C9500006937B890493BB89079314F00103039327
:10C9600057D0DDED087A0DAB03EB8903F5EE407A85
:10C97000F1EE10FA9D684FEA89034FD007EE105A86
:10C98000B8EE477A67EE277A17EE900AFBF7CEFDEE
:10C9900027A3D3E90023FBF74BFF27A3D3E9002309
:10C9A000FBF746FFFCF7F2F8A107CAF800001AD51A
:10C9B000019BAB4217D8059BAB4214D3DDF80CB0FA
:10C9C0003046594602F02CFB09F10109B9F1030F79
:10C9D00007F10E070AF1040AA4D1002013B0BDEC40
:10C9E000028BBDE8F08F620708D5029BAB4205D8E9
:10C9F000069BAB4202D34FF0020BE1E72307DFD5E2
:10CA0000049BAB42DCD8079BAB4228BF4FF0030B23
:10CA1000D6E71946304602F003FBD5E70A4A13442D
:10CA200083ED008A0A2013B0BDEC028BBDE8F08FC5
:10CA30000000000000FEAF4046175D74D145B73FCF
:10CA4000BC09002000000000F4090020E8090020D3
:10CA50002DE9F04FAC4C91F800800D460746164684
:10CA60000FCC95B00DF1200CACE80F000FCCACE86A
:10CA70000F0094E80F008CE80F00B8F1000F77D09A
:10CA8000A2490622284612F017FE002800F0F68080
:10CA90009F490722284612F00FFE0346002800F0A7
:10CAA00000819C490422284612F006FE002800F06E
:10CAB000068199490422284612F0FEFD002800F064
:10CAC0000181B8F16F0F08D0944B95491A68304630
:10CAD00015B0BDE8F04F12F0BFBC6B786E2BF3D1F0
:10CAE00002242046C7EBC70ADFF8608218F81A3024
:10CAF000DB074FEAC7094FEA4A0A40F1E6802844BB
:10CB0000FFF780FD03780546002B00F0E6807F49A3
:10CB1000062212F0D1FD14AB03EB041B24013BF8F9
:10CB2000243C002800F07C8179490593072228469F
:10CB300012F0C2FD059B002800F09281012B00F04D
:10CB40001181022B00F0A281032B00F0A48104F1DB
:10CB50005002724B0DEB02041A6854F8283C009204
:10CB600070497A1C304612F077FC15B0BDE8F08FA2
:10CB7000C7EBC703DFF8D48118F813105D0008EB8A
:10CB80004304CB0707F101024FEAC70943D56649C1
:10CB9000304612F061FC18F805309D0730465ED52E
:10CBA000FBF74EFBA38862886049304412F054FCC6
:10CBB0003046FBF745FBA9EB0703054618F81310B1
:10CBC00006EB000C480708EB430239D51389584996
:10CBD000D288604612F040FCA9EB07093046FBF70B
:10CBE0002FFB18F819301907054608EB490206EB28
:10CBF000000C17D593894F4952894F4C604612F06B
:10CC00002BFC3046FBF71CFB2168304415B0BDE817
:10CC1000F04F12F07DBD484C48492368304612F071
:10CC20001BFCEEE7464F444C0FCF70513868CCF8F0
:10CC30000410CCF80820CCF80C30CCF81000E0E759
:10CC4000404C0FCC7051CCF8041003CCCCF8082029
:10CC5000CCF80C30CCF81000CCF81410BCE7FBF783
:10CC6000EFFA394C351884460FCC46F80C00696051
:10CC700003CCAA60EB602861696199E73349C7EB8F
:10CC8000C7047A1C11F8143043F0010301F8143082
:10CC9000294B2F4930461B6815B0BDE8F04F12F004
:10CCA000DBBB2A49C7EBC7047A1C11F8145063F3A5
:10CCB000000501F81450204B26493046EBE70446A6
:10CCC00004200FE7012404200CE714AA1A4B02EBFE
:10CCD00004101A6850F8283C41E718F80A301E4A38
:10CCE00014A901EB041013F0010F13491B4B096841
:10CCF00018BF1A4650F8283C0191009218497A1C36
:10CD0000304612F0A9FB30E7E8F9010810010208EB
:10CD1000180102082001020828010208E40100208D
:10CD200030010208A00102082C0002085800020885
:10CD300098000208D8000208E80100201800020844
:10CD4000FC000208C000020880000208BC090020A4
:10CD50006801020884010208D0FF0108C8FF010829
:10CD6000BC01020818F80A20C2F34002A9EB070927
:10CD700018F81910C9077FF5EAAE002A3FF4E7AEAC
:10CD80000A2207A92846059312F002FC824607985A
:10CD9000059B854200F09880BAF5805F80F0918015
:10CDA0000593FFF72FFC07900278059B1FFA8AF97D
:10CDB000002A00F0A08007A90A22059312F0E8FBE0
:10CDC000079A954201467FD01278002A7CD1B0F5AF
:10CDD000805F76D204F150030DEB0304059B54F8F9
:10CDE000284C69F30F0280B2012B60F31F4200F060
:10CDF0008B80022B00F082800E2303FB0788A8F8AB
:10CE00000A90A8F80C002346424C0191CDF800A0EE
:10CE10002468414902947A1C304612F01DFBA4E6B6
:10CE2000012B5BF8280C3BD0022B50D0032B08D1F0
:10CE30000E2207FB02F218F8021041F0080108F870
:10CE40000210364B3649009303467A1C304612F0E6
:10CE500003FB3046FBF7F4F92E4B30441968D5E656
:10CE6000012B5BF8284C22D0022B3AD0032B08D19F
:10CE70000E2207FB02F218F8021060F3C30108F853
:10CE80000210284B009326492346DEE718F80A20B3
:10CE9000C2F380026AE718F80A20C2F3C00265E70D
:10CEA00018F80A3043F0020308F80A30C9E70E22E6
:10CEB00007FB02F218F8023060F3410308F8023071
:10CEC000DFE7194A194902E6174A1949FFE50E2218
:10CED00007FB02F218F8021041F0040108F80210F2
:10CEE000AFE70E2207FB02F218F8023060F382036C
:10CEF00008F80230C5E70C4A0E49E8E50E200E4B53
:10CF000007FB00F01A507EE70E200C4B07FB00F0E9
:10CF10001A5078E7E8010020F0FF0108C8FF010877
:10CF2000DCFF0108D0FF0108D40102081802020842
:10CF3000DC01020848020208C2090020BE090020E4
:10CF400070B5037884B00E46FBB1A3F13102022A1A
:10CF500008D91D4B1D491A68304604B0BDE8704021
:10CF600012F07ABA04460DF10F008DF80F3012F06E
:10CF700039FA0546601CFFF745FB0146681E32463C
:10CF8000C0B2FFF765FD04B070BD114B114C1A78AB
:10CF90009D7B114912F0010F14BF0A46224615F07D
:10CFA000010F1D7F0D4B1B68019314BF0B462346D9
:10CFB00015F0010F18BF0C4630460949009412F0D5
:10CFC0004BFA04B070BD00BFE4010020CC0202089F
:10CFD000BC090020D0FF0108C8FF0108E8010020BB
:10CFE0007002020808B5074B1B7803F00B030B2BEC
:10CFF00018BF012000D008BD0321062002F010F860
:10D00000002008BD0812002038B5124B1B7803F031
:10D010000703072B02D00124204638BD0324032137
:10D02000062001F0FDFF0546142085B908F0B4FD87
:10D030002946062001F0F4FF034628203BB9013CB5
:10D0400008F0AAFD14F0FF04E9D1204638BD0A24F7
:10D05000E2E700BF08120020F0B5062287B00D46B7
:10D060007449044612F028FB002842D07249072276
:10D07000204612F021FB40B3704B1E680A22314655
:10D08000204612F019FB002847D16D490B789A070A
:10D0900040F18480E07A6F2804F10B0240F0968022
:10D0A00050786E2840F092806648674A0068019088
:10D0B00043F0040412680C70644C654924680094C1
:10D0C0003346284612F0C8F911E05D4A5D4C1178EC
:10D0D000604B60F341011B682068CDE9003011709E
:10D0E000594A5D4B12685A49284612F0B5F907B003
:10D0F000F0BD53495348554B0A7800681B6842F00D
:10D100000202CDE900300A704F4A534B1268504971
:10D11000284612F0A1F907B0F0BD5049052220467B
:10D1200012F0CAFA38B32378002B76D14449454827
:10D1300009784B4B444A04681B68126888076FD50E
:10D140004248484F0668484811F0040F18BF384657
:10D15000090758BF3F49454F58BF09683F680096C7
:10D1600048BF3146CDE90314CDE9010740492846BF
:10D1700012F072F9BBE732490B789F070ED5A279FE
:10D180006F2A04F1060013D142786E2A10D12D487F
:10D190002D4A0068019043F008048BE7354B364A6E
:10D1A0001B683649284607B0BDE8F04012F054B974
:10D1B000A3796F2B2ED14378662B2BD18278663AD8
:10D1C00028D10C78334662F3C3040CE0E37A6F2B6A
:10D1D00017D15378662B14D19278663A11D10C7816
:10D1E000334662F382041748174A006801901268B8
:10D1F0000C70184C164924680094284612F02CF93B
:10D2000075E71C4B1E491A68284607B0BDE8F04078
:10D2100012F022B9174B1B49F5E7164B1A49F2E7F2
:10D220000C490194096800912846094912F014F943
:10D230005DE700BF1001020818010208D0010020BC
:10D2400008120020E8010020D4010020DC010020A9
:10D2500040030208D8010020B4050208B403020804
:10D26000C80100201003020828030208CC01002096
:10D27000F0030208E401002088030208F805020810
:10D280004C030208BC03020804040208024B0349D1
:10D290001A68034812F0E0B8E40100208004020894
:10D2A000000A00200149FFF7C9B800BF000A0020AA
:10D2B000014902F061BA00BF000A0020014902F0F2
:10D2C00073BD00BF000A00200149FFF7C5BE00BFC3
:10D2D000000A0020014903F03BBA00BF000A002009
:10D2E000014902F043BF00BF000A00200149FFF7D7
:10D2F00027BE00BF000A0020014902F07FB800BF2E
:10D30000000A002008B501F05DF838B9074B08495C
:10D310001A680848BDE8084012F09EB8064B074955
:10D320001A680448BDE8084012F096B8E8010020E9
:10D33000F8040208000A0020E40100201005020899
:10D34000F0B5734D06460FCD93B002AC0FC40FCDB0
:10D350000FC40FCD0FC495E80F0084E80F00347898
:10D36000002C70D06B49304612F08AF9002800F08A
:10D37000A2806949304612F083F9002800F09D80B0
:10D380006649304612F07CF9002800F09980644923
:10D39000304612F075F9002800F09580614930465A
:10D3A00012F06EF9002800F091805F49304612F0CB
:10D3B00067F900286FD05D49304612F061F9002806
:10D3C00000F087805A49304612F05AF9002800F0E0
:10D3D00083805849304612F053F900287FD05649CF
:10D3E000304612F04DF900287CD05449304612F0F6
:10D3F00047F9002879D05249304612F041F9002807
:10D4000076D05049304612F03BF9002873D04E498F
:10D41000304612F035F9002870D04C49304612F0F1
:10D420002FF900286DD04A49304612F029F900281A
:10D430006AD0484B48491B684848324613B0BDE89B
:10D44000F04012F009B8DFF82CE1444D444F454E4E
:10D45000BEE80F00AC46ACE80F009EE803004CF8B5
:10D46000040BACF800102846FAF7EAFE57F834200F
:10D4700031462844013411F0EFFF102CF3D1374826
:10D48000FAF7DEFE384B39491A68284413B0BDE874
:10D49000F04011F0E1BF244A052012A9324B01EB04
:10D4A00080001C68324950F8403C00942B4811F031
:10D4B000D3FF13B0F0BD174AEFE7174A0120ECE79E
:10D4C000164A0220E9E7164A0320E6E7154A042037
:10D4D000E3E7164A0620E0E7154A0720DDE7154A8C
:10D4E0000820DAE7144A0920D7E7144A0A20D4E7CB
:10D4F000134A0B20D1E7134A0C20CEE7124A0D2025
:10D50000CBE7124A0E20C8E7114A0F20C5E700BF3B
:10D5100018FA010838050208400502084805020803
:10D52000540502085C05020860050208640502084B
:10D5300068050208700502087405020878050208EB
:10D540007C05020880050208840502088C05020893
:10D5500030050208E401002000060208000A00204D
:10D5600014250208AC050208E8010020B8050208ED
:10D57000E805020894050208024B03491A680348AB
:10D5800011F06ABFE401002080040208000A0020B4
:10D59000024B03491A68034811F05EBFE401002002
:10D5A00080040208000A0020024B03491A6803485D
:10D5B00011F052BFE401002080040208000A00209C
:10D5C000024B03491A68034811F046BFE4010020EA
:10D5D00080040208000A0020024B03491A6803482D
:10D5E00011F03ABFE401002080040208000A002084
:10D5F00010B5174C174A184988B0684611F02CFF2F
:10D600002378DA0705D463781B0712D4002008B00A
:10D6100010BD6846FAF714FE10490246C823086890
:10D6200092B269460CF050FE0028ECD00A2008B0F7
:10D6300010BD6846FAF704FE09490246C823086887
:10D6400092B269460CF040FE0028DFD0EEE700BF42
:10D650008C3200203C0602084C060208943200205E
:10D66000903200202DE9F0410128ADF5805D06469D
:10D6700000F0A78002280AD0002840F0A980714B52
:10D680001B78DA0740F1CA806F4D704F01E0704D92
:10D69000704F71484FF400620021FCF74DF92C687F
:10D6A00000203B1902E02A601870144613F8011D8F
:10D6B0000D2904F1FF32F6D00A29F4D04FF40062AC
:10D6C00000216846FCF738F9621C39466846FDF7C8
:10D6D0001FFD4FF4006200210DEB0200FCF72CF956
:10D6E0009DF8003073B15D4C0DF500606946E25C59
:10D6F00002F00302012A5BD000F8013B11F8013F60
:10D70000002BF4D1564C042504F178074FF00008A3
:10D7100006E0A74217D054F8080FFAF791FD054626
:10D7200021682A460DF5006011F0C6FF0028F0D1EF
:10D730000DF500635819FEF765FF63689847A74227
:10D740004FF00108E7D1B8F1000F03D19DF8003880
:10D75000002B5CD1404C012E257861D0022E3CD0AC
:10D76000404B3A481C684FF400620021FCF7E4F893
:10D77000354B00221A606DB13748FAF761FD364922
:10D7800082B2C82320460CF09FFD002856D16420A9
:10D7900008F002FA3449C8230D2220460CF094FD0B
:10D7A00080B301F0E7F900200DF5805DBDE8F08160
:10D7B00003F1200211F8013F00F8012B002B96D154
:10D7C000A0E7204B5B781B07EED5284D284F60E77C
:10D7D0000A200DF5805DBDE8F0814FF400621D4820
:10D7E0000021FCF7A9F81A4B00221A6035B1204637
:10D7F000FAF726FD81B2204604F044FF1A480D21B5
:10D8000004F040FF00200DF5805DBDE8F081194B6C
:10D8100019491A68104811F01FFE9BE70120C3E761
:10D82000164B13481C684FF400620021FCF784F883
:10D830000E4B00221A60002D9ED1ABE701F09AF941
:10D84000A5E700BF8C320020882200208C2A00200F
:10D85000DC520020E0520020000A0020D9FC010820
:10D8600014250208943200203C060208842200207D
:10D870008C220020E401002054060208903200208F
:10D8800000B583B00DF106010020FEF72FF8B0B906
:10D89000BDF8062043F63E639A4208D00A4B1A7838
:10D8A00060F3000204201A7003B05DF804FB064A1E
:10D8B000137843F00103137003B05DF804FB0A20F2
:10D8C00003B05DF804FB00BFA409002000B583B0DD
:10D8D0000DF106010020FEF709F850B9BDF8062049
:10D8E00043F63E639A4208D00D4B1A7860F300026B
:10D8F0001A70042003B05DF804FB094A0949137843
:10D90000012003431370FDF7F1FF28B906490220F7
:10D91000FDF7ECFF0028EDD00A2003B05DF804FB12
:10D92000A4090020021200200012002010B594B0BB
:10D93000FEF7A2FC0DF1060104460F20FDF7D6FF0D
:10D94000002840F08C80BDF80630A34206D0214666
:10D950000F20FEF727F9002840F0818002A8FEF78B
:10D9600091FC9DF808009DF809109DF80A4041EAD5
:10D970000021ADF820109DF80B109DF80C0041EA35
:10D980000421ADF822109DF80D109DF80E4041EADB
:10D990000021ADF824109DF80F109DF8100041EA09
:10D9A0000421ADF826109DF811109DF8124041EAAF
:10D9B0000021ADF828109DF813109DF8140041EADD
:10D9C0000421ADF82A109DF815109DF8164041EA83
:10D9D0000021ADF82C109DF817109DF8180041EAB1
:10D9E0000421ADF82E109DF819109DF81A4041EA57
:10D9F0000021ADF830109DF81B109DF81C0041EA85
:10DA00000421ADF832109DF81D1041EA0021ADF857
:10DA100034109DF81E109DF81F0040EA01200023DD
:10DA2000ADF836000C220EA90320CDE90F33CDE965
:10DA300011330E931393FDF7FDFF044678B91822B6
:10DA40000EA908A811F00CFE10B9204614B010BDA4
:10DA50000C2208A90320FEF735F90028F5D00A2486
:10DA6000204614B010BD00BF00B585B000230522CC
:10DA700001A91020CDE90133ADF80C30FDF7DAFF34
:10DA8000002840F09180BDF80410494A4FEA112C5B
:10DA90000CF10103C9B2D35C03F00303022B454B25
:10DAA00008BFACF1200C83F800C001F1010C12F8A2
:10DAB0000CC00CF0030CBCF1020FBDF806C008BF8F
:10DAC00020394FEA1C2E59700EF101015FFA8CFCCF
:10DAD000515C01F0030102290CF1010108BFAEF114
