:020000040800F2
:1080000000000120259C0108D1060108D9060108BD
:10801000DB060108DD060108DF060108000000009C
:10802000000000000000000000000000E106010860
:10803000E306010800000000E5060108E706010864
:10804000759C0108759C0108E9060108759C0108EA
:10805000759C0108F5060108759C0108759C0108CE
:10806000759C0108759C0108759C0108759C0108A8
:10807000759C0108759C0108759C0108759C010898
:10808000759C0108759C0108F906010800000000B4
:10809000000000000000000000000000759C0108C6
:1080A00005070108110701082D070108759C010843
:1080B000759C01083907010845070108759C0108EE
:1080C000759C0108759C0108759C01085107010801
:1080D000759C01085D070108759C010800000000FF
:1080E000759C010869070108759C010800000000E3
:1080F000000000000000000000000000759C010866
:10810000000000007507010881070108759C01083F
:10811000000000000000000000000000000000005F
:10812000759C01088D07010899070108A50701083A
:10813000B10701080000000000000000000000007E
:10814000000000000000000000000000BD07010862
:10815000759C0108C9070108D5070108E107010856
:10816000759C0108759C01080000000000000000DB
:1081700000000000000000000000000000000000FF
:1081800000000000ED0701080000000000000000F2
:04819000759C0108D1
:1081A00001F0FF01102A2BDB10F0070F08D010F8A8
:1081B000013B013A8B422DD010F0070F42B3F6D1AC
:1081C000F0B441EA012141EA014122F007047FF0C5
:1081D00000070023F0E80256083C85EA010586EA1C
:1081E000010685FA47F5A3FA87F586FA47F6A5FA58
:1081F00087F68EB9EED1F0BC01F0FF0102F0070264
:1082000032B110F8013B013A83EA010313B1F8D10E
:108210000020704701387047002D06BF35460338EF
:10822000073815F0010F07D1013015F4807F02BF28
:10823000013015F4C03F0130F0BC0138704700BF79
:10824000034613F8012B002AFBD1181A0138704796
:1082500010F8012B11F8013B012A28BF9A42F7D0F0
:10826000D01A704781F0004102E000BF83F0004364
:1082700030B54FEA41044FEA430594EA050F08BFC1
:1082800090EA020F1FBF54EA000C55EA020C7FEA85
:10829000645C7FEA655C00F0E2804FEA5454D4EB02
:1082A0005555B8BF6D420CDD2C4480EA020281EACC
:1082B000030382EA000083EA010180EA020281EA04
:1082C0000303362D88BF30BD11F0004F4FEA013156
:1082D0004FF4801C4CEA113102D0404261EB410165
:1082E00013F0004F4FEA03334CEA133302D05242EB
:1082F00063EB430394EA050F00F0A780A4F10104A7
:10830000D5F1200E0DDB02FA0EFC22FA05F28018E0
:1083100041F1000103FA0EF2801843FA05F35941C6
:108320000EE0A5F120050EF1200E012A03FA0EFC45
:1083300028BF4CF0020C43FA05F3C01851EBE3716F
:1083400001F0004507D54FF0000EDCF1000C7EEB8C
:1083500000006EEB0101B1F5801F1BD3B1F5001FCA
:108360000CD349085FEA30004FEA3C0C04F10104E9
:108370004FEA445212F5800F80F09A80BCF1004F12
:1083800008BF5FEA500C50F1000041EB045141EA94
:10839000050130BD5FEA4C0C404141EB0101013C5D
:1083A00028BFB1F5801FE9D291F0000F04BF01464C
:1083B0000020B1FA81F308BF2033A3F10B03B3F11E
:1083C00020020CDA0C3208DD02F1140CC2F10C02AE
:1083D00001FA0CF021FA02F10CE002F11402D8BF0C
:1083E000C2F1200C01FA02F120FA0CFCDCBF41EAD8
:1083F0000C019040E41AA2BF01EB0451294330BDA7
:108400006FEA04041F3C1CDA0C340EDC04F1140483
:10841000C4F1200220FA04F001FA02F340EA03005A
:1084200021FA04F345EA030130BDC4F10C04C4F1A0
:10843000200220FA02F001FA04F340EA0300294680
:1084400030BD21FA04F0294630BD94F0000F83F4CA
:10845000801306BF81F480110134013D4EE77FEAAD
:10846000645C18BF7FEA655C29D094EA050F08BFF9
:1084700090EA020F05D054EA000C04BF19461046DA
:1084800030BD91EA030F1EBF0021002030BD5FEA1E
:10849000545C05D14000494128BF41F0004130BD46
:1084A00014F580043CBF01F5801130BD01F000459A
:1084B00045F0FE4141F470014FF0000030BD7FEA0D
:1084C000645C1ABF194610467FEA655C1CBF0B4608
:1084D000024650EA013406BF52EA033591EA030F1F
:1084E00041F4002130BD00BF90F0000F04BF002117
:1084F000704730B54FF4806404F132044FF000054A
:108500004FF0000150E700BF90F0000F04BF0021C2
:10851000704730B54FF4806404F1320410F0004528
:1085200048BF40424FF000013EE700BF42004FEA23
:10853000E2014FEA31014FEA02701FBF12F07F43A0
:1085400093F07F4F81F06051704732F07F4208BF57
:10855000704793F07F4F04BF41F40021704730B55E
:108560004FF4607401F0004521F000411CE700BFAA
:1085700050EA010208BF704730B54FF000050AE02D
:1085800050EA010208BF704730B511F0004502D52E
:10859000404261EB41014FF4806404F132045FEA30
:1085A000915C3FF4D8AE4FF003025FEADC0C18BFD9
:1085B00003325FEADC0C18BF033202EBDC02C2F1CB
:1085C000200300FA03FC20FA02F001FA03FE40EA5D
:1085D0000E0021FA02F11444BDE600BF70B54FF061
:1085E000FF0C4CF4E06C1CEA11541DBF1CEA13553F
:1085F00094EA0C0F95EA0C0F00F0DEF82C4481EAA7
:10860000030621EA4C5123EA4C5350EA013518BFC6
:1086100052EA033541F4801143F4801338D0A0FBB3
:1086200002CE4FF00005E1FB02E506F00042E0FB60
:1086300003E54FF00006E1FB03569CF0000F18BF66
:108640004EF0010EA4F1FF04B6F5007F64F540740E
:1086500004D25FEA4E0E6D4146EB060642EAC621A1
:1086600041EA55514FEAC52040EA5E504FEACE2E0E
:10867000B4F1FD0C88BFBCF5E06F1ED8BEF1004F11
:1086800008BF5FEA500E50F1000041EB045170BD8D
:1086900006F0004646EA010140EA020081EA0301D1
:1086A000B4EB5C04C2BFD4EB0C0541EA045170BDCD
:1086B00041F480114FF0000E013C00F3AB8014F147
:1086C000360FDEBF002001F0004170BDC4F1000490
:1086D000203C35DA0C341BDC04F11404C4F1200511
:1086E00000FA05F320FA04F001FA05F240EA02006C
:1086F00001F0004221F0004110EBD37021FA04F6A2
:1087000042EB06015EEA430E08BF20EAD37070BD5B
:10871000C4F10C04C4F1200500FA04F320FA05F0BA
:1087200001FA04F240EA020001F0004110EBD370BC
:1087300041F100015EEA430E08BF20EAD37070BD2C
:10874000C4F1200500FA05F24EEA020E20FA04F305
:1087500001FA05F243EA020321FA04F001F00041B4
:1087600021FA04F220EA020000EBD3705EEA430E25
:1087700008BF20EAD37070BD94F0000F0FD101F054
:108780000046400041EB010111F4801F08BF013C8D
:10879000F7D041EA060195F0000F18BF704703F0CB
:1087A0000046520043EB030313F4801F08BF013D52
:1087B000F7D043EA0603704794EA0C0F0CEA13550E
:1087C00018BF95EA0C0F0CD050EA410618BF52EAC8
:1087D0004306D1D181EA030101F000414FF00000CE
:1087E00070BD50EA410606BF1046194652EA4306DC
:1087F00019D094EA0C0F02D150EA013613D195EA50
:108800000C0F05D152EA03361CBF104619460AD197
:1088100081EA030101F0004141F0FE4141F47001A1
:108820004FF0000070BD41F0FE4141F4780170BD91
:1088300070B54FF0FF0C4CF4E06C1CEA11541DBFF6
:108840001CEA135594EA0C0F95EA0C0F00F0A7F8F8
:10885000A4EB050481EA030E52EA03354FEA013125
:1088600000F088804FEA03334FF0805545EA131338
:1088700043EA12634FEA022245EA111545EA106500
:108880004FEA00260EF000419D4208BF964244F197
:10889000FD0404F5407402D25B084FEA3202B61AB6
:1088A00065EB03055B084FEA32024FF480104FF48A
:1088B000002CB6EB020E75EB030E22BFB61A7546FE
:1088C00040EA0C005B084FEA3202B6EB020E75EB91
:1088D000030E22BFB61A754640EA5C005B084FEAF9
:1088E0003202B6EB020E75EB030E22BFB61A7546C6
:1088F00040EA9C005B084FEA3202B6EB020E75EBD1
:10890000030E22BFB61A754640EADC0055EA060E91
:1089100018D04FEA051545EA16754FEA06164FEAD4
:10892000C30343EA52734FEAC2025FEA1C1CC0D180
:1089300011F4801F0BD141EA00014FF000004FF00D
:10894000004CB6E711F4801F04BF01430020B4F1CE
:10895000FD0C88BFBCF5E06F3FF6AFAEB5EB030C86
:1089600004BFB6EB020C5FEA500C50F1000041EB83
:10897000045170BD0EF0004E4EEA113114EB5C0450
:10898000C2BFD4EB0C0541EA045170BD41F4801123
:108990004FF0000E013C90E645EA060E8DE60CEA2B
:1089A000135594EA0C0F08BF95EA0C0F3FF43BAF48
:1089B00094EA0C0F0AD150EA01347FF434AF95EAFF
:1089C0000C0F7FF425AF104619462CE795EA0C0FE3
:1089D00006D152EA03353FF4FDAE1046194622E7B0
:1089E00050EA410618BF52EA43067FF4C5AE50EA8A
:1089F00041047FF40DAF52EA43057FF4EBAE12E77A
:108A00004FF0FF3C06E000BF4FF0010C02E000BF5A
:108A10004FF0010C4DF804CD4FEA410C7FEA6C5C3D
:108A20004FEA430C18BF7FEA6C5C1BD001B050EAE0
:108A3000410C0CBF52EA430C91EA030F02BF90EACB
:108A4000020F0020704710F1000F91EA030F58BF8A
:108A5000994208BF90422CBFD8176FEAE37040F0EC
:108A6000010070474FEA410C7FEA6C5C02D150EA8A
:108A7000013C07D14FEA430C7FEA6C5CD6D152EA45
:108A8000033CD3D05DF8040B704700BF844610460A
:108A900062468C461946634600E000BF01B5FFF709
:108AA000B7FF002848BF10F1000F01BD4DF808EDD9
:108AB000FFF7F4FF0CBF012000205DF808FB00BFAA
:108AC0004DF808EDFFF7EAFF34BF012000205DF804
:108AD00008FB00BF4DF808EDFFF7E0FF94BF012051
:108AE00000205DF808FB00BF4DF808EDFFF7CEFF52
:108AF00094BF012000205DF808FB00BF4DF808ED91
:108B0000FFF7C4FF34BF012000205DF808FB00BF61
:108B10004FEA410C7FEA6C5C02D150EA013C0AD179
:108B20004FEA430C7FEA6C5C02D152EA033C02D16B
:108B30004FF0000070474FF0010070474FEA4102CC
:108B400012F5001215D211D56FF47873B3EB62529F
:108B500012D94FEAC12343F0004343EA505311F0C6
:108B6000004F23FA02F018BF404270474FF0000058
:108B7000704750EA013005D111F0004008BF6FF096
:108B8000004070474FF00000704700BF4FEA4102BD
:108B9000B2F1E04324BFB3F5001CDCF1FE5C0DD95B
:108BA00001F0004C4FEAC0024CEA5070B2F1004FA5
:108BB00040EB830008BF20F00100704711F0804FA8
:108BC00021D113F13872BCBF01F00040704741F46D
:108BD00080114FEA5252C2F11802C2F1200C10FA71
:108BE0000CF320FA02F018BF40F001004FEAC12355
:108BF0004FEAD32303FA0CFC40EA0C0023FA02F3F9
:108C00004FEA4303CCE77FEA625307D150EA0133CE
:108C10001EBF4FF0FE4040F44000704701F000409E
:108C200040F0FE4040F40000704700BF80F000407C
:108C300002E000BF81F0004142001FBF5FEA410334
:108C400092EA030F7FEA226C7FEA236C6AD04FEA34
:108C50001262D2EB1363C1BFD21841404840414079
:108C6000B8BF5B42192B88BF704710F0004F40F42B
:108C7000000020F07F4018BF404211F0004F41F447
:108C8000000121F07F4118BF494292EA030F3FD013
:108C9000A2F1010241FA03FC10EB0C00C3F1200326
:108CA00001FA03F100F0004302D5494260EB4000B5
:108CB000B0F5000F13D3B0F1807F06D340084FEA20
:108CC000310102F10102FE2A51D2B1F1004F40EB15
:108CD000C25008BF20F0010040EA0300704749007D
:108CE00040EB0000013A28BFB0F5000FEDD2B0FA1A
:108CF00080FCACF1080CB2EB0C0200FA0CF0AABF3D
:108D000000EBC25052421843BCBFD04018437047DA
:108D100092F0000F81F4000106BF80F400000132E0
:108D2000013BB5E74FEA41037FEA226C18BF7FEAB7
:108D3000236C21D092EA030F04D092F0000F08BFF9
:108D40000846704790EA010F1CBF0020704712F0E0
:108D50007F4F04D1400028BF40F00040704712F11F
:108D600000723CBF00F50000704700F0004343F084
:108D7000FE4040F4000070477FEA226216BF0846BA
:108D80007FEA23630146420206BF5FEA412390EA7D
:108D9000010F40F4800070474FF0000304E000BF73
:108DA00010F0004348BF40425FEA000C08BF704724
:108DB00043F0964301464FF000001CE050EA0102E8
:108DC00008BF70474FF000030AE000BF50EA0102FD
:108DD00008BF704711F0004302D5404261EB4101EA
:108DE0005FEA010C02BF84460146002043F0B6430F
:108DF00008BFA3F18053A3F50003BCFA8CF2083A34
:108E0000A3EBC25310DB01FA02FC634400FA02FC3C
:108E1000C2F12002BCF1004F20FA02F243EB020043
:108E200008BF20F00100704702F1200201FA02FCA5
:108E3000C2F1200250EA4C0021FA02F243EB020098
:108E400008BF20EADC70704753B94AB9002908BF4F
:108E500000281CBF4FF0FF314FF0FF3000F00CB87E
:108E6000ADF1080C6DE904CE10F006FFDDF804E06A
:108E7000DDE9022304B07047704700BF0348044B8C
:108E8000834202D0034B03B1184770471003002000
:108E900010030020000000000548064B1B1AD90FE4
:108EA00001EBA301491002D0034B03B118477047EF
:108EB00010030020100300200000000010B5064C35
:108EC000237843B9FFF7DAFF044B13B10448AFF33B
:108ED00000800123237010BD10030020000000005B
:108EE00020A5010808B5054B1BB105490548AFF39E
:108EF0000080BDE80840FFF7CFBF00BF00000000C2
:108F00001403002020A501082DE9FF4757EC106B42
:108F1000002F0C4619463B46BBBF07F100431F46D6
:108F200000232D230B700D9BDDF830A0914623F01C
:108F30002008BCBF32461646B8F1460F05D0B8F13E
:108F4000450F00D10134022100E0032103AB01935E
:108F500002AB009347EC106B5346224600F0A8FD8D
:108F6000B8F1470F054619D119F0010F0ED000EBEB
:108F700004090022002330463946FFF797FD08B167
:108F8000CDF80C903022039B4B451ED3039B0E9AC9
:108F90005B1B2846136004B0BDE8F087B8F1460FAC
:108FA00000EB0409E5D10378302B0AD1002200231D
:108FB00030463946FFF77AFD18B9C4F10104CAF802
:108FC0000040DAF800309944D3E7591C03911A7035
:108FD000D9E7F7B50029BABF49422D232B23092928
:108FE0000270437029DD0DF107031D460A271A465A
:108FF000B1FBF7F607FB1614303402F8014C0C46AF
:10900000632C03F1FF333146F1DC3031941E03F859
:10901000011C411C2346AB420AD30DF109039B1AE4
:10902000AC4288BF002302330344181A03B0F0BDDA
:1090300013F8016B01F8016FEDE7302330318370D5
:10904000C170031DF1E700002DE9F04F8DB00C4613
:10905000DDF8588016461F46054600F09DFC036863
:1090600004931846FFF7ECF800230A93D8F8003071
:109070000590073323F0070303F1080294F818A0C2
:10908000D4F800B0C8F80020D3E9008929F00043E3
:109090000793CDF81880C4E91289DDE906019C4BDD
:1090A0004FF0FF32FFF734FD70BBDDE90601984B4E
:1090B0004FF0FF32FFF70EFD30BB00220023404689
:1090C0004946FFF7FDFC10B12D2384F84330914A47
:1090D000914BBAF1470F8CBF90469846032323610A
:1090E0002BF0040323604FF00009009733460BAACE
:1090F0002146284600F0D2F9013040F08D804FF033
:10910000FF300DB0BDE8F08F42464B464046494621
:10911000FFF7FEFC40B14B46002BBCBF2D2384F86B
:1091200043307E4A7E4BD4E763680AF0DF02069242
:109130005A1C3BD1062363604BF4806200232260FB
:1091400003930AABCDE901A309AB0093616849EC35
:10915000108B0DF123032846FFF7D6FE069B0999D5
:10916000472B804629D1C81C02DB6368994241DD48
:10917000AAF1020A5FFA8AFA0139524604F1500054
:109180000991FFF726FF0A9A1318012A81462361E5
:1091900002DC2268D20701D5013323619DF8233018
:1091A000002BA2D02D2384F843309EE7069A472A4D
:1091B000C2D1002BC0D10123BDE7BAF1650FDBD9C5
:1091C000BAF1660F18D1002963680BDD216113B96C
:1091D0002268D00702D501330B442361A1654FF00B
:1091E0000009DBE713B92268D20701D50233F4E79F
:1091F0000123F2E74FF0670A0A9B994205DB2368D7
:109200002161D807EAD54B1CE7E70029D4BFC1F19B
:10921000020201221344E0E723685A0507D42369B8
:10922000424631462846B84701302BD167E7BAF1AC
:10923000650F40F2DD80D4E9120100220023FFF720
:1092400035FC002833D0374A012331462846B84739
:1092500001303FF454AFDDE90938434502DB2368B0
:10926000D8070FD5DDE9042331462846B847013039
:109270003FF445AF4FF0000908F1FF3804F11A0A36
:10928000C84509DC23689B0700F10381E0680B9B5C
:109290009842B8BF184634E7012352463146284663
:1092A000B84701303FF42BAF09F10109E8E7099B0A
:1092B000002B39DC1B4A012331462846B8470130D0
:1092C0003FF41DAFDDE9093959EA030302D12368F0
:1092D000D907D7D5DDE9042331462846B847013000
:1092E0003FF40DAF4FF0000A04F11A0B099B5B42EB
:1092F000534501DC4B4693E701235A463146284645
:10930000B84701303FF4FBAE0AF1010AEEE700BFB7
:10931000FFFFEF7FACA50108A8A50108B4A50108CF
:10932000B0A50108B8A50108A36DDDF828A0534534
:10933000A8BF5346002B994636DC4FF0000B29EAB4
:10934000E97904F11A02A36D0693A3EB09035B45C7
:1093500031DC099B9A453ADC2368DA0737D4099B4C
:10936000AAEB0309069BAAEB03039945A8BF9946FC
:10937000B9F1000F33DC4FF0000829EAE97904F174
:109380001A0B099BAAEB0303A3EB090343457FF7E1
:1093900079AF01235A4631462846B84701303FF499
:1093A000AEAE08F10108ECE7424631462846B84720
:1093B0000130C2D1A3E60123314628460692B847C0
:1093C00001303FF49CAE069A0BF1010BBBE7DDE9DF
:1093D000042331462846B8470130C0D18FE6069AAB
:1093E0004B46424431462846B8470130C3D186E651
:1093F000DDF828A0BAF1010F01DCDB0736D5012327
:10940000424631462846B84701303FF478AEDDE9A0
:10941000042331462846B84701303FF470AED4E902
:109420001201002200230AF1FF3AFFF73FFBC0B907
:10943000534608F1010231462846B84701300CD1A5
:109440005DE601235A4631462846B84701303FF4CD
:1094500056AE08F10108D045F3DB4B4604F150024B
:10946000DFE64FF0000804F11A0BF4E7012342464F
:10947000E1E701234A4631462846B84701303FF428
:109480003EAE08F10108E3680B995B1A4345F0DC36
:10949000FCE64FF0000804F11909F4E72DE9F04764
:1094A000164698468A680B69DDF820909342B8BF4B
:1094B0001346336091F8432007460C460AB1013346
:1094C00033602368990642BF3368023333602568EE
:1094D00015F0060506D104F1190AE36832689B1AF3
:1094E000AB4226DC94F843302268003B18BF0123CE
:1094F00092062BD404F1430241463846C847013056
:109500001ED02368226903F00603042B02BFE5681E
:109510003368ED1AA3680CBF25EAE5750025934270
:10952000C4BF9B1AED1800261A34B5421AD1002088
:1095300008E00123524641463846C847013003D16E
:109540004FF0FF30BDE8F0870135C6E7E1185A1C3F
:10955000302081F84300224494F8451082F84310EB
:109560000233C7E70123224641463846C847013047
:10957000E6D00136D9E700002DE9FF470F7E0C9EAB
:10958000782F914680460C469A4601F1430207D84F
:10959000622F0AD8002F00F0D180582F00F0B88039
:1095A00004F1420684F842703AE0A7F16303152BF8
:1095B000F6D801A151F823F011960008259600086D
:1095C000A1950008A1950008A1950008A1950008A3
:1095D00025960008A1950008A1950008A19500080E
:1095E000A1950008239700084F960008DD96000813
:1095F000A1950008A195000845970008A1950008CD
:109600004F960008A1950008A1950008E59600086E
:1096100033681A1D1B68326004F1420684F8423038
:1096200001239CE033682068191D3160060601D5CE
:109630001D6803E04506FBD5B3F90050002D03DAA1
:109640002D236D4284F8433058480A2311E02168E5
:109650003368080653F8045B02D4490648BFADB22C
:109660006F2F5248336014BF0A230823002184F867
:1096700043106668A660002E05DB21682E4321F0AA
:10968000040121604BD01646B5FBF3F103FB1157E3
:10969000C75D06F8017D2F46BB420D46F4D9082B65
:1096A0000BD12368DF0708D5236961689942DEBFC3
:1096B000302306F8013C06F1FF36921B2261CDF8FB
:1096C00000A04B4603AA21464046FFF7E7FE0130C3
:1096D0004AD14FF0FF3004B0BDE8F087236843F073
:1096E000200323603248782784F845702368316866
:1096F0001F0651F8045B02D45F0648BFADB231606B
:10970000D90744BF43F0200323601DB11023ADE708
:109710002648E9E7236823F020032360F6E716468E
:10972000BDE7336825686169181D30602E061B6827
:1097300001D5196002E06806FBD51980002323617A
:109740001646BCE733681A1D32601E686268002145
:109750003046FEF725FD08B1801B60606368236119
:10976000002384F84330AAE723693246494640463D
:10977000D0470130ADD023689B0713D4E068039B2A
:109780009842B8BF1846A6E70123324649464046EC
:10979000D04701309DD00135E36803995B1AAB4295
:1097A000F2DCEBE7002504F11906F5E7BAA501089C
:1097B000CBA50108002310B50446C0E90033C0E979
:1097C0000433836081814366C28183611946082224
:1097D0005C3000F0B1F80D4B63620D4BA3620D4B92
:1097E000E3620D4B23630D4B24629C4206D003F1D0
:1097F0006802944202D0D0339C4205D104F1580053
:10980000BDE8104000F0C4B810BD00BFDDAF0008D7
:10981000FFAF000837B000085BB000082C03002041
:10982000024A0349034800F069B800BF0000002065
:1098300081A800081000002041680C4B994210B527
:10984000044601D001F01CF8A168094B994202D0EE
:10985000204601F015F8E168064B994204D02046F5
:10986000BDE8104001F00CB810BD00BF2C03002073
:1098700094030020FC03002010B50B4B0B4C0C4A4A
:109880001A60204600220421FFF794FF04F16800CB
:1098900001220921FFF78EFF04F1D0000222BDE86A
:1098A00010401221FFF786BF640400202C03002023
:1098B00021980008014800F06CB800BF690400203E
:1098C000014800F067B800BF6904002010B50446E5
:1098D000FFF7F0FF236A1BB1BDE81040FFF7F0BFB0
:1098E000044B2362044B1B68002BF5D1FFF7C4FF28
:1098F000F2E700BF39980008640400202DE9F8431E
:109900000746884614460026D4E90195B9F10109B5
:1099100005D52468002CF7D13046BDE8F883AB8923
:10992000012B07D9B5F90E30013303D0294638464B
:10993000C04706436835E9E702440346934200D135
:10994000704703F8011BF9E770B50D4D0D4C641B12
:10995000A4100026A64209D10B4D0C4C10F0E0FDDE
:10996000641BA4100026A64205D170BD55F8043B27
:1099700098470136EEE755F8043B98470136F2E781
:109980007CD401087CD401087CD4010880D401086F
:109990007047704770470000004870474C01002036
:1099A0002DE9F74F03690C69A34207467EDB013CB2
:1099B00001F11408A30000F11405009305EB8403E2
:1099C000019358F8243055F8242001339A4208EBCB
:1099D0008409B2FBF3F62ED34FF0000AC446AE461C
:1099E000D3465CF8043B98B206FB00A0020C1B0CAB
:1099F00006FB0323DEF8002080B292B2121A5A440A
:109A0000DEF800004FEA134A9BB2C3EB224303EB9C
:109A1000104392B242EA0342E1454EF8042B4FEA6A
:109A2000234BDED2009BEB582BB9019B043B9D429C
:109A30001A462FD33C61384601F0C8F9002825DBCF
:109A40002946002058F8042BD1F800C01FFA82FEE6
:109A50001FFA8CF3A3EB0E030344120CC2EB234258
:109A600002EB1C429BB243EA0243C14541F8043B6E
:109A70004FEA2240E6D255F8242005EB840322B9B0
:109A8000043B9D421A460BD33C610136304603B07D
:109A9000BDE8F08F1268043B002ACBD1013CC6E739
:109AA0001268043B002AEFD1013CEAE70020EEE710
:109AB0002DE9F04FC76999B08DED040B55EC104BB3
:109AC000229E099183460E9213937FB9102000F0D5
:109AD000A9FD0246CBF81C0020B9A54BEF21A548F3
:109AE00001F024FBC0E901770760C760DBF81C3098
:109AF000196859B15A684A60012393408B605846EF
:109B000000F032FFDBF81C3000221A602B1EB9BFB8
:109B100023F00043059300233360059F964BBCBFA1
:109B200001223260BB4312D1139A42F20F731360C9
:109B3000C7F31303234300F04385239BDFF84CA2B4
:109B4000002B00F045850AF1030300F03FBD9DEDB9
:109B5000047B002251EC170B00238DED0C7BFEF7EC
:109B6000A5FF804658B1139A01231360239B13B1BC
:109B7000239A824B1360DFF818A200F029BD9DEDF7
:109B80000C0B16AA17A9584601F0D0F9C7F30A56CC
:109B90008146002E77D00D9BCDF85080C3F3130380
:109BA000DDE90C0143F07F5343F44013A6F2FF3686
:109BB00019460022724BFEF759FB67A3D3E9002335
:109BC000FEF70CFD66A3D3E90023FEF751FB044624
:109BD00030460D46FEF798FC63A3D3E90023FEF759
:109BE000FDFC02460B4620462946FEF741FB044693
:109BF0000D46FEF7A3FF0022074600232046294614
:109C0000FEF75EFF40B13846FEF77EFC22462B464B
:109C1000FEF74CFF00B9013F162F51D8594B03EB0B
:109C2000C703D3E90023DDE90C01FEF749FF002853
:109C300048D0013F00231293169B9B1B5A1E44BF22
:109C4000C3F101080023089254BF4FF000080893A5
:109C5000002F39DB089B0F973B44089300230A939E
:109C6000099B092B61D8052BC4BF043B0993099BB1
:109C7000A3F10203CCBF00240124032B61D8DFE849
:109C800003F05052352ADDE916631E4406F23243D2
:109C9000202BC1BFC3F140039F4006F2124324FAB8
:109CA00003F3D6BFC3F1200347EA030004FA03F02D
:109CB000FEF71AFC0122A1F1F873013E149277E736
:109CC0000123B8E71290B7E77B420A930023A8EB81
:109CD00007080F93C4E701230B930E9BFB18009317
:109CE0000133012B0393B8BF012306E001230B933B
:109CF0000E9B002B28DD00930393DBF81C00002152
:109D0000042202F114059D4223D94160584600F017
:109D1000EBFD824600283DD11B4B024640F2AF11BD
:109D2000DDE60023E3E70023D6E7012400230993BF
:109D30000B944FF0FF3300930393002212230E92F3
:109D4000DBE701230B93F4E70123009303931A4607
:109D5000F5E701315200D4E761436F63A787D23F33
:109D6000B3C8608B288AC63FFB799F501344D33F0A
:109D7000E9A5010800A601080000F07FB9A50108C7
:109D80000000F83F28CD010861A60108E5A50108FB
:109D9000B8A50108DBF81C301860039B0E2B00F2FD
:109DA000A180002C00F09E80002F33DD9C4B07F03B
:109DB0000F0203EBC20393ED007BF8058DED067BEC
:109DC0004FEA271416D5974BDDE90C01D3E9082398
:109DD000FEF72EFDCDE9040104F00F040326914D9A
:109DE00054B9DDE90623DDE90401FEF721FDCDE9E3
:109DF000040128E00226F2E7E10708D5DDE90601C3
:109E0000D5E90023FEF7EAFBCDE90601013664102F
:109E10000835E5E700F0AF807C42814B814D04F0CE
:109E20000F0203EBC203D3E90023DDE90C01FEF7C7
:109E3000D5FBCDE90401241100230226002C40F0BB
:109E40008F80002BD3D1129BDDE90445002B00F05D
:109E50009480754B002220462946FEF731FE0028EB
:109E600000F08B80039B002B00F08780009B002B71
:109E700034DD7B1E069320466C4B00222946FEF7FC
:109E8000ADFBCDE90401009C01363046FEF73CFBFA
:109E9000DDE90423FEF7A2FB654B0022FEF7E8F99B
:109EA0000546A1F15076002C6AD1DDE90401614B31
:109EB0000022FEF7DBF902460B46CDE904232A46D1
:109EC0003346FEF71BFE002840F08782DDE90401DF
:109ED0002A4606F10043FEF7F3FD38BBDDE90C34FA
:109EE000CDE90434179B002BC0F258810E2F00F3EC
:109EF00055814B4B03EBC70393ED007B0E9B002B6F
:109F00008DED007B80F2E580039B002B00F3E18068
:109F10000CD1484B002251EC170BFEF75FFBDDE93B
:109F20000423FEF7E1FD002800F0558200242546B9
:109F30000E9BDB430693564600272146584600F009
:109F400013FD002D00F0BD802FB1AF4203D0394684
:109F5000584600F009FD2946584600F005FDB0E0DE
:109F6000E20705D5D5E90023FEF738FB01360123CA
:109F70006410083562E7022665E7039C069784E7CC
:109F8000274B0B9903EBC40353E9022354440029E4
:109F900054D029490020FEF74BFC33462A46FEF7F1
:109FA00065F9CDE910015646DDE90401FEF7C6FD6D
:109FB0000546FEF7A9FA02460B46DDE90401FEF765
:109FC00055F9303502460B46CDE9042306F8015B0E
:109FD000DDE91023FEF774FD002872D1DDE90423CA
:109FE00011490020FEF742F9DDE91023FEF768FD74
:109FF000002840F0B480A6423FF470AFDDE91001C4
:10A000000A4B0022FEF7EAFA084BCDE910010022C4
:10A01000DDE90401FEF7E2FACDE90401C4E700BF7F
:10A0200028CD010800CD01080000F03F00002440C9
:10A0300000001C40000014400000E03F314628466C
:10A04000FEF7CCFACDE9100115945646DDE904017E
:10A05000FEF774FD0546FEF757FA02460B46DDE9AA
:10A060000401FEF703F9303506F8015B02460B46A2
:10A07000A642CDE904234FF0000224D1AB4BDDE929
:10A080001001FEF7F5F802460B46DDE90401FEF784
:10A0900035FD002863D1DDE91023A4490020FEF737
:10A0A000E5F802460B46DDE90401FEF709FD00284C
:10A0B0003FF414AF159E731E159316F8013C302B18
:10A0C000F8D0069F3BE09A4BFEF788FACDE90401F1
:10A0D000BCE7DDE904455646DDE900232046294674
:10A0E000FEF7A6FBFEF72AFD8046FEF70DFADDE936
:10A0F0000023FEF773FA02460B462046294608F174
:10A100003004FEF7B3F806F8014B039DA6EB0A04F2
:10A11000A54202460B4634D1FEF7AAF8DDE900233A
:10A1200004460D46FEF7EAFCC0B9DDE900232046EF
:10A130002946FEF7BBFC10B118F0010F0ED14946BD
:10A14000584600F011FC00233370139B01371F6049
:10A15000239B002B00F03C821E6039E206973346B9
:10A160001E4613F8012D392A07D19A45F8D1069ACF
:10A170000132069230228AF800201A7801321A70D1
:10A180009FE76B4B0022FEF729FA002200230446CA
:10A190000D46FEF78BFC00289ED0D0E70B9A002AD4
:10A1A00000F0E180099A012A00F3C480149A002A81
:10A1B00000F0B78003F233430A9C4646089A012117
:10A1C0001A4458469844089200F082FC05465EB155
:10A1D000089B002B08DDB342089AA8BF3346A8EBC2
:10A1E0000308F61AD31A08930A9BF3B10B9B002BB2
:10A1F00000F0BD808CB129462246584600F020FD73
:10A200004A4601460546584600F078FC4946069005
:10A21000584600F0A9FB069B99460A9B1A1B04D0DE
:10A220004946584600F00CFD81460121584600F091
:10A230004FFC0F9B0446002B00F0CE811A460146CE
:10A24000584600F0FDFC099B012B044600F3958065
:10A25000049B002B40F08D80059BC3F31303002B60
:10A2600040F08980059B23F000431B0D1B052BB19B
:10A27000089B0133089308F1010801230A930F9BFF
:10A28000002B00F0AF81236904EB8303186900F011
:10A29000D3FBC0F12000089B184410F01F0077D0BA
:10A2A000C0F12003042B6BDD089BC0F11C000344AC
:10A2B000804406440893B8F1000F05DD4946424644
:10A2C000584600F017FD8146089B002B05DD21460E
:10A2D0001A46584600F00EFD0446129B002B59D03A
:10A2E0002146484600F072FD002853DA7B1E069393
:10A2F000494600230A22584600F058FB0B9B814632
:10A30000002B00F07181002329460A22584600F0F4
:10A310004DFB009B002B054667DC099B022B41DCB3
:10A3200063E0169BC3F1360346E700BF0000E03F41
:10A3300000002440039B5C1E0A9BA34209DB1C1BFC
:10A34000039B002BBFF639AF039BA8EB030600234A
:10A3500034E70A9B0F9A0A94E31A1A440F92039B5C
:10A36000464600242AE70A9C0B9D46462FE70A9A98
:10A3700056E7002382E7049B80E700230A9382E7E5
:10A3800099D0089A1C331A4498441E44089292E7C4
:10A390000346F6E7039B0697002B20DC0093099BFE
:10A3A000022B1EDD009B002B7FF4C2AD214605224F
:10A3B000584600F0FBFA01460446484600F006FD08
:10A3C00000287FF7B5AD5646312306F8013B069BC2
:10A3D00001330693B0E5039C06972546F3E7039BFC
:10A3E00000930B9B002B00F00381002E05DD294616
:10A3F0003246584600F07EFC05460A9B002B5AD098
:10A400006968584600F070FA064628B9834B024640
:10A4100040F2EF21FFF763BB2A690232920005F197
:10A420000C010C3000F074FE01223146584600F059
:10A4300061FC0AF101030393009B53440B93049BBB
:10A4400003F001032F460A930546039B2146013B77
:10A4500048460093FFF7A4FA3946049000F130080B
:10A46000484600F0B3FC2A4608902146584600F0C2
:10A47000C9FCC268064602BB0146484600F0A6FC7D
:10A480000246314658460E9200F06EFA099B0E9A2B
:10A49000039E42EA03010A9B194310D1B8F1390F18
:10A4A00029D0089B002B02DD049B03F13108009B9F
:10A4B00083F8008041E52846BBE70122E1E7089BDD
:10A4C000002B04DB09990B430A990B4320D1002A86
:10A4D000EDDD49460122584600F00CFC214681463C
:10A4E00000F074FC002803DCE1D118F0010FDED08D
:10A4F000B8F1390FD8D1009A3923137033461E466C
:10A50000013B16F8012C392A51D001321A7014E59A
:10A51000002A07DDB8F1390FEDD0009A08F10103E8
:10A5200013700AE5039B0B9A03F8018C934228D021
:10A53000494600230A22584600F038FAAF428146C5
:10A540004FF000034FF00A023946584607D100F099
:10A550002DFA07460546039B0133039375E700F088
:10A5600025FA2946074600230A22584600F01EFA1B
:10A570000546F0E7009B002BCCBF1E460126564443
:10A58000002749460122584600F0B4FB2146814687
:10A5900000F01CFC0028B1DC02D118F0010FADD195
:10A5A00033461E4613F8012D302AFAD0C5E49A45E9
:10A5B000A5D1069B0133069331238AF80030BCE411
:10A5C000239BDFF85CA01BB10AF10803239A1360F8
:10A5D000504619B0BDE8F08F099B012B7FF738AECC
:10A5E0000F9B0A93012056E6009B002B7FF7D7AE06
:10A5F000564621464846FFF7D3F900F1300806F8E1
:10A60000018B009BA6EB0A029342B3DD494600236F
:10A610000A22584600F0CAF98146EAE761A6010815
:10A62000DCA50108024B0146186800F025B800BF00
:10A630000C00002070B50F4E0C463168054611B96C
:10A6400000F034FD30602146284600F02FFD431C09
:10A6500003D14FF0FF34204670BDC41C24F0030426
:10A66000A042F8D0211A284600F020FD0130F2D196
:10A67000EFE700BF6C0400202DE9F843CD1C25F066
:10A68000030508350C2D38BF0C25002D064601DBCF
:10A69000A94204D90C2333600020BDE8F883DFF819
:10A6A000D48000F015F9D8F800301C4644BB294688
:10A6B0003046FFF7BFFF431C044658D1D8F800408E
:10A6C0002746002F43D1002C4BD023683946304613
:10A6D00004EB030900F0EAFC814542D121686D1AC0
:10A6E00029463046FFF7A6FF01303AD023682B44B5
:10A6F0002360D8F800305A6862BBC8F800700FE0D9
:10A700002268521B20D40B2A17D96119A342256055
:10A7100018BF5960636808BFC8F8001062514B60E9
:10A72000304600F0DBF804F10B00231D20F0070099
:10A73000C21A1CBF1B1AA350AFE76268A3420CBF2A
:10A74000C8F800205A60EBE723466468AEE73C4651
:10A750007F68B6E71A465B68A342FBD100235360CB
:10A76000DEE70C233360304600F0B8F894E705606C
:10A77000D6E700BF70040020B1F90C202DE9F041AC
:10A78000160705460C4654D44B68002B02DC0B6CB4
:10A79000002B48DDE66A002E45D0002312F48052DB
:10A7A0002F68216A2B6030D0626DA389590705D5C7
:10A7B0006368D21A636B0BB1236CD21A0023E66A6A
:10A7C000216A2846B047431CA38906D129681D2960
:10A7D0002BD82A4ACA40D60727D500226260D9045E
:10A7E0002269226004D5421C01D12B6803B960653F
:10A7F000616B2F60B9B104F14403994202D028463D
:10A8000000F0C6FC002363630DE001232846B04737
:10A810000246501CC9D12B68002BC6D01D2B01D07D
:10A82000162B1ED12F60002022E043F040031BB204
:10A830001BE00F69002FF6D093070E6808BF4B6925
:10A840000F6018BF0023A6EB07088B60B8F1000F5C
:10A85000E9DD216AA66A43463A462846B047002801
:10A8600008DCB4F90C3043F04003A3814FF0FF3013
:10A87000BDE8F0810744A8EB0008E7E701004020AD
:10A8800038B50B6905460C4613B90025284638BD76
:10A8900018B1036A0BB9FFF719F8B4F90C30002BA3
:10A8A000F3D0626ED00704D4990502D4A06DFFF7EF
:10A8B00070F828462146FFF75FFF636EDA0705460A
:10A8C000E4D4A3899B05E1D4A06DFFF763F8DDE72D
:10A8D0000148FFF75EB800BF680400200148FFF799
:10A8E00059B800BF6804002070B5C66904460D461B
:10A8F00076B91020FFF796FE0246E06120B9184BAA
:10A9000018486B2100F012FCC0E901660660C660C1
:10A91000E669F36883B1E369DB6853F82500B8B9E9
:10A92000012101FA05F6721D9200204600F01CFC80
:10A9300060B1C0E901560EE021220421204600F05A
:10A9400013FCE369F060DB68002BE4D1002070BDEC
:10A95000026843F825200023C0E90333F7E700BF6E
:10A96000E9A5010872A6010870B5C66905460C463E
:10A9700076B91020FFF756FE0246E86120B9094B70
:10A9800009488F2100F0D2FBC0E901660660C6606D
:10A990003CB1EB696268DB6853F82210216043F830
:10A9A000224070BDE9A5010872A601082DE9F04119
:10A9B0000D6907460C461E4601F1140C0020DCF818
:10A9C000003099B202FB01611E0C0B0C02FB063336
:10A9D00089B2013001EB034185424CF8041B4FEA78
:10A9E0001346ECDC0EB3A368AB4219DC6168384651
:10A9F0000131FFF779FF804628B902460C4B0D481C
:10AA0000BA2100F093FB2269023204F10C0192009A
:10AA10000C3000F07DFB21463846FFF7A5FF444689
:10AA200004EB850301355E6125612046BDE8F081B8
:10AA300061A6010872A60108B0F5803F034636BF43
:10AA4000030400201020B3F1807F3CBF1B020830BC
:10AA5000B3F1805F3CBF1B010430B3F1804F3CBFBA
:10AA60009B000230002B05DB13F0804F00F101004A
:10AA700008BF202070470368024613F007000BD080
:10AA8000D90721D4980749BF5B089B0801201360B0
:10AA90005CBF13600220704799B209B91B0C1020EB
:10AAA000D9B209B908301B0A190704BF1B090430C1
:10AAB000990704BF9B080230D90703D45B0800F153
:10AAC000010003D0136070470020704720207047BA
:10AAD00010B50C460121FFF707FF024628B9054BC8
:10AAE000054840F2451100F021FB01234461036158
:10AAF00010BD00BF61A6010872A601082DE9F04F44
:10AB000017460A693B699A42A8BF3B468946A4BFDB
:10AB10000F4699463D69D9F810A0BB68796805EBE6
:10AB20000A06B34285B0B8BF0131FFF7DDFE30B988
:10AB30000246414B41484FF4B17100F0F7FA00F181
:10AB4000140404EB860E23460022734520D307F13C
:10AB5000140809F1140108EB850501EB8A0302933F
:10AB6000EB1B153B23F0030304331537BD4238BFFD
:10AB700004230193029B03918B420CD8002E03DD2A
:10AB80005EF8043D002B55D0066105B0BDE8F08F9E
:10AB900043F8042BD9E7B1F800A0BAF1000F1FD099
:10ABA000C446A14600275CF8042BD9F800301FFAF0
:10ABB00082FB9BB20AFB0B333B44D9F80070120CAA
:10ABC0003F0C0AFB027202EB13429BB243EA0243C0
:10ABD000654549F8043B4FEA1247E4D8019BE7502A
:10ABE000039BB3F802900431B9F1000F20D0236821
:10ABF0004746A4464FF0000AB7F800B0BCF8022060
:10AC000009FB0B2252449BB243EA02434CF8043B3B
:10AC100057F8043B4FEA134ABCF8003009FB0A33EB
:10AC200003EB1243BD424FEA134AE5D8019AA35001
:10AC300004349FE7013EA1E761A6010872A601085E
:10AC40002DE9F843154612F0030207460E4607D0D9
:10AC5000254C013A002354F82220FFF7A7FE0646B0
:10AC6000AD103DD0FC697CB91020FFF7DBFC02463B
:10AC7000F86128B91D4B1E4840F2B31100F056FA96
:10AC8000C0E901440460C460D7F81C80D8F80840CB
:10AC90004CB940F271213846FFF71AFF0023C8F87B
:10ACA0000800044603604FF00009EB070AD531465F
:10ACB00022463846FFF722FF314680463846FFF7E6
:10ACC00053FE46466D100BD0206838B92246214607
:10ACD0003846FFF713FF2060C0F800900446E4E711
:10ACE0003046BDE8F88300BFF4CC0108E9A50108AF
:10ACF00072A601082DE9F0470C464968236903EB69
:10AD00006218A368074691464FEA621A08F10106E5
:10AD1000B3420BDB3846FFF7E7FD054648B902466C
:10AD2000284B29484FF4EF7100F000FA01315B0025
:10AD3000EEE7002300F1140100F11002184653451C
:10AD400033DB20692AEAEA7A04F1140319F01F09B7
:10AD500001EB8A0103EB800C2BD0C9F1200E8A464F
:10AD60000022186800FA09F010434AF8040B53F85F
:10AD7000042B9C4522FA0EF2F3D8ACEB0403153BEE
:10AD800023F00303043304F11500604588BF042356
:10AD9000CA500AB108F10206013E38462E6121462A
:10ADA000FFF7E2FD2846BDE8F08742F8040F0133C3
:10ADB000C5E7043953F8042B41F8042F9C45F9D812
:10ADC000EAE700BF61A6010872A601080A69034606
:10ADD0000069801A30B50ED11433143103EB8204AC
:10ADE00001EB820154F8045D51F8042D954203D023
:10ADF00005D24FF0FF3030BDA342F3D3FBE7012073
:10AE0000F9E700002DE9F74F894606461146484606
:10AE10001446FFF7DBFF051E12D129463046FFF727
:10AE200063FD024628B93F4B40F237213E4800F00F
:10AE30007DF90123C0E90435104603B0BDE8F08F69
:10AE4000BCBF4B46A1463046D9F80410BABF1C46D9
:10AE500001250025FFF748FD024618B9314B40F2A5
:10AE60004521E3E7D9F810702669C56009F11003A0
:10AE700009F1140504F1140E00F1140B05EB870819
:10AE80000EEB86060193D9464FF0000C019B5EF84D
:10AE9000040B53F804AF01931FFA8AF3194683B2E7
:10AEA000CB1A000C6344C0EB1A4000EB23409BB26A
:10AEB00043EA0043764549F8043B4FEA204CE5D885
:10AEC000331B153B23F0030315340433A64238BF6C
:10AED00004231D445B441E462C4644450ED308F112
:10AEE0000301491B21F00301033DA84538BF0021A0
:10AEF0000B4453F8041D91B117619DE754F8041BEE
:10AF0000E646080C1CFA81FC714400EB2C4089B227
:10AF100041EA004146F8041B4FEA204CDDE7013FBF
:10AF2000E7E700BF61A6010872A601082DE9F74313
:10AF30000F46012159EC108B1646FFF7D5FC04464D
:10AF400030B90246234B244840F20F3100F0EEF8AE
:10AF5000C9F30A55C9F313030DB143F480130193E8
:10AF6000B8F1000323D068460093FFF784FDDDE9C4
:10AF70000012D0B1C0F1200302FA03F30B43C24028
:10AF800063610192019BA361002B0CBF012202228D
:10AF90002261A5B1A5F2334505443D60C0F13500FD
:10AFA0003060204603B0BDE8F0836161EAE701A8A4
:10AFB000FFF761FD019B636120300122E8E704EBAC
:10AFC0008203A0F2324038601869FFF735FDC0EB0C
:10AFD0004210E5E761A6010872A6010810B50C460B
:10AFE000B1F90E1000F050F80028ABBF636DA389D3
:10AFF0001B1823F48053ACBF6365A38110BD2DE9FA
:10B00000F0411F468B89DB0505460C46164605D5E3
:10B01000B1F90E100223002200F024F8A389B4F93C
:10B020000E1023F48053A38132463B462846BDE8E8
:10B03000F04100F04BB810B50C46B1F90E1000F01D
:10B0400011F8431CA38915BF606523F4805343F4B2
:10B050008053A38118BFA38110BDB1F90E1000F079
:10B0600047B8000038B5074D04460846114600228F
:10B070002A601A460EF0D4FD431C02D12B6803B19E
:10B08000236038BD7404002038B5074D04460846D7
:10B09000114600222A601A460EF0AAFD431C02D176
:10B0A0002B6803B1236038BD7404002038B5064D09
:10B0B0000023044608462B600EF06AFD431C02D1B3
:10B0C0002B6803B1236038BD7404002038B5074DE8
:10B0D00004460846114600222A601A4600F0FCFE8B
:10B0E000431C02D12B6803B1236038BD74040020D7
:10B0F00038B5064D0023044608462B600EF086FD49
:10B10000431C02D12B6803B1236038BD74040020B6
:10B110000A44914200F1FF3300D1704710B511F895
:10B12000014B03F8014F9142F9D110BD1FB51446F0
:10B130001A46094B1B680546D8684CB1074B00916D
:10B14000CDE9013406492B4600F07EF800F09BF86B
:10B15000044B1C46F3E700BF0C000020DCA60108EE
:10B16000E9A60108D6CC010870B5A1FB025434B998
:10B170002946FFF781FA064628B9304670BD0C22F1
:10B1800002600026F9E72A462146FEF7D5FBF4E7E0
:10B1900038B50546002941D051F8043C0C1F002B5E
:10B1A000B8BFE418FFF794FB1D4A136833B9636016
:10B1B00014602846BDE83840FFF790BBA34208D989
:10B1C000206821188B4201BF19685B68091821604B
:10B1D000EDE71A465B680BB1A342FAD91168501823
:10B1E000A0420BD120680144501883421160E0D185
:10B1F00018685B68536008441060DAE702D90C23D2
:10B200002B60D6E7206821188B4204BF19685B6861
:10B21000636004BF091821605460CAE738BD00BFED
:10B220007004002082B001B901A942B14BB113787A
:10B230000B601278101E18BF012002B07047104634
:10B24000FBE76FF00100F8E70EB403B5014603AB6E
:10B25000054853F8042B0068019300F045F802B04C
:10B260005DF804EB03B070470C000020034608466D
:10B2700041B1FF2A04D98A221A604FF0FF3070478B
:10B280000A700120704708B5062000F07DFA012001
:10B290000EF0A8FC9368013B002B10B4936008DA11
:10B2A0009469A34201DB0A2903D15DF8044B00F045
:10B2B00033B91368581C1060197008465DF8044BC8
:10B2C0007047F8B506460F461446D518AC4201D172
:10B2D000002007E014F8011B3A463046FFF7DAFF7A
:10B2E000431CF3D1F8BD00002DE9F04F0D469DB091
:10B2F00014469846064618B1036A0BB9FEF7E6FAFB
:10B300006B6ED90705D4AB899A0502D4A86DFEF7F8
:10B3100040FBAB891B0701D52B699BB929463046F9
:10B3200000F038F970B16B6EDC0704D54FF0FF30D8
:10B330001DB0BDE8F08FAB899805F7D4A86DFEF776
:10B3400029FBF3E70023099320238DF82930CDF85A
:10B350000C803023DFF8AC818DF82A304FF00109E2
:10B3600023469A4613F8012B0AB1252AF9D1BAEBE4
:10B37000040B0BD05B46224629463046FFF7A1FF5F
:10B38000013000F0A780099A5A4409929AF80030D7
:10B39000002B00F09F8000234FF0FF32CDE9052302
:10B3A0000AF1010A049307938DF853301A93544617
:10B3B000052214F8011B5348FCF7F2FE049AD8B991
:10B3C000D10644BF20238DF85330130744BF2B23ED
:10B3D0008DF853309AF800302A2B15D0079A54462E
:10B3E00000204FF00A0C214611F8013B303B092B9D
:10B3F0004BD9B0B1079214E0A0EB080309FA03F3AC
:10B4000013430493A246D2E7039B191D1B680391C3
:10B41000002BBBBF5B4242F0020207930793B8BF09
:10B42000049223782E2B0AD163782A2B32D1039BE6
:10B430001A1D1B68039243EAE37302340593DFF895
:10B44000D4A0217803225046FCF7AAFE38B1049B11
:10B45000A0EB0A004022824013430134049314F805
:10B46000011B29488DF828100622FCF799FE0028B8
:10B470003FD0264B1BBB039B073323F00703083346
:10B480000393099B3B4409936AE70CFB02320C4689
:10B490000120A8E700230134059319464FF00A0C58
:10B4A000204610F8012B303A092A03D9002BC6D0C8
:10B4B0000591C4E70CFB012104460123F0E703AB2F
:10B4C00000932A46124B04A93046FDF7BDFD0746FE
:10B4D000781CD6D16B6ED90705D4AB899A0502D4F6
:10B4E000A86DFEF757FAAB895B063FF51FAF0998C9
:10B4F0001EE703AB00932A46054B04A93046FEF72E
:10B500003BF8E4E718A7010822A7010849900008C2
:10B51000C3B200081EA70108F8B50E46144605463A
:10B5200018B1036A0BB9FEF7D1F9A369A360A38927
:10B530001A0701D5236943B92146284600F02AF8A5
:10B5400018B14FF0FF373846F8BD23682269981AC2
:10B550006369F6B28342374605DC21462846FFF789
:10B560008FF90028EDD1A368013BA36023685A1C22
:10B5700022601E706269431C9A4204D0A389DB07D3
:10B58000E1D50A2EDFD121462846FFF779F90028B8
:10B59000D9D0D6E738B5294B054618680C4618B1FE
:10B5A000036A0BB9FEF792F9B4F90C30190722D4EB
:10B5B000DA0607D409222A6043F04003A3814FF042
:10B5C000FF3033E0580712D5616B41B104F14403F9
:10B5D000994202D02846FFF7DBFD00236363A3896D
:10B5E00023F02403A3810023636023692360A389DC
:10B5F00043F00803A38123694BB9A38903F42073A3
:10B60000B3F5007F03D02146284600F03FF8B4F997
:10B610000C3013F001020AD00022A260626952428B
:10B62000A261226942B913F08000C5D138BD9907E3
:10B6300058BF6269A260F4E70020F7E70C00002021
:10B6400070B50C46B1F90E10002996B015461E468D
:10B650000DDAA38913F0800F4FF0000114BF4023CF
:10B660004FF48063002031602B6016B070BD6A46D5
:10B6700000F0B6F80028ECDB019901F47041A1F567
:10B680000053594259414FF48063EBE78B89F7B57A
:10B690009D0706460C4607D504F147032360236146
:10B6A0000123636103B0F0BD01AB6A46FFF7C8FF39
:10B6B000009F054639463046FEF7DEFF48B9B4F92B
:10B6C0000C309A05EED423F0030343F00203A38168
:10B6D000E2E7A389206043F08003A381019BC4E9D2
:10B6E00004075BB1B4F90E10304600F055F828B1EC
:10B6F000A38923F0030343F00103A381A3891D431E
:10B70000A581CFE7884210B501EB020402D984423B
:10B71000234607D8431EA14208D011F8012B03F895
:10B72000012FF8E7024401468A4200D110BD13F808
:10B73000014D02F8014DF7E71F2938B505460C46C3
:10B7400004D9162303604FF0FF3038BDC26B12B12D
:10B7500052F821304BB9284600F040F82246014605
:10B760002846BDE8384000F027B8012B0AD0591C04
:10B7700003D1162303600120E7E7002142F82410DB
:10B78000204698470020E0E7024B01461868FFF783
:10B79000D3BF00BF0C00002038B5064D002304467F
:10B7A00008462B600EF03AFA431C02D12B6803B115
:10B7B000236038BD7404002038B5074D00230446CB
:10B7C000084611462B600EF005FA431C02D12B6887
:10B7D00003B1236038BD00BF740400200EF0F8B937
:10B7E00038B5074D00230446084611462B600EF07D
:10B7F00010FA431C02D12B6803B1236038BD00BF8F
:10B80000740400202DE9F041074614460D4621B985
:10B81000BDE8F0411146FEF72FBF2AB9FFF7B8FC8B
:10B8200025462846BDE8F08100F01AF88442064615
:10B8300002D8B4EB500FF4D821463846FEF71CFF6F
:10B84000804608B94546ECE7B4422246294628BF5F
:10B850003246FFF75DFC29463846FFF799FCF1E7D1
:10B8600051F8043C181F002BBCBF0B58C018704780
:10B8700038B50546072445FA04F2114802F00102E2
:10B880004FF4805107F01AFB0D4801224FF480411C
:10B8900007F014FB0A4800224FF4804107F00EFB2A
:10B8A000013CE8D2064801224FF4005107F006FBA4
:10B8B000BDE83840024800224FF4005107F0FEBABC
:10B8C0000004024038B50D4614460146582204488B
:10B8D000FFF71EFC034B1D60034B1C8038BD00BFEF
:10B8E000800400207C04002078040020034B198889
:10B8F000034B0022186807F0E1BA00BF780400206B
:10B900007C040020034B1988034B0122186807F0C0
:10B91000D5BA00BF780400207C04002010B5FFF7E2
:10B92000F1FF4021054807F0C3FA0446FFF7DEFFA8
:10B93000B4FA84F04009C00010BD00BF000002400E
:10B940001FB596230A468DF80F0000930DF10F01E5
:10B95000012304480AF08CF8002818BF0A2005B01B
:10B960005DF804FB8004002013B504460DF10701C7
:10B97000000AFFF7E5FF20B90DF10701E0B2FFF77C
:10B98000DFFF02B010BD10B5FFF7C8FF0828FBD0DD
:10B99000FFF7B8FF4FF49850FFF7E6FF0446012089
:10B9A00007F032FDFFF7A2FF204610BD10B5FFF7EC
:10B9B000B5FF0828FBD0FFF7A5FF4FF48050FFF735
:10B9C000D3FF0446012007F01FFDFFF78FFF20463D
:10B9D00010BD37B504460D46FFF7A0FF0828FBD081
:10B9E00000232B808DF80730FFF78CFFC4F309008C
:10B9F00040F4C050FFF7B8FF044620B1FFF776FFD0
:10BA0000204603B030BD0DF10701FFF799FF044652
:10BA10000028F3D12B889DF8072043EA42232B808E
:10BA20000DF10701FFF78CFF04460028E6D12B88B3
:10BA30009DF8072043EA42032B800DF10701FFF731
:10BA40007FFF04460028D9D12B889DF8072043EAC0
:10BA5000D2132B80012007F0D7FCCFE7024470B54A
:10BA600004460E4695B2AC4201D1002008E03146B2
:10BA70002046FFF7AEFF0134A4B202360028F2D010
:10BA800070BD73B506460D46FFF748FF0828FBD08A
:10BA900000238DF80730FFF776FF044658B9FFF70B
:10BAA00031FFC6F3090040F4A050FFF75DFF0446E4
:10BAB00020B1FFF71BFF204602B070BD280A0DF130
:10BAC00007018DF80700FFF73BFF04460028F0D17F
:10BAD000E8B20DF107018DF80700FFF731FF0446CA
:10BAE0000028E6D1FFF702FF022007F08DFCFFF7E8
:10BAF0005DFF0446DFE7024470B504468E1E95B232
:10BB0000AC4201D1002008E0204636F8021FFFF7C2
:10BB1000B8FF0134A4B20028F2D070BD37B5054695
:10BB2000FFF7FCFE0828FBD000238DF80730FFF755
:10BB30002AFF044648B9FFF7E5FE4FF48850FFF7A7
:10BB400013FF044620B1FFF7D1FE204603B030BDFD
:10BB5000280A0DF107018DF80700FFF7F1FE0446F2
:10BB60000028F0D1E8B20DF107018DF80700FFF7CA
:10BB7000E7FE04460028E6D1FFF7B8FE022007F0F2
:10BB800043FCFFF713FF0446DFE7000030B5144B1A
:10BB9000144D85B00C46542201461846FFF7B8FAFA
:10BBA000114A90F83D30118892782C80242BADF802
:10BBB0000C108DF80E2005D104F02AF810B10A20DF
:10BBC00005B030BD29880648C8234900009303AA60
:10BBD000032301F0FE0108F0E1F80028F0D0EEE7C1
:10BBE000DC040020D804002029A70108F0B5044691
:10BBF00087B064200D4607F007FC2F4B1A889B780E
:10BC00008DF80E302D4BADF80C2093F83D30242BE1
:10BC100010D02B4F294839884FF0FF364900009645
:10BC2000032303AA01F0FE0108F0B8F838B10A2096
:10BC300007B0F0BD03F0ECFF0028EAD0F7E7398841
:10BC40001E4800964900062304AA01F0FE0108F0F0
:10BC50007FF90028EBD19DF81310BDF814209DF852
:10BC600011609FED187ADFED186A0B0452BA03F4E5
:10BC7000702392B21A439DF812301B0143EA063337
:10BC800043EA111307EE903AF8EEE77A67EE877A07
:10BC900067EEA67ADFED0D6AC5ED007A07EE902A11
:10BCA000F8EEE77A67EE877A9FED097AA7EEA67A33
:10BCB00084ED007ABCE700BF2CA70108DC0400205B
:10BCC000D8040020000080350000C842000048432E
:10BCD000000048C2064B07491B68074AB3FBF2F352
:10BCE000434348684A68121A9A42FBD3704700BF20
:10BCF00084020020001000E040420F001FB5084BF6
:10BD00001B7818430A238DF80F0000930DF10F02E2
:10BD100001234E21034808F041F805B05DF804FB0B
:10BD2000300500203805002010B50446FFF7E6FF77
:10BD300044F00400FFF7E2FF1420FFF7CBFF04F00C
:10BD4000FB00FFF7DBFFBDE810401420FFF7C2BF88
:10BD500010B5044600F0F000FFF7E6FF200100F008
:10BD6000F000BDE81040FFF7DFBF10B5044620F03B
:10BD70000F0040F00100FFF7D7FF200140F0010065
:10BD8000BDE8104000F0F100FFF7CEBF08B501207C
:10BD9000FFF7DEFFBDE808404FF4FA60FFF79ABFF7
:10BDA00008B50220FFF7D4FFBDE808404FF4FA6061
:10BDB000FFF790BF064A137830B143F0040343F015
:10BDC00008001370FFF7C4BF03F0FB03F7E700BFE1
:10BDD0003305002038B554220C4601462D482E4D1F
:10BDE000FFF796F92D4B2E4A1C70022C4FF00803DA
:10BDF0002C4C2B7038BF04232370D2F8FC3043F056
:10BE00008073C2F8FC30284B1A6842F001021A60B5
:10BE100000225A6000BF00BF00BF322007F0F4FAD2
:10BE20002878FFF76BFF322007F0EEFA3020FFF79B
:10BE30007BFF41F29410FFF74DFF3020FFF774FFB6
:10BE400041F29410FFF746FF3020FFF76DFF41F2FB
:10BE50009410FFF73FFF2020FFF766FF6420FFF7F5
:10BE600039FF207840F02000FFF772FF0F4B0422CB
:10BE700001201A70FFF79EFFFFF788FF0C4B02228C
:10BE800006201A70FFF764FFBDE8384041F29410B5
:10BE9000FFF720BF380500203005002031050020C5
:10BEA00000ED00E034050020001000E03305002024
:10BEB00032050020C00000F0380038B540F04000E6
:10BEC0000C46FFF745FF651E073415F8010FFFF715
:10BED0004CFFA542F9D138BD10B5C823144603481C
:10BEE00092B20AF098FC204610BD00BF443D0020ED
:10BEF000014BB3F8FD007047007F000870B50446A1
:10BF000040B3037833B3144E02461378144601321B
:10BF100003B3F35C1907F8D42046FCF791F9013814
:10BF200020448442054605D22B78F35C1B0700F1C0
:10BF3000FF30F6D42D1B013540F2FF339D4228BF60
:10BF40001D46064B2A46214618460EF06FF9002280
:10BF500042550446204670BDF1CD01088C050020F5
:10BF6000F0B50023134F01441C461D4688420DD1F5
:10BF7000002C08DDC4F10504A5400E4905F01F059D
:10BF8000495DD15401330021D154F0BD10F8016B4B
:10BF9000083446EA05251344042C01DC9B1AE5E726
:10BFA000053C45FA04F606F01F06BE5D03F8016B7A
:10BFB000F2E700BF06CF0108F0B58BB0044607F0EA
:10BFC00043FA064607F03AFA054607F031FA00BA96
:10BFD00036BA03900C212DBA04AA01A80196029545
:10BFE0000C4EFFF7BDFF002319462D2712F8010B59
:10BFF000E51810B9E0540BB0F0BD31B106FB01FCFF
:10C00000BCF1333F9CBF01332F70E0540131013349
:10C01000ECE700BFCDCCCCCC2DE9F04F0378ADF6EA
:10C02000240D06460C46002B29D14C48FFF7C4FFCF
:10C030004B4BB3F8FD504B4B1B78DB071DD501F084
:10C0400023F8494B494A4A4912680792494A1288DB
:10C050000692494A1288CDE90432484B3F4ACDE95D
:10C060000253474B0193474B00932046464B0DF03C
:10C070009BFF0DF6240DBDE8F08F444BE2E74449E9
:10C0800004220EF0C1F80546002863D133794BB97C
:10C09000404B41491A6820460DF6240DBDE8F04F8B
:10C0A0000DF082BF301DFFF729FF0DF043FF431E47
:10C0B000DBB2042B4AD8C3B2013B042B9DBF374AE5
:10C0C00032F81360364A2E4698BF32F8135008AB48
:10C0D000374603EB4608B54211D2DFF8D090DFF8BF
:10C0E000D0A0DFF8D0B02046FCF7AAF8BBB2AB4234
:10C0F00020440DD91D4B19680EF0B2F8B9E741463E
:10C1000030460136FFF765FCB6B208F10208E2E7F7
:10C110003A4649460DF048FF08AB03EB47080026B6
:10C120002046FCF78DF8013638F8022B51462044A2
:10C13000B6B20DF039FF102EF2D12046FCF780F890
:10C14000594620440EF08CF81037CCE7114B1549B6
:10C150001A68A0E70F4B14491A689CE78C09002065
:10C16000007F0008A409002033A70108E80100208F
:10C170003EA70108F8110020FA110020A6090020AE
:10C180001AA801081CA80108B8A501082FA70108D2
:10C190001EA80108E401002023A80108FCCE010824
:10C1A000F2CE01087BA80108C3A801086BA801080A
:10C1B00075A8010874C401080D4B1B78DB0715D561
:10C1C000012904D0022907D041B10A207047094A49
:10C1D000137881400B4313700020704705490122FA
:10C1E0000B78824023EA02030B70F5E701207047C9
:10C1F000B4090020B009002008B5094B1B7803F0F2
:10C200000303032B09D1021E18BF012205484FF476
:10C21000004106F053FE002008BD0120FCE700BFEE
:10C22000B40900200004024008B5084B1878C30781
:10C2300009D5C0F34000FFF7DFFF054B1878FFF783
:10C2400017FB002008BD0120FCE700BFB409002057
:10C25000B009002037B50E4BADF804001B78DB07A2
:10C2600013D501AD002435F8021BE0B2C9B2FFF7C7
:10C27000A3FF10B10A2003B030BD0134082CF2D165
:10C28000FFF7D2FF0028F6D0F4E70120F3E700BF64
:10C29000B4090020024602F00303013BC1B2584238
:10C2A000584102F00C03042B01F0300308BF40F0AA
:10C2B000020001F0C001102B08BF40F00400C2F3DF
:10C2C00007234029C2F3012208BF40F00800012AD9
:10C2D00003F00C0208BF40F01000042A03F0300203
:10C2E00008BF40F0200003F0C003102A08BF40F050
:10C2F0004000402B08BF40F08000704708B5084B55
:10C300001B78DB0709D5074B1888FFF7C3FF064BDF
:10C310001870BDE80840FFF787BF012008BD00BFC7
:10C32000B4090020B2090020B0090020000000007C
:10C3300070B5052205460E460146134807F030F950
:10C3400020B100200A243060204670BD322007F062
:10C350005BF80D4807F0B4F904460028F1D12868CD
:10C360000028EED0FCF7C0F802460B4604A1D1E944
:10C370000001FCF75DFAFCF709FCE4E7AFF300808D
:10C3800066666666E683B340C8370020000000009A
:10C39000B5EE400AF1EE10FA10B507EE900A0C4621
:10C3A00017D0F8EE677A67EE807A17EE900AFCF7FE
:10C3B000BDF809A3D3E90023FCF73AFA08A3D3E9AF
:10C3C0000023FCF735FAFCF7E1FB0346002023606D
:10C3D00010BD00230A20FAE70000000000FEAF4075
:10C3E00046175D74D145B73F2DE9F04F91B006A9CE
:10C3F0000BA8FFF79DFF0A2803D10A2011B0BDE862
:10C40000F08F0025DFF8D4A0324C2F46002305F131
:10C4100003094AF8043B5FFA89F9234607AA04F1A5
:10C42000080C18685968164603C608336345324637
:10C43000F7D1186830609B88B380E1889DF81C8034
:10C440000091218901916189029118F0010BA18964
:10C450006288A38803910AD159464846013501F004
:10C46000EDFD032D04F10E04D0D10020C6E7CDE987
:10C4700004230BAB03EB8501174B8E689DED060A79
:10C4800003EB85013046FFF783FF0A28B5D018F08B
:10C49000020F05D0049AB24202D8059BB34214D2CF
:10C4A00018F0040F05D0009BB34202D8019BB342A1
:10C4B0000DD218F0080F06D0029BB34203D8039B9D
:10C4C000B34228BF03273946C7E75F46FBE7022789
:10C4D000F9E700BFB6090020EC090020E0090020C0
:10C4E00037B5BDF81850079C012D19D1057862F3B6
:10C4F00041050570104D1148002A18BF28460090CC
:10C500004A1C20460E490DF04FFD2046FBF798FED1
:10C510000C4B1968204403B0BDE830400DF0A0BEBC
:10C52000022D03D1057862F38205E2E7032DE1D104
:10C53000057862F3C305DCE7FFA8010807A9010835
:10C5400010A90108E801002070B404461846BDF89F
:10C550001430BDF80C50BDF81060012B0CD1658073
:10C56000A6800A4B1B680395CDE90463134670BC93
:10C570004A1C07490DF018BD022B02D1E580268127
:10C58000EFE7032B04BF6581A681EAE7E8010020FD
:10C5900021A9010873B50E46154601A90A220446D1
:10C5A0000DF09EFD03460198A04202D1012002B089
:10C5B00070BDB3F5805F01D30220F8E73380FFF749
:10C5C0009DFC019003787BB10A2201A90DF088FD42
:10C5D000019AA2420346E9D010780028E6D1B3F5CB
:10C5E000805FE9D22B80E2E70320E0E7022907D051
:10C5F000032908D0012909D1054A06490DF0D4BC08
:10C60000034A0549FAE7024A0449F7E7704700BFC1
:10C6100048A901084EA9010889A90108B9A901087A
:10C620002DE9F04FB34E8846044615460FCE93B021
:10C6300006AF0FC70FCE0FC796E80F0087E80F00B1
:10C6400098F800304FF0000AADF814A0ADF816A02D
:10C65000002B5AD10E27A84EDFF8C4826743621C14
:10C66000F35D13F0010F06EB070910D1D8F8003085
:10C67000A24928460DF098FC2846FBF7E1FDD8F8C2
:10C680000010284413B0BDE8F04F0DF0E9BD9C49FF
:10C6900028460DF089FCF35D9B07284626D5FBF75D
:10C6A000CFFDB9F80430B9F80220964928440DF0BE
:10C6B0007BFC2846FBF7C4FD0E236343F218F35CB2
:10C6C0005F07284419D513898F49D2880DF06CFC77
:10C6D0002846FBF7B5FD0E236343F218F35C1907F8
:10C6E00028440ED5938989495289C3E7FBF7A8FDF1
:10C6F000874928440DF0B4FDDBE786490DF0B0FD15
:10C70000E6E785490DF0ACFDB6E7844906224046D0
:10C710000DF07AFD5646DFF824A2814606AFB9F146
:10C72000000F10D10E2374496343CA5C42F001022A
:10C73000CA547B4B7B491B68621C284613B0BDE87A
:10C74000F04F0DF031BC0722514640460DF05CFD24
:10C7500058B90E23684A6343D15C60F30001D15499
:10C760006F4B71491B68621CE7E7D7F804B0396862
:10C770005A4640460DF048FD002840F0AC804FF08E
:10C780000E0A5D4F0AFB04FA360117F80A3013F05F
:10C79000010F0ED106F148030DEB0306604B1B6839
:10C7A000009356F8283C6149621C28460DF0FCFBBA
:10C7B0001DE008EB0B00FFF7A1FB03788046CBB927
:10C7C00006F148030DEB030617F80A30584A594999
:10C7D00013F0010F584B18BF1346514A1268CDE9A8
:10C7E0000032284656F8283C621C0DF0DDFB13B0E1
:10C7F000BDE8F08F494906220DF006FD06F1480319
:10C800000DEB030B3BF8249C60B9CDE900955BF878
:10C81000283CC4EBC4000122214607EB4000FFF78F
:10C820005FFEE4E70722454940460DF0EDFC024675
:10C8300030B9CDE90095C4EBC4005BF8283CEBE7C8
:10C84000B9F1010F0FD117F80A30C3F340030E22DC
:10C850006243BA5CD20700D5C3B906F148030DEBB9
:10C860000306374B9BE7B9F1020F04D117F80A30E2
:10C87000C3F38003EBE7B9F1030F05BF0E23634356
:10C880000023FB5C08BFC3F3C003E0E705A90DF17B
:10C8900016024046FFF77EFE014628B1284613B037
:10C8A000BDE8F04FFFF7A2BE06F148030DEB03060B
:10C8B000BDF816300193BDF814300093C4EBC400EA
:10C8C000CDF8089056F8282C2B46214607EB40005F
:10C8D000FFF73AFE8BE70136032E07F110077FF4CE
:10C8E0001EAF174B17491A68284613B0BDE8F04F22
:10C8F0000DF05ABB38A50108B6090020E1A90108CE
:10C90000F5A9010821AA010861AA0108A1AA010844
:10C9100049AA010889AA0108C5AA0108D9AA0108DB
:10C92000E8010020E0AA010802AB01081DAB0108E4
:10C93000FFA8010839AB010807A90108FAAA0108F4
:10C94000E40100204FAB01087FB5037806460C4692
:10C95000EBB91E4D1E492B781E4813F0010FAB7B1F
:10C960002D7F0CBF0A46024613F0010F0CBF0B4689
:10C97000034615F0010F18BF014617480068CDE9BE
:10C980000010164920460DF00FFB04B070BDA3F156
:10C990003102022A10D80DF10F008DF80F300DF082
:10C9A000C9FA0546701CFFF7A9FA013D0146224667
:10C9B000E8B2FFF735FEE8E7094B0A491A68204656
:10C9C00004B0BDE870400DF0EFBA00BFB60900201A
:10C9D00007A90108FFA80108E801002087AB0108AA
:10C9E000E4010020E0AB010808B5074B1B7803F019
:10C9F0000B030B2B05D10321062001F01FFB0020A8
:10CA000008BD0120FCE700BF0012002038B5114B23
:10CA10001B7803F00703072B1AD1032403210620F8
:10CA200001F00CFB054610B10A24204638BD142045
:10CA300006F0EAFC2946062001F000FB0028F3D1AD
:10CA40002820013C06F0E0FC14F0FF04E6D1ECE7FE
:10CA50000124EAE70012002013B503461046084AF5
:10CA6000126851B10749084C09682468CDE90014DF
:10CA700006490DF099FA02B010BD0549F3E700BF71
:10CA8000D4010020DC010020E801002025AC0108D1
:10CA9000D80100202DE9F041062286B00C46594904
:10CAA00005460DF0B1FB60B9574A137843F0020315
:10CAB000137001212246554806B0BDE8F041FFF74A
:10CAC000CBBF5349072228460DF09EFB014630B9E3
:10CAD0004D4B1A7860F341021A702246EBE74D4B3A
:10CAE0001F680A22394628460DF08EFB002834D1F3
:10CAF000DFF8148198F80060B20724D50B35464959
:10CB0000022228460DF080FB38B946F0040688F86A
:10CB10000060224601213846CEE7404903222846DC
:10CB20000DF072FB014628B960F3820688F80060B8
:10CB30002246F0E73A4B3B491A68204606B0BDE86A
:10CB4000F0410DF031BA364B374A1B683749204661
:10CB500006B0BDE8F0410DF027BA35490522284658
:10CB60000DF052FBE8B9DFF8A08098F80060B30739
:10CB7000E9D506352849022228460DF045FB10B9B3
:10CB800046F00806C3E72549032228460DF03CFB82
:10CB9000014610B960F3C306C8E7214B25491A685E
:10CBA000CBE72B7853BB184B1D78234B15F00201B4
:10CBB0001B6820D02149224E08682249224F234A6F
:10CBC0003F68126815F0040F18BF31462D0758BF93
:10CBD0001F4D204E58BF2D683668009048BF05464F
:10CBE000CDE90116CDE903571B4920460DF0DCF9CC
:10CBF00006B0BDE8F081224618465DE7084B1749AC
:10CC00001A689AE7D9AA010800120020D6CC0108B8
:10CC1000FAAA0108D00100201FAC01085BAC010892
:10CC2000E40100205FAC010898AC0108D5AD010813
:10CC3000C4AC0108CAAC0108C8010020DC01002016
:10CC40002EAC010844AC0108E8010020D40100200A
:10CC5000D8010020CC010020FEAC010812AD010873
:10CC60000149FFF7D9B900BFF8090020014901F0D7
:10CC7000FBBC00BFF8090020014901F095BF00BFCF
:10CC8000F80900200149FFF705BF00BFF80900209F
:10CC9000014902F07DBB00BFF8090020014902F004
:10CCA000DFB800BFF80900200149FFF74DBE00BF03
:10CCB000F8090020014901F02DBB00BFF809002050
:10CCC000F0B5294D06460FCD93B002AC0FC40FCD81
:10CCD0000FC40FCD0FC495E80F0084E80F0034781F
:10CCE000224DECB922492348224E234F0DF0B8FAC9
:10CCF0002048FBF7A5FA55F8342039463044013472
:10CD00000DF052F9102CF3D11A48FBF799FA1B4B8E
:10CD10001B491A68304413B0BDE8F0400DF044B927
:10CD2000002455F83470304639460DF051FA70B988
:10CD300012AB03EB8404114B12491B68009354F8A7
:10CD4000403C0C483A460DF02FF913B0F0BD0134C9
:10CD5000102CE6D10C4B0D491B680648324613B027
:10CD6000BDE8F0400DF020B968A5010828CF010802
:10CD700079AD0108F80900208FAD0108E801002015
:10CD800098AD0108C5AD0108E4010020DAAD010845
:10CD900008B500F035FF38B9054B06491A68064852
:10CDA000BDE808400DF000B9044B05491A68F6E7E4
:10CDB000E801002013AE0108F8090020E40100207A
:10CDC0002AAE010810B5154C154A164988B06846B8
:10CDD0000DF0EAF82378DA070DD56846FBF730FA4C
:10CDE00082B21148C8230068694609F014FD10B1E9
:10CDF0000A2008B010BD63781B0701D40020F8E7B3
:10CE00006846FBF71DFA82B20848C82300686946E5
:10CE100009F001FD0028F1D0EAE700BF7C320020D4
:10CE200048AE010856AE010884320020803200204E
:10CE30002DE9F0470128ADF5805D044600F08A80B9
:10CE4000022800F08E80002840F0C580644B1B78DB
:10CE5000DA0740F1C280634F634D64484FF40062CB
:10CE60000021FCF769FD0020D7F8008008F1FF33AE
:10CE7000E918EA5C0D2A77D00A2A75D04FF40062CF
:10CE800000216846FCF758FD294608F10102684672
:10CE9000FEF73EF94FF400620DEB02000021544D05
:10CEA000FCF74AFD6A460DF5006012F8013B002BC5
:10CEB0005DD1504F1D469946D7F800A05046FBF76C
:10CEC000BFF95146804602460DF500600DF09CF911
:10CED00040B90DF5006303EB0800FFF70FF87B681E
:10CEE0009847012509F10109B9F1100F07F1080769
:10CEF000E2D145B99DF800382BB13F4B3F491A6844
:10CF00003A480DF051F8012C3AD0022C42D03C4B5B
:10CF100035481E684FF400620021FCF70DFD314BCF
:10CF2000324D00221A602B78002B51D02846FBF797
:10CF300087F9022C82B235D11146284603F0E0FE73
:10CF400030480D2103F0DCFE002420460DF5805D05
:10CF5000BDE8F087224B5B781B07F6D52A4F2B4D97
:10CF60007BE72B4F2B4D78E73B6008707CE7E95C53
:10CF700001F00301012908BF203300F8013B94E7C9
:10CF8000254B22481E684FF400620021FCF7D4FCB8
:10CF90001D4BC5E71F484FF400620021FCF7CCFC95
:10CFA0001B4BBDE7C8232946304609F034FC08B1C5
:10CFB00000F088FE642006F027FA1249C8230D22EB
:10CFC000304609F028FC0028BED000F07BFEBBE70D
:10CFD000022CF2D1B4E70A24B7E70124B5E700BF79
:10CFE0007C320020782200207C2A0020F8090020D2
:10CFF000F1CD010828CF0108E40100205BAE010853
:10D000008432002048AE0108742200207C220020D7
:10D01000C0520020C452002080320020024B03493D
:10D020001A6803480CF0C0BFE40100208FAE01086D
:10D03000F8090020FFF7F2BFFFF7F0BFFFF7EEBFE0
:10D04000FFF7ECBFFFF7EABFFFF7E8BF07B5002027
:10D050000DF10601FEF7BDFC90B9BDF8062043F6C0
:10D060003E639A42074B1A7813BF60F3000242F006
:10D0700001021A701A7018BF042003B05DF804FB97
:10D080000A20FAE7A409002008B5FFF7DFFF68B916
:10D0900007490120FEF79DFC08B10A2008BD05499B
:10D0A0000220FEF796FC0028F8D0F6E70420F5E70A
:10D0B000FA110020F811002070B586B01822002166
:10D0C00004466846FCF738FC0C2269460320FEF74C
:10D0D000C5FC70B96B460246651C33F8021B0E0A8C
:10D0E00004F8126005F8121001320C2AF5D106B0CE
:10D0F00070BD0A20FBE730B59BB0FEF7F9FE0DF1DD
:10D10000060104460F20FEF764FC18B10A242046ED
:10D110001BB030BDBDF80630A3423DD102A8FEF7DA
:10D120004BFF1822002108A8FCF706FC02AB08A858
:10D1300000221C785978013241EA04210C2A20F897
:10D14000021B03F10203F4D10EA8FFF7B5FF04465A
:10D150000028DBD10146182214A8FCF7EDFB254678
:10D160000EAB14A918785A78013542EA00220C2D2A
:10D1700021F8022B03F10203F4D1182214A908A804
:10D180000DF016F80028C2D02A4608A90320FEF7A1
:10D19000B2FC0028BBD0B9E721460F20FEF771FC96
:10D1A0000028BBD0B2E70000F0B585B0002305220F
:10D1B00001A91020CDE90133ADF80C30FEF74EFC8B
:10D1C000F0B91049104F01AA054632F8023B1C0A7B
:10D1D000661CDBB2BE5D06F00306022E08BF203CD3
:10D1E0000C705C1C01353C5D04F00304022C08BF8C
:10D1F000203B052D4B7001F10201E6D105B0F0BDD9
:10D200000A20FBE7A6090020F0CD01087FB5002227
:10D21000CDE901221348144EADF80C2001AD03787E
:10D22000F15C01F00301022908BF203BD9B2437829
:10D23000F45C04F00304022C08BF203BDBB2013293
:10D2400043EA0123052A25F8023B00F10200E6D15A
:10D2500001A91020FEF74FFC002818BF0A2004B0D7
:10D2600070BD00BFA6090020F1CD010830B587B020
:10D270001422002101A8FCF75FFB0A2201A9152056
:10D28000FEF7ECFB70B9084A01AB014633F8024BDC
:10D2900054700131250A0A29157002F10202F5D1F4
:10D2A00007B030BD0A20FBE7C435002070B586B05A
:10D2B0001422002101A8FCF73FFB134E134801ADD7
:10D2C00000220378F15C01F00301022908BF203B32
:10D2D000D9B24378F45C04F00304022C08BF203B6D
:10D2E000DBB2013243EA01230A2A25F8023B00F1AE
:10D2F0000200E6D101A91520FEF7FDFB002818BFAA
:10D300000A2006B070BD00BFF1CD0108C435002071
:10D3100007B530206946FEF75CFB18B10A2003B060
:10D320005DF804FB01A93120FEF753FB0028F5D17D
:10D330000DF102013220FEF74CFB0028EED10DF179
:10D3400006013320FEF745FB0028E7D1BDF8002099
:10D35000084B511E4A424A411A70BDF8022002F1A0
:10D36000FF3CDCF1000242EB0C025A70BDF80620D3
:10D370005A80D4E70C12002070B5114B19785D78F3
:10D380005E889C88003918BF01213020FEF779FBA8
:10D3900008B10A2070BD31463120FEF772FB00282B
:10D3A000F7D1291E18BF01213220FEF76AFB0028A1
:10D3B000EFD121463320FEF764FB0028EAD0E8E7EE
:10D3C0000C12002007B5022201A93420FEF746FB0B
:10D3D000A8B90C49BDF804300A7803F0030322F021
:10D3E000030213430B70BDF806309DF8062003F4CA
:10D3F0007F431343044A138003B05DF804FB0A2003
:10D40000FAE700BFB4090020B209002007B5124BAB
:10D41000124A1B7803F00303ADF8043013785278F6
:10D4200002F0030143EA0123C2F3810143EA8123AD
:10D43000C2F3011143EA0133920943EA823301A99D
:10D4400002223420ADF80630FEF755FB002818BF45
:10D450000A2003B05DF804FBB4090020B2090020E3
:10D4600013B536200DF10601FEF7B3FAB0B9BDF8D9
:10D4700006200B4C910002F03F0301F4E0610B43E6
:10D48000910001F40061920A0B4343EA02332288BF
:10D4900002F0C0021343238002B010BD0A20FBE754
:10D4A0007C3200200B4A08B55178137801F007024E
:10D4B00003F03F0343EA8213C1F3C00243EA42236D
:10D4C000090943EA81213620FEF7DBFA002818BF5C
:10D4D0000A2008BD7C32002007B5022201A93720AE
:10D4E000FEF7BCFA48B9064BBDF804201A80BDF817
:10D4F00006209A7003B05DF804FB0A20FAE700BF2B
:10D50000FC11002007B5094B1A88ADF804209B7860
:10D51000ADF80630022201A93720FEF7ECFA002808
:10D5200018BF0A2003B05DF804FB00BFFC11002007
:10D5300007B5032269463920FEF790FA70B9084B07
:10D54000BDF800201A80BDF8022002F003029A7094
:10D55000BDF804209A8003B05DF804FB0A20FAE7C6
:10D560000412002007B50B4B1A88ADF800209A78FA
:10D570009B88ADF8043002F00302ADF80220694642
:10D5800003223920FEF7B7FA002818BF0A2003B09B
:10D590005DF804FB0412002007B53C200DF10601E4
:10D5A000FEF717FA30B9044BBDF806201A7003B025
:10D5B0005DF804FB0A20FAE78832002008B5044B26
:10D5C0003C201978FEF75DFA002818BF0A2008BD34
:10D5D0008832002007B53E200DF10601FEF7F9F96B
:10D5E00060B90749BDF806300A7803F00F0322F04E
:10D5F0000F0213430B7003B05DF804FB0A20FAE737
:10D600000A12002008B5054B19783E2001F00F01E1
:10D61000FEF737FA002818BF0A2008BD0A120020BA
:10D6200007B53F200DF10601FEF7D3F978B9BDF833
:10D63000063008499DF8062003F4407313430A8816
:10D640006FF3090213430B8003B05DF804FB0A205B
:10D65000FAE700BF0012002008B5094B19785B7883
:10D6600003F0010241EA0221C3F3400341EA4321EE
:10D670003F20FEF706FA002818BF0A2008BD00BFA9
:10D6800000120020F0B5224C89B0002625460E2756
:10D690003001403080B210226946FEF7DFF910B148
:10D6A0000A2009B0F0BDBDF80A10BDF8003007FB34
:10D6B00006F201F0010103F0010343EA4103A95C12
:10D6C00021F003010B43AB54BDF80C306380BDF86F
:10D6D0000E30A380AB5CBDF8121061F38203AB5433
:10D6E000BDF81430E380BDF816302381AB5CBDF883
:10D6F0001A1061F3C303AB540136BDF81C306381CB
:10D70000032EBDF81E30A38104F10E04C0D1C8E77A
:10D71000B6090020F0B51D4C89B0002527460E261D
:10D7200006FB05F32801FB5C03F00102ADF80020C5
:10D73000C3F34002ADF80A206288ADF80C20A2883D
:10D74000ADF80E20C3F38002ADF81220C3F3C0037E
:10D75000E288ADF81420ADF81A3022896389ADF85B
:10D7600016204030ADF81C3080B2A389ADF81E30D1
:10D7700010226946FEF7BFF910B10A2009B0F0BDCA
:10D780000135032D04F10E04CAD1F7E7B6090020D4
:10D790002DE9FF41284D01242E460A27C4EBC40081
:10D7A00004EB00100822694680B204F1FF38FEF74E
:10D7B00055F918B10A2004B0BDE8F08107FB08FC58
:10D7C00006EB0C01BDF800200B7A9DF802E062F335
:10D7D0000003BDF802200B7202F47F4242EA0E02FF
:10D7E000BDF8043026F80C208A7803F01F0322F0DD
:10D7F0001F0213438B70BDF80A20BDF80630AB80C2
:10D80000BDF80830EB804FEA420C530003F03C03B4
:10D810000CF0020C520002F4E07243EA0C031343D2
:10D820000A8922F4FF721343012C0B8105F10A05CA
:10D83000C1D10224B2E700BF1C120020F0B5254D73
:10D8400085B001242E460A27631E7B43F018027A16
:10D8500002F00101ADF800104178F35C01F0030C17
:10D8600043EA0C23C1F3810C43EA8C23C1F3011C6E
:10D8700043EA0C33890943EA8133ADF802308378F7
:10D8800003F01F03ADF80430AB88ADF80630EB8829
:10D89000ADF808300389C3F38213C2F383015B013F
:10D8A00043EA4103C2F34002C4EBC4001A4304EB51
:10D8B0000010ADF80A206946082280B2FEF71BF975
:10D8C00010B10A2005B0F0BD012C05F10A05F9D10F
:10D8D0000224B9E71C120020F0B5304C89B00026B4
:10D8E0002546370107F1E00080B210226946FEF7B5
:10D8F000B5F810B10A2009B0F0BDEB5DBDF800101D
:10D9000061F30303EB55BDF802306380BDF80430CA
:10D91000A380EB5DBDF8061061F30713BDF8081096
:10D92000EB55EA199DF80870BDF80A3001F47F4103
:10D930003943D180117A03F01F0321F01F010B43FB
:10D940001372BDF80C306381BDF80E30A381BDF8B1
:10D950001230BDF810105B0001F0010103F00E035E
:10D960000B43BDF814100901C9B20B43BDF81810E0
:10D97000090201F480710B43BDF81A10490201F449
:10D9800060610B43BDF81C10013643EA0133192EC8
:10D99000D38104F11004A4D1ADE700BFD835002035
:10D9A000F0B5304C002589B027462E462801CDF829
:10D9B0001660ADF81E603B5C03F00F01ADF800107F
:10D9C0006188ADF8021007EB0512A188ADF80410CC
:10D9D0001B09ADF80630D179937901F0030C43EAC5
:10D9E0000C23C1F3810C43EA8C23C1F3011C43EAED
:10D9F0000C33890943EA8133ADF80830137A03F018
:10DA00001F03ADF80A306389ADF80C30A389ADF877
:10DA10000E30937B03F00101ADF81010C3F3420107
:10DA20001B09ADF81210ADF81430D37B03F00102DE
:10DA3000ADF81820E030C3F34202ADF81A201B09FC
:10DA400080B210226946ADF81C30FEF754F810B1D0
:10DA50000A2009B0F0BD0135192D04F11004A5D13B
:10DA6000F7E700BFD835002070B54FF41C74A0B0A4
:10DA7000202269462046FDF7F1FF10B10A2020B0B0
:10DA800070BD094B6D46024635F8021B59700132D4
:10DA90000E0A202A1E7003F14203F5D12034A4B2ED
:10DAA000B4F56C7FE4D1EAE74433002070B54FF45D
:10DAB0001C74A0B068460D4B002201461E785D78AC
:10DAC000013245EA0625202A20F8025B03F14203D1
:10DAD000F4D12046FEF70FF810B10A2020B070BD37
