:020000040800F2
:1080000000000120094E01087DDC000885DC000825
:1080100087DC000889DC00088BDC00080000000019
:108020000000000000000000000000008DDC0008DF
:108030008FDC00080000000091DC000893DC0008E1
:10804000594E0108594E010895DC0008594E0108A7
:10805000594E0108A1DC0008594E0108594E01088B
:10806000594E0108594E0108594E0108594E010850
:10807000594E0108594E0108594E0108594E010840
:10808000594E0108594E0108A5DC00080000000007
:10809000000000000000000000000000594E010830
:1080A000B1DC0008BDDC0008D9DC0008594E01082D
:1080B000594E0108E5DC0008F1DC0008594E0108C2
:1080C000594E0108594E0108594E0108FDDC0008BF
:1080D000594E010809DD0008594E01080000000052
:1080E000594E010815DD0008594E01080000000036
:1080F000000000000000000000000000594E0108D0
:108100000000000021DD00082DDD0008594E0108A7
:10811000000000000000000000000000000000005F
:10812000594E010839DD000845DD000851DD000821
:108130005DDD0008000000000000000000000000FD
:1081400000000000000000000000000069DD0008E1
:10815000594E010875DD000881DD00088DDD00083D
:10816000594E0108594E01080000000000000000AF
:1081700000000000000000000000000000000000FF
:108180000000000099DD0008000000000000000071
:04819000594E01083B
:1081A00001F0FF01102A2BDB10F0070F08D010F8A8
:1081B000013B013A8B422DD010F0070F42B3F6D1AC
:1081C000F0B441EA012141EA014122F007047FF0C5
:1081D00000070023F0E80256083C85EA010586EA1C
:1081E000010685FA47F5A3FA87F586FA47F6A5FA58
:1081F00087F68EB9EED1F0BC01F0FF0102F0070264
:1082000032B110F8013B013A83EA010313B1F8D10E
:108210000020704701387047002D06BF35460338EF
:10822000073815F0010F07D1013015F4807F02BF28
:10823000013015F4C03F0130F0BC0138704700BF79
:10824000034613F8012B002AFBD1181A0138704796
:1082500010F8012B11F8013B012A28BF9A42F7D0F0
:10826000D01A704781F0004102E000BF83F0004364
:1082700030B54FEA41044FEA430594EA050F08BFC1
:1082800090EA020F1FBF54EA000C55EA020C7FEA85
:10829000645C7FEA655C00F0E2804FEA5454D4EB02
:1082A0005555B8BF6D420CDD2C4480EA020281EACC
:1082B000030382EA000083EA010180EA020281EA04
:1082C0000303362D88BF30BD11F0004F4FEA013156
:1082D0004FF4801C4CEA113102D0404261EB410165
:1082E00013F0004F4FEA03334CEA133302D05242EB
:1082F00063EB430394EA050F00F0A780A4F10104A7
:10830000D5F1200E0DDB02FA0EFC22FA05F28018E0
:1083100041F1000103FA0EF2801843FA05F35941C6
:108320000EE0A5F120050EF1200E012A03FA0EFC45
:1083300028BF4CF0020C43FA05F3C01851EBE3716F
:1083400001F0004507D54FF0000EDCF1000C7EEB8C
:1083500000006EEB0101B1F5801F1BD3B1F5001FCA
:108360000CD349085FEA30004FEA3C0C04F10104E9
:108370004FEA445212F5800F80F09A80BCF1004F12
:1083800008BF5FEA500C50F1000041EB045141EA94
:10839000050130BD5FEA4C0C404141EB0101013C5D
:1083A00028BFB1F5801FE9D291F0000F04BF01464C
:1083B0000020B1FA81F308BF2033A3F10B03B3F11E
:1083C00020020CDA0C3208DD02F1140CC2F10C02AE
:1083D00001FA0CF021FA02F10CE002F11402D8BF0C
:1083E000C2F1200C01FA02F120FA0CFCDCBF41EAD8
:1083F0000C019040E41AA2BF01EB0451294330BDA7
:108400006FEA04041F3C1CDA0C340EDC04F1140483
:10841000C4F1200220FA04F001FA02F340EA03005A
:1084200021FA04F345EA030130BDC4F10C04C4F1A0
:10843000200220FA02F001FA04F340EA0300294680
:1084400030BD21FA04F0294630BD94F0000F83F4CA
:10845000801306BF81F480110134013D4EE77FEAAD
:10846000645C18BF7FEA655C29D094EA050F08BFF9
:1084700090EA020F05D054EA000C04BF19461046DA
:1084800030BD91EA030F1EBF0021002030BD5FEA1E
:10849000545C05D14000494128BF41F0004130BD46
:1084A00014F580043CBF01F5801130BD01F000459A
:1084B00045F0FE4141F470014FF0000030BD7FEA0D
:1084C000645C1ABF194610467FEA655C1CBF0B4608
:1084D000024650EA013406BF52EA033591EA030F1F
:1084E00041F4002130BD00BF90F0000F04BF002117
:1084F000704730B54FF4806404F132044FF000054A
:108500004FF0000150E700BF90F0000F04BF0021C2
:10851000704730B54FF4806404F1320410F0004528
:1085200048BF40424FF000013EE700BF42004FEA23
:10853000E2014FEA31014FEA02701FBF12F07F43A0
:1085400093F07F4F81F06051704732F07F4208BF57
:10855000704793F07F4F04BF41F40021704730B55E
:108560004FF4607401F0004521F000411CE700BFAA
:1085700050EA010208BF704730B54FF000050AE02D
:1085800050EA010208BF704730B511F0004502D52E
:10859000404261EB41014FF4806404F132045FEA30
:1085A000915C3FF4D8AE4FF003025FEADC0C18BFD9
:1085B00003325FEADC0C18BF033202EBDC02C2F1CB
:1085C000200300FA03FC20FA02F001FA03FE40EA5D
:1085D0000E0021FA02F11444BDE600BF70B54FF061
:1085E000FF0C4CF4E06C1CEA11541DBF1CEA13553F
:1085F00094EA0C0F95EA0C0F00F0DEF82C4481EAA7
:10860000030621EA4C5123EA4C5350EA013518BFC6
:1086100052EA033541F4801143F4801338D0A0FBB3
:1086200002CE4FF00005E1FB02E506F00042E0FB60
:1086300003E54FF00006E1FB03569CF0000F18BF66
:108640004EF0010EA4F1FF04B6F5007F64F540740E
:1086500004D25FEA4E0E6D4146EB060642EAC621A1
:1086600041EA55514FEAC52040EA5E504FEACE2E0E
:10867000B4F1FD0C88BFBCF5E06F1ED8BEF1004F11
:1086800008BF5FEA500E50F1000041EB045170BD8D
:1086900006F0004646EA010140EA020081EA0301D1
:1086A000B4EB5C04C2BFD4EB0C0541EA045170BDCD
:1086B00041F480114FF0000E013C00F3AB8014F147
:1086C000360FDEBF002001F0004170BDC4F1000490
:1086D000203C35DA0C341BDC04F11404C4F1200511
:1086E00000FA05F320FA04F001FA05F240EA02006C
:1086F00001F0004221F0004110EBD37021FA04F6A2
:1087000042EB06015EEA430E08BF20EAD37070BD5B
:10871000C4F10C04C4F1200500FA04F320FA05F0BA
:1087200001FA04F240EA020001F0004110EBD370BC
:1087300041F100015EEA430E08BF20EAD37070BD2C
:10874000C4F1200500FA05F24EEA020E20FA04F305
:1087500001FA05F243EA020321FA04F001F00041B4
:1087600021FA04F220EA020000EBD3705EEA430E25
:1087700008BF20EAD37070BD94F0000F0FD101F054
:108780000046400041EB010111F4801F08BF013C8D
:10879000F7D041EA060195F0000F18BF704703F0CB
:1087A0000046520043EB030313F4801F08BF013D52
:1087B000F7D043EA0603704794EA0C0F0CEA13550E
:1087C00018BF95EA0C0F0CD050EA410618BF52EAC8
:1087D0004306D1D181EA030101F000414FF00000CE
:1087E00070BD50EA410606BF1046194652EA4306DC
:1087F00019D094EA0C0F02D150EA013613D195EA50
:108800000C0F05D152EA03361CBF104619460AD197
:1088100081EA030101F0004141F0FE4141F47001A1
:108820004FF0000070BD41F0FE4141F4780170BD91
:1088300070B54FF0FF0C4CF4E06C1CEA11541DBFF6
:108840001CEA135594EA0C0F95EA0C0F00F0A7F8F8
:10885000A4EB050481EA030E52EA03354FEA013125
:1088600000F088804FEA03334FF0805545EA131338
:1088700043EA12634FEA022245EA111545EA106500
:108880004FEA00260EF000419D4208BF964244F197
:10889000FD0404F5407402D25B084FEA3202B61AB6
:1088A00065EB03055B084FEA32024FF480104FF48A
:1088B000002CB6EB020E75EB030E22BFB61A7546FE
:1088C00040EA0C005B084FEA3202B6EB020E75EB91
:1088D000030E22BFB61A754640EA5C005B084FEAF9
:1088E0003202B6EB020E75EB030E22BFB61A7546C6
:1088F00040EA9C005B084FEA3202B6EB020E75EBD1
:10890000030E22BFB61A754640EADC0055EA060E91
:1089100018D04FEA051545EA16754FEA06164FEAD4
:10892000C30343EA52734FEAC2025FEA1C1CC0D180
:1089300011F4801F0BD141EA00014FF000004FF00D
:10894000004CB6E711F4801F04BF01430020B4F1CE
:10895000FD0C88BFBCF5E06F3FF6AFAEB5EB030C86
:1089600004BFB6EB020C5FEA500C50F1000041EB83
:10897000045170BD0EF0004E4EEA113114EB5C0450
:10898000C2BFD4EB0C0541EA045170BD41F4801123
:108990004FF0000E013C90E645EA060E8DE60CEA2B
:1089A000135594EA0C0F08BF95EA0C0F3FF43BAF48
:1089B00094EA0C0F0AD150EA01347FF434AF95EAFF
:1089C0000C0F7FF425AF104619462CE795EA0C0FE3
:1089D00006D152EA03353FF4FDAE1046194622E7B0
:1089E00050EA410618BF52EA43067FF4C5AE50EA8A
:1089F00041047FF40DAF52EA43057FF4EBAE12E77A
:108A00004FF0FF3C06E000BF4FF0010C02E000BF5A
:108A10004FF0010C4DF804CD4FEA410C7FEA6C5C3D
:108A20004FEA430C18BF7FEA6C5C1BD001B050EAE0
:108A3000410C0CBF52EA430C91EA030F02BF90EACB
:108A4000020F0020704710F1000F91EA030F58BF8A
:108A5000994208BF90422CBFD8176FEAE37040F0EC
:108A6000010070474FEA410C7FEA6C5C02D150EA8A
:108A7000013C07D14FEA430C7FEA6C5CD6D152EA45
:108A8000033CD3D05DF8040B704700BF844610460A
:108A900062468C461946634600E000BF01B5FFF709
:108AA000B7FF002848BF10F1000F01BD4DF808EDD9
:108AB000FFF7F4FF0CBF012000205DF808FB00BFAA
:108AC0004DF808EDFFF7EAFF34BF012000205DF804
:108AD00008FB00BF4DF808EDFFF7E0FF94BF012051
:108AE00000205DF808FB00BF4DF808EDFFF7CEFF52
:108AF00094BF012000205DF808FB00BF4DF808ED91
:108B0000FFF7C4FF34BF012000205DF808FB00BF61
:108B10004FEA410C7FEA6C5C02D150EA013C0AD179
:108B20004FEA430C7FEA6C5C02D152EA033C02D16B
:108B30004FF0000070474FF0010070474FEA4102CC
:108B400012F5001215D211D56FF47873B3EB62529F
:108B500012D94FEAC12343F0004343EA505311F0C6
:108B6000004F23FA02F018BF404270474FF0000058
:108B7000704750EA013005D111F0004008BF6FF096
:108B8000004070474FF00000704700BF4FEA4102BD
:108B9000B2F1E04324BFB3F5001CDCF1FE5C0DD95B
:108BA00001F0004C4FEAC0024CEA5070B2F1004FA5
:108BB00040EB830008BF20F00100704711F0804FA8
:108BC00021D113F13872BCBF01F00040704741F46D
:108BD00080114FEA5252C2F11802C2F1200C10FA71
:108BE0000CF320FA02F018BF40F001004FEAC12355
:108BF0004FEAD32303FA0CFC40EA0C0023FA02F3F9
:108C00004FEA4303CCE77FEA625307D150EA0133CE
:108C10001EBF4FF0FE4040F44000704701F000409E
:108C200040F0FE4040F40000704700BF80F000407C
:108C300002E000BF81F0004142001FBF5FEA410334
:108C400092EA030F7FEA226C7FEA236C6AD04FEA34
:108C50001262D2EB1363C1BFD21841404840414079
:108C6000B8BF5B42192B88BF704710F0004F40F42B
:108C7000000020F07F4018BF404211F0004F41F447
:108C8000000121F07F4118BF494292EA030F3FD013
:108C9000A2F1010241FA03FC10EB0C00C3F1200326
:108CA00001FA03F100F0004302D5494260EB4000B5
:108CB000B0F5000F13D3B0F1807F06D340084FEA20
:108CC000310102F10102FE2A51D2B1F1004F40EB15
:108CD000C25008BF20F0010040EA0300704749007D
:108CE00040EB0000013A28BFB0F5000FEDD2B0FA1A
:108CF00080FCACF1080CB2EB0C0200FA0CF0AABF3D
:108D000000EBC25052421843BCBFD04018437047DA
:108D100092F0000F81F4000106BF80F400000132E0
:108D2000013BB5E74FEA41037FEA226C18BF7FEAB7
:108D3000236C21D092EA030F04D092F0000F08BFF9
:108D40000846704790EA010F1CBF0020704712F0E0
:108D50007F4F04D1400028BF40F00040704712F11F
:108D600000723CBF00F50000704700F0004343F084
:108D7000FE4040F4000070477FEA226216BF0846BA
:108D80007FEA23630146420206BF5FEA412390EA7D
:108D9000010F40F4800070474FF0000304E000BF73
:108DA00010F0004348BF40425FEA000C08BF704724
:108DB00043F0964301464FF000001CE050EA0102E8
:108DC00008BF70474FF000030AE000BF50EA0102FD
:108DD00008BF704711F0004302D5404261EB4101EA
:108DE0005FEA010C02BF84460146002043F0B6430F
:108DF00008BFA3F18053A3F50003BCFA8CF2083A34
:108E0000A3EBC25310DB01FA02FC634400FA02FC3C
:108E1000C2F12002BCF1004F20FA02F243EB020043
:108E200008BF20F00100704702F1200201FA02FCA5
:108E3000C2F1200250EA4C0021FA02F243EB020098
:108E400008BF20EADC70704753B94AB9002908BF4F
:108E500000281CBF4FF0FF314FF0FF3000F00CB87E
:108E6000ADF1080C6DE904CE0BF0F8FFDDF804E07D
:108E7000DDE9022304B07047704700BF0348044B8C
:108E8000834202D0034B03B118477047D40100203E
:108E9000D4010020000000000548064B1B1AD90F22
:108EA00001EBA301491002D0034B03B118477047EF
:108EB000D4010020D40100200000000010B5064CB1
:108EC000237843B9FFF7DAFF044B13B10448AFF33B
:108ED00000800123237010BDD40100200000000099
:108EE0001855010808B5054B1BB105490548AFF3F6
:108EF0000080BDE80840FFF7CFBF00BF00000000C2
:108F0000D8010020185501082DE9FF4757EC106BD8
:108F1000002F0C4619463B46BBBF07F100431F46D6
:108F200000232D230B700D9BDDF830A0914623F01C
:108F30002008BCBF32461646B8F1460F05D0B8F13E
:108F4000450F00D10134022100E0032103AB01935E
:108F500002AB009347EC106B5346224600F0A8FD8D
:108F6000B8F1470F054619D119F0010F0ED000EBEB
:108F700004090022002330463946FFF797FD08B167
:108F8000CDF80C903022039B4B451ED3039B0E9AC9
:108F90005B1B2846136004B0BDE8F087B8F1460FAC
:108FA00000EB0409E5D10378302B0AD1002200231D
:108FB00030463946FFF77AFD18B9C4F10104CAF802
:108FC0000040DAF800309944D3E7591C03911A7035
:108FD000D9E7F7B50029BABF49422D232B23092928
:108FE0000270437029DD0DF107031D460A271A465A
:108FF000B1FBF7F607FB1614303402F8014C0C46AF
:10900000632C03F1FF333146F1DC3031941E03F859
:10901000011C411C2346AB420AD30DF109039B1AE4
:10902000AC4288BF002302330344181A03B0F0BDDA
:1090300013F8016B01F8016FEDE7302330318370D5
:10904000C170031DF1E700002DE9F04F8DB00C4613
:10905000DDF8588016461F46054600F09DFC036863
:1090600004931846FFF7ECF800230A93D8F8003071
:109070000590073323F0070303F1080294F818A0C2
:10908000D4F800B0C8F80020D3E9008929F00043E3
:109090000793CDF81880C4E91289DDE906019C4BDD
:1090A0004FF0FF32FFF734FD70BBDDE90601984B4E
:1090B0004FF0FF32FFF70EFD30BB00220023404689
:1090C0004946FFF7FDFC10B12D2384F84330914A47
:1090D000914BBAF1470F8CBF90469846032323610A
:1090E0002BF0040323604FF00009009733460BAACE
:1090F0002146284600F0D2F9013040F08D804FF033
:10910000FF300DB0BDE8F08F42464B464046494621
:10911000FFF7FEFC40B14B46002BBCBF2D2384F86B
:1091200043307E4A7E4BD4E763680AF0DF02069242
:109130005A1C3BD1062363604BF4806200232260FB
:1091400003930AABCDE901A309AB0093616849EC35
:10915000108B0DF123032846FFF7D6FE069B0999D5
:10916000472B804629D1C81C02DB6368994241DD48
:10917000AAF1020A5FFA8AFA0139524604F1500054
:109180000991FFF726FF0A9A1318012A81462361E5
:1091900002DC2268D20701D5013323619DF8233018
:1091A000002BA2D02D2384F843309EE7069A472A4D
:1091B000C2D1002BC0D10123BDE7BAF1650FDBD9C5
:1091C000BAF1660F18D1002963680BDD216113B96C
:1091D0002268D00702D501330B442361A1654FF00B
:1091E0000009DBE713B92268D20701D50233F4E79F
:1091F0000123F2E74FF0670A0A9B994205DB2368D7
:109200002161D807EAD54B1CE7E70029D4BFC1F19B
:10921000020201221344E0E723685A0507D42369B8
:10922000424631462846B84701302BD167E7BAF1AC
:10923000650F40F2DD80D4E9120100220023FFF720
:1092400035FC002833D0374A012331462846B84739
:1092500001303FF454AFDDE90938434502DB2368B0
:10926000D8070FD5DDE9042331462846B847013039
:109270003FF445AF4FF0000908F1FF3804F11A0A36
:10928000C84509DC23689B0700F10381E0680B9B5C
:109290009842B8BF184634E7012352463146284663
:1092A000B84701303FF42BAF09F10109E8E7099B0A
:1092B000002B39DC1B4A012331462846B8470130D0
:1092C0003FF41DAFDDE9093959EA030302D12368F0
:1092D000D907D7D5DDE9042331462846B847013000
:1092E0003FF40DAF4FF0000A04F11A0B099B5B42EB
:1092F000534501DC4B4693E701235A463146284645
:10930000B84701303FF4FBAE0AF1010AEEE700BFB7
:10931000FFFFEF7F34550108305501083C55010827
:109320003855010840550108A36DDDF828A05345C4
:10933000A8BF5346002B994636DC4FF0000B29EAB4
:10934000E97904F11A02A36D0693A3EB09035B45C7
:1093500031DC099B9A453ADC2368DA0737D4099B4C
:10936000AAEB0309069BAAEB03039945A8BF9946FC
:10937000B9F1000F33DC4FF0000829EAE97904F174
:109380001A0B099BAAEB0303A3EB090343457FF7E1
:1093900079AF01235A4631462846B84701303FF499
:1093A000AEAE08F10108ECE7424631462846B84720
:1093B0000130C2D1A3E60123314628460692B847C0
:1093C00001303FF49CAE069A0BF1010BBBE7DDE9DF
:1093D000042331462846B8470130C0D18FE6069AAB
:1093E0004B46424431462846B8470130C3D186E651
:1093F000DDF828A0BAF1010F01DCDB0736D5012327
:10940000424631462846B84701303FF478AEDDE9A0
:10941000042331462846B84701303FF470AED4E902
:109420001201002200230AF1FF3AFFF73FFBC0B907
:10943000534608F1010231462846B84701300CD1A5
:109440005DE601235A4631462846B84701303FF4CD
:1094500056AE08F10108D045F3DB4B4604F150024B
:10946000DFE64FF0000804F11A0BF4E7012342464F
:10947000E1E701234A4631462846B84701303FF428
:109480003EAE08F10108E3680B995B1A4345F0DC36
:10949000FCE64FF0000804F11909F4E72DE9F04764
:1094A000164698468A680B69DDF820909342B8BF4B
:1094B0001346336091F8432007460C460AB1013346
:1094C00033602368990642BF3368023333602568EE
:1094D00015F0060506D104F1190AE36832689B1AF3
:1094E000AB4226DC94F843302268003B18BF0123CE
:1094F00092062BD404F1430241463846C847013056
:109500001ED02368226903F00603042B02BFE5681E
:109510003368ED1AA3680CBF25EAE5750025934270
:10952000C4BF9B1AED1800261A34B5421AD1002088
:1095300008E00123524641463846C847013003D16E
:109540004FF0FF30BDE8F0870135C6E7E1185A1C3F
:10955000302081F84300224494F8451082F84310EB
:109560000233C7E70123224641463846C847013047
:10957000E6D00136D9E700002DE9FF470F7E0C9EAB
:10958000782F914680460C469A4601F1430207D84F
:10959000622F0AD8002F00F0D180582F00F0B88039
:1095A00004F1420684F842703AE0A7F16303152BF8
:1095B000F6D801A151F823F011960008259600086D
:1095C000A1950008A1950008A1950008A1950008A3
:1095D00025960008A1950008A1950008A19500080E
:1095E000A1950008239700084F960008DD96000813
:1095F000A1950008A195000845970008A1950008CD
:109600004F960008A1950008A1950008E59600086E
:1096100033681A1D1B68326004F1420684F8423038
:1096200001239CE033682068191D3160060601D5CE
:109630001D6803E04506FBD5B3F90050002D03DAA1
:109640002D236D4284F8433058480A2311E02168E5
:109650003368080653F8045B02D4490648BFADB22C
:109660006F2F5248336014BF0A230823002184F867
:1096700043106668A660002E05DB21682E4321F0AA
:10968000040121604BD01646B5FBF3F103FB1157E3
:10969000C75D06F8017D2F46BB420D46F4D9082B65
:1096A0000BD12368DF0708D5236961689942DEBFC3
:1096B000302306F8013C06F1FF36921B2261CDF8FB
:1096C00000A04B4603AA21464046FFF7E7FE0130C3
:1096D0004AD14FF0FF3004B0BDE8F087236843F073
:1096E000200323603248782784F845702368316866
:1096F0001F0651F8045B02D45F0648BFADB231606B
:10970000D90744BF43F0200323601DB11023ADE708
:109710002648E9E7236823F020032360F6E716468E
:10972000BDE7336825686169181D30602E061B6827
:1097300001D5196002E06806FBD51980002323617A
:109740001646BCE733681A1D32601E686268002145
:109750003046FEF725FD08B1801B60606368236119
:10976000002384F84330AAE723693246494640463D
:10977000D0470130ADD023689B0713D4E068039B2A
:109780009842B8BF1846A6E70123324649464046EC
:10979000D04701309DD00135E36803995B1AAB4295
:1097A000F2DCEBE7002504F11906F5E74255010864
:1097B00053550108002310B50446C0E90033C0E941
:1097C0000433836081814366C28183611946082224
:1097D0005C3000F0B1F80D4B63620D4BA3620D4B92
:1097E000E3620D4B23630D4B24629C4206D003F1D0
:1097F0006802944202D0D0339C4205D104F1580053
:10980000BDE8104000F0C4B810BD00BFDDAF0008D7
:10981000FFAF000837B000085BB00008F00100207F
:10982000024A0349034800F069B800BF0000002065
:1098300081A800081000002041680C4B994210B527
:10984000044601D001F01CF8A168094B994202D0EE
:10985000204601F015F8E168064B994204D02046F5
:10986000BDE8104001F00CB810BD00BFF0010020B1
:1098700058020020C002002010B50B4B0B4C0C4AC4
:109880001A60204600220421FFF794FF04F16800CB
:1098900001220921FFF78EFF04F1D0000222BDE86A
:1098A00010401221FFF786BF28030020F00100209E
:1098B00021980008014800F06CB800BF2D0300207B
:1098C000014800F067B800BF2D03002010B5044622
:1098D000FFF7F0FF236A1BB1BDE81040FFF7F0BFB0
:1098E000044B2362044B1B68002BF5D1FFF7C4FF28
:1098F000F2E700BF39980008280300202DE9F8435B
:109900000746884614460026D4E90195B9F10109B5
:1099100005D52468002CF7D13046BDE8F883AB8923
:10992000012B07D9B5F90E30013303D0294638464B
:10993000C04706436835E9E702440346934200D135
:10994000704703F8011BF9E770B50D4D0D4C641B12
:10995000A4100026A64209D10B4D0C4C0BF0DCFDE7
:10996000641BA4100026A64205D170BD55F8043B27
:1099700098470136EEE755F8043B98470136F2E781
:10998000B45E0108B45E0108B45E0108B85E010867
:109990007047704770470000004870474C01002036
:1099A0002DE9F74F03690C69A34207467EDB013CB2
:1099B00001F11408A30000F11405009305EB8403E2
:1099C000019358F8243055F8242001339A4208EBCB
:1099D0008409B2FBF3F62ED34FF0000AC446AE461C
:1099E000D3465CF8043B98B206FB00A0020C1B0CAB
:1099F00006FB0323DEF8002080B292B2121A5A440A
:109A0000DEF800004FEA134A9BB2C3EB224303EB9C
:109A1000104392B242EA0342E1454EF8042B4FEA6A
:109A2000234BDED2009BEB582BB9019B043B9D429C
:109A30001A462FD33C61384601F0C8F9002825DBCF
:109A40002946002058F8042BD1F800C01FFA82FEE6
:109A50001FFA8CF3A3EB0E030344120CC2EB234258
:109A600002EB1C429BB243EA0243C14541F8043B6E
:109A70004FEA2240E6D255F8242005EB840322B9B0
:109A8000043B9D421A460BD33C610136304603B07D
:109A9000BDE8F08F1268043B002ACBD1013CC6E739
:109AA0001268043B002AEFD1013CEAE70020EEE710
:109AB0002DE9F04FC76999B08DED040B55EC104BB3
:109AC000229E099183460E9213937FB9102000F0D5
:109AD000A9FD0246CBF81C0020B9A54BEF21A548F3
:109AE00001F024FBC0E901770760C760DBF81C3098
:109AF000196859B15A684A60012393408B605846EF
:109B000000F032FFDBF81C3000221A602B1EB9BFB8
:109B100023F00043059300233360059F964BBCBFA1
:109B200001223260BB4312D1139A42F20F731360C9
:109B3000C7F31303234300F04385239BDFF84CA2B4
:109B4000002B00F045850AF1030300F03FBD9DEDB9
:109B5000047B002251EC170B00238DED0C7BFEF7EC
:109B6000A5FF804658B1139A01231360239B13B1BC
:109B7000239A824B1360DFF818A200F029BD9DEDF7
:109B80000C0B16AA17A9584601F0D0F9C7F30A56CC
:109B90008146002E77D00D9BCDF85080C3F3130380
:109BA000DDE90C0143F07F5343F44013A6F2FF3686
:109BB00019460022724BFEF759FB67A3D3E9002335
:109BC000FEF70CFD66A3D3E90023FEF751FB044624
:109BD00030460D46FEF798FC63A3D3E90023FEF759
:109BE000FDFC02460B4620462946FEF741FB044693
:109BF0000D46FEF7A3FF0022074600232046294614
:109C0000FEF75EFF40B13846FEF77EFC22462B464B
:109C1000FEF74CFF00B9013F162F51D8594B03EB0B
:109C2000C703D3E90023DDE90C01FEF749FF002853
:109C300048D0013F00231293169B9B1B5A1E44BF22
:109C4000C3F101080023089254BF4FF000080893A5
:109C5000002F39DB089B0F973B44089300230A939E
:109C6000099B092B61D8052BC4BF043B0993099BB1
:109C7000A3F10203CCBF00240124032B61D8DFE849
:109C800003F05052352ADDE916631E4406F23243D2
:109C9000202BC1BFC3F140039F4006F2124324FAB8
:109CA00003F3D6BFC3F1200347EA030004FA03F02D
:109CB000FEF71AFC0122A1F1F873013E149277E736
:109CC0000123B8E71290B7E77B420A930023A8EB81
:109CD00007080F93C4E701230B930E9BFB18009317
:109CE0000133012B0393B8BF012306E001230B933B
:109CF0000E9B002B28DD00930393DBF81C00002152
:109D0000042202F114059D4223D94160584600F017
:109D1000EBFD824600283DD11B4B024640F2AF11BD
:109D2000DDE60023E3E70023D6E7012400230993BF
:109D30000B944FF0FF3300930393002212230E92F3
:109D4000DBE701230B93F4E70123009303931A4607
:109D5000F5E701315200D4E761436F63A787D23F33
:109D6000B3C8608B288AC63FFB799F501344D33F0A
:109D700071550108885501080000F07F4155010820
:109D80000000F83F80580108E95501086D550108A9
:109D900040550108DBF81C301860039B0E2B00F2C5
:109DA000A180002C00F09E80002F33DD9C4B07F03B
:109DB0000F0203EBC20393ED007BF8058DED067BEC
:109DC0004FEA271416D5974BDDE90C01D3E9082398
:109DD000FEF72EFDCDE9040104F00F040326914D9A
:109DE00054B9DDE90623DDE90401FEF721FDCDE9E3
:109DF000040128E00226F2E7E10708D5DDE90601C3
:109E0000D5E90023FEF7EAFBCDE90601013664102F
:109E10000835E5E700F0AF807C42814B814D04F0CE
:109E20000F0203EBC203D3E90023DDE90C01FEF7C7
:109E3000D5FBCDE90401241100230226002C40F0BB
:109E40008F80002BD3D1129BDDE90445002B00F05D
:109E50009480754B002220462946FEF731FE0028EB
:109E600000F08B80039B002B00F08780009B002B71
:109E700034DD7B1E069320466C4B00222946FEF7FC
:109E8000ADFBCDE90401009C01363046FEF73CFBFA
:109E9000DDE90423FEF7A2FB654B0022FEF7E8F99B
:109EA0000546A1F15076002C6AD1DDE90401614B31
:109EB0000022FEF7DBF902460B46CDE904232A46D1
:109EC0003346FEF71BFE002840F08782DDE90401DF
:109ED0002A4606F10043FEF7F3FD38BBDDE90C34FA
:109EE000CDE90434179B002BC0F258810E2F00F3EC
:109EF00055814B4B03EBC70393ED007B0E9B002B6F
:109F00008DED007B80F2E580039B002B00F3E18068
:109F10000CD1484B002251EC170BFEF75FFBDDE93B
:109F20000423FEF7E1FD002800F0558200242546B9
:109F30000E9BDB430693564600272146584600F009
:109F400013FD002D00F0BD802FB1AF4203D0394684
:109F5000584600F009FD2946584600F005FDB0E0DE
:109F6000E20705D5D5E90023FEF738FB01360123CA
:109F70006410083562E7022665E7039C069784E7CC
:109F8000274B0B9903EBC40353E9022354440029E4
:109F900054D029490020FEF74BFC33462A46FEF7F1
:109FA00065F9CDE910015646DDE90401FEF7C6FD6D
:109FB0000546FEF7A9FA02460B46DDE90401FEF765
:109FC00055F9303502460B46CDE9042306F8015B0E
:109FD000DDE91023FEF774FD002872D1DDE90423CA
:109FE00011490020FEF742F9DDE91023FEF768FD74
:109FF000002840F0B480A6423FF470AFDDE91001C4
:10A000000A4B0022FEF7EAFA084BCDE910010022C4
:10A01000DDE90401FEF7E2FACDE90401C4E700BF7F
:10A0200080580108585801080000F03F0000244003
:10A0300000001C40000014400000E03F314628466C
:10A04000FEF7CCFACDE9100115945646DDE904017E
:10A05000FEF774FD0546FEF757FA02460B46DDE9AA
:10A060000401FEF703F9303506F8015B02460B46A2
:10A07000A642CDE904234FF0000224D1AB4BDDE929
:10A080001001FEF7F5F802460B46DDE90401FEF784
:10A0900035FD002863D1DDE91023A4490020FEF737
:10A0A000E5F802460B46DDE90401FEF709FD00284C
:10A0B0003FF414AF159E731E159316F8013C302B18
:10A0C000F8D0069F3BE09A4BFEF788FACDE90401F1
:10A0D000BCE7DDE904455646DDE900232046294674
:10A0E000FEF7A6FBFEF72AFD8046FEF70DFADDE936
:10A0F0000023FEF773FA02460B462046294608F174
:10A100003004FEF7B3F806F8014B039DA6EB0A04F2
:10A11000A54202460B4634D1FEF7AAF8DDE900233A
:10A1200004460D46FEF7EAFCC0B9DDE900232046EF
:10A130002946FEF7BBFC10B118F0010F0ED14946BD
:10A14000584600F011FC00233370139B01371F6049
:10A15000239B002B00F03C821E6039E206973346B9
:10A160001E4613F8012D392A07D19A45F8D1069ACF
:10A170000132069230228AF800201A7801321A70D1
:10A180009FE76B4B0022FEF729FA002200230446CA
:10A190000D46FEF78BFC00289ED0D0E70B9A002AD4
:10A1A00000F0E180099A012A00F3C480149A002A81
:10A1B00000F0B78003F233430A9C4646089A012117
:10A1C0001A4458469844089200F082FC05465EB155
:10A1D000089B002B08DDB342089AA8BF3346A8EBC2
:10A1E0000308F61AD31A08930A9BF3B10B9B002BB2
:10A1F00000F0BD808CB129462246584600F020FD73
:10A200004A4601460546584600F078FC4946069005
:10A21000584600F0A9FB069B99460A9B1A1B04D0DE
:10A220004946584600F00CFD81460121584600F091
:10A230004FFC0F9B0446002B00F0CE811A460146CE
:10A24000584600F0FDFC099B012B044600F3958065
:10A25000049B002B40F08D80059BC3F31303002B60
:10A2600040F08980059B23F000431B0D1B052BB19B
:10A27000089B0133089308F1010801230A930F9BFF
:10A28000002B00F0AF81236904EB8303186900F011
:10A29000D3FBC0F12000089B184410F01F0077D0BA
:10A2A000C0F12003042B6BDD089BC0F11C000344AC
:10A2B000804406440893B8F1000F05DD4946424644
:10A2C000584600F017FD8146089B002B05DD21460E
:10A2D0001A46584600F00EFD0446129B002B59D03A
:10A2E0002146484600F072FD002853DA7B1E069393
:10A2F000494600230A22584600F058FB0B9B814632
:10A30000002B00F07181002329460A22584600F0F4
:10A310004DFB009B002B054667DC099B022B41DCB3
:10A3200063E0169BC3F1360346E700BF0000E03F41
:10A3300000002440039B5C1E0A9BA34209DB1C1BFC
:10A34000039B002BBFF639AF039BA8EB030600234A
:10A3500034E70A9B0F9A0A94E31A1A440F92039B5C
:10A36000464600242AE70A9C0B9D46462FE70A9A98
:10A3700056E7002382E7049B80E700230A9382E7E5
:10A3800099D0089A1C331A4498441E44089292E7C4
:10A390000346F6E7039B0697002B20DC0093099BFE
:10A3A000022B1EDD009B002B7FF4C2AD214605224F
:10A3B000584600F0FBFA01460446484600F006FD08
:10A3C00000287FF7B5AD5646312306F8013B069BC2
:10A3D00001330693B0E5039C06972546F3E7039BFC
:10A3E00000930B9B002B00F00381002E05DD294616
:10A3F0003246584600F07EFC05460A9B002B5AD098
:10A400006968584600F070FA064628B9834B024640
:10A4100040F2EF21FFF763BB2A690232920005F197
:10A420000C010C3000F074FE01223146584600F059
:10A4300061FC0AF101030393009B53440B93049BBB
:10A4400003F001032F460A930546039B2146013B77
:10A4500048460093FFF7A4FA3946049000F130080B
:10A46000484600F0B3FC2A4608902146584600F0C2
:10A47000C9FCC268064602BB0146484600F0A6FC7D
:10A480000246314658460E9200F06EFA099B0E9A2B
:10A49000039E42EA03010A9B194310D1B8F1390F18
:10A4A00029D0089B002B02DD049B03F13108009B9F
:10A4B00083F8008041E52846BBE70122E1E7089BDD
:10A4C000002B04DB09990B430A990B4320D1002A86
:10A4D000EDDD49460122584600F00CFC214681463C
:10A4E00000F074FC002803DCE1D118F0010FDED08D
:10A4F000B8F1390FD8D1009A3923137033461E466C
:10A50000013B16F8012C392A51D001321A7014E59A
:10A51000002A07DDB8F1390FEDD0009A08F10103E8
:10A5200013700AE5039B0B9A03F8018C934228D021
:10A53000494600230A22584600F038FAAF428146C5
:10A540004FF000034FF00A023946584607D100F099
:10A550002DFA07460546039B0133039375E700F088
:10A5600025FA2946074600230A22584600F01EFA1B
:10A570000546F0E7009B002BCCBF1E460126564443
:10A58000002749460122584600F0B4FB2146814687
:10A5900000F01CFC0028B1DC02D118F0010FADD195
:10A5A00033461E4613F8012D302AFAD0C5E49A45E9
:10A5B000A5D1069B0133069331238AF80030BCE411
:10A5C000239BDFF85CA01BB10AF10803239A1360F8
:10A5D000504619B0BDE8F08F099B012B7FF738AECC
:10A5E0000F9B0A93012056E6009B002B7FF7D7AE06
:10A5F000564621464846FFF7D3F900F1300806F8E1
:10A60000018B009BA6EB0A029342B3DD494600236F
:10A610000A22584600F0CAF98146EAE7E9550108DE
:10A6200064550108024B0146186800F025B800BFC8
:10A630000C00002070B50F4E0C463168054611B96C
:10A6400000F034FD30602146284600F02FFD431C09
:10A6500003D14FF0FF34204670BDC41C24F0030426
:10A66000A042F8D0211A284600F020FD0130F2D196
:10A67000EFE700BF300300202DE9F843CD1C25F0A3
:10A68000030508350C2D38BF0C25002D064601DBCF
:10A69000A94204D90C2333600020BDE8F883DFF819
:10A6A000D48000F015F9D8F800301C4644BB294688
:10A6B0003046FFF7BFFF431C044658D1D8F800408E
:10A6C0002746002F43D1002C4BD023683946304613
:10A6D00004EB030900F0EAFC814542D121686D1AC0
:10A6E00029463046FFF7A6FF01303AD023682B44B5
:10A6F0002360D8F800305A6862BBC8F800700FE0D9
:10A700002268521B20D40B2A17D96119A342256055
:10A7100018BF5960636808BFC8F8001062514B60E9
:10A72000304600F0DBF804F10B00231D20F0070099
:10A73000C21A1CBF1B1AA350AFE76268A3420CBF2A
:10A74000C8F800205A60EBE723466468AEE73C4651
:10A750007F68B6E71A465B68A342FBD100235360CB
:10A76000DEE70C233360304600F0B8F894E705606C
:10A77000D6E700BF34030020B1F90C202DE9F041E9
:10A78000160705460C4654D44B68002B02DC0B6CB4
:10A79000002B48DDE66A002E45D0002312F48052DB
:10A7A0002F68216A2B6030D0626DA389590705D5C7
:10A7B0006368D21A636B0BB1236CD21A0023E66A6A
:10A7C000216A2846B047431CA38906D129681D2960
:10A7D0002BD82A4ACA40D60727D500226260D9045E
:10A7E0002269226004D5421C01D12B6803B960653F
:10A7F000616B2F60B9B104F14403994202D028463D
:10A8000000F0C6FC002363630DE001232846B04737
:10A810000246501CC9D12B68002BC6D01D2B01D07D
:10A82000162B1ED12F60002022E043F040031BB204
:10A830001BE00F69002FF6D093070E6808BF4B6925
:10A840000F6018BF0023A6EB07088B60B8F1000F5C
:10A85000E9DD216AA66A43463A462846B047002801
:10A8600008DCB4F90C3043F04003A3814FF0FF3013
:10A87000BDE8F0810744A8EB0008E7E701004020AD
:10A8800038B50B6905460C4613B90025284638BD76
:10A8900018B1036A0BB9FFF719F8B4F90C30002BA3
:10A8A000F3D0626ED00704D4990502D4A06DFFF7EF
:10A8B00070F828462146FFF75FFF636EDA0705460A
:10A8C000E4D4A3899B05E1D4A06DFFF763F8DDE72D
:10A8D0000148FFF75EB800BF2C0300200148FFF7D6
:10A8E00059B800BF2C03002070B5C66904460D4658
:10A8F00076B91020FFF796FE0246E06120B9184BAA
:10A9000018486B2100F012FCC0E901660660C660C1
:10A91000E669F36883B1E369DB6853F82500B8B9E9
:10A92000012101FA05F6721D9200204600F01CFC80
:10A9300060B1C0E901560EE021220421204600F05A
:10A9400013FCE369F060DB68002BE4D1002070BDEC
:10A95000026843F825200023C0E90333F7E700BF6E
:10A9600071550108FA55010870B5C66905460C46CF
:10A9700076B91020FFF756FE0246E86120B9094B70
:10A9800009488F2100F0D2FBC0E901660660C6606D
:10A990003CB1EB696268DB6853F82210216043F830
:10A9A000224070BD71550108FA5501082DE9F041AA
:10A9B0000D6907460C461E4601F1140C0020DCF818
:10A9C000003099B202FB01611E0C0B0C02FB063336
:10A9D00089B2013001EB034185424CF8041B4FEA78
:10A9E0001346ECDC0EB3A368AB4219DC6168384651
:10A9F0000131FFF779FF804628B902460C4B0D481C
:10AA0000BA2100F093FB2269023204F10C0192009A
:10AA10000C3000F07DFB21463846FFF7A5FF444689
:10AA200004EB850301355E6125612046BDE8F081B8
:10AA3000E9550108FA550108B0F5803F034636BFD5
:10AA4000030400201020B3F1807F3CBF1B020830BC
:10AA5000B3F1805F3CBF1B010430B3F1804F3CBFBA
:10AA60009B000230002B05DB13F0804F00F101004A
:10AA700008BF202070470368024613F007000BD080
:10AA8000D90721D4980749BF5B089B0801201360B0
:10AA90005CBF13600220704799B209B91B0C1020EB
:10AAA000D9B209B908301B0A190704BF1B090430C1
:10AAB000990704BF9B080230D90703D45B0800F153
:10AAC000010003D0136070470020704720207047BA
:10AAD00010B50C460121FFF707FF024628B9054BC8
:10AAE000054840F2451100F021FB01234461036158
:10AAF00010BD00BFE9550108FA5501082DE9F04FD6
:10AB000017460A693B699A42A8BF3B468946A4BFDB
:10AB10000F4699463D69D9F810A0BB68796805EBE6
:10AB20000A06B34285B0B8BF0131FFF7DDFE30B988
:10AB30000246414B41484FF4B17100F0F7FA00F181
:10AB4000140404EB860E23460022734520D307F13C
:10AB5000140809F1140108EB850501EB8A0302933F
:10AB6000EB1B153B23F0030304331537BD4238BFFD
:10AB700004230193029B03918B420CD8002E03DD2A
:10AB80005EF8043D002B55D0066105B0BDE8F08F9E
:10AB900043F8042BD9E7B1F800A0BAF1000F1FD099
:10ABA000C446A14600275CF8042BD9F800301FFAF0
:10ABB00082FB9BB20AFB0B333B44D9F80070120CAA
:10ABC0003F0C0AFB027202EB13429BB243EA0243C0
:10ABD000654549F8043B4FEA1247E4D8019BE7502A
:10ABE000039BB3F802900431B9F1000F20D0236821
:10ABF0004746A4464FF0000AB7F800B0BCF8022060
:10AC000009FB0B2252449BB243EA02434CF8043B3B
:10AC100057F8043B4FEA134ABCF8003009FB0A33EB
:10AC200003EB1243BD424FEA134AE5D8019AA35001
:10AC300004349FE7013EA1E7E9550108FA550108F0
:10AC40002DE9F843154612F0030207460E4607D0D9
:10AC5000254C013A002354F82220FFF7A7FE0646B0
:10AC6000AD103DD0FC697CB91020FFF7DBFC02463B
:10AC7000F86128B91D4B1E4840F2B31100F056FA96
:10AC8000C0E901440460C460D7F81C80D8F80840CB
:10AC90004CB940F271213846FFF71AFF0023C8F87B
:10ACA0000800044603604FF00009EB070AD531465F
:10ACB00022463846FFF722FF314680463846FFF7E6
:10ACC00053FE46466D100BD0206838B92246214607
:10ACD0003846FFF713FF2060C0F800900446E4E711
:10ACE0003046BDE8F88300BF485801087155010897
:10ACF000FA5501082DE9F0470C464968236903EB32
:10AD00006218A368074691464FEA621A08F10106E5
:10AD1000B3420BDB3846FFF7E7FD054648B902466C
:10AD2000284B29484FF4EF7100F000FA01315B0025
:10AD3000EEE7002300F1140100F11002184653451C
:10AD400033DB20692AEAEA7A04F1140319F01F09B7
:10AD500001EB8A0103EB800C2BD0C9F1200E8A464F
:10AD60000022186800FA09F010434AF8040B53F85F
:10AD7000042B9C4522FA0EF2F3D8ACEB0403153BEE
:10AD800023F00303043304F11500604588BF042356
:10AD9000CA500AB108F10206013E38462E6121462A
:10ADA000FFF7E2FD2846BDE8F08742F8040F0133C3
:10ADB000C5E7043953F8042B41F8042F9C45F9D812
:10ADC000EAE700BFE9550108FA5501080A69034698
:10ADD0000069801A30B50ED11433143103EB8204AC
:10ADE00001EB820154F8045D51F8042D954203D023
:10ADF00005D24FF0FF3030BDA342F3D3FBE7012073
:10AE0000F9E700002DE9F74F894606461146484606
:10AE10001446FFF7DBFF051E12D129463046FFF727
:10AE200063FD024628B93F4B40F237213E4800F00F
:10AE30007DF90123C0E90435104603B0BDE8F08F69
:10AE4000BCBF4B46A1463046D9F80410BABF1C46D9
:10AE500001250025FFF748FD024618B9314B40F2A5
:10AE60004521E3E7D9F810702669C56009F11003A0
:10AE700009F1140504F1140E00F1140B05EB870819
:10AE80000EEB86060193D9464FF0000C019B5EF84D
:10AE9000040B53F804AF01931FFA8AF3194683B2E7
:10AEA000CB1A000C6344C0EB1A4000EB23409BB26A
:10AEB00043EA0043764549F8043B4FEA204CE5D885
:10AEC000331B153B23F0030315340433A64238BF6C
:10AED00004231D445B441E462C4644450ED308F112
:10AEE0000301491B21F00301033DA84538BF0021A0
:10AEF0000B4453F8041D91B117619DE754F8041BEE
:10AF0000E646080C1CFA81FC714400EB2C4089B227
:10AF100041EA004146F8041B4FEA204CDDE7013FBF
:10AF2000E7E700BFE9550108FA5501082DE9F743A5
:10AF30000F46012159EC108B1646FFF7D5FC04464D
:10AF400030B90246234B244840F20F3100F0EEF8AE
:10AF5000C9F30A55C9F313030DB143F480130193E8
:10AF6000B8F1000323D068460093FFF784FDDDE9C4
:10AF70000012D0B1C0F1200302FA03F30B43C24028
:10AF800063610192019BA361002B0CBF012202228D
:10AF90002261A5B1A5F2334505443D60C0F13500FD
:10AFA0003060204603B0BDE8F0836161EAE701A8A4
:10AFB000FFF761FD019B636120300122E8E704EBAC
:10AFC0008203A0F2324038601869FFF735FDC0EB0C
:10AFD0004210E5E7E9550108FA55010810B50C469D
:10AFE000B1F90E1000F050F80028ABBF636DA389D3
:10AFF0001B1823F48053ACBF6365A38110BD2DE9FA
:10B00000F0411F468B89DB0505460C46164605D5E3
:10B01000B1F90E100223002200F024F8A389B4F93C
:10B020000E1023F48053A38132463B462846BDE8E8
:10B03000F04100F04BB810B50C46B1F90E1000F01D
:10B0400011F8431CA38915BF606523F4805343F4B2
:10B050008053A38118BFA38110BDB1F90E1000F079
:10B0600047B8000038B5074D04460846114600228F
:10B070002A601A4609F0C6FE431C02D12B6803B1B0
:10B08000236038BD3803002038B5074D0446084614
:10B09000114600222A601A4609F09CFE431C02D188
:10B0A0002B6803B1236038BD3803002038B5064D46
:10B0B0000023044608462B6009F05CFE431C02D1C5
:10B0C0002B6803B1236038BD3803002038B5074D25
:10B0D00004460846114600222A601A4601F098FDEF
:10B0E000431C02D12B6803B1236038BD3803002014
:10B0F00038B5064D0023044608462B6009F078FE5B
:10B10000431C02D12B6803B1236038BD38030020F3
:10B110000A44914200F1FF3300D1704710B511F895
:10B12000014B03F8014F9142F9D110BD1FB51446F0
:10B130001A46094B1B680546D8684CB1074B00916D
:10B14000CDE9013406492B4600F07EF800F09BF86B
:10B15000044B1C46F3E700BF0C00002064560108B6
:10B16000715601084B57010870B5A1FB025434B960
:10B170002946FFF781FA064628B9304670BD0C22F1
:10B1800002600026F9E72A462146FEF7D5FBF4E7E0
:10B1900038B50546002941D051F8043C0C1F002B5E
:10B1A000B8BFE418FFF794FB1D4A136833B9636016
:10B1B00014602846BDE83840FFF790BBA34208D989
:10B1C000206821188B4201BF19685B68091821604B
:10B1D000EDE71A465B680BB1A342FAD91168501823
:10B1E000A0420BD120680144501883421160E0D185
:10B1F00018685B68536008441060DAE702D90C23D2
:10B200002B60D6E7206821188B4204BF19685B6861
:10B21000636004BF091821605460CAE738BD00BFED
:10B220003403002082B001B901A942B14BB11378B7
:10B230000B601278101E18BF012002B07047104634
:10B24000FBE76FF00100F8E70EB403B5014603AB6E
:10B25000054853F8042B0068019300F045F802B04C
:10B260005DF804EB03B070470C000020034608466D
:10B2700041B1FF2A04D98A221A604FF0FF3070478B
:10B280000A700120704708B5062000F07DFA012001
:10B2900009F09AFD9368013B002B10B4936008DA23
:10B2A0009469A34201DB0A2903D15DF8044B00F045
:10B2B00033B91368581C1060197008465DF8044BC8
:10B2C0007047F8B506460F461446D518AC4201D172
:10B2D000002007E014F8011B3A463046FFF7DAFF7A
:10B2E000431CF3D1F8BD00002DE9F04F0D469DB091
:10B2F00014469846064618B1036A0BB9FEF7E6FAFB
:10B300006B6ED90705D4AB899A0502D4A86DFEF7F8
:10B3100040FBAB891B0701D52B699BB929463046F9
:10B3200000F038F970B16B6EDC0704D54FF0FF30D8
:10B330001DB0BDE8F08FAB899805F7D4A86DFEF776
:10B3400029FBF3E70023099320238DF82930CDF85A
:10B350000C803023DFF8AC818DF82A304FF00109E2
:10B3600023469A4613F8012B0AB1252AF9D1BAEBE4
:10B37000040B0BD05B46224629463046FFF7A1FF5F
:10B38000013000F0A780099A5A4409929AF80030D7
:10B39000002B00F09F8000234FF0FF32CDE9052302
:10B3A0000AF1010A049307938DF853301A93544617
:10B3B000052214F8011B5348FCF7F2FE049AD8B991
:10B3C000D10644BF20238DF85330130744BF2B23ED
:10B3D0008DF853309AF800302A2B15D0079A54462E
:10B3E00000204FF00A0C214611F8013B303B092B9D
:10B3F0004BD9B0B1079214E0A0EB080309FA03F3AC
:10B4000013430493A246D2E7039B191D1B680391C3
:10B41000002BBBBF5B4242F0020207930793B8BF09
:10B42000049223782E2B0AD163782A2B32D1039BE6
:10B430001A1D1B68039243EAE37302340593DFF895
:10B44000D4A0217803225046FCF7AAFE38B1049B11
:10B45000A0EB0A004022824013430134049314F805
:10B46000011B29488DF828100622FCF799FE0028B8
:10B470003FD0264B1BBB039B073323F00703083346
:10B480000393099B3B4409936AE70CFB02320C4689
:10B490000120A8E700230134059319464FF00A0C58
:10B4A000204610F8012B303A092A03D9002BC6D0C8
:10B4B0000591C4E70CFB012104460123F0E703AB2F
:10B4C00000932A46124B04A93046FDF7BDFD0746FE
:10B4D000781CD6D16B6ED90705D4AB899A0502D4F6
:10B4E000A86DFEF757FAAB895B063FF51FAF0998C9
:10B4F0001EE703AB00932A46054B04A93046FEF72E
:10B500003BF8E4E7A0560108AA5601084990000854
:10B51000C3B20008A6560108F8B50E461446054603
:10B5200018B1036A0BB9FEF7D1F9A369A360A38927
:10B530001A0701D5236943B92146284600F02AF8A5
:10B5400018B14FF0FF373846F8BD23682269981AC2
:10B550006369F6B28342374605DC21462846FFF789
:10B560008FF90028EDD1A368013BA36023685A1C22
:10B5700022601E706269431C9A4204D0A389DB07D3
:10B58000E1D50A2EDFD121462846FFF779F90028B8
:10B59000D9D0D6E738B5294B054618680C4618B1FE
:10B5A000036A0BB9FEF792F9B4F90C30190722D4EB
:10B5B000DA0607D409222A6043F04003A3814FF042
:10B5C000FF3033E0580712D5616B41B104F14403F9
:10B5D000994202D02846FFF7DBFD00236363A3896D
:10B5E00023F02403A3810023636023692360A389DC
:10B5F00043F00803A38123694BB9A38903F42073A3
:10B60000B3F5007F03D02146284600F03FF8B4F997
:10B610000C3013F001020AD00022A260626952428B
:10B62000A261226942B913F08000C5D138BD9907E3
:10B6300058BF6269A260F4E70020F7E70C00002021
:10B6400070B50C46B1F90E10002996B015461E468D
:10B650000DDAA38913F0800F4FF0000114BF4023CF
:10B660004FF48063002031602B6016B070BD6A46D5
:10B6700000F0B6F80028ECDB019901F47041A1F567
:10B680000053594259414FF48063EBE78B89F7B57A
:10B690009D0706460C4607D504F147032360236146
:10B6A0000123636103B0F0BD01AB6A46FFF7C8FF39
:10B6B000009F054639463046FEF7DEFF48B9B4F92B
:10B6C0000C309A05EED423F0030343F00203A38168
:10B6D000E2E7A389206043F08003A381019BC4E9D2
:10B6E00004075BB1B4F90E10304600F055F828B1EC
:10B6F000A38923F0030343F00103A381A3891D431E
:10B70000A581CFE7884210B501EB020402D984423B
:10B71000234607D8431EA14208D011F8012B03F895
:10B72000012FF8E7024401468A4200D110BD13F808
:10B73000014D02F8014DF7E71F2938B505460C46C3
:10B7400004D9162303604FF0FF3038BDC26B12B12D
:10B7500052F821304BB9284600F040F82246014605
:10B760002846BDE8384000F027B8012B0AD0591C04
:10B7700003D1162303600120E7E7002142F82410DB
:10B78000204698470020E0E7024B01461868FFF783
:10B79000D3BF00BF0C00002038B5064D002304467F
:10B7A00008462B6009F02CFB431C02D12B6803B127
:10B7B000236038BD3803002038B5074D0023044608
:10B7C000084611462B6009F0F7FA431C02D12B689A
:10B7D00003B1236038BD00BF3803002009F0EABA86
:10B7E00038B5074D00230446084611462B6009F082
:10B7F00002FB431C02D12B6803B1236038BD00BF9C
:10B80000380300202DE9F041074614460D4621B9C2
:10B81000BDE8F0411146FEF72FBF2AB9FFF7B8FC8B
:10B8200025462846BDE8F08100F01AF88442064615
:10B8300002D8B4EB500FF4D821463846FEF71CFF6F
:10B84000804608B94546ECE7B4422246294628BF5F
:10B850003246FFF75DFC29463846FFF799FCF1E7D1
:10B8600051F8043C181F002BBCBF0B58C018704780
:10B8700038B50546072445FA04F2114802F00102E2
:10B880004FF4805104F03EF90D4801224FF48041FD
:10B8900004F038F90A4800224FF4804104F032F9EC
:10B8A000013CE8D2064801224FF4005104F02AF985
:10B8B000BDE83840024800224FF4005104F022B99C
:10B8C00000040240024B1860024B1980704700BF11
:10B8D000400300203C030020034B1988034B002247
:10B8E000186804F00FB900BF3C030020400300209B
:10B8F000034B1988034B0122186804F003B900BFF9
:10B900003C0300204003002010B5FFF7F1FF402169
:10B91000054804F0F1F80446FFF7DEFFB4FA84F0BE
:10B920004009C00010BD00BF000002401FB59623B3
:10B930000A468DF80F0000930DF10F010123044812
:10B9400006F026FB002818BF092005B05DF804FBAF
:10B95000A817002013B504460DF10701000AFFF7F0
:10B96000E5FF20B90DF10701E0B2FFF7DFFF02B0FC
:10B9700010BD10B5FFF7C8FF0828FBD0FFF7B8FFD0
:10B980004FF49850FFF7E6FF0446012004F060FBF7
:10B99000FFF7A2FF204610BD10B5FFF7B5FF08283E
:10B9A000FBD0FFF7A5FF4FF48050FFF7D3FF04460D
:10B9B000012004F04DFBFFF78FFF204610BD37B587
:10B9C00004460D46FFF7A0FF0828FBD000232B807C
:10B9D0008DF80730FFF78CFFC4F3090040F4C05026
:10B9E000FFF7B8FF044620B1FFF776FF204603B00B
:10B9F00030BD0DF10701FFF799FF04460028F3D190
:10BA00002B889DF8072043EA42232B800DF1070184
:10BA1000FFF78CFF04460028E6D12B889DF807200D
:10BA200043EA42032B800DF10701FFF77FFF044635
:10BA30000028D9D12B889DF8072043EAD2132B8008
:10BA4000012004F005FBCFE773B506460D46FFF76E
:10BA50005BFF0828FBD000238DF80730FFF789FF34
:10BA6000044658B9FFF744FFC6F3090040F4A0505C
:10BA7000FFF770FF044620B1FFF72EFF204602B00B
:10BA800070BD280A0DF107018DF80700FFF74EFF82
:10BA900004460028F0D1E8B20DF107018DF8070047
:10BAA000FFF744FF04460028E6D1FFF715FF022008
:10BAB00004F0CEFAFFF770FF0446DFE7024470B5EA
:10BAC00004468E1E95B2AC4201D1002008E020460B
:10BAD00036F8021FFFF7B8FF0134A4B20028F2D0F5
:10BAE00070BD00000000000008B510EE100AFCF761
:10BAF0001DFD08A3D3E90023FCF770FD044B0022D1
:10BB0000FCF7B6FBFDF742F800EE100A08BD00BFD7
:10BB100000004040CDCCCCCCCCCCFC3F014BB3F8AA
:10BB2000FD007047007F0008F0B50023134F01446B
:10BB30001C461D4688420DD1002C08DDC4F10504C9
:10BB4000A5400E4905F01F05495DD1540133002180
:10BB5000D154F0BD10F8016B083446EA05251344B2
:10BB6000042C01DC9B1AE5E7053C45FA04F606F0D7
:10BB70001F06BE5D03F8016BF2E700BF495A0108DA
:10BB8000F0B589B004F084FA054604F07BFA044667
:10BB900004F072FA00BA2DBA02900C21684624BA59
:10BBA00003AA009501940C4DFFF7BEFF00230B483C
:10BBB00019462D2612F8014B14B9C45409B0F0BD32
:10BBC00031B105FB01F7B7F1333F9CBFC6540133D8
:10BBD000C45401310133EDE7CDCCCCCC4603002079
:10BBE000064B01781A7861F300021A70027819780E
:10BBF000C2F3400262F34101197070475E030020F6
:10BC0000074A127812F0010F03464FF0010005D0E9
:10BC1000044A98401378034313700020704700BF14
:10BC20005E03002060030020074A127812F0010F23
:10BC300003464FF0010006D0044A9840137823EAE7
:10BC400000031370002070475E0300206003002093
:10BC500008B5064B1B78DB0705D5054B1878FFF7B1
:10BC600007FE002008BD0120FCE700BF5E030020A6
:10BC70006003002008B5094B1B7803F00303032B76
:10BC800009D1431E5A4206485A414FF4004103F07D
:10BC900039FF002008BD0120FCE700BF5E03002043
:10BCA0000004024030B5244B1B78DB0787B040D539
:10BCB000224B009303F10433019300F00303ADF82A
:10BCC0000830C0F38103ADF80A30C0F30113ADF8BA
:10BCD0000C30C0F38113ADF80E30C0F30123ADF882
:10BCE0001030C0F38123ADF81230C0F30133C0F33C
:10BCF0008130ADF81430ADF8160002AD694600246D
:10BD000035F8023B012B0ED10878FFF779FF38B9DF
:10BD10000134082C01F10101F2D1FFF799FF00B1C4
:10BD2000092007B030BD002BF2D10878FFF77CFF67
:10BD3000EDE70120F5E700BF5E03002000010203EC
:10BD400010B5084B002420461C70FFF791FD2046DB
:10BD5000FFF790FF044A137823F003031370204683
:10BD600010BD00BF600300205E03002037B59DF8C2
:10BD7000043023F0030343F0030301A88DF80430DB
:10BD8000FFF72EFF0120FFF775FF0024E5B22846DC
:10BD9000FFF736FFFFF75CFF322004F059F9284621
:10BDA000FFF742FF0134FFF753FF322004F050F950
:10BDB000082CEBD10020FFF75DFF03B0BDE8304059
:10BDC000FFF7BEBF000000000D4B10B50446186819
:10BDD00070B1FCF789FB0B46024607A1D1E90001CF
:10BDE000FCF726FDFCF7D2FE03460020236010BDC1
:10BDF00000230920FAE700BF85EB51B81E85B34048
:10BE00008C0300200000000007EE900AF8EE677A2D
:10BE10009FED0D7A67EE807A10B567EE877A0C4653
:10BE200017EE900AFCF782FB05A3D3E90023FCF789
:10BE3000FFFCFCF7ABFE2060002010BDAFF30080DC
:10BE400046175D74D145B73F0000803900000000FF
:10BE5000B5EE400AF1EE10FA10B5044625D0184BA5
:10BE60005B6813B3DFED177A20EE270A07EE903AEE
:10BE7000F8EE677A60EE277A17EE900AFCF756FB29
:10BE800002460B460AA1D1E90001FCF7EFF90AA32B
:10BE9000D3E90023FCF7CCFC0B4B0022FCF7E8F9BC
:10BEA000FCF774FE2060002010BD0920FCE700BFF5
:10BEB00052B81E85EB51E83F7B14AE47E17A643FF0
:10BEC0008C03002000008039000039402DE9F04F3C
:10BED0002DED028B8DB0CDE9021204464249434854
:10BEE000052204F081F930B1092528460DB0BDECDA
:10BEF000028BBDE8F08F322004F0AAF83B4804F032
:10BF000003FA05460028EFD107A8FFF75DFF0928CF
:10BF1000EAD09DED078A2046B0EE480AFFF798FF69
:10BF20000928E1D0324C2E46029B0022F71C43F830
:10BF30002620FFB2234608AA04F1080E18685968A3
:10BF40009446ACE80300083373456246F6D118689E
:10BF5000CCF800009B88ACF8043061899DF82090F3
:10BF60000091A189019119F001016288A388B4F8B8
:10BF700006B0B4F808A008D13846013600F0CCFA73
:10BF8000032E04F10E04CFD1AFE7CDE90432194BF3
:10BF900053F82680039B404603EB8601B0EE480A27
:10BFA000FFF732FF19F0020F07D0059A424504D877
:10BFB000049B434501D30121DEE719F0040F05D0AE
:10BFC000C34503D8C24501D30221D5E719F0080FB4
:10BFD00007D0009B434504D8019B434501D303216F
:10BFE000CAE70021C8E700BF8C030020FC15002031
:10BFF000620300209403002070B5274C274D284E83
:10C00000224629463046FFF761FF264809F00EF91F
:10C01000254809F00BF9254B2548596809F09EF889
:10C020003068FCF783FA02460B46224809F096F87E
:10C0300096ED000AFFF758FD10EE100AFCF776FAAD
:10C0400002460B461C4809F089F829681B4809F08C
:10C0500085F82068FCF76AFA02460B46184809F092
:10C060007DF86968174809F079F86068FCF75EFAAE
:10C0700002460B46144809F071F8A968134809F004
:10C080006DF8A068FCF752FABDE8704002460B4616
:10C090000F4809F063B800BFAC030020A0030020E4
:10C0A000B8030020CD560108B15601088C030020CA
:10C0B000CF560108EC56010808570108255701081A
:10C0C000365701084C5701085D570108735701089E
:10C0D0008457010807B500200DF10601FFF76FFC3A
:10C0E00090B9BDF8062043F63E639A42074B1A7892
:10C0F00013BF60F3000242F001021A701A7018BFF9
:10C10000042003B05DF804FB0920FAE74403002093
:10C1100038B505460C46FFF7DDFF68B1294601201A
:10C12000FFF74DFC08B1092038BD21460220FFF77A
:10C1300046FC0028F8D0F6E70420F5E730B587B0D4
:10C14000FFF7ECFC1822002104466846FDF7F4FBDB
:10C150000D49684600224D7811F8023B013243EA4E
:10C1600005230C2A20F8023BF5D169460320FFF78E
:10C17000A5FC10B1092007B030BD21460F20FFF704
:10C1800063FC0028F7D0F5E74603002007B543F627
:10C190003E610020FFF758FC18B1092003B05DF89C
:10C1A00004FB01210846FFF74FFC0028F5D1FFF7FB
:10C1B000C5FF0028F1D1ADF80400ADF806000DF17F
:10C1C000060101A8FFF7A4FF0928E6D0BDF8061074
:10C1D000013189B20220ADF80610FFF735FC0028C6
:10C1E000DBD1034A137843F001031370D6E700BF95
:10C1F0004403002008B50A4C204604F0EAFB032162
:10C20000002000F089F94FF4967003F021FF03211C
:10C21000012000F081F94FF4967003F019FFEBE76D
:10C22000981600202DE9F84305463748374C08F0AA
:10C23000FDFF00F0FFF900F019FC00F0CFFA09272C
:10C240003348DFF8D080DFF8D89004F0C2FB4FF419
:10C250000041404603F050FCB8B30321072000F032
:10C260005BF90021084600F057F9284603F0F0FE7C
:10C270000321002000F050F90021072000F04CF9C4
:10C28000284603F0E5FE23785A062BD521484FF4C3
:10C29000004103F031FC98BB1F4808F0C7FF0021A4
:10C2A000084600F039F90021072000F035F9002197
:10C2B000062000F031F9238823F4F073238000F086
:10C2C000BDFBBDE8F84300F033BA484608F0AEFFC6
:10C2D00000F092FA06460028B9D1104808F0A6FFEF
:10C2E0003746B4E70B484FF4004103F005FC012842
:10C2F00002BF237843F04003237023785B06C5D444
:10C30000002F9DD1C8E700BF9A57010844030020C1
:10C310009816002000000240F4570108D757010882
:10C32000B157010872B6FEE708B50A4B1B78DB0768
:10C330000ED4094A137823F0110343F0110313704C
:10C3400000F094FB00F04AFA00F074F9FFF752FF96
:10C3500008BD00BF44030020BC03002008B5134BF8
:10C360001B781F2B05D80021BDE80840072000F0EE
:10C37000D3B813F0600F0BD00D4B1B78D90705D540
:10C38000BDE808404FF49670FFF74CBF0221EBE781
:10C390001A0609D5064B1B78DB0703D54FF47A70D4
:10C3A000FFF740FF0121DFE708BD00BF4403002085
:10C3B000C00300202DE9F843DFF8349080460F4693
:10C3C0000225002601240A2301222946484604F0BA
:10C3D00027FA18B9731C08F80640DEB20134E4B23B
:10C3E0000235802CADB2EED13E700020BDE8F8835E
:10C3F0004416002070B5ADF5926D04AD00240DF12A
:10C40000070128468DF89040FFF7D4FF0B4E9DF8AA
:10C410000720E3B29A4206D824A9094808F09EFEF4
:10C420000DF5926D70BDEA5C314602A808F074FE0D
:10C4300002A924A808F002FF0134E8E70B5801081C
:10C440001458010825490B78024613F0010043D027
:10C45000022A03D813F0100006D17047D01E02281C
:10C4600002D813F0400037D0072A34D8DFE802F0B2
:10C4700004090E131920272D194B187800F003001A
:10C480007047174B1878C0F381007047144B187829
:10C49000C0F3011070471B061DD5114B1878800999
:10C4A0007047487810F0010016D00D4B5878E5E73A
:10C4B000487810F002000FD0094B5878E3E713F0EA
:10C4C000040009D0064B5878E2E713F0200003D0AF
:10C4D000034B5878E3E70020704700BFBC030020FF
:10C4E000BE03002038B50B4C0025E8B2FFF7AAFFC9
:10C4F0000328024605D10122A188206803F002FB2F
:10C5000001E00028F8D00135082D04F10804ECD131
:10C5100038BD00BF6C5A010870B50C460546FFF7E0
:10C5200091FFA04263D0334B1B7813F001065ED01D
:10C53000D80601D4022D26D9990701D4062D22D080
:10C540009A0601D4072D1ED05B0602D4EB1E022BE7
:10C5500019D97CB1022D0DD8274A137823F03F0357
:10C5600013700526072D0CD8DFE805F0060F141907
:10C570001E2429360026F5E71F4B1A7864F30102C2
:10C580001A70FFF7AFFF304670BD1B4B1A7864F38B
:10C590008302F5E7184B1A7864F30512F0E7164B9F
:10C5A0001A7864F38712EBE7134B5A7864F30102AD
:10C5B0005A70E6E7104B5A7864F38302F8E70E4BA3
:10C5C000022C5A7805D1012161F305125A70052613
:10C5D000D7E764F30512EBE7631E012B064B5A788D
:10C5E00002D842F0C002F1E764F38712E0E70126C7
:10C5F000C9E700BFBC030020BE030020032870B5BC
:10C60000044612D088B10A4E0025E8B2FFF71AFF9F
:10C61000844203D1B188306803F079FA0135062DE0
:10C6200006F10806F1D1002070BD0920FCE700BF2B
:10C630006C5A010808B5074B1B7803F00B030B2B52
:10C6400005D103210620FFF767FF002008BD012068
:10C65000FCE700BFBC03002038B5114B1B7803F08A
:10C660000703072B1AD1032403210620FFF754FFE9
:10C67000054610B10924204638BD142003F0E8FC1B
:10C6800029460620FFF748FF0028F3D12820013C67
:10C6900003F0DEFC14F0FF04E6D1ECE70124EAE746
:10C6A000BC03002008B518B101280DD009200AE00C
:10C6B0000A4B1B78012B0ED10146094806F0BEF942
:10C6C0000028F3D1002008BD044B5B78012BFAD180
:10C6D00004480021F2E70120F5E700BFC203002073
:10C6E00000180020481800204FF6FF7399420ED022
:10C6F000B1F5805F02D218B101280AD00920704735
:10C70000084B1B78012B0AD1074B1B68596300208B
:10C710007047044B5B78012B02D1044BF5E70120F5
:10C72000704700BFC20300200018002048180020F6
:10C7300038B5154C2378012B13D06578012D0ED117
:10C74000A388B3F57A7F0AD82846FFF7ABFF0928FC
:10C7500010D061882846FFF7C7FF09280AD00020BB
:10C7600009E06388B3F57A7FE7D80020FFF79AFFE6
:10C77000092801D1092038BD61880020FFF7B4FFE6
:10C780000928DAD1F6E700BFC203002008B5014648
:10C7900018B9FFF7A9FF092801D1092008BD0348EE
:10C7A00006F088F90028F9D0F7E700BF001800204C
:10C7B00010B5044620B1012809D00924204610BD37
:10C7C000054B1870FFF7E2FF0928F7D1F5E7024B98
:10C7D00000225A70F1E700BFC203002008B5002014
:10C7E000FFF7E6FF09281EBF024B00225A700920FE
:10C7F00008BD00BFC20300201FB50A2003F028FCBB
:10C8000000221C491C4C104607F06AFC1E2003F055
:10C810001FFC1A4804F08CFD636A43F400630A208D
:10C82000636203F015FC636A23F40063636200F043
:10C8300063FD0A2003F00CFC01221149114807F0A6
:10C840004FFC024618B10924204604B010BD094827
:10C8500001A907F0FCFC04460028F4D10A4801A90C
:10C86000FBF7F6FC0028EFD0074807F05FFD002833
:10C87000EAD0E8E74B5701080038024024170020AF
:10C88000081C0020D0030020175801082DE9F041B2
:10C890001A4EDFF8748007460C4619483246414666
:10C8A00007F048FC054638BB3368D8F800105A89B1
:10C8B0001B6A023BA3FB0236760246EAD356C3F359
:10C8C000415343EA860307EE903AA2FB0121F8EEBA
:10C8D000E77A4902C7ED007A500241EAD251FCF7EB
:10C8E0006DFA9FED087A07EE900A67EE877AC4ED3D
:10C8F000007A2846BDE8F0810925FAE7CC0300203C
:10C900004B57010800008030C803002000000000E1
:10C9100037B501A96846FFF7B9FF114D044638B194
:10C920002B7843F020032B700924204603B030BD40
:10C930000198FBF7FBFD08A3D3E90023FCF7C0F83F
:10C940002B7803F05F0320B163F07F032B70072483
:10C95000EBE72B70E9E700BF9A9999999999A93F5C
:10C960004403002010B51D481D4C4FF4004103F056
:10C97000C3F82378024613F0400003D0012A12D1F5
:10C98000062010BD32B96378DA070FD5BDE8104034
:10C99000FFF7BEBF012A06D143F0400311492370BF
:10C9A00007F09EFBECE76378DB0708D4FFF724FF72
:10C9B00028B1237843F0200323700920E1E723887E
:10C9C00023F4A07343F480732380FFF7A1FF0028B2
:10C9D000D7D1237860F345132370D2E700000240DB
:10C9E000440300204B57010803680F4A934201D1CA
:10C9F00003F01CBB0D4A934205D10D4A137843F056
:10CA00000403137070470B4A934204D1084A137809
:10CA100043F00203F5E7084A9342F3D1044A13783E
:10CA200043F00803EDE700BF0000014000080040AC
:10CA30004403002000400140000C004008B50848B5
:10CA400005F09EFC08B1092008BD064805F098FCD9
:10CA50000028F8D1044805F093FC0028F4D0F2E750
:10CA600020190020D81800209018002008B50B4885
:10CA700005F0B8FC08B1092008BD094805F0B2FC72
:10CA80000028F8D1074805F0ADFC0028F3D1064A8C
:10CA9000137823F00E031370EEE700BF2019002077
:10CAA000D81800209018002044030020013910B548
:10CAB000072931D8DFE801F004090E13181D2229D7
:10CAC00090422CBF0320002010BD90428CBF032059
:10CAD0000020F9E7904214BF03200020F4E79042C1
:10CAE00034BF03200020EFE7904294BF03200020D2
:10CAF000EAE790420CBF03200020E5E790420DD307
:10CB000098428CBF03200020DEE7904208D3984271
:10CB100094BF03200020D7E70920D5E70320D3E7FF
:10CB20000020D1E710B4092822D8DFE800F0050979
:10CB30001116051A1C1E050501205DF8044B7047EF
:10CB40000C488268002340685DF8044BFFF7AEBFD5
:10CB50000848C26800238068F6E706480023C268D8
:10CB6000F1E70448EFE70348F5E70248C068EBE760
:10CB70000920E2E7A0030020F8B5144D070105EBFA
:10CB80000014E85DA3886288010900F00F00FFF738
:10CB9000C9FF0228064616D1E088FFF783F86389AB
:10CBA0004FF6FF72934218BF094A3D441CBFC3F3BE
:10CBB0000B035380AB894FF6FF7293421EBF044AAA
:10CBC000C3F30B0393803046F8BD00BF0C14002064
:10CBD000C203002038B50024E0B2FFF7CDFF0928DA
:10CBE00002D10924204638BD0134192CF4D1FFF7B5
:10CBF0002FF804460028F4D1044D6988FFF774FD2E
:10CC0000A9880120FFF770FDECE700BFC2030020F8
:10CC100010B5C8231446034892B206F072F82046B5
:10CC200010BD00BF781B0020484A08B5137823F0D8
:10CC3000310343F031031370454A137843F0010385
:10CC4000137003F0D9F900F003FA03210120FFF774
:10CC500063FC00F089F800F057FA00F001FB00F0E7
:10CC600025F900F093FA01F00DF900F045FB00F012
:10CC70000BFC00F025FE00F067FC00F0B7FC00F0B4
:10CC8000EDFC00F06DFE00F0A1FE00F0D5FE00F01E
:10CC9000EFFE01222F48022102F034FF08212E4826
:10CCA000FEF710FEFEF76CFFFFF770FAFFF712FABF
:10CCB00008B1FFF739FBFFF741FA08B1FFF732FB84
:10CCC000FFF736FDFFF7BAFE4FF4FA7003F0C0F934
:10CCD000FFF7C2FCFFF790F9FFF748F8FFF78AFB70
:10CCE0004FF4FA7003F0B4F91C481D4C1D4D08F0C8
:10CCF0009DFA18480022022102F004FF00F09AFA7F
:10CD0000FFF730FEFFF72AFB2378590706D50220EC
:10CD1000FFF774FC237823F00403237023789A0729
:10CD200006D50120FFF76AFC237823F00203237065
:10CD300023781B0705D5FFF74DFF237823F0080361
:10CD40002370284603F045FEDAE700BFBC0300204D
:10CD5000C0030020000802400000024023580108E0
:10CD600044030020981600202DE9F04314228BB0D4
:10CD70000DEB02000021FCF7DFFD0024474B00947F
:10CD80001A6BDFF82481464D464E42F001021A63C9
:10CD90001A6B02F001020092009A01941A6B42F0A1
:10CDA00002021A631A6B02F002020192019A0294C3
:10CDB0001A6B42F004021A631A6B02F00402029228
:10CDC000029A03941A6B42F008021A631A6B02F07B
:10CDD00008020392039A04941A6B42F080021A63C9
:10CDE0001B6B03F080030493224640460F21049BF3
:10CDF00002F088FE224628461F2102F083FE4046AC
:10CE00000122102102F07EFE224630464FF474418A
:10CE100002F078FE01223046102102F073FE012755
:10CE20004FF01F0905A94046CDE90597CDE9074414
:10CE300002F020FD05A92846CDE90597CDE9074474
:10CE400002F018FD0422032305A93046CDE905238D
:10CE5000079402F00FFD4FF2104305A93046CDE9CB
:10CE60000537CDE9074402F005FD02234FF4807138
:10CE7000CDE90513284605A9CDE90744099402F038
:10CE8000F9FC4FF4004305A92846CDE90534079481
:10CE900002F0F0FC0BB0BDE8F08300BF00380240A8
:10CEA0000000024000040240000802401FB51022AA
:10CEB00000216846FCF740FD2C48DFF8B8C02C4A3A
:10CEC00082624FF44033C0E900C300230124836031
:10CED00080F82030C362C360052304610476C36117
:10CEE00080F83040446103F0D9F808B1FFF71AFA2E
:10CEF0001123CDE900341D4803236946029303F052
:10CF000015FB08B1FFF70EFA02231024CDE9004308
:10CF1000164806236946029303F008FB08B1FFF7A1
:10CF200001FA0F200323CDE9000369460F4802935D
:10CF300003F0FCFA08B1FFF7F5F908210423CDE965
:10CF400000130A48694603F0F1FA08B1FFF7EAF95D
:10CF50000922052305486946CDE9002303F0E6FAD6
:10CF600008B1FFF7DFF904B010BD00BFFC150020C9
:10CF70000100000F0020014070B5064688B0142261
:10CF8000002103A8FCF7D8FC32682C4B9A4253D1FD
:10CF900003F58C33002500955A6C294842F48072C1
:10CFA0005A645A6C02F480720092009A01951A6BCE
:10CFB00042F004021A631A6B02F004020192019A11
:10CFC00002951A6B42F002021A631B6B03F0020314
:10CFD00002930324029B03A92023CDE9033402F02A
:10CFE00049FC1848059503A9CDE9034402F042FC29
:10CFF000154C164B4FF48062C4E900354FF4805352
:10D00000C4E904234FF480414FF480732046C4E9FF
:10D010000255C4E90613C4E9085502F097FD08B1AA
:10D02000FFF780F90022B46312201146A66302F0D4
:10D0300091FF122002F0C0FF08B070BD0020014037
:10D0400000080240000402409C1500207064024069
:10D0500010B5002494B02146142203A8CDE90B4456
:10D06000FCF76AFC264B01941A6C42F080521A6459
:10D070001B6C244A03F080530193019B02941368B4
:10D0800023F4404343F400431360136803F4404324
:10D090000293029B0D224FF48033CDE90823012334
:10D0A0000A930D9302244FF48003CDE90E43082127
:10D0B000A8230420CDE910130723CDE9120308A803
:10D0C00002F026F808B1FFF72DF90F23CDE903345C
:10D0D0004FF480520023022103A8CDE905320793C3
:10D0E00002F03CFA08B1FFF71DF900224FF480016D
:10D0F000104602F0BBF902F005FA14B010BD00BFF3
:10D10000003802400070004013B51F4B002401940A
:10D110001A6B42F480021A631B6B03F480032246ED
:10D12000214601933920019B02F014FF392002F0BF
:10D1300043FF224621463A2002F00CFF3A2002F03B
:10D140003BFF224621463B2002F004FF3B2002F039
:10D1500033FF224621463C2002F0FCFE3C2002F038
:10D160002BFF22462146452002F0F4FE452002F026
:10D1700023FF22462146462002F0ECFE462002B064
:10D18000BDE8104002F018BF0038024008B50B4857
:10D190000B4A0C4BC0E9002300234FF48042C0E946
:10D1A0000233C0E90423C0E90633036203F090FAB6
:10D1B00018B1BDE80840FFF7B5B808BD4416002017
:10D1C00000540040A086010030B5044689B0142206
:10D1D000002103A8FCF7B0FB2268134B9A4221D12F
:10D1E000124C134800250195236B43F0020323637F
:10D1F000236B03F002030193019BC0221223CDE9AC
:10D20000032303210423CDE9061303A902F032FB13
:10D210000295236C43F400132364236C03F400137E
:10D220000293029B09B030BD005400400038024018
:10D23000000402400848094A08B50623C0E9002353
:10D2400040F27123836003F09DFB18B1BDE80840F4
:10D25000FFF768B808BD00BF9816002000300040F6
:10D260000A480B4A08B50023C0E900237F21FF22AA
:10D27000C0E90212C0E90433836103F026FC18B14F
:10D28000BDE80840FFF74EB808BD00BFA416002057
:10D290000028004010B5044686B01422002101A8E1
:10D2A000FCF74AFB2268124B9A421ED102230193DB
:10D2B00001A84FF48073049302F03CFA08B1FFF721
:10D2C00031F80C4B0122C3F83C2E002211460220FB
:10D2D00002F040FE022002F06FFE002229201146DB
:10D2E00002F038FE292002F067FE06B010BD00BF34
:10D2F000002800400000474210B50B4A0B4C0023A9
:10D30000C4E90023C4E90233C4E9043320460823F6
:10D31000A36104F01DFB30B920464FF40061BDE865
:10D32000104004F043BB10BD002C01402417002026
:10D330002DE9F041064688B01422002103A8FCF72D
:10D34000FBFA3268374B9A4269D103F586330025E0
:10D3500000955A6C344842F400625A645A6C02F4E4
:10D3600000620092009A01951A6B42F004021A635F
:10D370001A6B02F004020192019A02951A6B42F0B4
:10D3800008021A631B6B03F008034FF00C080293AA
:10D390000224029B06944FF4F8530DEB0801CDE9EB
:10D3A00003340427CDF81C8002F064FA1F48CDF83E
:10D3B0001C800DEB0801CDE90554CDE9037402F0A2
:10D3C00059FA1B4C1B4A4FF00063C4E900234FF489
:10D3D00080614FF480534FF48040C4E9041320234C
:10D3E000C4E90603C4E902554FF40003C4E9085731
:10D3F0000325C4E90A5320464FF40013236302F0C7
:10D40000A5FB08B1FEF78EFF002231203464F463DF
:10D410001146A66302F09EFD312002F0CDFD08B05A
:10D42000BDE8F081002C014000080240000C0240E1
:10D43000C41600205864024002680F4B9A4210B58F
:10D44000044618D10D4A0E48536C23F4006353640C
:10D450004FF4F85102F0D4FA04210A4802F0D0FA4D
:10D46000206C02F0F1FBE06B02F0EEFBBDE8104037
:10D47000312002F0AFBD10BD002C01400038024049
:10D4800000080240000C02400E480F4A08B54FF455
:10D490008273C0E900230023C0E90233C0E90433EA
:10D4A000C0E908334FF40071382283620A23C0E9CF
:10D4B0000612C36204F010FD18B1BDE80840FEF783
:10D4C00031BF08BDA81700200030014010B5044648
:10D4D00088B01422002103A8FCF72EFA2268184B0A
:10D4E0009A422AD103F58433002401945A6C1548DA
:10D4F00042F480525A645A6C02F480520192019AAA
:10D5000002941A6B42F001021A631B6B03F00103D1
:10D510000293E022029B0223CDE90323032105238A
:10D52000CDE9061303A902F0A5F9232022462146DE
:10D5300002F010FD232002F03FFD08B010BD00BF37
:10D54000003001400000024010B58EB010220021D2
:10D5500003A8FCF7F1F900241C2221460DEB020080
:10D56000CDE90144FCF7E8F91E481F49846042F206
:10D57000CF03C0E9001340F2E733C0E9033480234E
:10D58000836105F025F808B1FEF7CCFE4FF4805317
:10D590001448039303A905F053F908B1FEF7C2FE3E
:10D5A000104805F041F808B1FEF7BCFE00230D4815
:10D5B00001A9CDE9013305F07FFA08B1FEF7B2FE0B
:10D5C000302240F2E733CDE907230648002207A9BD
:10D5D00009920B9205F0ACF808B1FEF7A3FE0EB06D
:10D5E00010BD00BF20190020000800407FB51022A8
:10D5F000002102A8FCF7A0F91548164942F2CF0213
:10D60000C0E90012144A0023CDE90033C0E9032326
:10D6100083608023836104F0DBFF08B1FEF782FEA4
:10D620004FF480530A48029302A905F009F908B1A2
:10D63000FEF778FE002306486946CDE9003305F081
:10D640003BFA08B1FEF76EFE07B05DF804FB00BFC1
:10D65000D8180020000C00409F86010000B58DB056
:10D660001022002101A8FCF767F91C22002105A85F
:10D67000FCF762F91A481B4942F2CF03C0E90013D4
:10D6800042F20F720023C0E90232036180238361FA
:10D6900004F09EFF08B1FEF745FE4FF4805310489A
:10D6A000019301A905F0CCF808B1FEF73BFE0C4848
:10D6B00004F0BAFF08B1FEF735FE302242F20F73D4
:10D6C000CDE905230648002205A90792099205F035
:10D6D0002FF808B1FEF726FE0DB05DF804FB00BF81
:10D6E00090180020004001407FB50368424A9342F1
:10D6F00015D1424B00220092196C41F002011964CD
:10D700001B6C03F0020300931D201146009B02F0E6
:10D7100021FC1D2007B05DF804EB02F04DBC384A37
:10D72000934211D1354B00220192196C41F0040152
:10D7300019641B6C03F0040301931E201146019B26
:10D7400002F008FC1E20E5E72E4A934211D12B4B34
:10D7500000220292196C41F0080119641B6C03F05D
:10D760000803029332201146029B02F0F3FB3220A1
:10D77000D0E7254A934211D1204B00220392596CE5
:10D7800041F4803159645B6C03F4803303931820B7
:10D790001146039B02F0DEFB1820BBE71B4A9342B5
:10D7A00011D1164B00220492596C41F40031596496
:10D7B0005B6C03F40033049319200F21049B02F0E7
:10D7C000C9FB1920A6E7124A934211D10B4B002244
:10D7D0000592596C41F4802159645B6C03F48023F9
:10D7E00005931A201146059B02F0B4FB1A2091E71D
:10D7F00007B05DF804FB00BF0004004000380240A1
:10D8000000080040000C004000400140004401407E
:10D810000048014010B5044688B01422002103A836
:10D82000FCF78AF82368214A934216D1002300931B
:10D830001F4B1A6B42F002021A631B6B03F00203C8
:10D840000093009B20220223CDE90323194807936C
:10D8500003A902F00FF808B010BD174A934212D185
:10D8600000230193124B1A6B42F002021A631B6BE6
:10D8700003F002030193019B4FF48073039302238F
:10D8800004930323E2E70D4A9342E4D10023029379
:10D89000074B1A6B42F002021A631B6B03F0020380
:10D8A0000293029B4FF40073E8E700BF00040040BE
:10D8B000003802400004024000440140004801409A
:10D8C00010B58EB01022002103A8FCF735F8002413
:10D8D0001C220DEB02002146CDE90144FCF72CF897
:10D8E0001D481E4A84605323C0E9002340F2E733F9
:10D8F000C0E90334846104F06BFE08B1FEF712FD49
:10D900004FF480531448039303A904F099FF08B11E
:10D91000FEF708FD104804F0B3FE08B1FEF702FD63
:10D9200000240D4801A9CDE9014405F0C5F808B16E
:10D93000FEF7F8FC602308480994042207A9CDE902
:10D9400007340B9404F01AFF08B1FEF7EBFC024811
:10D95000FFF760FF0EB010BD681900200004004002
:10D9600000B589B01C22002101A8FBF7E5FF15488E
:10D97000154A40F28F63C0E90023002340F2E732EA
:10D98000C0E902320361836104F022FE08B1FEF7B0
:10D99000C9FC0C4804F074FE08B1FEF7C3FC002279
:10D9A00060230848039201A9CDE90132059204F0F1
:10D9B000E5FE08B1FEF7B6FC0248FFF72BFF09B001
:10D9C0005DF804FB481800200044014000B589B010
:10D9D0001C22002101A8FBF7AFFF1548154A40F2B1
:10D9E0008F63C0E90023002340F2E732C0E902322E
:10D9F0000361836104F0ECFD08B1FEF793FC0C4871
:10DA000004F03EFE08B1FEF78DFC002260230848BA
:10DA1000039201A9CDE90132059204F0AFFE08B1ED
:10DA2000FEF780FC0248FFF7F5FE09B05DF804FB45
:10DA300000180020004801400B480C4A08B54FF47C
:10DA4000E133C0E9002300230C22C0E90233C0E91E
:10DA500005230361C36105F025F918B1BDE808404D
:10DA6000FEF760BC08BD00BF781B0020001001401D
:10DA70000B480C4A08B54FF4E133C0E900230023FA
:10DA80000C22C0E90233C0E905230361C36105F03C
:10DA900009F918B1BDE80840FEF744BC08BD00BF55
:10DAA000301B00200014014070B514228AB00546D6
:10DAB00000210DEB0200FBF73FFF2B68624A934207
:10DAC00060D1624B624C002601965A6C42F0100203
:10DAD0005A645A6C02F010020192019A02961A6B73
