:020000040800F2
:1080000000000120A1240108A1B50008A9B50008BD
:10801000ABB50008ADB50008AFB500080000000022
:10802000000000000000000000000000B1B50008E2
:10803000B3B5000800000000B5B50008B7B50008EA
:10804000F1240108F1240108B9B50008F124010860
:10805000F1240108C5B50008F1240108F124010844
:10806000F1240108F1240108F1240108F124010898
:10807000F1240108F1240108F1240108F124010888
:10808000F1240108F1240108C9B50008000000002E
:10809000000000000000000000000000F1240108C2
:1080A000D5B50008E1B50008FDB50008F1240108C8
:1080B000F124010809B6000815B60008F1240108EA
:1080C000F1240108F1240108F124010821B6000877
:1080D000F12401082DB60008F12401080000000079
:1080E000F124010839B60008F1240108000000005D
:1080F000000000000000000000000000F124010862
:108100000000000045B6000851B60008F12401083F
:10811000000000000000000000000000000000005F
:10812000F12401085DB6000869B6000875B60008BC
:1081300081B6000800000000000000000000000000
:108140000000000000000000000000008DB60008E4
:10815000F124010899B60008A5B60008B1B60008D8
:10816000F1240108F12401080000000000000000D3
:1081700000000000000000000000000000000000FF
:1081800000000000BDB60008000000000000000074
:04819000F1240108CD
:1081A00081F0004102E000BF83F0004330B54FEAA8
:1081B00041044FEA430594EA050F08BF90EA020F15
:1081C0001FBF54EA000C55EA020C7FEA645C7FEAA8
:1081D000655C00F0E2804FEA5454D4EB5555B8BFCB
:1081E0006D420CDD2C4480EA020281EA030382EA3C
:1081F000000083EA010180EA020281EA0303362DCE
:1082000088BF30BD11F0004F4FEA01314FF4801CA0
:108210004CEA113102D0404261EB410113F0004FB2
:108220004FEA03334CEA133302D0524263EB430369
:1082300094EA050F00F0A780A4F10104D5F1200E07
:108240000DDB02FA0EFC22FA05F2801841F1000162
:1082500003FA0EF2801843FA05F359410EE0A5F136
:1082600020050EF1200E012A03FA0EFC28BF4CF067
:10827000020C43FA05F3C01851EBE37101F000451D
:1082800007D54FF0000EDCF1000C7EEB00006EEB2A
:108290000101B1F5801F1BD3B1F5001F0CD34908B4
:1082A0005FEA30004FEA3C0C04F101044FEA44520B
:1082B00012F5800F80F09A80BCF1004F08BF5FEA92
:1082C000500C50F1000041EB045141EA050130BD72
:1082D0005FEA4C0C404141EB0101013C28BFB1F584
:1082E000801FE9D291F0000F04BF01460020B1FACF
:1082F00081F308BF2033A3F10B03B3F120020CDAA2
:108300000C3208DD02F1140CC2F10C0201FA0CF07F
:1083100021FA02F10CE002F11402D8BFC2F1200CE4
:1083200001FA02F120FA0CFCDCBF41EA0C0190409A
:10833000E41AA2BF01EB0451294330BD6FEA0404E3
:108340001F3C1CDA0C340EDC04F11404C4F12002CE
:1083500020FA04F001FA02F340EA030021FA04F3E0
:1083600045EA030130BDC4F10C04C4F1200220FA37
:1083700002F001FA04F340EA0300294630BD21FA75
:1083800004F0294630BD94F0000F83F4801306BF3B
:1083900081F480110134013D4EE77FEA645C18BF2F
:1083A0007FEA655C29D094EA050F08BF90EA020FC6
:1083B00005D054EA000C04BF1946104630BD91EABE
:1083C000030F1EBF0021002030BD5FEA545C05D1C1
:1083D0004000494128BF41F0004130BD14F5800400
:1083E0003CBF01F5801130BD01F0004545F0FE4174
:1083F00041F470014FF0000030BD7FEA645C1ABFA9
:10840000194610467FEA655C1CBF0B46024650EADF
:10841000013406BF52EA033591EA030F41F400210B
:1084200030BD00BF90F0000F04BF0021704730B591
:108430004FF4806404F132044FF000054FF0000166
:1084400050E700BF90F0000F04BF0021704730B527
:108450004FF4806404F1320410F0004548BF4042FC
:108460004FF000013EE700BF42004FEAE2014FEA51
:1084700031014FEA02701FBF12F07F4393F07F4F2C
:1084800081F06051704732F07F4208BF704793F02F
:108490007F4F04BF41F40021704730B54FF4607442
:1084A00001F0004521F000411CE700BF50EA010245
:1084B00008BF704730B54FF000050AE050EA0102EE
:1084C00008BF704730B511F0004502D5404261EB5E
:1084D00041014FF4806404F132045FEA915C3FF49F
:1084E000D8AE4FF003025FEADC0C18BF03325FEA3C
:1084F000DC0C18BF033202EBDC02C2F1200300FAED
:1085000003FC20FA02F001FA03FE40EA0E0021FA11
:1085100002F11444BDE600BF70B54FF0FF0C4CF4FF
:10852000E06C1CEA11541DBF1CEA135594EA0C0FB1
:1085300095EA0C0F00F0DEF82C4481EA030621EAEC
:108540004C5123EA4C5350EA013518BF52EA033527
:1085500041F4801143F4801338D0A0FB02CE4FF0D9
:108560000005E1FB02E506F00042E0FB03E54FF009
:108570000006E1FB03569CF0000F18BF4EF0010E01
:10858000A4F1FF04B6F5007F64F5407404D25FEAFD
:108590004E0E6D4146EB060642EAC62141EA5551B0
:1085A0004FEAC52040EA5E504FEACE2EB4F1FD0CF2
:1085B00088BFBCF5E06F1ED8BEF1004F08BF5FEA70
:1085C000500E50F1000041EB045170BD06F0004622
:1085D00046EA010140EA020081EA0301B4EB5C04CF
:1085E000C2BFD4EB0C0541EA045170BD41F48011C7
:1085F0004FF0000E013C00F3AB8014F1360FDEBFEC
:10860000002001F0004170BDC4F10004203C35DAC7
:108610000C341BDC04F11404C4F1200500FA05F34A
:1086200020FA04F001FA05F240EA020001F00042EB
:1086300021F0004110EBD37021FA04F642EB060161
:108640005EEA430E08BF20EAD37070BDC4F10C048B
:10865000C4F1200500FA04F320FA05F001FA04F24F
:1086600040EA020001F0004110EBD37041F100013B
:108670005EEA430E08BF20EAD37070BDC4F1200546
:1086800000FA05F24EEA020E20FA04F301FA05F2AE
:1086900043EA020321FA04F001F0004121FA04F256
:1086A00020EA020000EBD3705EEA430E08BF20EA26
:1086B000D37070BD94F0000F0FD101F00046400060
:1086C00041EB010111F4801F08BF013CF7D041EAE2
:1086D000060195F0000F18BF704703F000465200E6
:1086E00043EB030313F4801F08BF013DF7D043EAB7
:1086F0000603704794EA0C0F0CEA135518BF95EA6D
:108700000C0F0CD050EA410618BF52EA4306D1D1F3
:1087100081EA030101F000414FF0000070BD50EA12
:10872000410606BF1046194652EA430619D094EA9C
:108730000C0F02D150EA013613D195EA0C0F05D186
:1087400052EA03361CBF104619460AD181EA0301DA
:1087500001F0004141F0FE4141F470014FF0000092
:1087600070BD41F0FE4141F4780170BD70B54FF02D
:10877000FF0C4CF4E06C1CEA11541DBF1CEA1355AD
:1087800094EA0C0F95EA0C0F00F0A7F8A4EB05048F
:1087900081EA030E52EA03354FEA013100F0888086
:1087A0004FEA03334FF0805545EA131343EA12634F
:1087B0004FEA022245EA111545EA10654FEA002604
:1087C0000EF000419D4208BF964244F1FD0404F5BD
:1087D000407402D25B084FEA3202B61A65EB030519
:1087E0005B084FEA32024FF480104FF4002CB6EBD6
:1087F000020E75EB030E22BFB61A754640EA0C0056
:108800005B084FEA3202B6EB020E75EB030E22BF95
:10881000B61A754640EA5C005B084FEA3202B6EBD6
:10882000020E75EB030E22BFB61A754640EA9C0095
:108830005B084FEA3202B6EB020E75EB030E22BF65
:10884000B61A754640EADC0055EA060E18D04FEA23
:10885000051545EA16754FEA06164FEAC30343EAC3
:1088600052734FEAC2025FEA1C1CC0D111F4801F90
:108870000BD141EA00014FF000004FF0004CB6E789
:1088800011F4801F04BF01430020B4F1FD0C88BF28
:10889000BCF5E06F3FF6AFAEB5EB030C04BFB6EB33
:1088A000020C5FEA500C50F1000041EB045170BD26
:1088B0000EF0004E4EEA113114EB5C04C2BFD4EB53
:1088C0000C0541EA045170BD41F480114FF0000ED7
:1088D000013C90E645EA060E8DE60CEA135594EA53
:1088E0000C0F08BF95EA0C0F3FF43BAF94EA0C0F56
:1088F0000AD150EA01347FF434AF95EA0C0F7FF4CB
:1089000025AF104619462CE795EA0C0F06D152EA1E
:1089100003353FF4FDAE1046194622E750EA410602
:1089200018BF52EA43067FF4C5AE50EA41047FF413
:108930000DAF52EA43057FF4EBAE12E74FF0FF3C78
:1089400006E000BF4FF0010C02E000BF4FF0010C49
:108950004DF804CD4FEA410C7FEA6C5C4FEA430CC2
:1089600018BF7FEA6C5C1BD001B050EA410C0CBF11
:1089700052EA430C91EA030F02BF90EA020F002073
:10898000704710F1000F91EA030F58BF994208BFDA
:1089900090422CBFD8176FEAE37040F00100704797
:1089A0004FEA410C7FEA6C5C02D150EA013C07D1EE
:1089B0004FEA430C7FEA6C5CD6D152EA033CD3D039
:1089C0005DF8040B704700BF8446104662468C4633
:1089D0001946634600E000BF01B5FFF7B7FF002866
:1089E00048BF10F1000F01BD4DF808EDFFF7F4FF8F
:1089F0000CBF012000205DF808FB00BF4DF808ED1A
:108A0000FFF7EAFF34BF012000205DF808FB00BF3C
:108A10004DF808EDFFF7E0FF94BF012000205DF85E
:108A200008FB00BF4DF808EDFFF7CEFF94BF012013
:108A300000205DF808FB00BF4DF808EDFFF7C4FF0C
:108A400034BF012000205DF808FB00BF4FEA41025F
:108A5000B2F1E04324BFB3F5001CDCF1FE5C0DD99C
:108A600001F0004C4FEAC0024CEA5070B2F1004FE6
:108A700040EB830008BF20F00100704711F0804FE9
:108A800021D113F13872BCBF01F00040704741F4AE
:108A900080114FEA5252C2F11802C2F1200C10FAB2
:108AA0000CF320FA02F018BF40F001004FEAC12396
:108AB0004FEAD32303FA0CFC40EA0C0023FA02F33A
:108AC0004FEA4303CCE77FEA625307D150EA013310
:108AD0001EBF4FF0FE4040F44000704701F00040E0
:108AE00040F0FE4040F40000704700BF80F00040BE
:108AF00002E000BF81F0004142001FBF5FEA410376
:108B000092EA030F7FEA226C7FEA236C6AD04FEA75
:108B10001262D2EB1363C1BFD218414048404140BA
:108B2000B8BF5B42192B88BF704710F0004F40F46C
:108B3000000020F07F4018BF404211F0004F41F488
:108B4000000121F07F4118BF494292EA030F3FD054
:108B5000A2F1010241FA03FC10EB0C00C3F1200367
:108B600001FA03F100F0004302D5494260EB4000F6
:108B7000B0F5000F13D3B0F1807F06D340084FEA61
:108B8000310102F10102FE2A51D2B1F1004F40EB56
:108B9000C25008BF20F0010040EA030070474900BE
:108BA00040EB0000013A28BFB0F5000FEDD2B0FA5B
:108BB00080FCACF1080CB2EB0C0200FA0CF0AABF7E
:108BC00000EBC25052421843BCBFD040184370471C
:108BD00092F0000F81F4000106BF80F40000013222
:108BE000013BB5E74FEA41037FEA226C18BF7FEAF9
:108BF000236C21D092EA030F04D092F0000F08BF3B
:108C00000846704790EA010F1CBF0020704712F021
:108C10007F4F04D1400028BF40F00040704712F160
:108C200000723CBF00F50000704700F0004343F0C5
:108C3000FE4040F4000070477FEA226216BF0846FB
:108C40007FEA23630146420206BF5FEA412390EABE
:108C5000010F40F4800070474FF0000304E000BFB4
:108C600010F0004348BF40425FEA000C08BF704765
:108C700043F0964301464FF000001CE050EA010229
:108C800008BF70474FF000030AE000BF50EA01023E
:108C900008BF704711F0004302D5404261EB41012B
:108CA0005FEA010C02BF84460146002043F0B64350
:108CB00008BFA3F18053A3F50003BCFA8CF2083A75
:108CC000A3EBC25310DB01FA02FC634400FA02FC7E
:108CD000C2F12002BCF1004F20FA02F243EB020085
:108CE00008BF20F00100704702F1200201FA02FCE7
:108CF000C2F1200250EA4C0021FA02F243EB0200DA
:108D000008BF20EADC70704753B94AB9002908BF90
:108D100000281CBF4FF0FF314FF0FF3000F00CB8BF
:108D2000ADF1080C6DE904CE09F0E4FBDDF804E0D8
:108D3000DDE9022304B07047704700BF10F8012B33
:108D400011F8013B012A28BF9A42F7D0D01A704788
:108D500001F0FF01102A2BDB10F0070F08D010F8EC
:108D6000013B013A8B422DD010F0070F42B3F6D1F0
:108D7000F0B441EA012141EA014122F007047FF009
:108D800000070023F0E80256083C85EA010586EA60
:108D9000010685FA47F5A3FA87F586FA47F6A5FA9C
:108DA00087F68EB9EED1F0BC01F0FF0102F00702A8
:108DB00032B110F8013B013A83EA010313B1F8D153
:108DC0000020704701387047002D06BF3546033834
:108DD000073815F0010F07D1013015F4807F02BF6D
:108DE000013015F4C03F0130F0BC0138704700BFBE
:108DF0000348044B834202D0034B03B1184770472A
:108E00006800002068000020000000000548064BB4
:108E10001B1AD90F01EBA301491002D0034B03B178
:108E2000184770476800002068000020000000001C
:108E300010B5064C237843B9FFF7DAFF044B13B1A2
:108E40000448AFF300800123237010BD68000020A8
:108E5000000000003834010808B5054B1BB1054976
:108E60000548AFF30080BDE80840FFF7CFBF00BF63
:108E7000000000006C00002038340108002310B509
:108E80000446C0E90033C0E904338360818143664E
:108E9000C2818361194608225C3000F0B1F80D4BA5
:108EA00063620D4BA3620D4BE3620D4B23630D4BCD
:108EB00024629C4206D003F16802944202D0D0336F
:108EC0009C4205D104F15800BDE8104000F0C4B840
:108ED00010BD00BF15930008379300086F9300087A
:108EE0009393000884000020024A0349034800F0DD
:108EF00069B800BF00000020AD92000810000020FB
:108F000041680C4B994210B5044601D000F0CEF9EF
:108F1000A168094B994202D0204600F0C7F9E168E8
:108F2000064B994204D02046BDE8104000F0BEB97F
:108F300010BD00BF84000020EC0000205401002080
:108F400010B50B4B0B4C0C4A1A6020460022042132
:108F5000FFF794FF04F1680001220921FFF78EFF5B
:108F600004F1D0000222BDE810401221FFF786BFB5
:108F7000BC01002084000020E98E0008014800F0B8
:108F80006CB800BFC1010020014800F067B800BF05
:108F9000C101002010B50446FFF7F0FF236A1BB1A2
:108FA000BDE81040FFF7F0BF044B2362044B1B6881
:108FB000002BF5D1FFF7C4FFF2E700BF018F0008D7
:108FC000BC0100202DE9F8430746884614460026D8
:108FD000D4E90195B9F1010905D52468002CF7D130
:108FE0003046BDE8F883AB89012B07D9B5F90E30BF
:108FF000013303D029463846C04706436835E9E7C0
:1090000002440346934200D1704703F8011BF9E77D
:1090100070B50D4D0D4C641BA4100026A64209D15D
:109020000B4D0C4C0AF008FA641BA4100026A64253
:1090300005D170BD55F8043B98470136EEE755F869
:10904000043B98470136F2E7F8390108F83901087E
:10905000F8390108FC390108704770477047000073
:1090600070B50F4E0C463168054611B900F0BAF9DB
:1090700030602146284600F0B5F9431C03D14FF07B
:10908000FF34204670BDC41C24F00304A042F8D075
:10909000211A284600F0A6F90130F2D1EFE700BF0F
:1090A000C40100202DE9F843CD1C25F00305083547
:1090B0000C2D38BF0C25002D064601DBA94204D932
:1090C0000C2333600020BDE8F883DFF8D48000F083
:1090D00015F9D8F800301C4644BB29463046FFF746
:1090E000BFFF431C044658D1D8F800402746002F44
:1090F00043D1002C4BD023683946304604EB03099A
:1091000000F070F9814542D121686D1A2946304638
:10911000FFF7A6FF01303AD023682B442360D8F82C
:1091200000305A6862BBC8F800700FE02268521B1A
:1091300020D40B2A17D96119A342256018BF5960A2
:10914000636808BFC8F8001062514B60304600F0F9
:10915000DBF804F10B00231D20F00700C21A1CBF2E
:109160001B1AA350AFE76268A3420CBFC8F80020E7
:109170005A60EBE723466468AEE73C467F68B6E793
:109180001A465B68A342FBD100235360DEE70C2341
:109190003360304600F0B8F894E70560D6E700BFCA
:1091A000C8010020B1F90C202DE9F0411607054651
:1091B0000C4654D44B68002B02DC0B6C002B48DDB2
:1091C000E66A002E45D0002312F480522F68216AEF
:1091D0002B6030D0626DA389590705D56368D21A18
:1091E000636B0BB1236CD21A0023E66A216A28460E
:1091F000B047431CA38906D129681D292BD82A4AC8
:10920000CA40D60727D500226260D90422692260AD
:1092100004D5421C01D12B6803B96065616B2F60D6
:10922000B9B104F14403994202D0284600F00CF988
:10923000002363630DE001232846B0470246501C1B
:10924000C9D12B68002BC6D01D2B01D0162B1ED1E7
:109250002F60002022E043F040031BB21BE00F69A7
:10926000002FF6D093070E6808BF4B690F6018BF38
:109270000023A6EB07088B60B8F1000FE9DD216A37
:10928000A66A43463A462846B047002808DCB4F9A7
:109290000C3043F04003A3814FF0FF30BDE8F08174
:1092A0000744A8EB0008E7E70100402038B50B6948
:1092B00005460C4613B90025284638BD18B1036A87
:1092C0000BB9FFF767FEB4F90C30002BF3D0626ED8
:1092D000D00704D4990502D4A06DFFF7BEFE28463E
:1092E0002146FFF75FFF636EDA070546E4D4A389E2
:1092F0009B05E1D4A06DFFF7B1FEDDE70148FFF764
:10930000ACBE00BFC00100200148FFF7A7BE00BFF0
:10931000C001002010B50C46B1F90E1000F050F855
:109320000028ABBF636DA3891B1823F48053ACBF27
:109330006365A38110BD2DE9F0411F468B89DB05D4
:1093400005460C46164605D5B1F90E10022300223B
:1093500000F024F8A389B4F90E1023F48053A381FC
:1093600032463B462846BDE8F04100F04BB810B508
:109370000C46B1F90E1000F011F8431CA38915BF7B
:10938000606523F4805343F48053A38118BFA38105
:1093900010BDB1F90E1000F047B8000038B5074D08
:1093A00004460846114600222A601A4609F076F85B
:1093B000431C02D12B6803B1236038BDCC010020CF
:1093C00038B5074D04460846114600222A601A4661
:1093D00009F04CF8431C02D12B6803B1236038BD5F
:1093E000CC01002038B5064D0023044608462B600A
:1093F00009F01CF8431C02D12B6803B1236038BD6F
:10940000CC01002038B5074D04460846114600221D
:109410002A601A4601F0C4F8431C02D12B6803B13C
:10942000236038BDCC01002038B5064D002304462A
:1094300008462B6009F028F8431C02D12B6803B1C1
:10944000236038BDCC01002038B50546002941D045
:1094500051F8043C0C1F002BB8BFE418FFF74EFF77
:109460001D4A136833B9636014602846BDE838406C
:10947000FFF74ABFA34208D9206821188B4201BFD9
:1094800019685B6809182160EDE71A465B680BB143
:10949000A342FAD911685018A0420BD120680144A8
:1094A000501883421160E0D118685B68536008442B
:1094B0001060DAE702D90C232B60D6E72068211868
:1094C0008B4204BF19685B68636004BF09182160A0
:1094D0005460CAE738BD00BFC801002038B5054652
:1094E000072445FA04F2114802F001024FF48051BA
:1094F00003F09AFF0D4801224FF4804103F094FFDE
:109500000A4800224FF4804103F08EFF013CE8D26C
:10951000064801224FF4005103F086FFBDE83840B1
:10952000024800224FF4005103F07EBF00040240C5
:10953000024B1860024B1980704700BFD401002015
:10954000D0010020034B1988034B0022186803F058
:109550006BBF00BFD0010020D4010020034B19884D
:10956000034B0122186803F05FBF00BFD001002049
:10957000D401002010B5FFF7F1FF4021044803F0AB
:109580004DFF0446FFF7DEFFB4FA84F0400910BD3A
:10959000000002401FB596230A468DF80F00009385
:1095A0000DF10F010123054806F04EF8003818BFF1
:1095B0000120400005B05DF804FB00BF94140020BA
:1095C00013B504460DF10701000AFFF7E3FF20B9C8
:1095D0000DF10701E0B2FFF7DDFF02B010BD10B5DD
:1095E000FFF7C8FF0128FBD0FFF7B8FF4FF49850F2
:1095F000FFF7E6FF0446012004F0BCF9FFF7A2FFE5
:10960000204610BD10B5FFF7B5FF0128FBD0FFF7CE
:10961000A5FF4FF48050FFF7D3FF0446012004F06C
:10962000A9F9FFF78FFF204610BD37B504460D4658
:10963000FFF7A0FF0128FBD000232B808DF8073017
:10964000FFF78CFFC4F3090040F4C050FFF7B8FFE8
:10965000044620B1FFF776FF204603B030BD0DF180
:109660000701FFF797FF04460028F3D12B889DF8E8
:10967000072043EA42232B800DF10701FFF78AFF01
:1096800004460028E6D12B889DF8072043EA4203D0
:109690002B800DF10701FFF77DFF04460028D9D18B
:1096A0002B889DF8072043EAD2132B80012004F079
:1096B00061F9CFE773B506460D46FFF75BFF01285A
:1096C000FBD000238DF80730FFF789FF044658B917
:1096D000FFF744FFC6F3090040F4A050FFF770FF06
:1096E000044620B1FFF72EFF204602B070BD280AC5
:1096F0000DF107018DF80700FFF74CFF0446002825
:10970000F0D1E8B20DF107018DF80700FFF742FF35
:1097100004460028E6D1FFF715FF022004F02AF9DD
:10972000FFF770FF0446DFE7024470B504468E1E63
:1097300095B2AC4201D1002008E0204636F8021F65
:10974000FFF7B8FF0134A4B20028F2D070BD0000CA
:10975000064B01781A7861F300021A7002781978C2
:10976000C2F3400262F3410119707047D801002032
:10977000084B10B51B7813F0010F18BF06494FF0C6
:1097800001031DBF0A78834013431C4618BF0B70AA
:10979000204610BDD8010020DA010020094B10B589
:1097A0001B7813F0010F18BF07494FF001031DBFCD
:1097B0000A78834022EA03031C4618BF0B70204638
:1097C00010BD00BFD8010020DA01002008B5064B0B
:1097D0001B78DB0705D5054B1878FFF77FFE0020C7
:1097E00008BD0120FCE700BFD8010020DA010020FD
:1097F00008B5094B1B7803F00303032B09D1431E63
:109800005A4206485A414FF4004103F00DFE002031
:1098100008BD0120FCE700BFD80100200004024081
:1098200010B5074B002420461C70FFF757FE20465A
:10983000FFF7DEFF034A137823F00303137010BD14
:10984000DA010020D801002037B59DF8043023F05C
:10985000030343F0030301A88DF80430FFF778FFFA
:109860000120FFF7C5FF0024E5B22846FFF780FF7F
:10987000FFF7ACFF322004F07DF82846FFF78EFF9B
:109880000134FFF7A3FF322004F074F8082CEBD169
:109890000020FFF7ADFF03B0BDE83040FFF7C0BFC9
:1098A0000D4B10B50446186870B1FEF7BBFD0B46B2
:1098B000024607A1D1E90001FEF758FFFFF7C6F8FD
:1098C00003460020236010BD00230220FAE700BFFA
:1098D00085EB51B81E85B34008020020000000004F
:1098E000B5EE400AF1EE10FA10B5044625D0184B3B
:1098F0005B6813B3DFED177A20EE270A07EE903A84
:10990000F8EE677A60EE277A17EE900AFEF7ACFD64
:1099100002460B460AA1D1E90001FEF745FC0AA365
:10992000D3E90023FEF722FF0B4B0022FEF73EFC9B
:10993000FFF78CF82060002010BD0220FCE700BF7C
:1099400052B81E85EB51E83F7B14AE47E17A643F85
:1099500008020020000080390000394000000000AB
:109960002DE9F04F2DED028B8DB0044607A88946F6
:109970009346FFF795FF022805D102200DB0BDECFC
:10998000028BBDE8F08F9DED078A2046B0EE480AB5
:10999000FFF7A6FF0228F0D03B4CDFED3C8A002504
:1099A00059F825300022EE1C1A60F6B2234608AAA8
:1099B00004F1080C18685968174603C70833634553
:1099C0003A46F7D1186838609B88BB80A38801931A
:1099D000E3889DF820800093238902936389039391
:1099E00018F00101A389B4F802A0049309D130460C
:1099F000013500F037FB032D04F10E04D0D1002017
:109A0000BCE7234B53F825705BF82530059307EE30
:109A1000907AF8EE677A67EE887A67EEA87A17EEA2
:109A2000900AFEF721FD16A3D3E90023FEF79EFE60
:109A3000FFF70CF8059B18F0020F186006D0BA4526
:109A400004D8019BBB4201D30121D0E718F0040FD9
:109A500007D0009BBB4204D8029BBB4201D302212A
:109A6000C5E718F0080F07D0039BBB4204D8049B3E
:109A7000BB4201D30321BAE70021B8E7AFF300806E
:109A800046175D74D145B73FDC01002000008039E6
:109A90001002002000B58BB007AA04A903A8FFF7A5
:109AA0005FFF264808F00EFF254808F00BFF254B06
:109AB0002548596808F09EFE9DED030A10EE100A35
:109AC0008DED010AFEF7D0FC02460B461F4808F058
:109AD00091FE9DED010A00F097F910EE100AFEF7D5
:109AE000C3FC02460B461A4808F084FE0499194844
:109AF00008F080FE0798FEF7B7FC02460B461648B2
:109B000008F078FE0599154808F074FE0898FEF7ED
:109B1000ABFC02460B46124808F06CFE0699114851
:109B200008F068FE0998FEF79FFC02460E480B46B7
:109B30000BB05DF804EB08F05DBE00BF6C340108AB
:109B400050340108080200206E3401088B340108EB
:109B5000A8340108C5340108D6340108EB340108E3
:109B6000FC340108113501082235010807B5002031
:109B70000DF10601FFF759FD90B9BDF8062043F637
:109B80003E639A42074B1A7813BF60F3000242F01B
:109B900001021A701A7018BF022003B05DF804FBAE
:109BA0000120FAE71C02002038B505460C46FFF7F5
:109BB000DDFF60B129460120FFF737FD48B9214696
:109BC0000220FFF732FD003818BF012038BD022007
:109BD000FCE70120FAE7000030B587B000F02EF96D
:109BE0001822002104466846FFF70AFA0E49684623
:109BF00000224D7811F8023B013243EA05230C2A7A
:109C000020F8023BF5D169460320FFF78DFD40B9EE
:109C100021460F20FFF74EFD003818BF012007B086
:109C200030BD0120FBE700BF1E02002007B543F650
:109C30003E610020FFF73EFD18B1012003B05DF842
:109C400004FB01210846FFF735FD0028F5D1FFF799
:109C5000C3FF0028F1D1ADF80400ADF806000DF106
:109C6000060101A8FFF7A0FF0128E6D0BDF8061005
:109C7000013189B20220ADF80610FFF71BFD002864
:109C8000DBD1034A137843F001031370D6E700BF1A
:109C90001C02002008B50A4C204604F0F5F9032107
:109CA000002000F0DFF94FF4967003F063FE03210B
:109CB000012000F0D7F94FF4967003F05BFEEBE75C
:109CC00084130020F8B5054600F05AFA00F050FC65
:109CD00000F008FB254F264E264C384604F0D4F9F8
:109CE0000321072000F0BEF90021084600F0BAF970
:109CF000284603F03FFE0321002000F0B3F90021C5
:109D0000072000F0AFF9284603F034FE23785B0605
:109D10000ED44FF40041304603F080FB012802BF0F
:109D2000237843F040032370124B1B785A06D3D597
:109D30004FF40041304603F071FB04460028CBD1BC
:109D4000014600F08FF92146072000F08BF92146EB
:109D5000062000F087F9074A138823F4F073138074
:109D600000F0F4FBBDE8F84000F07EBA8413002058
:109D7000000002401C02002072B6FEE708B50A4B44
:109D80001B78DB070ED4094A137823F0110343F044
:109D90001103137000F0ECFB00F0A4FA00F0F0F9EE
:109DA000FFF778FF08BD00BF1C020020360200202C
:109DB00008B5134B1B781F2B05D80021BDE80840C0
:109DC000072000F04FB913F0600F0BD00D4B1B783C
:109DD000D90705D5BDE808404FF49670FFF772BF6C
:109DE0000221EBE71A0609D5064B1B78DB0703D5E2
:109DF0004FF47A70FFF766FF0121DFE708BD00BF6F
:109E00001C0200203A02002008B510EE100AFEF7EE
:109E10002BFB08A3D3E90023FEF77EFB044B0022B3
:109E2000FEF7C4F9FEF712FE00EE100A08BD00BFEF
:109E300000004040CDCCCCCCCCCCFC3F014BB3F8A7
:109E4000FD007047007F0008F0B50023134F014468
:109E50001C461D4688420DD1002C08DDC4F10504C6
:109E6000A5400E4905F01F05495DD154013300217D
:109E7000D154F0BD10F8016B083446EA05251344AF
:109E8000042C01DC9B1AE5E7053C45FA04F606F0D4
:109E90001F06BE5D03F8016BF2E700BF8E350108B7
:109EA000F0B589B003F086FD054603F07DFD04465C
:109EB00003F074FD00BA2DBA02900C21684624BA52
:109EC00003AA009501940C4DFFF7BEFF00230B4839
:109ED00019462D2612F8014B14B9C45409B0F0BD2F
:109EE00031B105FB01F7B7F1333F9CBFC6540133D5
:109EF000C45401310133EDE7CDCCCCCC1E0200209F
:109F00002DE9F843DFF8349080460F4602250026FD
:109F100001240A2301222946484604F003F818B90F
:109F2000731C08F80640DEB20134E4B20235802C1E
:109F3000ADB2EED13E70BDE8F88300BF3013002013
:109F400070B5ADF5926D04AD00240DF10701284602
:109F50008DF89040FFF7D4FF0B4E9DF80720E3B239
:109F60009A4206D824A9094808F044FC0DF5926DE0
:109F700070BDEA5C314602A808F01AFC02A924A8C8
:109F800008F0A8FC0134E8E737350108403501083E
:109F900025490B78024613F0010043D0022A03D86A
:109FA00013F0100006D17047D01E022802D813F01B
:109FB000400037D0072A34D8DFE802F004090E1336
:109FC0001920272D194B187800F003007047174B04
:109FD0001878C0F381007047144B1878C0F3011053
:109FE00070471B061DD5114B1878800970474878BB
:109FF00010F0010016D00D4B5878E5E7487810F0C6
:10A0000002000FD0094B5878E3E713F0040009D0A1
:10A01000064B5878E2E713F0200003D0034B587842
:10A02000E3E70020704700BF36020020380200201E
:10A0300038B50B4C0025E8B2FFF7AAFF032802460B
:10A0400005D10122A188206803F0EEF901E0002883
:10A05000F8D00135082D04F10804ECD138BD00BF5B
:10A06000B035010870B50C460546FFF791FFA042D8
:10A0700063D0334B1B7813F001065ED0D80601D4B1
:10A08000022D26D9990701D4062D22D09A0601D493
:10A09000072D1ED05B0602D4EB1E022B19D97CB112
:10A0A000022D0DD8274A137823F03F0313700226A0
:10A0B000072D0CD8DFE805F0060F14191E242936E9
:10A0C0000026F5E71F4B1A7864F301021A70FFF7B8
:10A0D000AFFF304670BD1B4B1A7864F38302F5E77F
:10A0E000184B1A7864F30512F0E7164B1A7864F3EC
:10A0F0008712EBE7134B5A7864F301025A70E6E7D4
:10A10000104B5A7864F38302F8E70E4B022C5A780E
:10A1100005D1012161F305125A700226D7E764F3D5
:10A120000512EBE7631E012B064B5A7802D842F06A
:10A13000C002F1E764F38712E0E70126C9E700BF38
:10A140003602002038020020032870B5044611D0E2
:10A1500090B10A4E0025E8B2FFF71AFF844203D1FE
:10A16000B188306803F065F90135062D06F108065F
:10A17000F1D10024204670BD0324FBE7B03501086F
:10A1800008B5074B1B7803F00B030B2B05D10321FC
:10A190000620FFF767FF002008BD0120FCE700BF95
:10A1A0003602002038B5114B1B7803F00703072B4C
:10A1B0001AD1032403210620FFF754FF054610B1EE
:10A1C0000324204638BD142003F0D4FB2946062082
:10A1D000FFF748FF0028F3D12820013C03F0CAFB19
:10A1E00014F0FF04E6D1ECE70124EAE73602002090
:10A1F000014610B1012807D07047074B1B78012B8F
:10A2000009D1064805F076BF034B5B78012B02D1DC
:10A2100003480021F6E770473C020020EC140020C0
:10A22000341500204FF6FF7399420FD0B1F57A7FB5
:10A2300028BF4FF47A7110B1012808D07047074B3E
:10A240001B78012B02D1064B1B6859637047034BE7
:10A250005B78012BFAD1034BF6E700BF3C020020EC
:10A26000EC1400203415002038B5104C2378012B55
:10A270000AD16388B3F57A7F06D80020FFF7B8FFCC
:10A2800061880020FFF7CEFF6578012D0CD1A388EF
:10A29000B3F57A7F08D82846FFF7AAFFA188284699
:10A2A000BDE83840FFF7BEBF38BD00BF3C0200200C
:10A2B00008B500210846FFF7B5FF0146BDE8084094
:10A2C000014805F053BF00BFEC14002010B1012875
:10A2D00002D07047FFF7ECBF0148002105F046BFF0
:10A2E0003415002038B5054C00252570FFF7E0FF38
:10A2F0006570BDE838400120FFF7E8BF3C02002050
:10A300001FB54FF47A7003F035FB00221D491E4C37
:10A31000104607F041FA4FF4967003F02BFB1B48F0
:10A3200004F062FB636A43F400630A20636203F093
:10A3300021FB636A23F40063636200F06FFC4FF457
:10A340007A7003F017FB01221149124807F024FA32
:10A35000024618B10124204604B010BD094801A9E5
:10A3600007F0D1FA04460028F4D10B4801A9FEF702
:10A37000E5FC0028EFD0084807F034FB041E18BFA6
:10A380000124E8E7EA3401080038024010140020F4
:10A39000F41800204C020020433501082DE9F0415B
:10A3A0001A4EDFF8748007460C461948324641467B
:10A3B00007F01CFA054638BB3368D8F800105A89F4
:10A3C0001B6A023BA3FB0236760246EAD356C3F36E
:10A3D000415343EA860307EE903AA2FB0121F8EECF
:10A3E000E77A4902C7ED007A500241EAD251FEF7FE
:10A3F00045FC9FED087A07EE900A67EE877AC4ED78
:10A40000007A2846BDE8F0810125FAE748020020DD
:10A41000EA340108000080304402002000000000FF
:10A4200037B501A96846FFF7B9FF114D044638B1A9
:10A430002B7843F020032B700124204603B030BD5D
:10A440000198FEF711F808A3D3E90023FEF7D6FA26
:10A450002B7803F05F0320B163F07F032B7003249C
:10A46000EBE72B70E9E700BF9A9999999999A93F71
:10A470001C02002010B51D481D4C4FF4004102F095
:10A48000CDFF2378024613F0400003D0012A12D1F9
:10A49000022010BD32B96378DA070FD5BDE810404D
:10A4A000FFF7BEBF012A06D143F0400311492370D4
:10A4B00007F072F9ECE76378DB0708D4FFF720FFB9
:10A4C00028B1237843F0200323700120E1E723889B
:10A4D00023F4A07343F480732380FFF7A1FF0028C7
:10A4E000D7D1237860F345132370D2E700000240F0
:10A4F0001C020020EA34010803680F4A934201D18C
:10A5000003F026BA0D4A934205D10D4A137843F061
:10A510000403137070470B4A934204D1084A13781E
:10A5200043F00203F5E7084A9342F3D1044A137853
:10A5300043F00803EDE700BF0000014000080040C1
:10A540001C02002000400140000C004008B50548F6
:10A5500005F072FA044805F06FFABDE808400348B8
:10A5600005F06ABA0C160020C41500207C150020E6
:10A5700008B5074805F092FA064805F08FFA064834
:10A5800005F08CFA054A137823F00E03137008BD0A
:10A590000C160020C41500207C1500201C02002091
:10A5A00010B5C8231446034892B205F006FF2046B2
:10A5B00010BD00BF641800203B4A08B5137823F093
:10A5C000310343F031031370384A137843F0010329
:10A5D000137003F0A3F900F0E3F903210120FFF762
:10A5E00041FD00F069F800F037FA00F0CBFA00F016
:10A5F00005F900F073FA01F0D7F800F00FFB00F056
:10A60000D5FB00F0EFFD00F031FC00F081FC00F024
:10A61000B7FC00F037FE00F06BFE00F09FFE00F08C
:10A62000B9FE08212248FEF783FFFFF739FCFFF748
:10A63000FDFAFFF79BFA08B1FFF7A0FBFFF714FE46
:10A64000FFF784FF4FF4FA7003F094F9FFF7AAFDC7
:10A6500003210120FFF706FDFFF7BEFA08B1FFF75F
:10A660008BFBFFF717FAFFF7EFF8FFF769FC114CC8
:10A67000FFF700FFFFF79CFB23785A0706D502205F
:10A68000FFF762FD237823F00403237023789B07F0
:10A6900006D50120FFF758FD237823F0020323702D
:10A6A000192003F067F9E3E7360200203A020020A0
:10A6B000000002401C0200202DE9F04314228BB060
:10A6C0000DEB02000021FEF79BFC0024474B009499
:10A6D0001A6BDFF82481464D464E42F001021A63A0
:10A6E0001A6B02F001020092009A01941A6B42F078
:10A6F00002021A631A6B02F002020192019A02949A
:10A700001A6B42F004021A631A6B02F004020292FE
:10A71000029A03941A6B42F008021A631A6B02F051
:10A7200008020392039A04941A6B42F080021A639F
:10A730001B6B03F080030493224640460F21049BC9
:10A7400002F072FE224628461F2102F06DFE4046AE
:10A750000122102102F068FE224630464FF4744177
:10A7600002F062FE01223046102102F05DFE012758
:10A770004FF01F0905A94046CDE90597CDE90744EB
:10A7800002F00AFD05A92846CDE90597CDE9074461
:10A7900002F002FD0422032305A93046CDE905237A
:10A7A000079402F0F9FC4FF2104305A93046CDE9B9
:10A7B0000537CDE9074402F0EFFC02234FF4807126
:10A7C000CDE90513284605A9CDE90744099402F00F
:10A7D000E3FC4FF4004305A92846CDE9053407946E
:10A7E00002F0DAFC0BB0BDE8F08300BF0038024095
:10A7F0000000024000040240000802401FB5102281
:10A8000000216846FEF7FCFB2C48DFF8B8C02C4A54
:10A8100082624FF44033C0E900C300230124836007
:10A8200080F82030C362C360052304610476C361ED
:10A8300080F83040446103F0C3F808B1FFF79CFA98
:10A840001123CDE900341D4803236946029303F028
:10A85000EFF908B1FFF790FA02231024CDE9004385
:10A86000164806236946029303F0E2F908B1FFF7A0
:10A8700083FA0F200323CDE9000369460F480293B2
:10A8800003F0D6F908B1FFF777FA08210423CDE9E0
:10A8900000130A48694603F0CBF908B1FFF76CFAD8
:10A8A0000922052305486946CDE9002303F0C0F9D4
:10A8B00008B1FFF761FA04B010BD00BFE812002034
:10A8C0000100000F0020014070B5064688B0142238
:10A8D000002103A8FEF794FB32682C4B9A4253D117
:10A8E00003F58C33002500955A6C294842F4807298
:10A8F0005A645A6C02F480720092009A01951A6BA5
:10A9000042F004021A631A6B02F004020192019AE7
:10A9100002951A6B42F002021A631B6B03F00203EA
:10A9200002930324029B03A92023CDE9033402F000
:10A9300033FC1848059503A9CDE9034402F02CFC2B
:10A94000154C164B4FF48062C4E900354FF4805328
:10A95000C4E904234FF480414FF480732046C4E9D6
:10A960000255C4E90613C4E9085502F081FD08B197
:10A97000FFF702FA0022B46312201146A66302F028
:10A980007BFF122002F0AAFF08B070BD002001403A
:10A990000008024000040240881200207064024057
:10A9A00010B5002494B02146142203A8CDE90B442D
:10A9B000FEF726FB264B01941A6C42F080521A6473
:10A9C0001B6C244A03F080530193019B029413688B
:10A9D00023F4404343F400431360136803F44043FB
:10A9E0000293029B0D224FF48033CDE9082301230B
:10A9F0000A930D9302244FF48003CDE90E430821FE
:10AA0000A8230420CDE910130723CDE9120308A8D9
:10AA100002F010F808B1FFF7AFF90F23CDE90334C6
:10AA20004FF480520023022103A8CDE90532079399
:10AA300002F026FA08B1FFF79FF900224FF48001D7
:10AA4000104602F0A5F902F0EFF914B010BD00BFF6
:10AA5000003802400070004013B51F4B00240194E1
:10AA60001A6B42F480021A631B6B03F480032246C4
:10AA7000214601933920019B02F0FEFE392002F0AD
:10AA80002DFF224621463A2002F0F6FE3A2002F03F
:10AA900025FF224621463B2002F0EEFE3B2002F03D
:10AAA0001DFF224621463C2002F0E6FE3C2002F03B
:10AAB00015FF22462146452002F0DEFE452002F029
:10AAC0000DFF22462146462002F0D6FE462002B067
:10AAD000BDE8104002F002BF0038024008B50B4844
:10AAE0000B4A0C4BC0E9002300234FF48042C0E91D
:10AAF0000233C0E90423C0E90633036203F06AF9B4
:10AB000018B1BDE80840FFF737B908BD3013002081
:10AB100000540040A086010030B5044689B01422DC
:10AB2000002103A8FEF76CFA2268134B9A4221D148
:10AB3000124C134800250195236B43F00203236355
:10AB4000236B03F002030193019BC0221223CDE982
:10AB5000032303210423CDE9061303A902F01CFB00
:10AB60000295236C43F400132364236C03F4001355
:10AB70000293029B09B030BD0054004000380240EF
:10AB8000000402400A480B4A08B50023C0E900232C
:10AB90007F21FF22C0E90212C0E90433836103F080
:10ABA000F0FA18B1BDE80840FFF7E6B808BD00BFED
:10ABB000901300200028004010B5044686B01422EF
:10ABC000002101A8FEF71CFA2268124B9A421ED1FE
:10ABD0000223019301A84FF48073049302F03CFA1E
:10ABE00008B1FFF7C9F80C4B0122C3F83C2E002234
:10ABF0001146022002F040FE022002F06FFE002209
:10AC00002920114602F038FE292002F067FE06B026
:10AC100010BD00BF002800400000474210B50B4A9D
:10AC20000B4C0023C4E90023C4E90233C4E9043314
:10AC300020460423A36104F0E7F930B920464FF41D
:10AC40000061BDE8104004F00DBA10BD002C0140B9
:10AC5000101400202DE9F043064689B0142200218B
:10AC600003A8FEF7CDF93268374B9A4269D103F554
:10AC70008633002500955A6C344842F400625A64C9
:10AC80005A6C02F400620092009A01951A6B42F02D
:10AC900004021A631A6B02F004020192019A0295EF
:10ACA0001A6B42F008021A631B6B03F008030C24B2
:10ACB00002930DEB0401029B4FF002094FF4F8538D
:10ACC0004FF00108CDE90339CDE90684042702F0ED
:10ACD00063FA0DEB04011E480794CDE905581D4C9D
:10ACE000CDE9037902F058FA1B4A4FF00063C4E93A
:10ACF00000234FF480614FF480534FF48040C4E947
:10AD000004132023C4E90603C4E902554FF40003E9
:10AD1000C4E908570325C4E90A5320464FF4001339
:10AD2000236302F0A5FB08B1FFF726F800223120CB
:10AD30003464F4631146A66302F09EFD312002F0F4
:10AD4000CDFD09B0BDE8F083002C014000080240B1
:10AD5000000C0240B01300205864024002680F4B00
:10AD60009A4210B5044618D10D4A0E48536C23F48C
:10AD7000006353644FF4F85102F0D4FA04210A48F6
:10AD800002F0D0FA206C02F0F1FBE06B02F0EEFB77
:10AD9000BDE81040312002F0AFBD10BD002C0140D5
:10ADA0000038024000080240000C02400E480F4AE2
:10ADB00008B54FF48273C0E900230023C0E90233D1
:10ADC000C0E90433C0E908334FF4007138228362CC
:10ADD0000A23C0E90612C36204F0DAFB18B1BDE829
:10ADE0000840FEF7C9BF08BD9414002000300140A0
:10ADF00010B5044688B01422002103A8FEF700F91C
:10AE00002268184B9A422AD103F584330024019416
:10AE10005A6C154842F480525A645A6C02F48052BB
:10AE20000192019A02941A6B42F001021A631B6BA1
:10AE300003F001030293E022029B0223CDE90323E6
:10AE400003210523CDE9061303A902F0A5F9232068
:10AE50002246214602F010FD232002F03FFD08B0FB
:10AE600010BD00BF003001400000024010B58EB0A0
:10AE70001022002103A8FEF7C3F800241C2221465B
:10AE80000DEB0200CDE90144FEF7BAF81E481F4958
:10AE9000846042F2CF03C0E9001340F2E733C0E917
:10AEA00003348023836104F0EFFE08B1FEF764FFF2
:10AEB0004FF480531448039303A905F01DF808B11B
:10AEC000FEF75AFF104804F00BFF08B1FEF754FFDD
:10AED00000230D4801A9CDE9013305F049F908B176
:10AEE000FEF74AFF302240F2E733CDE90723064858
:10AEF000002207A909920B9204F076FF08B1FEF731
:10AF00003BFF0EB010BD00BF0C1600200008004033
:10AF10007FB51022002102A8FEF772F815481649E5
:10AF200042F2CF02C0E90012144A0023CDE90033F7
:10AF3000C0E9032383608023836104F0A5FE08B188
:10AF4000FEF71AFF4FF480530A48029302A904F057
:10AF5000D3FF08B1FEF710FF002306486946CDE98C
:10AF6000003305F005F908B1FEF706FF07B05DF8FC
:10AF700004FB00BFC4150020000C00409F860100A8
:10AF800000B58DB01022002101A8FEF739F81C226F
:10AF9000002105A8FEF734F81A481B4942F2CF03F6
:10AFA000C0E9001342F20F720023C0E902320361CC
:10AFB0008023836104F068FE08B1FEF7DDFE4FF4E4
:10AFC00080531048019301A904F096FF08B1FEF7E1
:10AFD000D3FE0C4804F084FE08B1FEF7CDFE30220B
:10AFE00042F20F73CDE905230648002205A9079216
:10AFF000099204F0F9FE08B1FEF7BEFE0DB05DF84F
:10B0000004FB00BF7C150020004001407FB50368B1
:10B01000424A934215D1424B00220092196C41F0F2
:10B02000020119641B6C03F0020300931D201146FA
:10B03000009B02F021FC1D2007B05DF804EB02F03C
:10B040004DBC384A934211D1354B00220192196C04
:10B0500041F0040119641B6C03F0040301931E20EA
:10B060001146019B02F008FC1E20E5E72E4A9342A0
:10B0700011D12B4B00220292196C41F00801196486
:10B080001B6C03F00803029332201146029B02F06E
:10B09000F3FB3220D0E7254A934211D1204B002206
:10B0A0000392596C41F4803159645B6C03F4803332
:10B0B000039318201146039B02F0DEFB1820BBE728
:10B0C0001B4A934211D1164B00220492596C41F451
:10B0D000003159645B6C03F40033049319200F2191
:10B0E000049B02F0C9FB1920A6E7124A934211D132
:10B0F0000B4B00220592596C41F4802159645B6C22
:10B1000003F4802305931A201146059B02F0B4FB3B
:10B110001A2091E707B05DF804FB00BF000400406F
:10B120000038024000080040000C00400040014090
:10B13000004401400048014010B5044688B0142284
:10B14000002103A8FDF75CFF2368214A934216D132
:10B15000002300931F4B1A6B42F002021A631B6B11
:10B1600003F002030093009B20220223CDE9032376
:10B170001948079303A902F00FF808B010BD174A49
:10B18000934212D100230193124B1A6B42F0020238
:10B190001A631B6B03F002030193019B4FF480734E
:10B1A0000393022304930323E2E70D4A9342E4D17D
:10B1B00000230293074B1A6B42F002021A631B6BC7
:10B1C00003F002030293029B4FF40073E8E700BF11
:10B1D00000040040003802400004024000440140E6
:10B1E0000048014010B58EB01022002103A8FDF7E1
:10B1F00007FF00241C220DEB02002146CDE901448B
:10B20000FDF7FEFE1D481E4A84605323C0E900235B
:10B2100040F2E733C0E90334846104F035FD08B13E
:10B22000FEF7AAFD4FF480531448039303A904F0DA
:10B2300063FE08B1FEF7A0FD104804F07DFD08B1E3
:10B24000FEF79AFD00240D4801A9CDE9014404F060
:10B250008FFF08B1FEF790FD60230848099404228F
:10B2600007A9CDE907340B9404F0E4FD08B1FEF71B
:10B2700083FD0248FFF760FF0EB010BD541600209A
:10B280000004004000B589B01C22002101A8FDF790
:10B29000B7FE1548154A40F28F63C0E9002300232A
:10B2A00040F2E732C0E902320361836104F0ECFC52
:10B2B00008B1FEF761FD0C4804F03EFD08B1FEF751
:10B2C0005BFD002260230848039201A9CDE9013209
:10B2D000059204F0AFFD08B1FEF74EFD0248FFF7FE
:10B2E0002BFF09B05DF804FB341500200044014039
:10B2F00000B589B01C22002101A8FDF781FE154888
:10B30000154A40F28F63C0E90023002340F2E73280
:10B31000C0E902320361836104F0B6FC08B1FEF7B4
:10B320002BFD0C4804F008FD08B1FEF725FD0022B6
:10B3300060230848039201A9CDE90132059204F087
:10B3400079FD08B1FEF718FD0248FFF7F5FE09B0D8
:10B350005DF804FBEC140020004801400B480C4A47
:10B3600008B54FF4E133C0E9002300230C22C0E903
:10B370000233C0E905230361C36104F0EFFF18B194
:10B38000BDE80840FEF7F8BC08BD00BF6418002007
:10B39000001001400B480C4A08B54FF4E133C0E9F6
:10B3A000002300230C22C0E90233C0E90523036116
:10B3B000C36104F0D3FF18B1BDE80840FEF7DCBC60
:10B3C00008BD00BF1C1800200014014070B51422F5
:10B3D0008AB0054600210DEB0200FDF711FE2B6837
:10B3E000624A934260D1624B624C002601965A6CCD
:10B3F00042F010025A645A6C02F010020192019A53
:10B4000002961A6B42F001021A631B6B03F00103F0
:10B410000293029B4FF4C0610223CDE90513032080
:10B420000723CDE9080305A9534801F0B5FEDFF86D
:10B4300064C14FF00063C4E900C320464FF4806349
:10B44000C4E90266C4E90436C4E90666C4E90866CC
:10B4500002F00EF808B1FEF78FFCDFF83CE1EC6378
:10B46000A563464C4FF000634022C4E900E300238B
:10B47000C4E9022320464FF48062C4E90423C4E9EE
:10B480000633C4E9083301F0F3FF08B1FEF774FC9A
:10B490000022AC6325201146A56302F0EDF92520BA
:10B4A00002F01CFA0AB070BD354A9342FAD1304B13
:10B4B000002603965A6C42F020025A645A6C02F03D
:10B4C00020020392039A04961A6B42F004021A6354
:10B4D0001B6B03F004030493049BC0200223CDE9FB
:10B4E000050303240823274805A9CDE9084301F0F3
:10B4F00053FE254CDFF8A4C04FF02063C4E900C31D
:10B5000020464FF48063C4E90266C4E90436C4E906
:10B510000666C4E9086601F0ABFF08B1FEF72CFC33
:10B520001A4AEC63A5631A4C4FF02063C4E9002368
:10B5300000234FF48062C4E9042340214FF4807259
:10B540002046C4E90213C4E90723A361636201F042
:10B550008FFF08B1FEF710FC0022AC6347201146B4
:10B56000A56302F089F947209AE700BF0010014067
:10B5700000380240BC170020000002405C17002089
:10B580000014014000080240FC160020A0640240A4
:10B590009C16002040640240B864024028640240C7
:10B5A00008B501F04DFDFEE7FEE7FEE7FEE7FEE72A
:10B5B0007047704770477047014802F02DBE00BFCA
:10B5C0009013002070470000014802F0A2BA00BFAB
:10B5D000E8120020014804F07FBA00BF7C1500206B
:10B5E00008B5044804F078FABDE80840024804F0C1
:10B5F00073BA00BFAC18002034150020014804F0D5
:10B600006BBA00BFEC140020014804F065BA00BF1B
:10B6100054160020014804F05FBA00BF0C16002049
:10B62000014804F007B900BF94140020014804F059
:10B6300079BF00BF64180020014802F02DBD00BF93
:10B6400090130020014803F0FDBD00BF101400203E
:10B65000014804F041BA00BFC4150020014802F0BF
:10B6600039B800BFFC160020014802F033B800BF13
:10B67000BC170020014802F02DB800BFB013002015
:10B68000014802F027B800BF88120020014800F0EE
:10B6900087BB00BF04190020014802F01BB800BF9F
:10B6A0009C160020014802F015B800BF5C1700206E
:10B6B000014804F037BF00BF1C180020704700008D
:10B6C00013B5144B002400945A6C42F480425A641F
:10B6D0005A6C02F480420092009A01941A6C42F073
:10B6E00080521A641B6C03F080532246214601935A
:10B6F0000520019B02F0C0F8052002F0EFF8224679
:10B700002146512002F0B8F8512002B0BDE81040A7
:10B7100002F0E4B80038024070B588B000241D4B38
:10B7200002945A6C1C4D42F001025A645B6C03F0A7
:10B73000010301A90293064603A8029B01F060FCE5
:10B7400001F04EFC154B2B6040F2E733EB60144BDD
:10B75000B0FBF3F00138686028462C61AC60AC6146
:10B7600004F092FA044680B9284604F065F90446CC
:10B7700058B9192002F0B2F80F2E09D822463146E6
:10B78000192002F079F8074B1E60204608B070BD02
:10B790000124FAE700380240AC1800200000014004
:10B7A00040420F006000002008B50349034806F03E
:10B7B00001FA034B187008BDF4180020F035010899
:10B7C000F818002008B513460A460146034803F05E
:10B7D0001FF9003818BF012008BD00BF1014002059
:10B7E00008B513460A460146034803F0A3F900389A
:10B7F00018BF012008BD00BF1014002008B5034881
:10B8000003F0BAFC043818BF012008BD1014002052
:10B810000146014803F013BC10140020704708B51E
:10B82000FFF7FCFF08BD08B500F0F8F808BD08B543
:10B8300000F0FAF808BD07B501238DF8073000F0D5
:10B84000F9F808B98DF807009DF8070003B05DF816
:10B8500004FB000008B5FFF7EEFF01280CD10748F4
:10B8600003F0D2FB38B905484FF4006103F0FAFB4E
:10B87000003818BF012008BD0120FCE7101400208B
:10B8800030B5124B1C7814F0010489B0154619D15B
:10B89000032919D8DFE801F00D0208106846FFF708
:10B8A000B7FF069B2B6004E06846FFF7B1FF079BDC
:10B8B0002B80204609B030BD6846FFF7A9FF079BE3
:10B8C0005B0AEFE70324F4E70424F2E75C000020BE
:10B8D00038B502F049F847F22F55044602F044F813
:10B8E000031BAB4202D94FF0FF3003E0FFF786FFA6
:10B8F0000028F3D138BD0000F8B5194C1F460023CD
:10B900000D4616462360FFF7E3FF002801DA012009
:10B91000F8BD3A4631462846FFF762FF0028F6D1C7
:10B9200002F022F847F22F560546236823B902F0A9
:10B930001BF8431BB342F8D92368002BE7D0002340
:10B94000236002F011F847F22F55044602F00CF87C
:10B95000031BAB42DBD8FFF751FF0028F6D1D7E736
:10B960000019002070B50C4615461E46FFF7B0FFC3
:10B97000002801DA012070BD324629462046FFF733
:10B9800021FF0028F6D1114C206001F0EDFF47F2B5
:10B990002F560546236823B901F0E6FF431BB34247
:10B9A000F8D92368002BE5D00023236001F0DCFFE9
:10B9B00047F22F55044601F0D7FF031BAB42D9D8FD
:10B9C000FFF71CFF0028F6D1D5E700BFFC180020C8
:10B9D00010B5064C01232370FFF710FF18B9237828
:10B9E00003F0FE032370207810BD00BF5C00002030
:10B9F00010B5FFF72FFF084C58B901232370FFF74C
:10BA0000FDFE18B9237803F0FE0323702378DBB220
:10BA10002370207810BD00BF5C000020014B012284
:10BA20001A60704700190020014B01221A6070470C
:10BA3000FC18002008B54FF40041034801F0EEFC6B
:10BA4000B0FA80F0400908BD0000024000F29C41BD
:10BA5000D0F8E00406F020B9242303FB0103D0F85A
:10BA6000E004D3F8602206F047B9242303FB010366
:10BA7000D0F8E0041A6A06F074B9D0F8E00406F0D1
:10BA80000EBA10B5C379022B044601D0FEF774F943
:10BA9000D4F8E004012106F0E6F9D4F8E004BDE8AA
:10BAA000104006F0B1B9000010B50446D0F8E0042B
:10BAB00006F0DCF92268D2F8003E43F00103C2F838
:10BAC000003EE37A23B1034A136943F0060313618E
:10BAD00010BD00BF00ED00E0D0F8E00406F0D4B9DE
:10BAE000D0F8E00406F0FBB9D0F8E00406F0E4B9C1
:10BAF000D0F8E00406F006BAD0F8E00406F004BA84
:10BB000011F0800FD0F8C8324FF024021BBF01F0B3
:10BB10007F0102FB013302FB0133987D08BF93F8DC
:10BB20005602704718B102280CBF0120032070474D
:10BB300010B51446D0F8C8021A46234600F044F85F
:10BB4000BDE81040FFF7EEBF08B5D0F8C80200F01E
:10BB5000ABF8BDE80840FFF7E5BF08B5D0F8C8026C
:10BB600000F0D9F8BDE80840FFF7DCBF08B5D0F811
:10BB7000C80200F016F8BDE80840FFF7D3BF08B5CB
:10BB8000D0F8C80200F075F8BDE80840FFF7CABF5A
:10BB900008B5D0F8C80200F04EF8BDE80840FFF73D
:10BBA000C1BF10B590F89424012A04460AD001229E
:10BBB00080F894244174006800F0C6FE002084F8E8
:10BBC000940410BD0220FCE770B501F00F0606EBEF
:10BBD000C60411F0800F05464FEA84044FF024009C
:10BBE0001ED000FB065004F11401012429444475C1
:10BBF0008A604A780E700B7102B14E83022B04BF2B
:10BC000000234B7195F89434012B12D0012328683E
:10BC100085F8943400F0ACFC002085F8940470BDE5
:10BC200000FB065004F515710024294480F85542A4
:10BC3000DEE70220F3E770B501F00F05242404FBD2
:10BC4000050104FB0504C4E998230023C4F8683205
:10BC500084F8553284F85452164682790068012AD5
:10BC600001F5157108BFC4F8706200F015FD0020E1
:10BC700070BD70B501F00F05242404FB050104FB21
:10BC80000504C4E908230023A36201236375257515
:10BC90001646827900689A4201F1140108BF2663B2
:10BCA00000F0FAFC002070BD38B5037901F00F05F3
:10BCB000AB4204462BD311F0800F4FF024001DD06F
:10BCC00000FB054100FB05400123143143750123AE
:10BCD0008B700D7094F894249A421AD0206884F8DE
:10BCE000943400F0DDFD2DB9A179206804F29C4266
:10BCF00000F07AFE002084F8940438BD00FB014374
:10BD00001A4603F51571002382F85532DFE701204A
:10BD1000F3E70220F1E738B5037901F00F0293420F
:10BD2000044629D302EBC20311F0800F4FEA8303CC
:10BD30004FF0240017D000FB024003F1140101234F
:10BD40002144437500258D700A7094F89434012BBA
:10BD500014D00123206884F8943400F0CCFD84F8DA
:10BD60009454284638BD00FB024003F515710023AA
:10BD7000214480F85532E5E70120F3E70220F1E79E
:10BD800001F00F0303EBC3030A064FEA83034CBF22
:10BD900003F1140103F515710144006800F027BC9C
:10BDA0002DE9F04F066889B00446304600F00AFEDF
:10BDB0000390002840F05881206800F0D5FD00284D
:10BDC00000F05281D6F808382068C3F30D23C4F878
:10BDD000D43400F0C9FD870748BF2268206842BFFD
:10BDE000536903F00203536100F0BEFDC00606F57F
:10BDF00000652DD52268936923F010039361D6F86E
:10BE0000208008F4F013B3F5802F08F00F0740F0FE
:10BE10002E8147F6F07318EA030F14D0242303FB96
:10BE20000747C8F30A19D7F860124A46304600F0AF
:10BE300017FDD7F860324B44C7F86032D7F8683244
:10BE40004B44C7F868322268936943F0100393614A
:10BE5000206800F089FD010300F11C81206800F0DA
:10BE600083FD42030DD5206800F08AFD274604902B
:10BE700006F5106B4FF0000A049B2068002B40F081
:10BE8000D381206800F070FD002813DA6B6823F07E
:10BE900001036B6094F8CC34012B40F06B820021DD
:10BEA00084F8CC14204600F0C3FA2268536903F0EA
:10BEB00000435361206800F057FD01050AD5AB68C7
:10BEC000DA0702D52046FFF7EFFD2268536903F435
:10BED00000635361206800F047FDC30433D56B68ED
:10BEE000206823F001036B60102100F013FB207920
:10BEF00006F510634FF67F31039A904200F23E82BE
:10BF0000EB6943F00113EB61E37B002B00F05282FD
:10BF1000D5F8843043F00B03C5F884306B6C43F0E4
:10BF20000B036B64D6F80038206823F4FE63C6F870
:10BF3000003804F29C42A17900F056FD2268536952
:10BF400003F480535361206800F00EFD870416D57A
:10BF5000206800F03BFD206800F0FFFAE0712768E0
:10BF600001F028F8E2790146384600F063FA2046ED
:10BF7000FFF787FD2268536903F40053536120687B
:10BF800000F0F2FC000707D52046FFF776FD226897
:10BF9000536903F008035361206800F0E5FC0106D3
:10BFA00000F11382206800F0DFFCC2020CD5A0462D
:10BFB00006F5126901272379BB4200F21F8222682D
:10BFC000536903F480135361206800F0CDFC8302B1
:10BFD0002DD594F804E0234606F5326001218E4504
:10BFE00020D993F87CC20268BCF1010F40F01C829A
:10BFF000002A80F21982D4F8D47402F4803207F057
:10C000000107BA4240F0108283F87BC2B26942F065
:10C010008002B2617269170600F106826B6843F410
:10C0200000736B602268536903F400135361206846
:10C0300000F09AFC410007D52046FFF759FD226821
:10C04000536903F080435361206800F08DFC420780
:10C050000AD523685D686B0702D52046FFF74CFDC3
:10C06000226853682B43536009B0BDE8F08FB3F5E5
:10C07000402F7FF4E8AE082204F29C41304600F0E5
:10C08000EFFB242303FB0747C8F30A18D7F86832ED
:10C090004344D6E6206800F06BFC06F53068049057
:10C0A000A2460027049B2068002B3FF4D7AE049BD8
:10C0B000DB0778D55FFA87FB594600F069FC10F082
:10C0C000010F81461FD020680123C8F8083094F87A
:10C0D00006C0016C00F5306303EB4713BCF1010FA0
:10C0E0009A6840F08B8012F0080F07D0AF48814269
:10C0F00009D9120407D54FF4004203E012F0200FD3
:10C100005AD020229A6019F0080F21D00823C8F8CD
:10C1100008302368A5491A6C03F5306303EB471315
:10C120008A42986804D9010444BF4FF400409860E3
:10C1300020460592FFF78AFC059A9C498A4207D956
:10C14000A179012904D1206804F29C4200F04CFC42
:10C1500019F0100F1CBF1023C8F8083019F0020F97
:10C1600014D073691A0642BF6B6843F480636B6036
:10C170009AF85732012B06D100238AF857325946D4
:10C180002046FFF7ADFC0223C8F8083019F0200F55
:10C190001CBF2023C8F8083019F4005F1CBF4FF4FF
:10C1A0000053C8F80830049B5B080137049308F17A
:10C1B00020080AF1240A75E7DFF8F0C1614501D9CA
:10C1C000120498D41A69DAF87432C2F312029B1A74
:10C1D000CAF868326FB9D4F864222AB904F29C42D2
:10C1E000012100F001FC04E0D4F860221A44C4F8F4
:10C1F000602259462046FFF72FFC84E7DFF8B0C1E4
:10C20000614507D111043FF576AF9006F1D52022A4
:10C210009A60EEE7002FECD1D4F86432002BE8D11D
:10C2200004F29C423946DCE7049BDB0740F199802D
:10C230005FFA8AF31946059300F0B3FB10F0010F83
:10C2400080461FD06B6B01210AF00F0201FA02F247
:10C2500023EA02036B63CBF80810A17901290DD101
:10C26000D7E9072313443B62BAF1000F06D1636A92
:10C2700023B9206804F29C4200F0B6FB05992046E1
:10C28000FFF7F3FB18F0080F1CBF0823CBF80830AA
:10C2900018F0100F1CBF1023CBF8083018F0400F17
:10C2A0001CBF4023CBF8083018F0020F0FD05146C6
:10C2B000304600F02FF9FB7D012B05D100230599B5
:10C2C000FB752046FFF710FC0223CBF808302368EB
:10C2D000069318F0800F44D0D7E909329A4240D82B
:10C2E000A3EB0208FB69984528BF9846069B03F517
:10C2F000106308F1030803EB4A134FEA9808079309
:10C30000079B996989B24145D7E9093227D39342FE
:10C310000BD8069B0AF00F00D3F834280121814086
:10C3200022EA0102C3F834281BE0A3EB0209FB69EF
:10C33000059A0698994528BF9946A3790093396ACA
:10C340001FFA89F300F095F93B6A4B443B62BB6AE4
:10C3500009F103084B444FEA9808BB62D0E79342C7
:10C36000D7D9049B5B080AF1010A049324370BF127
:10C37000200B81E52046FFF7AFFB96E599601A6830
:10C3800022F400121A60C3F80812D3F8002222F433
:10C390000012C3F80022D3F8002242F00062C3F872
:10C3A0000022039A013203922033A5E50A30544F4C
:10C3B0000A31544F6B6943F4005343F02B036B6114
:10C3C0002B6943F00B032B61ACE5B36923F08003C9
:10C3D000B361012704F257284FF024092379BB42A7
:10C3E0007FF6E0AD09FB07F318F80330012B03D10A
:10C3F000F9B22046FFF7C4FC0137EFE798F83C306C
:10C40000D9F80020012B09D1002A07DA67F07F0153
:10C4100088F83B30C9B22046FFF7B2FC013708F17B
:10C42000240809F12009C6E5013124332030D6E57E
:10C4300070470000022A4AD1274B284A0B449342F6
:10C4400039D9274B274A0B44934236D9264AA1F5BE
:10C450007403A3F51053934231D9244AA1F1837395
:10C46000A3F5E74393422CD3214B224A0B4493423A
:10C4700029D9214B214A0B44934226D3204B214AF0
:10C480000B44934223D3204AA1F1B773A3F5585329
:10C4900093421ED31D4B1E4A0B4493422CBF0623CE
:10C4A0000723C26822F47052C260C26842EA832342
:10C4B000C360002070470F23F3E70E23F1E70D233D
:10C4C000EFE70C23EDE70B23EBE70A23E9E709236A
:10C4D000E7E70823E5E700BF405327FFFF340C00E0
:10C4E000401E1BFF3F420F007F4F120020D613005B
:10C4F00060B6E5FE5FE3160000D3CEFE40771B007A
:10C50000C05BB3FEC091210020753800E05459FE95
:10C51000E09C410082B0002302460193019B01335D
:10C520000193019BB3F1706F15D81369002BF5DAF5
:10C530008901002341F0200101931161019B013326
:10C540000193019BB3F1706F05D8106910F02000C2
:10C55000F4D102B070470320FBE7D0F8083813F09D
:10C56000060004D013F0020F14BF02200F20704702
:10C5700030B50C78012204F00F05AA404D78012D4A
:10C5800000F5006300EB441019D1DD692A43DA613C
:10C59000D0F800391A0410D48A68D0F80059C2F3D0
:10C5A0000A030A792B4343EA824343EA845343F064
:10C5B000805343F40043C0F80039002030BDDC69EB
:10C5C00044EA0242DA61D0F8003B1B04F5D48B68E0
:10C5D000D0F8002BC3F30A0313430A7943EA8243DA
:10C5E00043F0805343F40043C0F8003BE5E782B0DA
:10C5F00000234A7801930B78012A4FEA43131ED196
:10C6000000F51060C118C258002A02DB002002B0F9
:10C610007047C25842F00062C250C25842F0804295
:10C62000C25042F21072019B01330193019B93426D
:10C6300001D90120EBE70B68002BF4DBE6E700F5FE
:10C640003060C118C258002AE0DAC25842F00062D5
:10C65000C250C25842F08042C25042F21072019B56
:10C6600001330193019B9342E3D80B68002BF6DB67
:10C67000CCE710B59DF8084044B9033301329B085C
:10C6800000EB023001EB8303994201D1002010BD81
:10C6900051F8042B0260F7E7F7B54B780C69DFF827
:10C6A000B8C1DFF8B8E117460A78012B00EB421554
:10C6B00040F0828005F51066336944BB03EA0C0341
:10C6C0003361336943F400233361336903EA0E03B2
:10C6D0003361012F0C7947D1CB6903B17361012C10
:10C6E0000CD1D0F8083813F4807FD5F800390CBF8E
:10C6F00043F0005343F08053C5F80039D5F80039B2
:10C7000043F00443C5F80039002003B0F0BD03EA4C
:10C710000E033361336903EA0C0333618B68BAB9E2
:10C72000A34238BF0B61336943F4002333610B69C3
:10C730003469C3F31203234333610B79012BC8D14E
:10C74000336923F0C0433361336943F00053BFE7DB
:10C750001C44013CB4FBF3F43E4BD6F810C003EA92
:10C76000C44343EA0C03E1E7D5F80039012C43F058
:10C770000443C5F800390B690BD0002BC4D0D0F8A6
:10C78000341802F00F02012393400B43C0F83438F1
:10C79000BAE7D0F8084814F4807FD5F800490CBFF8
:10C7A00044F0005444F08054C5F800490097C9682B
:10C7B0009BB2FFF75EFFA7E7D5F8103B03EA0E0335
:10C7C000C5F8103BD5F8103B03EA0C0305F53066BD
:10C7D00033618B683ABB04B10B610B623269C3F3FE
:10C7E000120313433361336943F40023012F336190
:10C7F00002D1CB6803B173610B79012B0CD1D0F856
:10C80000083813F4807FD5F8003B0CBF43F0005389
:10C8100043F08053C5F8003BD5F8003B43F0044398
:10C82000C5F8003B70E7002CD8D01C44094AD6F864
:10C8300010C0013CB4FBF3F4A4B202EAC442634367
:10C8400042EA0C020B6232613269C3F312031343F2
:10C85000CCE700BF0000F81FFFFF07E00000F8FF73
:10C86000034670B50020940803F5805502F00302DA
:10C87000A04210D301EB840062B103F580531C6821
:10C880000023D90024FA01F1C154013399B28A423C
:10C89000F7D1104470BD2E6841F820600130E7E701
:10C8A0004A780B78012A00EB431012D1D0F8002906
:10C8B000002A06DB2BB1D0F8003923F08043C0F802
:10C8C0000039D0F8003943F40013C0F800390020D3
:10C8D0007047D0F8002B002A06DB2BB1D0F8003BC4
:10C8E00023F08043C0F8003BD0F8003B43F4001332
:10C8F000C0F8003BEBE70B784A7800EB43100B796C
:10C90000012AA3F10203DBB20FD1D0F80029012BD9
:10C9100022F40012C0F8002905D8D0F8003943F0FD
:10C920008053C0F8003900207047D0F8002B22F463
:10C930000012012BC0F8002B9EBFD0F8003B43F043
:10C940008053C0F8003BEEE7D0F8003823F4FE63D4
:10C95000C0F80038D0F80038090101F4FE6119432D
:10C96000C0F8001800207047426980691040704785
:10C97000D0F8183800F50060C0691840000C704706
:10C98000D0F8183800F50060C069184080B27047D0
:10C9900000EB411100F50060D1F8082B4069104010
:10C9A0007047D0F81028D0F8343800EB411001F06F
:10C9B0000F01CB4000F51060DB018068DBB2134350
:10C9C00018407047406900F001007047D0F8003906
:10C9D0006FF30A03C0F80039D0F8043843F48073C9
:10C9E000C0F804380020704730B5056C104CA542E3
:10C9F00000F5306303D9D0F8004B002C16DB00247F
:10CA00001C611C6944F400241C611C6944F0180476
:10CA10001C611C69012944F0C0441C6101BF5A61BA
:10CA2000D0F8003B43F08023C0F8003B002030BD2D
:10CA30000A30544F2DE9F341044640B30368DE0742
:10CA400010D423689D075BD42368190700F19D80EB
:10CA500023685A0700F1BD80A369002B40F02481B0
:10CA600000202CE08D4B9A6802F00C02042A07D0BB
:10CA70009A6802F00C02082A0BD15B68590208D5AB
:10CA8000864B1B689A03DCD56368002BD9D1012043
:10CA900015E06368814DB3F5803F13D12B6843F4F3
:10CAA00080332B6000F060FF7C4E054633689B03AB
:10CAB000C7D400F059FF401B6428F7D9032002B007
:10CAC000BDE8F081B3F5A02F04D12B6843F4802397
:10CAD0002B60E3E72A6822F480322A602A6822F475
:10CAE00080222A60002BDDD100F03EFF06462B6835
:10CAF0009F03A6D500F038FF801B6428F7D9DDE737
:10CB0000664B9A6812F00C0F07D09A6802F00C027C
:10CB1000082A11D15B685D020ED4604A1368990738
:10CB200002D5E368012BB2D11368216923F0F80321
:10CB300043EAC103136087E7E268594BB2B10122AF
:10CB40001A6000F011FF554D06462B689B0707D56C
:10CB50002B68226923F0F80343EAC2032B6073E7D2
:10CB600000F002FF801B0228EFD9A7E71A6000F04F
:10CB7000FBFE4A4E054633689F077FF565AF00F020
:10CB8000F3FE401B0228F6D998E76269444B82B154
:10CB90000122C3F8802E00F0E7FE404E0546736F79
:10CBA0009B073FF555AF00F0DFFE401B0228F6D98A
:10CBB00084E7C3F8802E00F0D7FE384E0546736F29
:10CBC0009F077FF545AF00F0CFFE401B0228F6D946
:10CBD00074E7324B1A6C12F0805228D101921A6C11
:10CBE00042F080521A641B6C03F080530193019B46
:10CBF00001272C4D2B68D8051BD5A368274D012B89
:10CC000027D12B6F43F001032B6700F0ADFE234EBD
:10CC1000054641F28838336F9A0739D5002F3FF423
:10CC20001BAF1E4A136C23F08053136414E70027D4
:10CC3000DFE72B6843F480732B6000F095FE064617
:10CC40002B68D905D9D400F08FFE801B0228F7D9B4
:10CC500034E7052B04D12B6F43F004032B67D0E797
:10CC60002A6F22F001022A672A6F22F004022A6743
:10CC7000002BCAD100F078FE41F2883806462B6FAF
:10CC80009B07CBD500F070FE801B4045F7D915E718
:10CC900000F06AFE401B4045BDD90FE70038024056
:10CCA0000000474200700040374DAA6802F00C02B5
:10CCB000082A3ED0022B354B4FF000021A662BD1CA
:10CCC00000F052FE06462B6899011FD4D4E90732C2
:10CCD0001343626A43EA8213E26A43EA0263A26A86
:10CCE0005208013A43EA02436B60284B264D012269
:10CCF0001A6600F039FE04462B689A013FF5B0AE83
:10CD000000F032FE001B0228F6D9D7E600F02CFE18
:10CD1000801B0228D7D9D1E600F026FE04462B68F6
:10CD20009B017FF59DAE00F01FFE001B0228F6D987
:10CD3000C4E6012B3FF4ABAE6B68E26903F48001FB
:10CD400091427FF4A4AE216A03F03F028A427FF44D
:10CD50009EAE616A47F6C0721A40B2EB811F7FF443
:10CD600096AEA26A520803F44031013AB1EB024F89
:10CD70007FF48DAEE26A03F07063B3EB026F14BF11
:10CD8000012000209BE600BF00380240000047421F
:10CD900070B5224C88B00E461546F8B90190236B49
:10CDA00043F001032363236B079003F00103019316
:10CDB000019B4FF4807C0223CDE903C30323CDE91B
:10CDC000050303A9164800F0E7F9A36823F0EC6314
:10CDD00043EA06012943A16008B070BD0023029315
:10CDE000226B104842F004022263226B079302F088
:10CDF00004020292029A4FF400710222CDE903125A
:10CE0000032203A9CDE9053200F0C6F9A36823F097
:10CE1000784343EA060141EAC501DCE700380240F5
:10CE20000000024000080240014B0122DA64704712
:10CE300000004742104908B58B6803F00C03082B2B
:10CE400018D14A684B6849680C4813F48003C1F351
:10CE5000881118BF002302F03F02A1FB0001FBF77D
:10CE600053FF054B5B68C3F3014301335B00B0FB29
:10CE7000F3F008BD0148FCE7003802400024F4004C
:10CE80002DE9F0410D46044610B90120BDE8F081BE
:10CE9000434B1A6802F007028A4228D321688F07A1
:10CEA0002DD4C80740D43E4B1A6802F00702AA42AC
:10CEB00065D8226851076BD4130707D5394A216911
:10CEC000936823F4604343EAC1039360FFF7B2FF22
:10CED000344B354A9B68C3F30313D35CD840334BC0
:10CEE0001860334B1868FEF717FC0020CEE7CAB273
:10CEF0001A701B6803F007038B42C6D1CEE7294B9B
:10CF000011F0040F1EBF9A6842F4E0529A600E07B7
:10CF100042BF9A6842F460429A609A68A06822F020
:10CF2000F00202439A60BCE762681E4B012A1CD1E2
:10CF30001B6813F4003FA8D01A4EB36823F0030314
:10CF40001343B36000F010FD41F288380746B36820
:10CF5000626803F00C03B3EB820FA4D000F004FD71
:10CF6000C01B4045F3D9032090E7911E01291B689F
:10CF700002D813F0007FDEE713F0020FDBE7EAB21E
:10CF80001A701B6803F00703AB427FF47EAF90E793
:10CF90000449E0688B6823F4E05303438B608BE71C
:10CFA000003C0240003802401436010864000020B2
:10CFB00060000020014B1868704700BF640000202B
:10CFC000044B054A9B68C3F38223D35C034A106871
:10CFD000D8407047003802400C3601086400002039
:10CFE000044B054A9B68C3F34233D35C034A106881
:10CFF000D8407047003802400C3601086400002019
:10D000000F2303600B4B9A6802F0030242609A6898
:10D0100002F0F00282609A6802F4E052C2609B68FB
:10D02000DB0803F4E0530361034B1B6803F00703C1
:10D030000B60704700380240003C0240704700001F
:10D0400010B5044CE3681B0603D5FFF7F7FF8023F8
:10D05000A37310BD00380240036813F0050FF7B545
:10D06000044639D123689A0731D500230193464BF2
:10D07000464D1A6C42F080521A641B6C03F08053C8
:10D080000193019B2B6843F480732B6000F06CFCD0
:10D0900006462B68D80548D53B4DE2682B6F13F444
:10D0A000407348D1E36803F44072B2F5407F364ADA
:10D0B00061D1916823F0704021F4F81120F44070A0
:10D0C00001439160116FC3F30B030B431367236894
:10D0D0001B0754D4002026E02D4B2B4E00229A66CD
:10D0E00000F042FC054633681B0116D4D4E9012345
:10D0F0001B0743EA8213C6F88430254B224E0122D7
:10D100009A6600F031FC054633681F01AAD400F08E
:10D110002BFC401B0228F7D904E000F025FC401B43
:10D120000228E0D9032003B0F0BD00F01DFC801BF5
:10D130000228AED9F6E702F440729342B2D02B6FC8
:10D14000134A0121C2F8401E23F440730021C2F8A3
:10D15000401E2B672B6FD907A4D500F005FC41F2C8
:10D16000883706462B6F9A079CD400F0FDFB801B86
:10D17000B842F7D9D6E7916821F4F811A1E7054B39
:10D18000227CC3F8E021A5E700380240007000408F
:10D1900000004742001047422DE9F74FDFF8809129
:10D1A0005D4A00230D6801249C4004EA0506AC4357
:10D1B00040F0A3804D68032705F003044FEA4308BD
:10D1C00007FA08FC671E012F6FEA0C0C34D8876839
:10D1D00007EA0C0ECF6807FA08F747EA0E078760E0
:10D1E000476827EA060EC5F300179F4047EA0E0777
:10D1F0004760C76807EA0C0E8F6807FA08F747EA26
:10D200000E07022CC76019D14FEAD30A00EB8A0A35
:10D2100003F0070BDAF820704FEA8B0B4FF00F0E7C
:10D220000EFA0BFE27EA0E0E0F6907FA0BF747EA14
:10D230000E07CAF8207001E0032CDAD1076804FA5F
:10D2400008F407EA0C073C4315F4403F046054D04F
:10D2500000240194D9F8444044F48044C9F844407F
:10D26000D9F8444023F0030707F1804704F48044D1
:10D2700007F59C37019403F0030C019CD7F808E0F4
:10D280004FEA8C0C0F2404FA0CF42EEA040E234C03
:10D29000A04239D004F58064A04237D004F5806400
:10D2A000A04235D004F58064A04233D004F58064F8
:10D2B000A04214BF0724042404FA0CF444EA0E0428
:10D2C000BC609468F74315F4801F0CBF3C403443A6
:10D2D0009460D46815F4001F0CBF3C403443D46004
:10D2E000546815F4003F0CBF3C403443546014684C
:10D2F000ED0354BF3C40344314600133102B7FF4E2
:10D3000051AF03B0BDE8F08F0024D5E70124D3E787
:10D310000224D1E70324CFE7003C01400000024093
:10D32000003802403B4A2DE9F04F00234FF0010A3C
:10D330004FF00F084FF0030B0AFA03FC3CEA01041C
:10D340000CEA010658D123F0030404F1804404F5EB
:10D350009C3403F00307A568BF0008FA07F909EA3F
:10D36000050E2D4DA8424CD005F58065A8424AD047
:10D3700005F58065A84248D005F58065A84246D0ED
:10D3800005F58065A84214BF07250425BD407545F5
:10D3900013D1156825EA06051560556825EA0605C6
:10D3A0005560D56825EA0605D560956825EA060525
:10D3B0009560A56825EA0905A56005685C000BFA7B
:10D3C00004F4DE0825EA040500EB8606056003F098
:10D3D0000705376AAD0008FA05F527EA0507376241
:10D3E000C56825EA0405C560456825EA0C05456061
:10D3F000856825EA040484600133102B9CD1BDE8C4
:10D40000F08F0025C2E70125C0E70225BEE703250E
:10D41000BCE700BF003C0140000002400369194224
:10D4200014BF0120002070470AB1816170470904D0
:10D43000FBE7436901EA030221EA030141EA0241F1
:10D4400081617047036810B5084C0246D9B21039A3
:10D450001820B1FBF0F0205CD06523F47F7020F041
:10D4600003005F2988BF0430906510BD04360108B1
:10D4700070B5044600F078FA0546002C60D002230F
:10D4800084F835302268002384F83430136823F0A0
:10D490000103136022681368D8072ED4136832483A
:10D4A000A1691840D4E901352B43E5682B43256970
:10D4B0002B4365692B43E5690B432B43256A2B43BB
:10D4C0000343606A042802BFD4E90B5635432B435B
:10D4D00013605369042823F0070343EA000335D19E
:10D4E000A06AE56A03438DB391B9012820D030F0DA
:10D4F00002012BD1E90129D51DE000F035FA401BCE
:10D500000528C7D920230320636584F8350070BD42
:10D51000B1F5005F16D1032818D801A151F820F009
:10D5200037D50008F5D4000837D5000831D50008F4
:10D53000B5F1C07F0AD140236365012384F83530FB
:10D540000120E4E70228F6D90328D3D0536120460E
:10D55000FFF778FFE26D3F239340836000200123B3
:10D56000606584F83530D2E73F8010F038B5054665
:10D5700020B390F83530022BDCB21DD003681A6856
:10D5800022F0010200241A6021221C605C609C6071
:10D59000DC601C615A61FFF755FFEA6D3F23934041
:10D5A000C5E90F44C5E91144C5E9134483606C65BE
:10D5B00085F8344085F83540204638BD0124FBE726
:10D5C00070B590F83440866D012C30D0012480F87D
:10D5D000344090F83540012C4FF0000425D102254D
:10D5E00080F8355044650468256825F48025256059
:10D5F00063608368402B0EBFA260A160E260C26DD1
:10D6000008BFE1603F239340B360236843F01603F3
:10D610002360036C1BB1236843F008032360236875
:10D6200043F001032360002070BD80F834400220E5
:10D63000FAE770B50446866D00F096F994F8353037
:10D64000022B054606D0802363650120002384F861
:10D65000343070BD23681A6822F016021A605A69C5
:10D6600022F080025A61226C0AB9A26C1AB11A68BF
:10D6700022F008021A601A6822F001021A60236878
:10D68000186810F0010007D1E26D3F239340B360AA
:10D69000012384F83530D9E700F066F9401B0528EE
:10D6A000EDD920230320636584F83500CEE790F898
:10D6B0003530022B03D08023436501207047026878
:10D6C000052380F83530136823F001031360002030
:10D6D00070470000F7B5002301935C4B856D1F6810
:10D6E000C36D2E6808229A40324204460CD001686D
:10D6F0000868400708D5086820F004000860AA60A0
:10D70000626D42F00102626501229A40324208D005
:10D7100021684969090641BFAA60626D42F00202B0
:10D72000626504229A40324208D02168096888075D
:10D7300041BFAA60626D42F00402626510229A4005
:10D74000324210D02368196809070CD5AA601A68FC
:10D75000500337D51B68190301D4236C00E0A36C78
:10D760000BB120469847E16D20228A4032423AD0E0
:10D7700023681868C60636D5AA6094F83520052AAD
:10D780001A6827D122F016021A605A6922F0800224
:10D790005A61226C0AB9A26C1AB11A6822F0080206
:10D7A0001A603F238B40AB60012384F8353000239F
:10D7B00084F83430236D002B45D0204603B0BDE8FB
:10D7C000F04018471A68D2055EBF1A6822F00802B6
:10D7D0001A60C2E7500327D51B68190331D4636C64
:10D7E0000BB120469847636D6BB3636DDA0719D5AB
:10D7F00022684FF41653B7FBF3F7052384F835304E
:10D80000136823F001031360019B0133BB420193B2
:10D8100002D81368DB07F7D4012384F835300023DE
:10D8200084F83430E36CC6E71A6812F4807208D1C9
:10D83000196821F010011960012384F8353084F84B
:10D840003420E36BCCE703B0F0BD00BF64000020E0
:10D85000406D70470749CA6822F4E062030212046F
:10D8600003F4E063120C134343F0BF6343F400334B
:10D87000CB60704700ED00E0164B30B5DC68C4F3B8
:10D880000224C4F10703251D042B28BF0423062D01
:10D890004FF0FF358CBF033C002405FA03F321EA67
:10D8A0000303A54022EA0502A340002843EA02033D
:10D8B000ACBF00F16040084A4FEA0313B8BF00F064
:10D8C0000F00DBB2AABF00F56140135480F80033AB
:10D8D00030BD00BF00ED00E014ED00E0002807DBE4
:10D8E000044A4109012300F01F00834042F821301F
:10D8F000704700BF00E100E000280CDB4309064947
:10D9000000F01F0020330122824041F82320BFF3A2
:10D910004F8FBFF36F8F704700E100E008B50B4BEE
:10D920001A6842F400721A601A6842F480621A603F
:10D930001A6842F480721A600320FFF78BFF0F20F1
:10D94000FDF7EAFEFDF7BCFE002008BD003C0240EA
:10D95000034A044B11681B780B441360704700BFE7
:10D96000E81D00205D000020014B1868704700BFD3
:10D97000E81D002038B50446FFF7F6FF631C1CBF06
:10D98000054B1B78054618BFE418FFF7EDFF431B56
:10D99000A342FAD338BD00BF5D000020014BD3F88D
:10D9A000100A70470070FF1F014BD3F8140A70472C
:10D9B0000070FF1F014BD3F8180A70470070FF1F5B
:10D9C00038B50446002800F09B80056C25B9FCF7AB
:10D9D0007BFF656484F83C50236CDB0600F18E808D
:10D9E000236C23F4885323F0020343F002032364DF
:10D9F000444B5A6822F440325A605A6861680A43BC
:10DA00005A60236821695A6822F480725A605A6801
:10DA100042EA01225A605A68A16822F040725A60B4
:10DA20005A680A435A609A68E16822F400629A6070
:10DA30009A680A439A603449A26A8A4252D0996825
:10DA400021F07061996099680A439A609A68E16A66
:10DA500022F040529A609A680A439A609A6822F0CB
:10DA600002029A609A68217E42EA41029A6094F822
:10DA70002020002A3ED05A68616A42F400625A604F
:10DA80005A6822F460425A605A68013942EA4132C7
:10DA90005A60DA6AE16922F47002DA62DA6A0139FC
:10DAA00042EA0152DA629A6822F400729A609A6835
:10DAB00094F8301042EA41229A609A68616922F42F
:10DAC00080629A609A68002042EA81229A606064CB
:10DAD000236C23F0030343F001032364002384F841
