:020000040800F2
:1080000000000120857A0108490101085101010899
:108010005301010855010108570101080000000043
:1080200000000000000000000000000059010108ED
:108030005B010108000000005D0101085F0101080B
:10804000D57A0108D57A010861010108D57A0108BD
:10805000D57A01086D010108D57A0108D57A0108A1
:10806000D57A0108D57A0108D57A0108D57A0108B0
:10807000D57A0108D57A0108D57A0108D57A0108A0
:10808000D57A0108D57A01087101010800000000C5
:10809000000000000000000000000000D57A010888
:1080A0007D01010889010108A5010108D57A0108AF
:1080B000D57A0108B1010108BD010108D57A01088E
:1080C000D57A0108D57A0108D57A0108C9010108D5
:1080D000D57A0108D5010108D57A01080000000011
:1080E000D57A0108E1010108D57A010800000000F5
:1080F000000000000000000000000000D57A010828
:1081000000000000ED010108F9010108D57A01081D
:10811000000000000000000000000000000000005F
:10812000D57A010805020108110201081D020108A3
:10813000290201080000000000000000000000000B
:1081400000000000000000000000000035020108EF
:10815000D57A0108410201084D02010859020108BF
:10816000D57A0108D57A010800000000000000005F
:1081700000000000000000000000000000000000FF
:10818000000000006502010800000000000000007F
:04819000D57A010893
:1081A00001F0FF01102A2BDB10F0070F08D010F8A8
:1081B000013B013A8B422DD010F0070F42B3F6D1AC
:1081C000F0B441EA012141EA014122F007047FF0C5
:1081D00000070023F0E80256083C85EA010586EA1C
:1081E000010685FA47F5A3FA87F586FA47F6A5FA58
:1081F00087F68EB9EED1F0BC01F0FF0102F0070264
:1082000032B110F8013B013A83EA010313B1F8D10E
:108210000020704701387047002D06BF35460338EF
:10822000073815F0010F07D1013015F4807F02BF28
:10823000013015F4C03F0130F0BC0138704700BF79
:10824000034613F8012B002AFBD1181A0138704796
:1082500010F8012B11F8013B012A28BF9A42F7D0F0
:10826000D01A704781F0004102E000BF83F0004364
:1082700030B54FEA41044FEA430594EA050F08BFC1
:1082800090EA020F1FBF54EA000C55EA020C7FEA85
:10829000645C7FEA655C00F0E2804FEA5454D4EB02
:1082A0005555B8BF6D420CDD2C4480EA020281EACC
:1082B000030382EA000083EA010180EA020281EA04
:1082C0000303362D88BF30BD11F0004F4FEA013156
:1082D0004FF4801C4CEA113102D0404261EB410165
:1082E00013F0004F4FEA03334CEA133302D05242EB
:1082F00063EB430394EA050F00F0A780A4F10104A7
:10830000D5F1200E0DDB02FA0EFC22FA05F28018E0
:1083100041F1000103FA0EF2801843FA05F35941C6
:108320000EE0A5F120050EF1200E012A03FA0EFC45
:1083300028BF4CF0020C43FA05F3C01851EBE3716F
:1083400001F0004507D54FF0000EDCF1000C7EEB8C
:1083500000006EEB0101B1F5801F1BD3B1F5001FCA
:108360000CD349085FEA30004FEA3C0C04F10104E9
:108370004FEA445212F5800F80F09A80BCF1004F12
:1083800008BF5FEA500C50F1000041EB045141EA94
:10839000050130BD5FEA4C0C404141EB0101013C5D
:1083A00028BFB1F5801FE9D291F0000F04BF01464C
:1083B0000020B1FA81F308BF2033A3F10B03B3F11E
:1083C00020020CDA0C3208DD02F1140CC2F10C02AE
:1083D00001FA0CF021FA02F10CE002F11402D8BF0C
:1083E000C2F1200C01FA02F120FA0CFCDCBF41EAD8
:1083F0000C019040E41AA2BF01EB0451294330BDA7
:108400006FEA04041F3C1CDA0C340EDC04F1140483
:10841000C4F1200220FA04F001FA02F340EA03005A
:1084200021FA04F345EA030130BDC4F10C04C4F1A0
:10843000200220FA02F001FA04F340EA0300294680
:1084400030BD21FA04F0294630BD94F0000F83F4CA
:10845000801306BF81F480110134013D4EE77FEAAD
:10846000645C18BF7FEA655C29D094EA050F08BFF9
:1084700090EA020F05D054EA000C04BF19461046DA
:1084800030BD91EA030F1EBF0021002030BD5FEA1E
:10849000545C05D14000494128BF41F0004130BD46
:1084A00014F580043CBF01F5801130BD01F000459A
:1084B00045F0FE4141F470014FF0000030BD7FEA0D
:1084C000645C1ABF194610467FEA655C1CBF0B4608
:1084D000024650EA013406BF52EA033591EA030F1F
:1084E00041F4002130BD00BF90F0000F04BF002117
:1084F000704730B54FF4806404F132044FF000054A
:108500004FF0000150E700BF90F0000F04BF0021C2
:10851000704730B54FF4806404F1320410F0004528
:1085200048BF40424FF000013EE700BF42004FEA23
:10853000E2014FEA31014FEA02701FBF12F07F43A0
:1085400093F07F4F81F06051704732F07F4208BF57
:10855000704793F07F4F04BF41F40021704730B55E
:108560004FF4607401F0004521F000411CE700BFAA
:1085700050EA010208BF704730B54FF000050AE02D
:1085800050EA010208BF704730B511F0004502D52E
:10859000404261EB41014FF4806404F132045FEA30
:1085A000915C3FF4D8AE4FF003025FEADC0C18BFD9
:1085B00003325FEADC0C18BF033202EBDC02C2F1CB
:1085C000200300FA03FC20FA02F001FA03FE40EA5D
:1085D0000E0021FA02F11444BDE600BF70B54FF061
:1085E000FF0C4CF4E06C1CEA11541DBF1CEA13553F
:1085F00094EA0C0F95EA0C0F00F0DEF82C4481EAA7
:10860000030621EA4C5123EA4C5350EA013518BFC6
:1086100052EA033541F4801143F4801338D0A0FBB3
:1086200002CE4FF00005E1FB02E506F00042E0FB60
:1086300003E54FF00006E1FB03569CF0000F18BF66
:108640004EF0010EA4F1FF04B6F5007F64F540740E
:1086500004D25FEA4E0E6D4146EB060642EAC621A1
:1086600041EA55514FEAC52040EA5E504FEACE2E0E
:10867000B4F1FD0C88BFBCF5E06F1ED8BEF1004F11
:1086800008BF5FEA500E50F1000041EB045170BD8D
:1086900006F0004646EA010140EA020081EA0301D1
:1086A000B4EB5C04C2BFD4EB0C0541EA045170BDCD
:1086B00041F480114FF0000E013C00F3AB8014F147
:1086C000360FDEBF002001F0004170BDC4F1000490
:1086D000203C35DA0C341BDC04F11404C4F1200511
:1086E00000FA05F320FA04F001FA05F240EA02006C
:1086F00001F0004221F0004110EBD37021FA04F6A2
:1087000042EB06015EEA430E08BF20EAD37070BD5B
:10871000C4F10C04C4F1200500FA04F320FA05F0BA
:1087200001FA04F240EA020001F0004110EBD370BC
:1087300041F100015EEA430E08BF20EAD37070BD2C
:10874000C4F1200500FA05F24EEA020E20FA04F305
:1087500001FA05F243EA020321FA04F001F00041B4
:1087600021FA04F220EA020000EBD3705EEA430E25
:1087700008BF20EAD37070BD94F0000F0FD101F054
:108780000046400041EB010111F4801F08BF013C8D
:10879000F7D041EA060195F0000F18BF704703F0CB
:1087A0000046520043EB030313F4801F08BF013D52
:1087B000F7D043EA0603704794EA0C0F0CEA13550E
:1087C00018BF95EA0C0F0CD050EA410618BF52EAC8
:1087D0004306D1D181EA030101F000414FF00000CE
:1087E00070BD50EA410606BF1046194652EA4306DC
:1087F00019D094EA0C0F02D150EA013613D195EA50
:108800000C0F05D152EA03361CBF104619460AD197
:1088100081EA030101F0004141F0FE4141F47001A1
:108820004FF0000070BD41F0FE4141F4780170BD91
:1088300070B54FF0FF0C4CF4E06C1CEA11541DBFF6
:108840001CEA135594EA0C0F95EA0C0F00F0A7F8F8
:10885000A4EB050481EA030E52EA03354FEA013125
:1088600000F088804FEA03334FF0805545EA131338
:1088700043EA12634FEA022245EA111545EA106500
:108880004FEA00260EF000419D4208BF964244F197
:10889000FD0404F5407402D25B084FEA3202B61AB6
:1088A00065EB03055B084FEA32024FF480104FF48A
:1088B000002CB6EB020E75EB030E22BFB61A7546FE
:1088C00040EA0C005B084FEA3202B6EB020E75EB91
:1088D000030E22BFB61A754640EA5C005B084FEAF9
:1088E0003202B6EB020E75EB030E22BFB61A7546C6
:1088F00040EA9C005B084FEA3202B6EB020E75EBD1
:10890000030E22BFB61A754640EADC0055EA060E91
:1089100018D04FEA051545EA16754FEA06164FEAD4
:10892000C30343EA52734FEAC2025FEA1C1CC0D180
:1089300011F4801F0BD141EA00014FF000004FF00D
:10894000004CB6E711F4801F04BF01430020B4F1CE
:10895000FD0C88BFBCF5E06F3FF6AFAEB5EB030C86
:1089600004BFB6EB020C5FEA500C50F1000041EB83
:10897000045170BD0EF0004E4EEA113114EB5C0450
:10898000C2BFD4EB0C0541EA045170BD41F4801123
:108990004FF0000E013C90E645EA060E8DE60CEA2B
:1089A000135594EA0C0F08BF95EA0C0F3FF43BAF48
:1089B00094EA0C0F0AD150EA01347FF434AF95EAFF
:1089C0000C0F7FF425AF104619462CE795EA0C0FE3
:1089D00006D152EA03353FF4FDAE1046194622E7B0
:1089E00050EA410618BF52EA43067FF4C5AE50EA8A
:1089F00041047FF40DAF52EA43057FF4EBAE12E77A
:108A00004FF0FF3C06E000BF4FF0010C02E000BF5A
:108A10004FF0010C4DF804CD4FEA410C7FEA6C5C3D
:108A20004FEA430C18BF7FEA6C5C1BD001B050EAE0
:108A3000410C0CBF52EA430C91EA030F02BF90EACB
:108A4000020F0020704710F1000F91EA030F58BF8A
:108A5000994208BF90422CBFD8176FEAE37040F0EC
:108A6000010070474FEA410C7FEA6C5C02D150EA8A
:108A7000013C07D14FEA430C7FEA6C5CD6D152EA45
:108A8000033CD3D05DF8040B704700BF844610460A
:108A900062468C461946634600E000BF01B5FFF709
:108AA000B7FF002848BF10F1000F01BD4DF808EDD9
:108AB000FFF7F4FF0CBF012000205DF808FB00BFAA
:108AC0004DF808EDFFF7EAFF34BF012000205DF804
:108AD00008FB00BF4DF808EDFFF7E0FF94BF012051
:108AE00000205DF808FB00BF4DF808EDFFF7CEFF52
:108AF00094BF012000205DF808FB00BF4DF808ED91
:108B0000FFF7C4FF34BF012000205DF808FB00BF61
:108B10004FEA410C7FEA6C5C02D150EA013C0AD179
:108B20004FEA430C7FEA6C5C02D152EA033C02D16B
:108B30004FF0000070474FF0010070474FEA4102CC
:108B400012F5001215D211D56FF47873B3EB62529F
:108B500012D94FEAC12343F0004343EA505311F0C6
:108B6000004F23FA02F018BF404270474FF0000058
:108B7000704750EA013005D111F0004008BF6FF096
:108B8000004070474FF00000704700BF4FEA4102BD
:108B9000B2F1E04324BFB3F5001CDCF1FE5C0DD95B
:108BA00001F0004C4FEAC0024CEA5070B2F1004FA5
:108BB00040EB830008BF20F00100704711F0804FA8
:108BC00021D113F13872BCBF01F00040704741F46D
:108BD00080114FEA5252C2F11802C2F1200C10FA71
:108BE0000CF320FA02F018BF40F001004FEAC12355
:108BF0004FEAD32303FA0CFC40EA0C0023FA02F3F9
:108C00004FEA4303CCE77FEA625307D150EA0133CE
:108C10001EBF4FF0FE4040F44000704701F000409E
:108C200040F0FE4040F40000704700BF80F000407C
:108C300002E000BF81F0004142001FBF5FEA410334
:108C400092EA030F7FEA226C7FEA236C6AD04FEA34
:108C50001262D2EB1363C1BFD21841404840414079
:108C6000B8BF5B42192B88BF704710F0004F40F42B
:108C7000000020F07F4018BF404211F0004F41F447
:108C8000000121F07F4118BF494292EA030F3FD013
:108C9000A2F1010241FA03FC10EB0C00C3F1200326
:108CA00001FA03F100F0004302D5494260EB4000B5
:108CB000B0F5000F13D3B0F1807F06D340084FEA20
:108CC000310102F10102FE2A51D2B1F1004F40EB15
:108CD000C25008BF20F0010040EA0300704749007D
:108CE00040EB0000013A28BFB0F5000FEDD2B0FA1A
:108CF00080FCACF1080CB2EB0C0200FA0CF0AABF3D
:108D000000EBC25052421843BCBFD04018437047DA
:108D100092F0000F81F4000106BF80F400000132E0
:108D2000013BB5E74FEA41037FEA226C18BF7FEAB7
:108D3000236C21D092EA030F04D092F0000F08BFF9
:108D40000846704790EA010F1CBF0020704712F0E0
:108D50007F4F04D1400028BF40F00040704712F11F
:108D600000723CBF00F50000704700F0004343F084
:108D7000FE4040F4000070477FEA226216BF0846BA
:108D80007FEA23630146420206BF5FEA412390EA7D
:108D9000010F40F4800070474FF0000304E000BF73
:108DA00010F0004348BF40425FEA000C08BF704724
:108DB00043F0964301464FF000001CE050EA0102E8
:108DC00008BF70474FF000030AE000BF50EA0102FD
:108DD00008BF704711F0004302D5404261EB4101EA
:108DE0005FEA010C02BF84460146002043F0B6430F
:108DF00008BFA3F18053A3F50003BCFA8CF2083A34
:108E0000A3EBC25310DB01FA02FC634400FA02FC3C
:108E1000C2F12002BCF1004F20FA02F243EB020043
:108E200008BF20F00100704702F1200201FA02FCA5
:108E3000C2F1200250EA4C0021FA02F243EB020098
:108E400008BF20EADC70704753B94AB9002908BF4F
:108E500000281CBF4FF0FF314FF0FF3000F00CB87E
:108E6000ADF1080C6DE904CE0EF036FEDDF804E03D
:108E7000DDE9022304B07047704700BF0348044B8C
:108E8000834202D0034B03B1184770471C020020F5
:108E90001C020020000000000548064B1B1AD90FD9
:108EA00001EBA301491002D0034B03B118477047EF
:108EB0001C0200201C0200200000000010B5064C1F
:108EC000237843B9FFF7DAFF044B13B10448AFF33B
:108ED00000800123237010BD1C0200200000000050
:108EE0008083010808B5054B1BB105490548AFF360
:108EF0000080BDE80840FFF7CFBF00BF00000000C2
:108F000020020020808301082DE9FF4757EC106BF9
:108F1000002F0C4619463B46BBBF07F100431F46D6
:108F200000232D230B700D9BDDF830A0914623F01C
:108F30002008BCBF32461646B8F1460F05D0B8F13E
:108F4000450F00D10134022100E0032103AB01935E
:108F500002AB009347EC106B5346224600F0A8FD8D
:108F6000B8F1470F054619D119F0010F0ED000EBEB
:108F700004090022002330463946FFF797FD08B167
:108F8000CDF80C903022039B4B451ED3039B0E9AC9
:108F90005B1B2846136004B0BDE8F087B8F1460FAC
:108FA00000EB0409E5D10378302B0AD1002200231D
:108FB00030463946FFF77AFD18B9C4F10104CAF802
:108FC0000040DAF800309944D3E7591C03911A7035
:108FD000D9E7F7B50029BABF49422D232B23092928
:108FE0000270437029DD0DF107031D460A271A465A
:108FF000B1FBF7F607FB1614303402F8014C0C46AF
:10900000632C03F1FF333146F1DC3031941E03F859
:10901000011C411C2346AB420AD30DF109039B1AE4
:10902000AC4288BF002302330344181A03B0F0BDDA
:1090300013F8016B01F8016FEDE7302330318370D5
:10904000C170031DF1E700002DE9F04F8DB00C4613
:10905000DDF8588016461F46054600F09DFC036863
:1090600004931846FFF7ECF800230A93D8F8003071
:109070000590073323F0070303F1080294F818A0C2
:10908000D4F800B0C8F80020D3E9008929F00043E3
:109090000793CDF81880C4E91289DDE906019C4BDD
:1090A0004FF0FF32FFF734FD70BBDDE90601984B4E
:1090B0004FF0FF32FFF70EFD30BB00220023404689
:1090C0004946FFF7FDFC10B12D2384F84330914A47
:1090D000914BBAF1470F8CBF90469846032323610A
:1090E0002BF0040323604FF00009009733460BAACE
:1090F0002146284600F0D2F9013040F08D804FF033
:10910000FF300DB0BDE8F08F42464B464046494621
:10911000FFF7FEFC40B14B46002BBCBF2D2384F86B
:1091200043307E4A7E4BD4E763680AF0DF02069242
:109130005A1C3BD1062363604BF4806200232260FB
:1091400003930AABCDE901A309AB0093616849EC35
:10915000108B0DF123032846FFF7D6FE069B0999D5
:10916000472B804629D1C81C02DB6368994241DD48
:10917000AAF1020A5FFA8AFA0139524604F1500054
:109180000991FFF726FF0A9A1318012A81462361E5
:1091900002DC2268D20701D5013323619DF8233018
:1091A000002BA2D02D2384F843309EE7069A472A4D
:1091B000C2D1002BC0D10123BDE7BAF1650FDBD9C5
:1091C000BAF1660F18D1002963680BDD216113B96C
:1091D0002268D00702D501330B442361A1654FF00B
:1091E0000009DBE713B92268D20701D50233F4E79F
:1091F0000123F2E74FF0670A0A9B994205DB2368D7
:109200002161D807EAD54B1CE7E70029D4BFC1F19B
:10921000020201221344E0E723685A0507D42369B8
:10922000424631462846B84701302BD167E7BAF1AC
:10923000650F40F2DD80D4E9120100220023FFF720
:1092400035FC002833D0374A012331462846B84739
:1092500001303FF454AFDDE90938434502DB2368B0
:10926000D8070FD5DDE9042331462846B847013039
:109270003FF445AF4FF0000908F1FF3804F11A0A36
:10928000C84509DC23689B0700F10381E0680B9B5C
:109290009842B8BF184634E7012352463146284663
:1092A000B84701303FF42BAF09F10109E8E7099B0A
:1092B000002B39DC1B4A012331462846B8470130D0
:1092C0003FF41DAFDDE9093959EA030302D12368F0
:1092D000D907D7D5DDE9042331462846B847013000
:1092E0003FF40DAF4FF0000A04F11A0B099B5B42EB
:1092F000534501DC4B4693E701235A463146284645
:10930000B84701303FF4FBAE0AF1010AEEE700BFB7
:10931000FFFFEF7F0884010804840108108401081E
:109320000C84010814840108A36DDDF828A05345BE
:10933000A8BF5346002B994636DC4FF0000B29EAB4
:10934000E97904F11A02A36D0693A3EB09035B45C7
:1093500031DC099B9A453ADC2368DA0737D4099B4C
:10936000AAEB0309069BAAEB03039945A8BF9946FC
:10937000B9F1000F33DC4FF0000829EAE97904F174
:109380001A0B099BAAEB0303A3EB090343457FF7E1
:1093900079AF01235A4631462846B84701303FF499
:1093A000AEAE08F10108ECE7424631462846B84720
:1093B0000130C2D1A3E60123314628460692B847C0
:1093C00001303FF49CAE069A0BF1010BBBE7DDE9DF
:1093D000042331462846B8470130C0D18FE6069AAB
:1093E0004B46424431462846B8470130C3D186E651
:1093F000DDF828A0BAF1010F01DCDB0736D5012327
:10940000424631462846B84701303FF478AEDDE9A0
:10941000042331462846B84701303FF470AED4E902
:109420001201002200230AF1FF3AFFF73FFBC0B907
:10943000534608F1010231462846B84701300CD1A5
:109440005DE601235A4631462846B84701303FF4CD
:1094500056AE08F10108D045F3DB4B4604F150024B
:10946000DFE64FF0000804F11A0BF4E7012342464F
:10947000E1E701234A4631462846B84701303FF428
:109480003EAE08F10108E3680B995B1A4345F0DC36
:10949000FCE64FF0000804F11909F4E72DE9F04764
:1094A000164698468A680B69DDF820909342B8BF4B
:1094B0001346336091F8432007460C460AB1013346
:1094C00033602368990642BF3368023333602568EE
:1094D00015F0060506D104F1190AE36832689B1AF3
:1094E000AB4226DC94F843302268003B18BF0123CE
:1094F00092062BD404F1430241463846C847013056
:109500001ED02368226903F00603042B02BFE5681E
:109510003368ED1AA3680CBF25EAE5750025934270
:10952000C4BF9B1AED1800261A34B5421AD1002088
:1095300008E00123524641463846C847013003D16E
:109540004FF0FF30BDE8F0870135C6E7E1185A1C3F
:10955000302081F84300224494F8451082F84310EB
:109560000233C7E70123224641463846C847013047
:10957000E6D00136D9E700002DE9FF470F7E0C9EAB
:10958000782F914680460C469A4601F1430207D84F
:10959000622F0AD8002F00F0D180582F00F0B88039
:1095A00004F1420684F842703AE0A7F16303152BF8
:1095B000F6D801A151F823F011960008259600086D
:1095C000A1950008A1950008A1950008A1950008A3
:1095D00025960008A1950008A1950008A19500080E
:1095E000A1950008239700084F960008DD96000813
:1095F000A1950008A195000845970008A1950008CD
:109600004F960008A1950008A1950008E59600086E
:1096100033681A1D1B68326004F1420684F8423038
:1096200001239CE033682068191D3160060601D5CE
:109630001D6803E04506FBD5B3F90050002D03DAA1
:109640002D236D4284F8433058480A2311E02168E5
:109650003368080653F8045B02D4490648BFADB22C
:109660006F2F5248336014BF0A230823002184F867
:1096700043106668A660002E05DB21682E4321F0AA
:10968000040121604BD01646B5FBF3F103FB1157E3
:10969000C75D06F8017D2F46BB420D46F4D9082B65
:1096A0000BD12368DF0708D5236961689942DEBFC3
:1096B000302306F8013C06F1FF36921B2261CDF8FB
:1096C00000A04B4603AA21464046FFF7E7FE0130C3
:1096D0004AD14FF0FF3004B0BDE8F087236843F073
:1096E000200323603248782784F845702368316866
:1096F0001F0651F8045B02D45F0648BFADB231606B
:10970000D90744BF43F0200323601DB11023ADE708
:109710002648E9E7236823F020032360F6E716468E
:10972000BDE7336825686169181D30602E061B6827
:1097300001D5196002E06806FBD51980002323617A
:109740001646BCE733681A1D32601E686268002145
:109750003046FEF725FD08B1801B60606368236119
:10976000002384F84330AAE723693246494640463D
:10977000D0470130ADD023689B0713D4E068039B2A
:109780009842B8BF1846A6E70123324649464046EC
:10979000D04701309DD00135E36803995B1AAB4295
:1097A000F2DCEBE7002504F11906F5E71684010861
:1097B00027840108002310B50446C0E90033C0E93E
:1097C0000433836081814366C28183611946082224
:1097D0005C3000F0B1F80D4B63620D4BA3620D4B92
:1097E000E3620D4B23630D4B24629C4206D003F1D0
:1097F0006802944202D0D0339C4205D104F1580053
:10980000BDE8104000F0C4B810BD00BFDDAF0008D7
:10981000FFAF000837B000085BB000083802002036
:10982000024A0349034800F069B800BF0000002065
:1098300081A800081000002041680C4B994210B527
:10984000044601D001F01CF8A168094B994202D0EE
:10985000204601F015F8E168064B994204D02046F5
:10986000BDE8104001F00CB810BD00BF3802002068
:10987000A00200200803002010B50B4B0B4C0C4A33
:109880001A60204600220421FFF794FF04F16800CB
:1098900001220921FFF78EFF04F1D0000222BDE86A
:1098A00010401221FFF786BF70030020380200200D
:1098B00021980008014800F06CB800BF7503002033
:1098C000014800F067B800BF7503002010B50446DA
:1098D000FFF7F0FF236A1BB1BDE81040FFF7F0BFB0
:1098E000044B2362044B1B68002BF5D1FFF7C4FF28
:1098F000F2E700BF39980008700300202DE9F84313
:109900000746884614460026D4E90195B9F10109B5
:1099100005D52468002CF7D13046BDE8F883AB8923
:10992000012B07D9B5F90E30013303D0294638464B
:10993000C04706436835E9E702440346934200D135
:10994000704703F8011BF9E770B50D4D0D4C641B12
:10995000A4100026A64209D10B4D0C4C0EF010FDB0
:10996000641BA4100026A64205D170BD55F8043B27
:1099700098470136EEE755F8043B98470136F2E781
:1099800044AF010844AF010844AF010848AF0108E3
:109990007047704770470000004870474C01002036
:1099A0002DE9F74F03690C69A34207467EDB013CB2
:1099B00001F11408A30000F11405009305EB8403E2
:1099C000019358F8243055F8242001339A4208EBCB
:1099D0008409B2FBF3F62ED34FF0000AC446AE461C
:1099E000D3465CF8043B98B206FB00A0020C1B0CAB
:1099F00006FB0323DEF8002080B292B2121A5A440A
:109A0000DEF800004FEA134A9BB2C3EB224303EB9C
:109A1000104392B242EA0342E1454EF8042B4FEA6A
:109A2000234BDED2009BEB582BB9019B043B9D429C
:109A30001A462FD33C61384601F0C8F9002825DBCF
:109A40002946002058F8042BD1F800C01FFA82FEE6
:109A50001FFA8CF3A3EB0E030344120CC2EB234258
:109A600002EB1C429BB243EA0243C14541F8043B6E
:109A70004FEA2240E6D255F8242005EB840322B9B0
:109A8000043B9D421A460BD33C610136304603B07D
:109A9000BDE8F08F1268043B002ACBD1013CC6E739
:109AA0001268043B002AEFD1013CEAE70020EEE710
:109AB0002DE9F04FC76999B08DED040B55EC104BB3
:109AC000229E099183460E9213937FB9102000F0D5
:109AD000A9FD0246CBF81C0020B9A54BEF21A548F3
:109AE00001F024FBC0E901770760C760DBF81C3098
:109AF000196859B15A684A60012393408B605846EF
:109B000000F032FFDBF81C3000221A602B1EB9BFB8
:109B100023F00043059300233360059F964BBCBFA1
:109B200001223260BB4312D1139A42F20F731360C9
:109B3000C7F31303234300F04385239BDFF84CA2B4
:109B4000002B00F045850AF1030300F03FBD9DEDB9
:109B5000047B002251EC170B00238DED0C7BFEF7EC
:109B6000A5FF804658B1139A01231360239B13B1BC
:109B7000239A824B1360DFF818A200F029BD9DEDF7
:109B80000C0B16AA17A9584601F0D0F9C7F30A56CC
:109B90008146002E77D00D9BCDF85080C3F3130380
:109BA000DDE90C0143F07F5343F44013A6F2FF3686
:109BB00019460022724BFEF759FB67A3D3E9002335
:109BC000FEF70CFD66A3D3E90023FEF751FB044624
:109BD00030460D46FEF798FC63A3D3E90023FEF759
:109BE000FDFC02460B4620462946FEF741FB044693
:109BF0000D46FEF7A3FF0022074600232046294614
:109C0000FEF75EFF40B13846FEF77EFC22462B464B
:109C1000FEF74CFF00B9013F162F51D8594B03EB0B
:109C2000C703D3E90023DDE90C01FEF749FF002853
:109C300048D0013F00231293169B9B1B5A1E44BF22
:109C4000C3F101080023089254BF4FF000080893A5
:109C5000002F39DB089B0F973B44089300230A939E
:109C6000099B092B61D8052BC4BF043B0993099BB1
:109C7000A3F10203CCBF00240124032B61D8DFE849
:109C800003F05052352ADDE916631E4406F23243D2
:109C9000202BC1BFC3F140039F4006F2124324FAB8
:109CA00003F3D6BFC3F1200347EA030004FA03F02D
:109CB000FEF71AFC0122A1F1F873013E149277E736
:109CC0000123B8E71290B7E77B420A930023A8EB81
:109CD00007080F93C4E701230B930E9BFB18009317
:109CE0000133012B0393B8BF012306E001230B933B
:109CF0000E9B002B28DD00930393DBF81C00002152
:109D0000042202F114059D4223D94160584600F017
:109D1000EBFD824600283DD11B4B024640F2AF11BD
:109D2000DDE60023E3E70023D6E7012400230993BF
:109D30000B944FF0FF3300930393002212230E92F3
:109D4000DBE701230B93F4E70123009303931A4607
:109D5000F5E701315200D4E761436F63A787D23F33
:109D6000B3C8608B288AC63FFB799F501344D33F0A
:109D7000458401085C8401080000F07F1584010817
:109D80000000F83F78A80108BD840108418401085B
:109D900014840108DBF81C301860039B0E2B00F2C2
:109DA000A180002C00F09E80002F33DD9C4B07F03B
:109DB0000F0203EBC20393ED007BF8058DED067BEC
:109DC0004FEA271416D5974BDDE90C01D3E9082398
:109DD000FEF72EFDCDE9040104F00F040326914D9A
:109DE00054B9DDE90623DDE90401FEF721FDCDE9E3
:109DF000040128E00226F2E7E10708D5DDE90601C3
:109E0000D5E90023FEF7EAFBCDE90601013664102F
:109E10000835E5E700F0AF807C42814B814D04F0CE
:109E20000F0203EBC203D3E90023DDE90C01FEF7C7
:109E3000D5FBCDE90401241100230226002C40F0BB
:109E40008F80002BD3D1129BDDE90445002B00F05D
:109E50009480754B002220462946FEF731FE0028EB
:109E600000F08B80039B002B00F08780009B002B71
:109E700034DD7B1E069320466C4B00222946FEF7FC
:109E8000ADFBCDE90401009C01363046FEF73CFBFA
:109E9000DDE90423FEF7A2FB654B0022FEF7E8F99B
:109EA0000546A1F15076002C6AD1DDE90401614B31
:109EB0000022FEF7DBF902460B46CDE904232A46D1
:109EC0003346FEF71BFE002840F08782DDE90401DF
:109ED0002A4606F10043FEF7F3FD38BBDDE90C34FA
:109EE000CDE90434179B002BC0F258810E2F00F3EC
:109EF00055814B4B03EBC70393ED007B0E9B002B6F
:109F00008DED007B80F2E580039B002B00F3E18068
:109F10000CD1484B002251EC170BFEF75FFBDDE93B
:109F20000423FEF7E1FD002800F0558200242546B9
:109F30000E9BDB430693564600272146584600F009
:109F400013FD002D00F0BD802FB1AF4203D0394684
:109F5000584600F009FD2946584600F005FDB0E0DE
:109F6000E20705D5D5E90023FEF738FB01360123CA
:109F70006410083562E7022665E7039C069784E7CC
:109F8000274B0B9903EBC40353E9022354440029E4
:109F900054D029490020FEF74BFC33462A46FEF7F1
:109FA00065F9CDE910015646DDE90401FEF7C6FD6D
:109FB0000546FEF7A9FA02460B46DDE90401FEF765
:109FC00055F9303502460B46CDE9042306F8015B0E
:109FD000DDE91023FEF774FD002872D1DDE90423CA
:109FE00011490020FEF742F9DDE91023FEF768FD74
:109FF000002840F0B480A6423FF470AFDDE91001C4
:10A000000A4B0022FEF7EAFA084BCDE910010022C4
:10A01000DDE90401FEF7E2FACDE90401C4E700BF7F
:10A0200078A8010850A801080000F03F0000244073
:10A0300000001C40000014400000E03F314628466C
:10A04000FEF7CCFACDE9100115945646DDE904017E
:10A05000FEF774FD0546FEF757FA02460B46DDE9AA
:10A060000401FEF703F9303506F8015B02460B46A2
:10A07000A642CDE904234FF0000224D1AB4BDDE929
:10A080001001FEF7F5F802460B46DDE90401FEF784
:10A0900035FD002863D1DDE91023A4490020FEF737
:10A0A000E5F802460B46DDE90401FEF709FD00284C
:10A0B0003FF414AF159E731E159316F8013C302B18
:10A0C000F8D0069F3BE09A4BFEF788FACDE90401F1
:10A0D000BCE7DDE904455646DDE900232046294674
:10A0E000FEF7A6FBFEF72AFD8046FEF70DFADDE936
:10A0F0000023FEF773FA02460B462046294608F174
:10A100003004FEF7B3F806F8014B039DA6EB0A04F2
:10A11000A54202460B4634D1FEF7AAF8DDE900233A
:10A1200004460D46FEF7EAFCC0B9DDE900232046EF
:10A130002946FEF7BBFC10B118F0010F0ED14946BD
:10A14000584600F011FC00233370139B01371F6049
:10A15000239B002B00F03C821E6039E206973346B9
:10A160001E4613F8012D392A07D19A45F8D1069ACF
:10A170000132069230228AF800201A7801321A70D1
:10A180009FE76B4B0022FEF729FA002200230446CA
:10A190000D46FEF78BFC00289ED0D0E70B9A002AD4
:10A1A00000F0E180099A012A00F3C480149A002A81
:10A1B00000F0B78003F233430A9C4646089A012117
:10A1C0001A4458469844089200F082FC05465EB155
:10A1D000089B002B08DDB342089AA8BF3346A8EBC2
:10A1E0000308F61AD31A08930A9BF3B10B9B002BB2
:10A1F00000F0BD808CB129462246584600F020FD73
:10A200004A4601460546584600F078FC4946069005
:10A21000584600F0A9FB069B99460A9B1A1B04D0DE
:10A220004946584600F00CFD81460121584600F091
:10A230004FFC0F9B0446002B00F0CE811A460146CE
:10A24000584600F0FDFC099B012B044600F3958065
:10A25000049B002B40F08D80059BC3F31303002B60
:10A2600040F08980059B23F000431B0D1B052BB19B
:10A27000089B0133089308F1010801230A930F9BFF
:10A28000002B00F0AF81236904EB8303186900F011
:10A29000D3FBC0F12000089B184410F01F0077D0BA
:10A2A000C0F12003042B6BDD089BC0F11C000344AC
:10A2B000804406440893B8F1000F05DD4946424644
:10A2C000584600F017FD8146089B002B05DD21460E
:10A2D0001A46584600F00EFD0446129B002B59D03A
:10A2E0002146484600F072FD002853DA7B1E069393
:10A2F000494600230A22584600F058FB0B9B814632
:10A30000002B00F07181002329460A22584600F0F4
:10A310004DFB009B002B054667DC099B022B41DCB3
:10A3200063E0169BC3F1360346E700BF0000E03F41
:10A3300000002440039B5C1E0A9BA34209DB1C1BFC
:10A34000039B002BBFF639AF039BA8EB030600234A
:10A3500034E70A9B0F9A0A94E31A1A440F92039B5C
:10A36000464600242AE70A9C0B9D46462FE70A9A98
:10A3700056E7002382E7049B80E700230A9382E7E5
:10A3800099D0089A1C331A4498441E44089292E7C4
:10A390000346F6E7039B0697002B20DC0093099BFE
:10A3A000022B1EDD009B002B7FF4C2AD214605224F
:10A3B000584600F0FBFA01460446484600F006FD08
:10A3C00000287FF7B5AD5646312306F8013B069BC2
:10A3D00001330693B0E5039C06972546F3E7039BFC
:10A3E00000930B9B002B00F00381002E05DD294616
:10A3F0003246584600F07EFC05460A9B002B5AD098
:10A400006968584600F070FA064628B9834B024640
:10A4100040F2EF21FFF763BB2A690232920005F197
:10A420000C010C3000F074FE01223146584600F059
:10A4300061FC0AF101030393009B53440B93049BBB
:10A4400003F001032F460A930546039B2146013B77
:10A4500048460093FFF7A4FA3946049000F130080B
:10A46000484600F0B3FC2A4608902146584600F0C2
:10A47000C9FCC268064602BB0146484600F0A6FC7D
:10A480000246314658460E9200F06EFA099B0E9A2B
:10A49000039E42EA03010A9B194310D1B8F1390F18
:10A4A00029D0089B002B02DD049B03F13108009B9F
:10A4B00083F8008041E52846BBE70122E1E7089BDD
:10A4C000002B04DB09990B430A990B4320D1002A86
:10A4D000EDDD49460122584600F00CFC214681463C
:10A4E00000F074FC002803DCE1D118F0010FDED08D
:10A4F000B8F1390FD8D1009A3923137033461E466C
:10A50000013B16F8012C392A51D001321A7014E59A
:10A51000002A07DDB8F1390FEDD0009A08F10103E8
:10A5200013700AE5039B0B9A03F8018C934228D021
:10A53000494600230A22584600F038FAAF428146C5
:10A540004FF000034FF00A023946584607D100F099
:10A550002DFA07460546039B0133039375E700F088
:10A5600025FA2946074600230A22584600F01EFA1B
:10A570000546F0E7009B002BCCBF1E460126564443
:10A58000002749460122584600F0B4FB2146814687
:10A5900000F01CFC0028B1DC02D118F0010FADD195
:10A5A00033461E4613F8012D302AFAD0C5E49A45E9
:10A5B000A5D1069B0133069331238AF80030BCE411
:10A5C000239BDFF85CA01BB10AF10803239A1360F8
:10A5D000504619B0BDE8F08F099B012B7FF738AECC
:10A5E0000F9B0A93012056E6009B002B7FF7D7AE06
:10A5F000564621464846FFF7D3F900F1300806F8E1
:10A60000018B009BA6EB0A029342B3DD494600236F
:10A610000A22584600F0CAF98146EAE7BD840108DB
:10A6200038840108024B0146186800F025B800BFC5
:10A630000C00002070B50F4E0C463168054611B96C
:10A6400000F034FD30602146284600F02FFD431C09
:10A6500003D14FF0FF34204670BDC41C24F0030426
:10A66000A042F8D0211A284600F020FD0130F2D196
:10A67000EFE700BF780300202DE9F843CD1C25F05B
:10A68000030508350C2D38BF0C25002D064601DBCF
:10A69000A94204D90C2333600020BDE8F883DFF819
:10A6A000D48000F015F9D8F800301C4644BB294688
:10A6B0003046FFF7BFFF431C044658D1D8F800408E
:10A6C0002746002F43D1002C4BD023683946304613
:10A6D00004EB030900F0EAFC814542D121686D1AC0
:10A6E00029463046FFF7A6FF01303AD023682B44B5
:10A6F0002360D8F800305A6862BBC8F800700FE0D9
:10A700002268521B20D40B2A17D96119A342256055
:10A7100018BF5960636808BFC8F8001062514B60E9
:10A72000304600F0DBF804F10B00231D20F0070099
:10A73000C21A1CBF1B1AA350AFE76268A3420CBF2A
:10A74000C8F800205A60EBE723466468AEE73C4651
:10A750007F68B6E71A465B68A342FBD100235360CB
:10A76000DEE70C233360304600F0B8F894E705606C
:10A77000D6E700BF7C030020B1F90C202DE9F041A1
:10A78000160705460C4654D44B68002B02DC0B6CB4
:10A79000002B48DDE66A002E45D0002312F48052DB
:10A7A0002F68216A2B6030D0626DA389590705D5C7
:10A7B0006368D21A636B0BB1236CD21A0023E66A6A
:10A7C000216A2846B047431CA38906D129681D2960
:10A7D0002BD82A4ACA40D60727D500226260D9045E
:10A7E0002269226004D5421C01D12B6803B960653F
:10A7F000616B2F60B9B104F14403994202D028463D
:10A8000000F0C6FC002363630DE001232846B04737
:10A810000246501CC9D12B68002BC6D01D2B01D07D
:10A82000162B1ED12F60002022E043F040031BB204
:10A830001BE00F69002FF6D093070E6808BF4B6925
:10A840000F6018BF0023A6EB07088B60B8F1000F5C
:10A85000E9DD216AA66A43463A462846B047002801
:10A8600008DCB4F90C3043F04003A3814FF0FF3013
:10A87000BDE8F0810744A8EB0008E7E701004020AD
:10A8800038B50B6905460C4613B90025284638BD76
:10A8900018B1036A0BB9FFF719F8B4F90C30002BA3
:10A8A000F3D0626ED00704D4990502D4A06DFFF7EF
:10A8B00070F828462146FFF75FFF636EDA0705460A
:10A8C000E4D4A3899B05E1D4A06DFFF763F8DDE72D
:10A8D0000148FFF75EB800BF740300200148FFF78E
:10A8E00059B800BF7403002070B5C66904460D4610
:10A8F00076B91020FFF796FE0246E06120B9184BAA
:10A9000018486B2100F012FCC0E901660660C660C1
:10A91000E669F36883B1E369DB6853F82500B8B9E9
:10A92000012101FA05F6721D9200204600F01CFC80
:10A9300060B1C0E901560EE021220421204600F05A
:10A9400013FCE369F060DB68002BE4D1002070BDEC
:10A95000026843F825200023C0E90333F7E700BF6E
:10A9600045840108CE84010870B5C66905460C46C9
:10A9700076B91020FFF756FE0246E86120B9094B70
:10A9800009488F2100F0D2FBC0E901660660C6606D
:10A990003CB1EB696268DB6853F82210216043F830
:10A9A000224070BD45840108CE8401082DE9F041A4
:10A9B0000D6907460C461E4601F1140C0020DCF818
:10A9C000003099B202FB01611E0C0B0C02FB063336
:10A9D00089B2013001EB034185424CF8041B4FEA78
:10A9E0001346ECDC0EB3A368AB4219DC6168384651
:10A9F0000131FFF779FF804628B902460C4B0D481C
:10AA0000BA2100F093FB2269023204F10C0192009A
:10AA10000C3000F07DFB21463846FFF7A5FF444689
:10AA200004EB850301355E6125612046BDE8F081B8
:10AA3000BD840108CE840108B0F5803F034636BFCF
:10AA4000030400201020B3F1807F3CBF1B020830BC
:10AA5000B3F1805F3CBF1B010430B3F1804F3CBFBA
:10AA60009B000230002B05DB13F0804F00F101004A
:10AA700008BF202070470368024613F007000BD080
:10AA8000D90721D4980749BF5B089B0801201360B0
:10AA90005CBF13600220704799B209B91B0C1020EB
:10AAA000D9B209B908301B0A190704BF1B090430C1
:10AAB000990704BF9B080230D90703D45B0800F153
:10AAC000010003D0136070470020704720207047BA
:10AAD00010B50C460121FFF707FF024628B9054BC8
:10AAE000054840F2451100F021FB01234461036158
:10AAF00010BD00BFBD840108CE8401082DE9F04FD0
:10AB000017460A693B699A42A8BF3B468946A4BFDB
:10AB10000F4699463D69D9F810A0BB68796805EBE6
:10AB20000A06B34285B0B8BF0131FFF7DDFE30B988
:10AB30000246414B41484FF4B17100F0F7FA00F181
:10AB4000140404EB860E23460022734520D307F13C
:10AB5000140809F1140108EB850501EB8A0302933F
:10AB6000EB1B153B23F0030304331537BD4238BFFD
:10AB700004230193029B03918B420CD8002E03DD2A
:10AB80005EF8043D002B55D0066105B0BDE8F08F9E
:10AB900043F8042BD9E7B1F800A0BAF1000F1FD099
:10ABA000C446A14600275CF8042BD9F800301FFAF0
:10ABB00082FB9BB20AFB0B333B44D9F80070120CAA
:10ABC0003F0C0AFB027202EB13429BB243EA0243C0
:10ABD000654549F8043B4FEA1247E4D8019BE7502A
:10ABE000039BB3F802900431B9F1000F20D0236821
:10ABF0004746A4464FF0000AB7F800B0BCF8022060
:10AC000009FB0B2252449BB243EA02434CF8043B3B
:10AC100057F8043B4FEA134ABCF8003009FB0A33EB
:10AC200003EB1243BD424FEA134AE5D8019AA35001
:10AC300004349FE7013EA1E7BD840108CE840108EA
:10AC40002DE9F843154612F0030207460E4607D0D9
:10AC5000254C013A002354F82220FFF7A7FE0646B0
:10AC6000AD103DD0FC697CB91020FFF7DBFC02463B
:10AC7000F86128B91D4B1E4840F2B31100F056FA96
:10AC8000C0E901440460C460D7F81C80D8F80840CB
:10AC90004CB940F271213846FFF71AFF0023C8F87B
:10ACA0000800044603604FF00009EB070AD531465F
:10ACB00022463846FFF722FF314680463846FFF7E6
:10ACC00053FE46466D100BD0206838B92246214607
:10ACD0003846FFF713FF2060C0F800900446E4E711
:10ACE0003046BDE8F88300BF44A801084584010848
:10ACF000CE8401082DE9F0470C464968236903EB2F
:10AD00006218A368074691464FEA621A08F10106E5
:10AD1000B3420BDB3846FFF7E7FD054648B902466C
:10AD2000284B29484FF4EF7100F000FA01315B0025
:10AD3000EEE7002300F1140100F11002184653451C
:10AD400033DB20692AEAEA7A04F1140319F01F09B7
:10AD500001EB8A0103EB800C2BD0C9F1200E8A464F
:10AD60000022186800FA09F010434AF8040B53F85F
:10AD7000042B9C4522FA0EF2F3D8ACEB0403153BEE
:10AD800023F00303043304F11500604588BF042356
:10AD9000CA500AB108F10206013E38462E6121462A
:10ADA000FFF7E2FD2846BDE8F08742F8040F0133C3
:10ADB000C5E7043953F8042B41F8042F9C45F9D812
:10ADC000EAE700BFBD840108CE8401080A69034692
:10ADD0000069801A30B50ED11433143103EB8204AC
:10ADE00001EB820154F8045D51F8042D954203D023
:10ADF00005D24FF0FF3030BDA342F3D3FBE7012073
:10AE0000F9E700002DE9F74F894606461146484606
:10AE10001446FFF7DBFF051E12D129463046FFF727
:10AE200063FD024628B93F4B40F237213E4800F00F
:10AE30007DF90123C0E90435104603B0BDE8F08F69
:10AE4000BCBF4B46A1463046D9F80410BABF1C46D9
:10AE500001250025FFF748FD024618B9314B40F2A5
:10AE60004521E3E7D9F810702669C56009F11003A0
:10AE700009F1140504F1140E00F1140B05EB870819
:10AE80000EEB86060193D9464FF0000C019B5EF84D
:10AE9000040B53F804AF01931FFA8AF3194683B2E7
:10AEA000CB1A000C6344C0EB1A4000EB23409BB26A
:10AEB00043EA0043764549F8043B4FEA204CE5D885
:10AEC000331B153B23F0030315340433A64238BF6C
:10AED00004231D445B441E462C4644450ED308F112
:10AEE0000301491B21F00301033DA84538BF0021A0
:10AEF0000B4453F8041D91B117619DE754F8041BEE
:10AF0000E646080C1CFA81FC714400EB2C4089B227
:10AF100041EA004146F8041B4FEA204CDDE7013FBF
:10AF2000E7E700BFBD840108CE8401082DE9F7439F
:10AF30000F46012159EC108B1646FFF7D5FC04464D
:10AF400030B90246234B244840F20F3100F0EEF8AE
:10AF5000C9F30A55C9F313030DB143F480130193E8
:10AF6000B8F1000323D068460093FFF784FDDDE9C4
:10AF70000012D0B1C0F1200302FA03F30B43C24028
:10AF800063610192019BA361002B0CBF012202228D
:10AF90002261A5B1A5F2334505443D60C0F13500FD
:10AFA0003060204603B0BDE8F0836161EAE701A8A4
:10AFB000FFF761FD019B636120300122E8E704EBAC
:10AFC0008203A0F2324038601869FFF735FDC0EB0C
:10AFD0004210E5E7BD840108CE84010810B50C4697
:10AFE000B1F90E1000F050F80028ABBF636DA389D3
:10AFF0001B1823F48053ACBF6365A38110BD2DE9FA
:10B00000F0411F468B89DB0505460C46164605D5E3
:10B01000B1F90E100223002200F024F8A389B4F93C
:10B020000E1023F48053A38132463B462846BDE8E8
:10B03000F04100F04BB810B50C46B1F90E1000F01D
:10B0400011F8431CA38915BF606523F4805343F4B2
:10B050008053A38118BFA38110BDB1F90E1000F079
:10B0600047B8000038B5074D04460846114600228F
:10B070002A601A460CF004FD431C02D12B6803B170
:10B08000236038BD8003002038B5074D04460846CC
:10B09000114600222A601A460CF0DAFC431C02D149
:10B0A0002B6803B1236038BD8003002038B5064DFE
:10B0B0000023044608462B600CF09AFC431C02D186
:10B0C0002B6803B1236038BD8003002038B5074DDD
:10B0D00004460846114600222A601A4600F0FCFE8B
:10B0E000431C02D12B6803B1236038BD80030020CC
:10B0F00038B5064D0023044608462B600CF0B6FC1C
:10B10000431C02D12B6803B1236038BD80030020AB
:10B110000A44914200F1FF3300D1704710B511F895
:10B12000014B03F8014F9142F9D110BD1FB51446F0
:10B130001A46094B1B680546D8684CB1074B00916D
:10B14000CDE9013406492B4600F07EF800F09BF86B
:10B15000044B1C46F3E700BF0C00002038850108B3
:10B16000458501088785010870B5A1FB025434B9F3
:10B170002946FFF781FA064628B9304670BD0C22F1
:10B1800002600026F9E72A462146FEF7D5FBF4E7E0
:10B1900038B50546002941D051F8043C0C1F002B5E
:10B1A000B8BFE418FFF794FB1D4A136833B9636016
:10B1B00014602846BDE83840FFF790BBA34208D989
:10B1C000206821188B4201BF19685B68091821604B
:10B1D000EDE71A465B680BB1A342FAD91168501823
:10B1E000A0420BD120680144501883421160E0D185
:10B1F00018685B68536008441060DAE702D90C23D2
:10B200002B60D6E7206821188B4204BF19685B6861
:10B21000636004BF091821605460CAE738BD00BFED
:10B220007C03002082B001B901A942B14BB113786F
:10B230000B601278101E18BF012002B07047104634
:10B24000FBE76FF00100F8E70EB403B5014603AB6E
:10B25000054853F8042B0068019300F045F802B04C
:10B260005DF804EB03B070470C000020034608466D
:10B2700041B1FF2A04D98A221A604FF0FF3070478B
:10B280000A700120704708B5062000F07DFA012001
:10B290000CF0D8FB9368013B002B10B4936008DAE4
:10B2A0009469A34201DB0A2903D15DF8044B00F045
:10B2B00033B91368581C1060197008465DF8044BC8
:10B2C0007047F8B506460F461446D518AC4201D172
:10B2D000002007E014F8011B3A463046FFF7DAFF7A
:10B2E000431CF3D1F8BD00002DE9F04F0D469DB091
:10B2F00014469846064618B1036A0BB9FEF7E6FAFB
:10B300006B6ED90705D4AB899A0502D4A86DFEF7F8
:10B3100040FBAB891B0701D52B699BB929463046F9
:10B3200000F038F970B16B6EDC0704D54FF0FF30D8
:10B330001DB0BDE8F08FAB899805F7D4A86DFEF776
:10B3400029FBF3E70023099320238DF82930CDF85A
:10B350000C803023DFF8AC818DF82A304FF00109E2
:10B3600023469A4613F8012B0AB1252AF9D1BAEBE4
:10B37000040B0BD05B46224629463046FFF7A1FF5F
:10B38000013000F0A780099A5A4409929AF80030D7
:10B39000002B00F09F8000234FF0FF32CDE9052302
:10B3A0000AF1010A049307938DF853301A93544617
:10B3B000052214F8011B5348FCF7F2FE049AD8B991
:10B3C000D10644BF20238DF85330130744BF2B23ED
:10B3D0008DF853309AF800302A2B15D0079A54462E
:10B3E00000204FF00A0C214611F8013B303B092B9D
:10B3F0004BD9B0B1079214E0A0EB080309FA03F3AC
:10B4000013430493A246D2E7039B191D1B680391C3
:10B41000002BBBBF5B4242F0020207930793B8BF09
:10B42000049223782E2B0AD163782A2B32D1039BE6
:10B430001A1D1B68039243EAE37302340593DFF895
:10B44000D4A0217803225046FCF7AAFE38B1049B11
:10B45000A0EB0A004022824013430134049314F805
:10B46000011B29488DF828100622FCF799FE0028B8
:10B470003FD0264B1BBB039B073323F00703083346
:10B480000393099B3B4409936AE70CFB02320C4689
:10B490000120A8E700230134059319464FF00A0C58
:10B4A000204610F8012B303A092A03D9002BC6D0C8
:10B4B0000591C4E70CFB012104460123F0E703AB2F
:10B4C00000932A46124B04A93046FDF7BDFD0746FE
:10B4D000781CD6D16B6ED90705D4AB899A0502D4F6
:10B4E000A86DFEF757FAAB895B063FF51FAF0998C9
:10B4F0001EE703AB00932A46054B04A93046FEF72E
:10B500003BF8E4E7748501087E850108499000084E
:10B51000C3B200087A850108F8B50E461446054600
:10B5200018B1036A0BB9FEF7D1F9A369A360A38927
:10B530001A0701D5236943B92146284600F02AF8A5
:10B5400018B14FF0FF373846F8BD23682269981AC2
:10B550006369F6B28342374605DC21462846FFF789
:10B560008FF90028EDD1A368013BA36023685A1C22
:10B5700022601E706269431C9A4204D0A389DB07D3
:10B58000E1D50A2EDFD121462846FFF779F90028B8
:10B59000D9D0D6E738B5294B054618680C4618B1FE
:10B5A000036A0BB9FEF792F9B4F90C30190722D4EB
:10B5B000DA0607D409222A6043F04003A3814FF042
:10B5C000FF3033E0580712D5616B41B104F14403F9
:10B5D000994202D02846FFF7DBFD00236363A3896D
:10B5E00023F02403A3810023636023692360A389DC
:10B5F00043F00803A38123694BB9A38903F42073A3
:10B60000B3F5007F03D02146284600F03FF8B4F997
:10B610000C3013F001020AD00022A260626952428B
:10B62000A261226942B913F08000C5D138BD9907E3
:10B6300058BF6269A260F4E70020F7E70C00002021
:10B6400070B50C46B1F90E10002996B015461E468D
:10B650000DDAA38913F0800F4FF0000114BF4023CF
:10B660004FF48063002031602B6016B070BD6A46D5
:10B6700000F0B6F80028ECDB019901F47041A1F567
:10B680000053594259414FF48063EBE78B89F7B57A
:10B690009D0706460C4607D504F147032360236146
:10B6A0000123636103B0F0BD01AB6A46FFF7C8FF39
:10B6B000009F054639463046FEF7DEFF48B9B4F92B
:10B6C0000C309A05EED423F0030343F00203A38168
:10B6D000E2E7A389206043F08003A381019BC4E9D2
:10B6E00004075BB1B4F90E10304600F055F828B1EC
:10B6F000A38923F0030343F00103A381A3891D431E
:10B70000A581CFE7884210B501EB020402D984423B
:10B71000234607D8431EA14208D011F8012B03F895
:10B72000012FF8E7024401468A4200D110BD13F808
:10B73000014D02F8014DF7E71F2938B505460C46C3
:10B7400004D9162303604FF0FF3038BDC26B12B12D
:10B7500052F821304BB9284600F040F82246014605
:10B760002846BDE8384000F027B8012B0AD0591C04
:10B7700003D1162303600120E7E7002142F82410DB
:10B78000204698470020E0E7024B01461868FFF783
:10B79000D3BF00BF0C00002038B5064D002304467F
:10B7A00008462B600CF06AF9431C02D12B6803B1E8
:10B7B000236038BD8003002038B5074D00230446C0
:10B7C000084611462B600CF035F9431C02D12B685A
:10B7D00003B1236038BD00BF800300200CF028B9FE
:10B7E00038B5074D00230446084611462B600CF07F
:10B7F00040F9431C02D12B6803B1236038BD00BF60
:10B80000800300202DE9F041074614460D4621B97A
:10B81000BDE8F0411146FEF72FBF2AB9FFF7B8FC8B
:10B8200025462846BDE8F08100F01AF88442064615
:10B8300002D8B4EB500FF4D821463846FEF71CFF6F
:10B84000804608B94546ECE7B4422246294628BF5F
:10B850003246FFF75DFC29463846FFF799FCF1E7D1
:10B8600051F8043C181F002BBCBF0B58C018704780
:10B8700038B50546072445FA04F2114802F00102E2
:10B880004FF4805106F0A4FB0D4801224FF4804193
:10B8900006F09EFB0A4800224FF4804106F098FB18
:10B8A000013CE8D2064801224FF4005106F090FB1B
:10B8B000BDE83840024800224FF4005106F088BB32
:10B8C0000004024038B50D4614460146582204488B
:10B8D000FFF71EFC034B1D60034B1C8038BD00BFEF
:10B8E0008C0300208803002084030020034B198868
:10B8F000034B0022186806F06BBB00BF84030020D6
:10B9000088030020034B1988034B0122186806F0B6
:10B910005FBB00BF840300208803002010B5FFF741
:10B92000F1FF4021054806F04DFB0446FFF7DEFF1E
:10B93000B4FA84F04009C00010BD00BF000002400E
:10B940001FB596230A468DF80F0000930DF10F01E5
:10B950000123044809F0FAF8002818BF0A2005B0AE
:10B960005DF804FB8C03002013B504460DF10701BC
:10B97000000AFFF7E5FF20B90DF10701E0B2FFF77C
:10B98000DFFF02B010BD10B5FFF7C8FF0828FBD0DD
:10B99000FFF7B8FF4FF49850FFF7E6FF0446012089
:10B9A00006F0BCFDFFF7A2FF204610BD10B5FFF763
:10B9B000B5FF0828FBD0FFF7A5FF4FF48050FFF735
:10B9C000D3FF0446012006F0A9FDFFF78FFF2046B4
:10B9D00010BD37B504460D46FFF7A0FF0828FBD081
:10B9E00000232B808DF80730FFF78CFFC4F309008C
:10B9F00040F4C050FFF7B8FF044620B1FFF776FFD0
:10BA0000204603B030BD0DF10701FFF799FF044652
:10BA10000028F3D12B889DF8072043EA42232B808E
:10BA20000DF10701FFF78CFF04460028E6D12B88B3
:10BA30009DF8072043EA42032B800DF10701FFF731
:10BA40007FFF04460028D9D12B889DF8072043EAC0
:10BA5000D2132B80012006F061FDCFE7024470B5C0
:10BA600004460E4695B2AC4201D1002008E03146B2
:10BA70002046FFF7AEFF0134A4B202360028F2D010
:10BA800070BD73B506460D46FFF748FF0828FBD08A
:10BA900000238DF80730FFF776FF044658B9FFF70B
:10BAA00031FFC6F3090040F4A050FFF75DFF0446E4
:10BAB00020B1FFF71BFF204602B070BD280A0DF130
:10BAC00007018DF80700FFF73BFF04460028F0D17F
:10BAD000E8B20DF107018DF80700FFF731FF0446CA
:10BAE0000028E6D1FFF702FF022006F017FDFFF75E
:10BAF0005DFF0446DFE7024470B504468E1E95B232
:10BB0000AC4201D1002008E0204636F8021FFFF7C2
:10BB1000B8FF0134A4B20028F2D070BD37B5054695
:10BB2000FFF7FCFE0828FBD000238DF80730FFF755
:10BB30002AFF044648B9FFF7E5FE4FF48850FFF7A7
:10BB400013FF044620B1FFF7D1FE204603B030BDFD
:10BB5000280A0DF107018DF80700FFF7F1FE0446F2
:10BB60000028F0D1E8B20DF107018DF80700FFF7CA
:10BB7000E7FE04460028E6D1FFF7B8FE022006F0F3
:10BB8000CDFCFFF713FF0446DFE7000030B5144B90
:10BB9000144D85B00C46542201461846FFF7B8FAFA
:10BBA000114A90F83D30118892782C80242BADF802
:10BBB0000C108DF80E2005D103F054FD10B10A20B1
:10BBC00005B030BD29880648C8234900009303AA60
:10BBD000032301F0FE0107F06BF90028F0D0EEE737
:10BBE000E8030020E403002085850108F0B5044641
:10BBF00087B064200D4606F091FC2F4B1A889B7885
:10BC00008DF80E302D4BADF80C2093F83D30242BE1
:10BC100010D02B4F294839884FF0FF364900009645
:10BC2000032303AA01F0FE0107F042F938B10A200C
:10BC300007B0F0BD03F016FD0028EAD0F7E7398819
:10BC40001E4800964900062304AA01F0FE0107F0F1
:10BC500009FA0028EBD19DF81310BDF814209DF8C7
:10BC600011609FED187ADFED186A0B0452BA03F4E5
:10BC7000702392B21A439DF812301B0143EA063337
:10BC800043EA111307EE903AF8EEE77A67EE877A07
:10BC900067EEA67ADFED0D6AC5ED007A07EE902A11
:10BCA000F8EEE77A67EE877A9FED097AA7EEA67A33
:10BCB00084ED007ABCE700BF88850108E803002016
:10BCC000E4030020000080350000C8420000484323
:10BCD000000048C2064B07491B68074AB3FBF2F352
:10BCE000434348684A68121A9A42FBD3704700BF20
:10BCF00018020020001000E040420F001FB5084B62
:10BD00001B7818430A238DF80F0000930DF10F02E2
:10BD100001234E21034807F0CBF805B05DF804FB82
:10BD20003C0400204404002010B50446FFF7E6FF61
:10BD300044F00400FFF7E2FF1420FFF7CBFF04F00C
:10BD4000FB00FFF7DBFFBDE810401420FFF7C2BF88
:10BD500010B5044600F0F000FFF7E6FF200100F008
:10BD6000F000BDE81040FFF7DFBF10B5044620F03B
:10BD70000F0040F00100FFF7D7FF200140F0010065
:10BD8000BDE8104000F0F100FFF7CEBF08B501207C
:10BD9000FFF7DEFFBDE808404FF4FA60FFF79ABFF7
:10BDA00008B50220FFF7D4FFBDE808404FF4FA6061
:10BDB000FFF790BF064A137830B143F0040343F015
:10BDC00008001370FFF7C4BF03F0FB03F7E700BFE1
:10BDD0003F04002038B554220C4601462D482E4D14
:10BDE000FFF796F92D4B2E4A1C70022C4FF00803DA
:10BDF0002C4C2B7038BF04232370D2F8FC3043F056
:10BE00008073C2F8FC30284B1A6842F001021A60B5
:10BE100000225A6000BF00BF00BF322006F07EFB48
:10BE20002878FFF76BFFC82006F078FB3020FFF77B
:10BE30007BFF41F29410FFF74DFF3020FFF774FFB6
:10BE400041F29410FFF746FF3020FFF76DFF41F2FB
:10BE50009410FFF73FFF2020FFF766FF6420FFF7F5
:10BE600039FF207840F02000FFF772FF0F4B0422CB
:10BE700001201A70FFF79EFFFFF788FF0C4B02228C
:10BE800006201A70FFF764FFBDE8384041F29410B5
:10BE9000FFF720BF440400203C0400203D040020A4
:10BEA00000ED00E040040020001000E03F0400200E
:10BEB0003E040020C00000F0380038B540F04000DB
:10BEC0000C46FFF745FF651E073415F8010FFFF715
:10BED0004CFFA542F9D138BD10B5C823144603481C
:10BEE00092B209F006FD204610BD00BFB439002013
:10BEF000014BB3F8FD007047007F000870B50446A1
:10BF000040B3037833B3144E02461378144601321B
:10BF100003B3F35C1907F8D42046FCF791F9013814
:10BF200020448442054605D22B78F35C1B0700F1C0
:10BF3000FF30F6D42D1B013540F2FF339D4228BF60
:10BF40001D46064B2A46214618460CF09FF8002253
:10BF500042550446204670BD41A9010898040020BE
:10BF6000F0B50023134F01441C461D4688420DD1F5
:10BF7000002C08DDC4F10504A5400E4905F01F059D
:10BF8000495DD15401330021D154F0BD10F8016B4B
:10BF9000083446EA05251344042C01DC9B1AE5E726
:10BFA000053C45FA04F606F01F06BE5D03F8016B7A
:10BFB000F2E700BF56AA0108F0B58BB0044606F0C0
:10BFC000CDFA064606F0C4FA054606F0BBFA00BAFA
:10BFD00036BA03900C212DBA04AA01A80196029545
:10BFE0000C4EFFF7BDFF002319462D2712F8010B59
:10BFF000E51810B9E0540BB0F0BD31B106FB01FCFF
:10C00000BCF1333F9CBF01332F70E0540131013349
:10C01000ECE700BFCDCCCCCC2DE9F04F0778ADF6E6
:10C020002C0D06460C46002F36D15348534DFFF7D2
:10C03000C3FF534B5348B3F8FD6001F0C5F8524BB2
:10C04000ADF826701B78ADF8287003F00103002BC3
:10C050004E4B08BF1D4604D00AA90DF1260000F082
:10C06000F1FF4B4B444A1B680793BDF828300693F9
:10C07000BDF826304749CDE90453424BCDE9026370
:10C08000454B0193454B00932046454B0BF0BCFEBE
:10C090000DF62C0DBDE8F08F424904220BF0E4FFB1
:10C0A0000546002863D133794BB93F4B3F491A68A5
:10C0B00020460DF62C0DBDE8F04F0BF0A5BE301D4F
:10C0C000FFF71CFF0BF066FE431EDBB2042B4AD8C1
:10C0D000C3B2013B042B9DBF354A32F81360354A89
:10C0E0002E4698BF32F813500AAB374603EB46088A
:10C0F000B54211D2DFF8C890DFF8C8A0DFF8C8B0A9
:10C100002046FCF79DF8BBB29D4220440DD2204B47
:10C1100019680BF0D5FFBBE7414630460136FFF703
:10C1200058FCB6B208F10208E2E73A4649460BF07D
:10C130006BFE0AAB03EB470800262046FCF780F8AD
:10C14000013638F8022B51462044B6B20BF05CFEA3
:10C15000102EF2D12046FCF773F8594620440BF01C
:10C16000AFFF1037CCE7104B13491A68A0E70E4B0E
:10C1700012491A689CE700BF980800208B850108C7
:10C18000007F000887850108B00800208F8501081E
:10C19000E40100209A850108768601087886010866
:10C1A000148401087A860108E00100207F860108D6
:10C1B0004CAA010842AA0108D78601081F87010876
:10C1C000C7860108D1860108DEA001080D4B1B7847
:10C1D000DB0715D5012904D0022907D041B10A2077
:10C1E0007047094A137881400B4313700020704751
:10C1F000054901220B78824023EA02030B70F5E720
:10C2000001207047B6080020B208002008B5094B8D
:10C210001B7803F00303032B09D1021E18BF012270
:10C2200005484FF4004105F0D3FE002008BD012071
:10C23000FCE700BFB60800200004024008B5084B28
:10C240001878C30709D5C0F34000FFF7DFFF054B9F
:10C250001878FFF70DFB002008BD0120FCE700BFA8
:10C26000B6080020B208002037B50E4BADF8040028
:10C270001B78DB0713D501AD002435F8021BE0B2B3
:10C28000C9B2FFF7A3FF10B10A2003B030BD0134DB
:10C29000082CF2D1FFF7D2FF0028F6D0F4E70120F6
:10C2A000F3E700BFB6080020024602F00303013B9B
:10C2B000C1B25842584102F00C03042B01F0300384
:10C2C00008BF40F0020001F0C001102B08BF40F091
:10C2D0000400C2F307234029C2F3012208BF40F043
:10C2E0000800012A03F00C0208BF40F01000042AE5
:10C2F00003F0300208BF40F0200003F0C003102A12
:10C3000008BF40F04000402B08BF40F0800070475D
:10C3100038B50B4C0B4D2146284601F02BF858B987
:10C320002B78DB070AD52088FFF7BEFF064B187075
:10C33000BDE83840FFF782BF0A2038BD0120FCE786
:10C34000B4080020B6080020B20800200000000059
:10C3500070B5052205460E460146134806F0AAF9B7
:10C3600020B100200A243060204670BD322006F043
:10C37000D5F80D4806F02EFA04460028F1D12868B9
:10C380000028EED0FCF7B0F802460B4604A1D1E934
:10C390000001FCF74DFAFCF7F9FBE4E7AFF300808E
:10C3A00066666666E683B3403834002038B5074DCC
:10C3B0000024E1B2284601F0C1F828B90134032C69
:10C3C00005F10E05F5D138BD0A20FCE7B8080020BC
:10C3D000B5EE400AF1EE10FA10B507EE900A0C46E1
:10C3E00017D0F8EE677A67EE807A17EE900AFCF7BE
:10C3F0009DF809A3D3E90023FCF71AFA08A3D3E9AF
:10C400000023FCF715FAFCF7C1FB0346002023606C
:10C4100010BD00230A20FAE70000000000FEAF4034
:10C4200046175D74D145B73F2DE9F04F91B006A98D
:10C430000BA8FFF78DFF0A2803D10A2011B0BDE831
:10C44000F08F0025DFF8D4A0324C2F46002305F1F1
:10C4500003094AF8043B5FFA89F9234607AA04F165
:10C46000080C18685968164603C6083363453246F7
:10C47000F7D1186830609B88B380E1889DF81C80F4
:10C480000091218901916189029118F0010BA18924
:10C490006288A38803910AD159464846013501F0C4
:10C4A0009DFB032D04F10E04D0D10020C6E7CDE999
:10C4B00004230BAB03EB8501174B8E689DED060A39
:10C4C00003EB85013046FFF783FF0A28B5D018F04B
:10C4D000020F05D0049AB24202D8059BB34214D28F
:10C4E00018F0040F05D0009BB34202D8019BB34261
:10C4F0000DD218F0080F06D0029BB34203D8039B5D
:10C50000B34228BF03273946C7E75F46FBE7022748
:10C51000F9E700BFB8080020F0080020E408002078
:10C520002DE9F0411E46BDF81830079F012B0D463E
:10C53000144614D1037862F341030370294601F0D5
:10C540003BF80D4A0D4B0E49002C18BF13460693BD
:10C550006A1C33463846BDE8F0410BF055BC022B4F
:10C5600003D1037862F38203E7E7032BE6D1037874
:10C5700062F3C303E1E700BF5B870108638701083B
:10C580006C8701082DE9F0411F46BDF82030BDF849
:10C590001850BDF81C60012B0C46904611D1458007
:10C5A0008680214601F008F80B4B0C491B68069564
:10C5B000CDE90763621C43463846BDE8F0410BF005
:10C5C00023BC022B02D1C5800681EAE7032B04BFFE
:10C5D00045818681E5E700BFE40100207D870108F1
:10C5E00073B50E46154601A90A2204460BF0A8FCB5
:10C5F00003460198A04202D1012002B070BDB3F5FC
:10C60000805F01D30220F8E73380FFF777FC0190C9
:10C6100003787BB10A2201A90BF092FC019AA24295
:10C620000346E9D010780028E6D1B3F5805FE9D25F
:10C630002B80E2E70320E0E7022907D0032908D096
:10C64000012909D1054A06490BF0DEBB034A054919
:10C65000FAE7024A0449F7E7704700BFA4870108D8
:10C66000AA870108E5870108158801082DE9F04F20
:10C6700099B00023ADF81C30ADF81E309E4B144627
:10C68000C0EBC00203EB420308AA0646884603F14A
:10C690000807914618685968154603C50833BB4218
:10C6A0002A46F7D118682860944F9B88AB800FCF3B
:10C6B0000CAD0FC50FCF0FC597E80F0085E80F0031
:10C6C00098F80030002B4FD19DF82030DF0706F19D
:10C6D000010204D48A4920460BF096FB30E08949D8
:10C6E00020460BF091FB9DF820309E0720462AD56E
:10C6F000FBF7A6FDBDF82430BDF822208249204476
:10C700000BF082FB2046FBF79BFD9DF820305D0778
:10C7100020441FD5BDF82830BDF826207B490BF0FA
:10C7200073FB2046FBF78CFD9DF820301907204451
:10C7300014D5BDF82C30BDF82A2075490BF064FBE8
:10C7400019B0BDE8F08FFBF77BFD724920440BF078
:10C75000B7FCD7E770490BF0B3FCE2E76F4919B0BB
:10C76000BDE8F04F0BF0ACBC6D49DFF8D4B1062248
:10C7700040460BF079FC0CAF82460025BAF1000F61
:10C780000FD19DF82030314643F0010348468DF823
:10C79000203000F011FF634B63491B68721C204678
:10C7A000CCE70722594640460BF05EFC70B99DF875
:10C7B0002030314660F3000348468DF8203000F009
:10C7C000FBFE584B59491B68721CE8E77A683968C8
:10C7D000059240460BF048FC059A002840F0818005
:10C7E0009DF8203013F0010F4FEA051508D105F12F
:10C7F00060030DEB03054E4955F8283C721CCEE74B
:10C8000008EB0200FFF77AFB03788046A3B905F135
:10C8100060030DEB03059DF82030464A464913F0AE
:10C82000010F464B18BF1346009355F8283C721C65
:10C8300020460BF0E9FA83E7394906220BF014FC95
:10C8400005F160030DEB030A3AF8247C48B9CDE901
:10C8500000745AF8283C012231464846FFF760FE32
:10C860006EE70722364940460BF0FEFB024620B930
:10C87000CDE900745AF8283CEEE7012F9DF82020FE
:10C8800011D1C2F34003D207B1D5002BAFD007A915
:10C890000DF11E024046FFF7A3FE014670B120468F
:10C8A000FFF7CAFE4CE7022F02D1C2F38003EAE78A
:10C8B000032F0CBFC2F3C0030023E4E705F16003BC
:10C8C0000DEB0305BDF81E300193BDF81C3000933D
:10C8D000029755F8282C234631464846FFF752FE6A
:10C8E0002EE70135032D07F110077FF447AF154BF5
:10C8F00015491A68EFE600BFB808002098830108C0
:10C900003D8801084F8801087B880108BA88010822
:10C91000FA880108A3880108E28801082089010833
:10C9200036890108E40100203D8901085F8901087A
:10C930007A8901085B8701089489010863870108E7
:10C9400057890108E0010020A88901087FB5037814
:10C9500006460C46EBB91E4D1E492B781E4813F0B7
:10C96000010FAB7B2D7F0CBF0A46024613F0010F6F
:10C970000CBF0B46034615F0010F18BF01461748C0
:10C980000068CDE90010164920460BF03DFA04B0CE
:10C9900070BDA3F13102022A10D80DF10F008DF8FD
:10C9A0000F300BF0F7F90546701CFFF7A7FA013DB1
:10C9B00001462246E8B2FFF759FEE8E7094B0A496B
:10C9C0001A68204604B0BDE870400BF01DBA00BFE5
:10C9D000B8080020638701085B870108E401002094
:10C9E000E0890108E0010020398A010808B5074BF9
:10C9F0001B7803F00B030B2B05D10321062001F05C
:10CA0000EDF8002008BD0120FCE700BF90110020D8
:10CA100038B5114B1B7803F00703072B1AD10324F9
:10CA20000321062001F0DAF8054610B10A24204659
:10CA300038BD142005F072FD2946062001F0CEF81D
:10CA40000028F3D12820013C05F068FD14F0FF0414
:10CA5000E6D1ECE70124EAE79011002013B5034684
:10CA60001046084A126851B10749084C0968246801
:10CA7000CDE9001406490BF0C7F902B010BD054915
:10CA8000F3E700BFD4010020DC010020E401002016
:10CA90007E8A0108D80100202DE9F041DFF8E48109
:10CAA00088B0B8F80070ADF81C700C4606225F49DB
:10CAB00005460BF0D9FA80B99DF81C3007A843F061
:10CAC00002038DF81C3000F021FD22460121584858
:10CAD000FFF7C4FF08B0BDE8F08156490722284699
:10CAE0000BF0C2FA064658B99DF81C3060F34103BA
:10CAF00007A88DF81C3000F009FD22463146E6E714
:10CB00004D4E0A22316828460BF0AEFA90BBBB07A7
:10CB100028D50B354949022228460BF0A5FA78B9E9
:10CB20009DF81C3043F0040307A88DF81C3000F07A
:10CB3000EDFC9DF81C102246C1F380013068C7E768
:10CB40003F49032228460BF08FFA20B99DF81C308C
:10CB500060F38203E8E73B4B3B491A6820460BF041
:10CB600053F9B7E7374B394A1B68394920460BF070
:10CB70004BF9AFE73749052228460BF075FA30BB71
:10CB8000BF07EFD506352D49022228460BF06CFA77
:10CB900070B99DF81C3043F0080307A88DF81C30CD
:10CBA00000F0B4FC9DF81C102246C1F3C001C5E79B
:10CBB0002349032228460BF057FA20B99DF81C3070
:10CBC00060F3C303E9E71F4B23491A68C6E72B78D4
:10CBD00043BB98F80050214B15F002011B681ED092
:10CBE0001F4920480E682049204F214A3F6812689B
:10CBF00015F0040F18BF01462D0758BF1D4D1E48E4
:10CC000058BF2D680068009648BF3546CDE9011031
:10CC1000CDE90357194920460BF0F6F85AE72246AA
:10CC2000184655E7074B16491A6897E736890108F1
:10CC30008785010857890108D0010020788A0108FA
:10CC4000B48A0108E0010020B88A0108F18A0108CD
:10CC50002E8C01081D8B0108238B0108C8010020C0
:10CC6000DC010020878A01089D8A0108E401002078
:10CC7000D4010020D8010020CC010020578B0108EE
:10CC80006B8B0108901100200149FFF7C5B900BF67
:10CC9000FC080020014901F0F7BA00BFFC080020A1
:10CCA000014901F051BD00BFFC0800200149FFF718
:10CCB000F3BE00BFFC080020014901F09BBE00BF8D
:10CCC000FC0800200149FFF741BE00BFFC0800201E
:10CCD000014901F0F7B800BFFC080020F0B5294D6C
:10CCE00006460FCD93B003AC0FC40FCD0FC40FCDCC
:10CCF0000FC495E8070084E807003478224DECB9AA
:10CD000022492348224E234F0BF0DAF92048FBF743
:10CD100097FA55F834203946304401340BF074F852
:10CD20000F2CF3D11A48FBF78BFA1B4B1B491A68DF
:10CD3000304413B0BDE8F0400BF066B8002455F85D
:10CD40003470304639460BF073F970B912AB03EB0F
:10CD50008404114B12491B68009354F83C3C0C4866
:10CD60003A460BF051F813B0F0BD01340F2CE6D168
:10CD70000C4B0D491B680648324613B0BDE8F04025
:10CD80000BF042B8C883010878AA0108D28B0108C9
:10CD9000FC080020E88B0108E4010020F18B010869
:10CDA0001E8C0108E0010020338C010808B500F05A
:10CDB000D7F938B9054B06491A680648BDE8084056
:10CDC0000BF022B8044B05491A68F6E7E40100208D
:10CDD0006C8C0108FC080020E0010020838C010815
:10CDE00010B5482288B00C4601461348FEF790F96A
:10CDF000482221461148FEF78BF9114A114968462D
:10CE00000BF002F86846FBF71BFAC82382B26946AA
:10CE1000094808F06EFD10B10A2008B010BD684640
:10CE2000FBF70EFAC82382B26946044808F061FD98
:10CE30000028F2D0F0E700BF44110020FC100020D1
:10CE4000A18C0108AF8C01082DE9F043ADF5805DA0
:10CE500081B0054648B1012800F087800A252846A0
:10CE60000DF5805D01B0BDE8F0834E4B1B78DA070D
:10CE700040F196804C4F4D4E4D484FF400620021DA
:10CE8000FCF75AFD00223C88331913F8013C0D2BA6
:10CE900073D00A2B71D04FF4006200216846FCF772
:10CEA0004BFD621C31466846FEF732F94FF40062D2
:10CEB0000DEB020000213F4CFCF73EFD6A460DF5EC
:10CEC000006012F8013B002B5CD13B4E1C4698469B
:10CED000D6F800904846FBF7B3F9494607460246A4
:10CEE0000DF500600BF0C0F838B90DF50063D819E6
:10CEF000FFF704F873689847012408F10108B8F1B6
:10CF00000F0F06F10806E3D144B99DF800382BB1A4
:10CF10002A4B2B491A6826480AF076FF012D4FF458
:10CF200000624FF0000136D02048264CFCF704FD8B
:10CF30001F4D2B7873B12846FBF782F9C82382B2C4
:10CF40002946204608F0D5FC08B100F090FC64208A
:10CF500005F0E4FA1C49C8230D22204608F0C9FC5C
:10CF600008B100F084FC002579E70E4B5B781B07C5
:10CF70007FF575AF154F164E7EE7013CA4B23C809D
:10CF8000325580E7E15C01F00301012908BF20333D
:10CF900000F8013B95E70E480E4CFCF7CDFCC7E7C7
:10CFA00001255CE70832002006220020082A002024
:10CFB000FC08002041A9010878AA0108E00100202E
:10CFC000B48C010844110020A18C01080422002027
:10CFD00008220020FC100020024B03491A68034875
:10CFE0000AF012BFE0010020E88C0108FC080020D4
:10CFF000FFF7F2BFFFF7F0BFFFF7EEBFFFF7ECBFA1
:10D00000FFF7EABFFFF7E8BF07B500200DF1060103
:10D01000FEF7DFFC90B9BDF8062043F63E639A4266
:10D02000074B1A7813BF60F3000242F001021A7036
:10D030001A7018BF042003B05DF804FB0A20FAE759
:10D04000B008002038B505460C46FFF7DDFF68B193
:10D0500029460120FEF7BDFC08B10A2038BD214653
:10D060000220FEF7B6FC0028F8D0F6E70420F5E72A
:10D0700070B586B01822002104466846FCF75CFCB7
:10D080000C2269460320FEF7E9FC70B96B460246A4
:10D09000651C33F8021B0E0A04F8126005F8121022
:10D0A00001320C2AF5D106B070BD0A20FBE730B57D
:10D0B0009BB0FEF71DFF0DF1060104460F20FEF7A1
:10D0C00088FC18B10A2420461BB030BDBDF80630DC
:10D0D000A3423DD102A8FEF76FFF1822002108A845
:10D0E000FCF72AFC02AB08A800221C785978013210
:10D0F00041EA04210C2A20F8021B03F10203F4D1B7
:10D100000EA8FFF7B5FF04460028DBD10146182220
:10D1100014A8FCF711FC25460EAB14A918785A7810
:10D12000013542EA00220C2D21F8022B03F1020303
:10D13000F4D1182214A908A80AF06AFF0028C2D066
:10D140002A4608A90320FEF7D6FC0028BBD0B9E781
:10D1500021460F20FEF795FC0028BBD0B2E7000067
:10D1600007B543F63E610020FEF78BFC18B10A209C
:10D1700003B05DF804FB03210120FEF782FC0028C8
:10D18000F5D1FFF794FF0028F1D1ADF80400ADF818
:10D1900006000DF1060101A8FFF754FF0A28E6D0AA
:10D1A000BDF80610013189B20220ADF80610FEF775
:10D1B00068FC0028DBD1034A137843F001031370A5
:10D1C000D6E700BFB00800207FB500230446052243
:10D1D00001A91020CDE90133ADF80C30FEF73EFC7B
:10D1E00070B901AB0246651C33F8021B0E0A04F845
:10D1F000126005F812100132052AF5D104B070BD95
:10D200000A20FBE770B586B014220021044601A86D
:10D21000FCF792FB0A2201A91520FEF71FFC70B94A
:10D2200001AB0246651C33F8021B0E0A04F81260BB
:10D2300005F8121001320A2AF5D106B070BD0A2095
:10D24000FBE70000F0B587B004461422002101A8D6
:10D25000194EFCF771FB002501A8671C14F8153066
:10D26000F25C02F00302022A08BF203BDAB217F890
:10D270001530F15C01F00301022908BF203BDBB24D
:10D28000013543EA02230A2D20F8023BE6D12A4663
:10D2900001A91520FEF72FFC58B9084A234604F1CE
:10D2A000140153F8044B42F8044B8B42F9D107B0F8
:10D2B000F0BD2846FBE700BF41A90108303200203D
:10D2C00013B5044669463020FEF783FB10B10A20EF
:10D2D00002B010BD01A93120FEF77BFB0028F6D17A
:10D2E0000DF102013220FEF774FB0028EFD10DF1A1
:10D2F00006013320FEF76DFB0028E8D1BDF80030B1
:10D300005A1E534253412370BDF80230591E4B42FE
:10D310004B416370BDF806306380D9E7F8B50178FA
:10D320004678478885880039044618BF0121302097
:10D33000FEF7A7FB08B10A20F8BD39463120FEF7F9
:10D34000A0FB0028F7D1311E18BF01213220FEF7C3
:10D3500098FB0028EFD129463320FEF792FB0028E6
:10D36000E9D1034B22681A60A2889A80E4E700BFE3
:10D370009C11002037B505460C46022201A9342035
:10D38000FEF76CFB90B92A78BDF8043022F0030256
:10D3900003F0030313432B70BDF806309DF80620FD
:10D3A00003F47F431343238003B030BD0A20FBE71F
:10D3B00013B504460DF106013620FEF70AFBA8B9A5
:10D3C000BDF80620910002F03F0301F4E0610B4339
:10D3D000910001F40061920A0B4343EA0233228870
:10D3E00002F0C0021343238002B010BD0A20FBE705
:10D3F000417838B5037801F0070203F03F0343EAB0
:10D400008213C1F3C00243EA42230909054643EAF5
:10D4100081213620FEF735FB044640B9054B2A68CA
:10D42000054906481A6001F0C9F8204638BD0A24AB
:10D43000FBE700BF083200206C390020B43900201F
:10D4400013B50222044601A93720FEF707FB38B9BD
:10D45000BDF804302380BDF80630A37002B010BDC3
:10D460000A20FBE713B50322044669463920FEF77C
:10D47000F5FA60B9BDF800302380BDF8023003F042
:10D480000303A370BDF80430A38002B010BD0A20CE
:10D49000FBE713B504460DF106013C20FEF799FAAF
:10D4A00020B9BDF80630237002B010BD0A20FBE79A
:10D4B00013B504460DF106013E20FEF78AFA50B975
:10D4C0002278BDF8063022F00F0203F00F03134359
:10D4D000237002B010BD0A20FBE713B504460DF11E
:10D4E00006013F20FEF775FA68B9BDF806309DF8D1
:10D4F000062003F44073134322886FF30902134399
:10D50000238002B010BD0A20FBE7000043780178B9
:10D5100003F0010241EA0221C3F3400310B541EADE
:10D52000432104463F20FEF7ACFA18B9024B22888B
:10D530001A8010BD0A20FCE79011002030B50229A6
:10D5400089B0044602D90A2009B030BD081D102256
:10D5500069460001FEF782FA0028F4D1BDF80C20DC
:10D56000BDF80030BDF80A106280BDF80E20A28020
:10D57000BDF81220BDF81450E58001F0010103F060
:10D58000010302F0010243EA410343EA8203BDF8CA
:10D590001A20BDF81650258102F0010243EAC203A9
:10D5A000227822F00F0213432370BDF81C306381F0
:10D5B000BDF81E30A381C7E730B5022989B0044603
:10D5C0000D4602D90A2009B030BD037803F00102EC
:10D5D000ADF80020C3F34002ADF80A204288ADF850
:10D5E0000C208288ADF80E20C3F38002C3F3C00381
:10D5F000ADF81220ADF81A30C2884389ADF8142076
:10D60000ADF81C3002898389ADF81620081D102260
:10D6100069460001ADF81E30FEF76DFA0028D1D141
:10D62000074BC5EBC50503EB450304F10C0254F8A9
:10D63000041B43F8041B9442F9D122881A80C2E7E4
:10D64000B808002030B5012985B0044602D90A2067
:10D6500005B030BD0131C1EBC10301EB031008225D
:10D66000694680B2FEF7FAF90028F0D1BDF8022031
:10D670009DF80250BDF80430BDF8001002F47F425E
:10D680002A432280A27803F01F0322F01F021343D3
:10D69000A370BDF80A20BDF80630A380BDF808309D
:10D6A000E380530001F0010103F002030B4351003A
:10D6B00001F03C01520002F4E0720B431343228953
:10D6C0006FF3080213432381C2E710B5182988B00D
:10D6D000044602D90A2008B010BD01F10E00102244
:10D6E00069460001FEF7BAF90028F3D1BDF802201F
:10D6F000BDF800306280BDF80420A280BDF806208D
:10D700009DF8081003F00F0343EA0213BDF8082048
:10D71000237002F47F420A43BDF80A30E280227A85
:10D7200003F01F0322F01F0213432372BDF80C30D5
:10D730006381BDF80E30A381BDF81230BDF8102012
:10D740005B0002F0010203F00E031343BDF8142046
:10D750001201D2B21343BDF81820120202F48072F3
:10D760001343BDF81A20520202F460621343BDF85D
:10D770001C2043EA0233E381ADE770B50929A0B06C
:10D78000044616D848012022694600F51C70FEF7B1
:10D7900065F970B96A460346651C32F8021B0E0A29
:10D7A00004F8136005F813100133202BF5D120B0D5
:10D7B00070BD0A20FBE7F0B50929A1B00B4602D9DC
:10D7C0000A2021B0F0BD6C4600222146471C10F80B
:10D7D000126017F81250013245EA0625202A24F873
:10D7E000025BF4D1580100F51C70FEF784F90028A3
:10D7F000E7D0E5E770B5042990B0044616D801F1EA
:10D800003B00102269460001FEF728F970B96A460C
:10D810000346651C32F8021B0E0A04F8136005F873
:10D8200013100133102BF5D110B070BD0A20FBE7A7
:10D83000F0B5042991B00B4602D90A2011B0F0BD11
:10D840006C4600222146471C10F8126017F812504F
:10D85000013245EA0625102A24F8025BF4D103F1CF
:10D860003B000001FEF747F90028E7D0E5E772B674
:10D87000FEE7000070B5124D124E2C7814F0010432
:10D8800000D070BD304605F08EFD0321204600F02B
:10D89000A5F94FF4967004F041FE0321012000F039
:10D8A0009DF94FF4967004F039FE6B789B07E4D530
:10D8B0002046FFF7C9FA6B7864F341036B70DCE72D
:10D8C000B0080020D43400201D4B13B51C7814F090
:10D8D000010432D11B4AADF80240137823F0110342
:10D8E00043F011030DF1020120461370FEF771F8A9
:10D8F000BDF8022043F63E639A4202D02046FEF76E
:10D900000DF9114B1B68019303F0C00343F01F0393
:10D9100001A88DF80430FFF76BFD0C490C4800F0AE
:10D920004DFE0A490A48FFF75BFA01F00FF800F0D4
:10D93000B9FAFFF75BF8FFF79DFF02B010BD00BF1B
:10D94000B008002090110020083200206C3900201F
:10D95000B43900202DE9F0473F4CDFF818813F4EE5
:10D9600005463F480AF04CFB00F0F0FF00F09AFA41
:10D97000637823F0010363700A27404605F013FD26
:10D98000DFF8F4904FF40041304604F01BFB63785D
:10D9900003F001030343DBB2002B3AD0032107203D
:10D9A00000F01CF90021084600F018F9284604F0A0
:10D9B000B5FD0321002000F011F90021072000F03F
:10D9C0000DF9284604F0AAFD23785A0632D54FF403
:10D9D0000041304604F0F6FA002839D121480AF017
:10D9E0000FFB0021084600F0F9F80021072000F0A5
:10D9F000F5F80021062000F0F1F8238823F4F073F5
:10DA0000238000F087FFBDE8F0471749174800F072
:10DA1000DFB948460AF0F4FA00F076FC82460028A6
:10DA2000B0D113480AF0ECFA637843F00103637055
:10DA30005746A7E74FF40041304604F0C3FA0128E7
:10DA400002BF237843F04003237023785B06BED4E3
:10DA5000002F92D1C2E700BFB008002000000240B2
:10DA6000E1A001083BA10108843600203C360020DB
:10DA70001EA10108D4340020F8A0010808B5134BFA
:10DA80001B781F2B05D80021BDE80840072000F0B7
:10DA9000A5B813F0600F0BD00D4B1B78D90705D537
:10DAA000BDE808404FF49670FFF754BF0221EBE742
:10DAB0001A0609D5064B1B78DB0703D54FF47A709D
:10DAC000FFF748FF0121DFE708BD00BFB0080020D5
:10DAD0009A11002025490B78024613F0010043D02B
